{
  "_format": "hh-sol-artifact-1",
  "contractName": "Tution",
  "sourceName": "contracts/Tution.sol",
  "abi": [
    {
      "inputs": [],
      "name": "InvalidInitialization",
      "type": "error"
    },
    {
      "inputs": [],
      "name": "NotInitializing",
      "type": "error"
    },
    {
      "inputs": [
        {
          "internalType": "address",
          "name": "owner",
          "type": "address"
        }
      ],
      "name": "OwnableInvalidOwner",
      "type": "error"
    },
    {
      "inputs": [
        {
          "internalType": "address",
          "name": "account",
          "type": "address"
        }
      ],
      "name": "OwnableUnauthorizedAccount",
      "type": "error"
    },
    {
      "inputs": [],
      "name": "ReentrancyGuardReentrantCall",
      "type": "error"
    },
    {
      "inputs": [
        {
          "internalType": "address",
          "name": "token",
          "type": "address"
        }
      ],
      "name": "SafeERC20FailedOperation",
      "type": "error"
    },
    {
      "anonymous": false,
      "inputs": [
        {
          "indexed": false,
          "internalType": "uint64",
          "name": "version",
          "type": "uint64"
        }
      ],
      "name": "Initialized",
      "type": "event"
    },
    {
      "anonymous": false,
      "inputs": [
        {
          "indexed": true,
          "internalType": "address",
          "name": "previousOwner",
          "type": "address"
        },
        {
          "indexed": true,
          "internalType": "address",
          "name": "newOwner",
          "type": "address"
        }
      ],
      "name": "OwnershipTransferred",
      "type": "event"
    },
    {
      "inputs": [
        {
          "internalType": "uint256",
          "name": "_tution",
          "type": "uint256"
        },
        {
          "internalType": "uint32",
          "name": "_start",
          "type": "uint32"
        },
        {
          "internalType": "uint32",
          "name": "_end",
          "type": "uint32"
        }
      ],
      "name": "AcademicTermUpdate",
      "outputs": [],
      "stateMutability": "nonpayable",
      "type": "function"
    },
    {
      "inputs": [
        {
          "internalType": "uint128",
          "name": "",
          "type": "uint128"
        }
      ],
      "name": "academicTerm",
      "outputs": [
        {
          "internalType": "uint256",
          "name": "tution",
          "type": "uint256"
        },
        {
          "internalType": "address",
          "name": "school",
          "type": "address"
        },
        {
          "internalType": "uint128",
          "name": "termId",
          "type": "uint128"
        },
        {
          "internalType": "bool",
          "name": "hasStarted",
          "type": "bool"
        },
        {
          "internalType": "bool",
          "name": "hasEnded",
          "type": "bool"
        },
        {
          "internalType": "uint32",
          "name": "start",
          "type": "uint32"
        },
        {
          "internalType": "uint32",
          "name": "end",
          "type": "uint32"
        }
      ],
      "stateMutability": "view",
      "type": "function"
    },
    {
      "inputs": [
        {
          "internalType": "address",
          "name": "_school",
          "type": "address"
        }
      ],
      "name": "activateSchool",
      "outputs": [],
      "stateMutability": "nonpayable",
      "type": "function"
    },
    {
      "inputs": [
        {
          "internalType": "uint256",
          "name": "",
          "type": "uint256"
        }
      ],
      "name": "autoPayers",
      "outputs": [
        {
          "internalType": "address",
          "name": "",
          "type": "address"
        }
      ],
      "stateMutability": "view",
      "type": "function"
    },
    {
      "inputs": [],
      "name": "canselAutoPayments",
      "outputs": [],
      "stateMutability": "nonpayable",
      "type": "function"
    },
    {
      "inputs": [
        {
          "internalType": "bytes",
          "name": "",
          "type": "bytes"
        }
      ],
      "name": "checkUpkeep",
      "outputs": [
        {
          "internalType": "bool",
          "name": "upkeepNeeded",
          "type": "bool"
        },
        {
          "internalType": "bytes",
          "name": "performData",
          "type": "bytes"
        }
      ],
      "stateMutability": "view",
      "type": "function"
    },
    {
      "inputs": [
        {
          "internalType": "uint256",
          "name": "_amount",
          "type": "uint256"
        }
      ],
      "name": "clientDeposit",
      "outputs": [],
      "stateMutability": "nonpayable",
      "type": "function"
    },
    {
      "inputs": [
        {
          "internalType": "uint256",
          "name": "_amount",
          "type": "uint256"
        }
      ],
      "name": "clientWithdraw",
      "outputs": [],
      "stateMutability": "nonpayable",
      "type": "function"
    },
    {
      "inputs": [
        {
          "internalType": "address",
          "name": "_school",
          "type": "address"
        }
      ],
      "name": "deactivateSchool",
      "outputs": [],
      "stateMutability": "nonpayable",
      "type": "function"
    },
    {
      "inputs": [],
      "name": "getClient",
      "outputs": [
        {
          "components": [
            {
              "internalType": "uint256",
              "name": "balance",
              "type": "uint256"
            },
            {
              "internalType": "uint256",
              "name": "termPayments",
              "type": "uint256"
            },
            {
              "internalType": "uint256",
              "name": "autoPayments",
              "type": "uint256"
            },
            {
              "internalType": "uint256",
              "name": "debts",
              "type": "uint256"
            },
            {
              "internalType": "address",
              "name": "client",
              "type": "address"
            },
            {
              "internalType": "address",
              "name": "school",
              "type": "address"
            },
            {
              "internalType": "bool",
              "name": "hasAutoPayments",
              "type": "bool"
            },
            {
              "internalType": "bytes32",
              "name": "studentName",
              "type": "bytes32"
            },
            {
              "internalType": "bytes32",
              "name": "studentClass",
              "type": "bytes32"
            }
          ],
          "internalType": "struct Tution.Payer",
          "name": "",
          "type": "tuple"
        }
      ],
      "stateMutability": "view",
      "type": "function"
    },
    {
      "inputs": [
        {
          "internalType": "address",
          "name": "_user",
          "type": "address"
        }
      ],
      "name": "getReceipt",
      "outputs": [
        {
          "components": [
            {
              "internalType": "uint256",
              "name": "time",
              "type": "uint256"
            },
            {
              "internalType": "uint256",
              "name": "amount",
              "type": "uint256"
            },
            {
              "internalType": "uint256",
              "name": "balance",
              "type": "uint256"
            },
            {
              "internalType": "address",
              "name": "payer",
              "type": "address"
            },
            {
              "internalType": "address",
              "name": "school",
              "type": "address"
            },
            {
              "internalType": "bool",
              "name": "cleared",
              "type": "bool"
            },
            {
              "internalType": "bytes32",
              "name": "student",
              "type": "bytes32"
            },
            {
              "internalType": "bytes32",
              "name": "class",
              "type": "bytes32"
            }
          ],
          "internalType": "struct Tution.Receipt",
          "name": "",
          "type": "tuple"
        }
      ],
      "stateMutability": "view",
      "type": "function"
    },
    {
      "inputs": [
        {
          "internalType": "address",
          "name": "_school",
          "type": "address"
        }
      ],
      "name": "getSchoolInfo",
      "outputs": [
        {
          "components": [
            {
              "internalType": "uint256",
              "name": "balance",
              "type": "uint256"
            },
            {
              "internalType": "uint256",
              "name": "tution",
              "type": "uint256"
            },
            {
              "internalType": "address",
              "name": "school",
              "type": "address"
            },
            {
              "internalType": "bool",
              "name": "isRegistered",
              "type": "bool"
            },
            {
              "internalType": "bool",
              "name": "isActive",
              "type": "bool"
            },
            {
              "internalType": "uint32",
              "name": "schoolId",
              "type": "uint32"
            },
            {
              "internalType": "bytes32",
              "name": "name",
              "type": "bytes32"
            }
          ],
          "internalType": "struct Tution.School",
          "name": "",
          "type": "tuple"
        }
      ],
      "stateMutability": "view",
      "type": "function"
    },
    {
      "inputs": [
        {
          "internalType": "address",
          "name": "_schoolAddr",
          "type": "address"
        }
      ],
      "name": "getacademicTerm",
      "outputs": [
        {
          "components": [
            {
              "internalType": "uint256",
              "name": "tution",
              "type": "uint256"
            },
            {
              "internalType": "address",
              "name": "school",
              "type": "address"
            },
            {
              "internalType": "uint128",
              "name": "termId",
              "type": "uint128"
            },
            {
              "internalType": "bool",
              "name": "hasStarted",
              "type": "bool"
            },
            {
              "internalType": "bool",
              "name": "hasEnded",
              "type": "bool"
            },
            {
              "internalType": "uint32",
              "name": "start",
              "type": "uint32"
            },
            {
              "internalType": "uint32",
              "name": "end",
              "type": "uint32"
            }
          ],
          "internalType": "struct Tution.AcademicTerm",
          "name": "",
          "type": "tuple"
        }
      ],
      "stateMutability": "view",
      "type": "function"
    },
    {
      "inputs": [
        {
          "internalType": "address",
          "name": "_tokenUsed",
          "type": "address"
        }
      ],
      "name": "initialize",
      "outputs": [],
      "stateMutability": "nonpayable",
      "type": "function"
    },
    {
      "inputs": [],
      "name": "newSchoolId",
      "outputs": [
        {
          "internalType": "uint32",
          "name": "",
          "type": "uint32"
        }
      ],
      "stateMutability": "view",
      "type": "function"
    },
    {
      "inputs": [],
      "name": "owner",
      "outputs": [
        {
          "internalType": "address",
          "name": "",
          "type": "address"
        }
      ],
      "stateMutability": "view",
      "type": "function"
    },
    {
      "inputs": [
        {
          "internalType": "address",
          "name": "",
          "type": "address"
        }
      ],
      "name": "payer",
      "outputs": [
        {
          "internalType": "uint256",
          "name": "balance",
          "type": "uint256"
        },
        {
          "internalType": "uint256",
          "name": "termPayments",
          "type": "uint256"
        },
        {
          "internalType": "uint256",
          "name": "autoPayments",
          "type": "uint256"
        },
        {
          "internalType": "uint256",
          "name": "debts",
          "type": "uint256"
        },
        {
          "internalType": "address",
          "name": "client",
          "type": "address"
        },
        {
          "internalType": "address",
          "name": "school",
          "type": "address"
        },
        {
          "internalType": "bool",
          "name": "hasAutoPayments",
          "type": "bool"
        },
        {
          "internalType": "bytes32",
          "name": "studentName",
          "type": "bytes32"
        },
        {
          "internalType": "bytes32",
          "name": "studentClass",
          "type": "bytes32"
        }
      ],
      "stateMutability": "view",
      "type": "function"
    },
    {
      "inputs": [
        {
          "internalType": "address",
          "name": "_school",
          "type": "address"
        },
        {
          "internalType": "uint256",
          "name": "_amount",
          "type": "uint256"
        },
        {
          "internalType": "bytes32",
          "name": "_student",
          "type": "bytes32"
        },
        {
          "internalType": "bytes32",
          "name": "_class",
          "type": "bytes32"
        }
      ],
      "name": "paymentAutomation",
      "outputs": [],
      "stateMutability": "nonpayable",
      "type": "function"
    },
    {
      "inputs": [],
      "name": "paymentsMade",
      "outputs": [
        {
          "internalType": "uint256",
          "name": "",
          "type": "uint256"
        }
      ],
      "stateMutability": "view",
      "type": "function"
    },
    {
      "inputs": [],
      "name": "percentageFee",
      "outputs": [
        {
          "internalType": "uint32",
          "name": "",
          "type": "uint32"
        }
      ],
      "stateMutability": "view",
      "type": "function"
    },
    {
      "inputs": [
        {
          "internalType": "bytes",
          "name": "performData",
          "type": "bytes"
        }
      ],
      "name": "performUpkeep",
      "outputs": [],
      "stateMutability": "nonpayable",
      "type": "function"
    },
    {
      "inputs": [
        {
          "internalType": "address",
          "name": "",
          "type": "address"
        }
      ],
      "name": "receipt",
      "outputs": [
        {
          "internalType": "uint256",
          "name": "time",
          "type": "uint256"
        },
        {
          "internalType": "uint256",
          "name": "amount",
          "type": "uint256"
        },
        {
          "internalType": "uint256",
          "name": "balance",
          "type": "uint256"
        },
        {
          "internalType": "address",
          "name": "payer",
          "type": "address"
        },
        {
          "internalType": "address",
          "name": "school",
          "type": "address"
        },
        {
          "internalType": "bool",
          "name": "cleared",
          "type": "bool"
        },
        {
          "internalType": "bytes32",
          "name": "student",
          "type": "bytes32"
        },
        {
          "internalType": "bytes32",
          "name": "class",
          "type": "bytes32"
        }
      ],
      "stateMutability": "view",
      "type": "function"
    },
    {
      "inputs": [
        {
          "internalType": "address",
          "name": "_school",
          "type": "address"
        },
        {
          "internalType": "bytes32",
          "name": "_name",
          "type": "bytes32"
        }
      ],
      "name": "registerSchool",
      "outputs": [],
      "stateMutability": "nonpayable",
      "type": "function"
    },
    {
      "inputs": [],
      "name": "renounceOwnership",
      "outputs": [],
      "stateMutability": "nonpayable",
      "type": "function"
    },
    {
      "inputs": [
        {
          "internalType": "address",
          "name": "",
          "type": "address"
        }
      ],
      "name": "school",
      "outputs": [
        {
          "internalType": "uint256",
          "name": "balance",
          "type": "uint256"
        },
        {
          "internalType": "uint256",
          "name": "tution",
          "type": "uint256"
        },
        {
          "internalType": "address",
          "name": "school",
          "type": "address"
        },
        {
          "internalType": "bool",
          "name": "isRegistered",
          "type": "bool"
        },
        {
          "internalType": "bool",
          "name": "isActive",
          "type": "bool"
        },
        {
          "internalType": "uint32",
          "name": "schoolId",
          "type": "uint32"
        },
        {
          "internalType": "bytes32",
          "name": "name",
          "type": "bytes32"
        }
      ],
      "stateMutability": "view",
      "type": "function"
    },
    {
      "inputs": [
        {
          "internalType": "uint256",
          "name": "_amount",
          "type": "uint256"
        }
      ],
      "name": "schoolWithdrawal",
      "outputs": [],
      "stateMutability": "nonpayable",
      "type": "function"
    },
    {
      "inputs": [],
      "name": "stableToken",
      "outputs": [
        {
          "internalType": "contract IERC20",
          "name": "",
          "type": "address"
        }
      ],
      "stateMutability": "view",
      "type": "function"
    },
    {
      "inputs": [],
      "name": "termIdBySchool",
      "outputs": [
        {
          "internalType": "uint128",
          "name": "",
          "type": "uint128"
        }
      ],
      "stateMutability": "view",
      "type": "function"
    },
    {
      "inputs": [
        {
          "internalType": "address",
          "name": "newOwner",
          "type": "address"
        }
      ],
      "name": "transferOwnership",
      "outputs": [],
      "stateMutability": "nonpayable",
      "type": "function"
    },
    {
      "inputs": [
        {
          "internalType": "uint256",
          "name": "_amount",
          "type": "uint256"
        },
        {
          "internalType": "address",
          "name": "_school",
          "type": "address"
        },
        {
          "internalType": "bytes32",
          "name": "_student",
          "type": "bytes32"
        },
        {
          "internalType": "bytes32",
          "name": "_class",
          "type": "bytes32"
        }
      ],
      "name": "tutionPayment",
      "outputs": [],
      "stateMutability": "nonpayable",
      "type": "function"
    },
    {
      "inputs": [
        {
          "internalType": "uint32",
          "name": "_percentage",
          "type": "uint32"
        }
      ],
      "name": "updateTxFee",
      "outputs": [],
      "stateMutability": "nonpayable",
      "type": "function"
    }
  ],
  "bytecode": "0x6080604052348015600f57600080fd5b506153ff8061001f6000396000f3fe608060405234801561001057600080fd5b50600436106101e55760003560e01c8063780a7ff01161010f578063c652365c116100a2578063e5b73e0811610071578063e5b73e0814610566578063e97e3f171461059e578063f2fde38b146105ce578063fde345bc146105ea576101e5565b8063c652365c146104c1578063c8285592146104f7578063e35e566314610513578063e42466621461054a576101e5565b8063b5ead19e116100de578063b5ead19e14610451578063baae18921461046d578063bd53d5cc14610489578063c4d66de8146104a5576101e5565b8063780a7ff0146103d95780637866eb0f146103f75780638da5cb5b14610415578063a9d75b2b14610433576101e5565b80634cd36a1c1161018757806368df78811161015657806368df78811461035e5780636ca47248146103945780636e04ff0d1461039e578063715018a6146103cf576101e5565b80634cd36a1c146102d65780634ff59cf8146102f257806359dc735c146103105780635e2af8ad1461032e576101e5565b80630ab01237116101c35780630ab012371461026657806329546a35146102825780633a3cd0621461029e5780634585e33b146102ba576101e5565b806304562d95146101ea578063065ed3da1461021a57806306d4c90514610236575b600080fd5b61020460048036038101906101ff9190613c81565b610608565b6040516102119190613dac565b60405180910390f35b610234600480360381019061022f9190613df4565b61075b565b005b610250600480360381019061024b9190613df4565b6109dd565b60405161025d9190613e30565b60405180910390f35b610280600480360381019061027b9190613c81565b610a1c565b005b61029c60048036038101906102979190613e87565b610b2b565b005b6102b860048036038101906102b39190613df4565b610f03565b005b6102d460048036038101906102cf9190613f3f565b611007565b005b6102f060048036038101906102eb9190613fb8565b6117cf565b005b6102fa611a22565b6040516103079190614007565b60405180910390f35b610318611a28565b60405161032591906140d9565b60405180910390f35b61034860048036038101906103439190613c81565b611b83565b60405161035591906141bd565b60405180910390f35b61037860048036038101906103739190614204565b611dc8565b60405161038b979695949392919061425e565b60405180910390f35b61039c611e80565b005b6103b860048036038101906103b39190613f3f565b6120bc565b6040516103c692919061435d565b60405180910390f35b6103d76122ce565b005b6103e16122e2565b6040516103ee919061438d565b60405180910390f35b6103ff6122f8565b60405161040c919061438d565b60405180910390f35b61041d61230e565b60405161042a9190613e30565b60405180910390f35b61043b612346565b6040516104489190614407565b60405180910390f35b61046b60048036038101906104669190614422565b61236a565b005b61048760048036038101906104829190614489565b6126cc565b005b6104a3600480360381019061049e9190613df4565b612741565b005b6104bf60048036038101906104ba9190613c81565b612886565b005b6104db60048036038101906104d69190613c81565b612acc565b6040516104ee97969594939291906144c5565b60405180910390f35b610511600480360381019061050c9190614534565b612b58565b005b61052d60048036038101906105289190613c81565b6130c3565b60405161054198979695949392919061459b565b60405180910390f35b610564600480360381019061055f9190613c81565b613158565b005b610580600480360381019061057b9190613c81565b613215565b60405161059599989796959493929190614619565b60405180910390f35b6105b860048036038101906105b39190613c81565b6132b0565b6040516105c59190614734565b60405180910390f35b6105e860048036038101906105e39190613c81565b61346e565b005b6105f26134f4565b6040516105ff919061474f565b60405180910390f35b610610613a4b565b600360008373ffffffffffffffffffffffffffffffffffffffff1673ffffffffffffffffffffffffffffffffffffffff168152602001908152602001600020604051806101000160405290816000820154815260200160018201548152602001600282015481526020016003820160009054906101000a900473ffffffffffffffffffffffffffffffffffffffff1673ffffffffffffffffffffffffffffffffffffffff1673ffffffffffffffffffffffffffffffffffffffff1681526020016004820160009054906101000a900473ffffffffffffffffffffffffffffffffffffffff1673ffffffffffffffffffffffffffffffffffffffff1673ffffffffffffffffffffffffffffffffffffffff1681526020016004820160149054906101000a900460ff16151515158152602001600582015481526020016006820154815250509050919050565b6000600160003373ffffffffffffffffffffffffffffffffffffffff1673ffffffffffffffffffffffffffffffffffffffff16815260200190815260200160002090508060020160149054906101000a900460ff166107ef576040517f08c379a00000000000000000000000000000000000000000000000000000000081526004016107e6906147c7565b60405180910390fd5b6107f7613516565b6000600160003373ffffffffffffffffffffffffffffffffffffffff1673ffffffffffffffffffffffffffffffffffffffff16815260200190815260200160002090508060020160149054906101000a900460ff1661088b576040517f08c379a000000000000000000000000000000000000000000000000000000000815260040161088290614833565b60405180910390fd5b8060020160159054906101000a900460ff166108dc576040517f08c379a00000000000000000000000000000000000000000000000000000000081526004016108d39061489f565b60405180910390fd5b8281600001541015610923576040517f08c379a000000000000000000000000000000000000000000000000000000000815260040161091a9061490b565b60405180910390fd5b82816000016000828254610937919061495a565b9250508190555060006103e8600560149054906101000a900463ffffffff1663ffffffff1685610967919061498e565b61097191906149ff565b905060008185610981919061495a565b90506109ce338260008054906101000a900473ffffffffffffffffffffffffffffffffffffffff1673ffffffffffffffffffffffffffffffffffffffff1661356d9092919063ffffffff16565b5050506109d96135ec565b5050565b600781815481106109ed57600080fd5b906000526020600020016000915054906101000a900473ffffffffffffffffffffffffffffffffffffffff1681565b610a24613605565b6000600160008373ffffffffffffffffffffffffffffffffffffffff1673ffffffffffffffffffffffffffffffffffffffff16815260200190815260200160002090508060020160149054906101000a900460ff16610ab8576040517f08c379a0000000000000000000000000000000000000000000000000000000008152600401610aaf90614833565b60405180910390fd5b8060020160159054906101000a900460ff1615610b0a576040517f08c379a0000000000000000000000000000000000000000000000000000000008152600401610b019061489f565b60405180910390fd5b60018160020160156101000a81548160ff0219169083151502179055505050565b6000600160003373ffffffffffffffffffffffffffffffffffffffff1673ffffffffffffffffffffffffffffffffffffffff16815260200190815260200160002090508060020160149054906101000a900460ff16610bbf576040517f08c379a0000000000000000000000000000000000000000000000000000000008152600401610bb6906147c7565b60405180910390fd5b6000600160003373ffffffffffffffffffffffffffffffffffffffff1673ffffffffffffffffffffffffffffffffffffffff16815260200190815260200160002090508060020160149054906101000a900460ff16610c53576040517f08c379a0000000000000000000000000000000000000000000000000000000008152600401610c4a90614833565b60405180910390fd5b8060020160159054906101000a900460ff16610ca4576040517f08c379a0000000000000000000000000000000000000000000000000000000008152600401610c9b90614a7c565b60405180910390fd5b6040518060e001604052808681526020013373ffffffffffffffffffffffffffffffffffffffff168152602001600560049054906101000a90046fffffffffffffffffffffffffffffffff166fffffffffffffffffffffffffffffffff1681526020016000151581526020016000151581526020018563ffffffff1681526020018463ffffffff16815250600460008360020160169054906101000a900463ffffffff1663ffffffff166fffffffffffffffffffffffffffffffff1681526020019081526020016000206000820151816000015560208201518160010160006101000a81548173ffffffffffffffffffffffffffffffffffffffff021916908373ffffffffffffffffffffffffffffffffffffffff16021790555060408201518160020160006101000a8154816fffffffffffffffffffffffffffffffff02191690836fffffffffffffffffffffffffffffffff16021790555060608201518160020160106101000a81548160ff02191690831515021790555060808201518160020160116101000a81548160ff02191690831515021790555060a08201518160020160126101000a81548163ffffffff021916908363ffffffff16021790555060c08201518160020160166101000a81548163ffffffff021916908363ffffffff1602179055509050506001600560048282829054906101000a90046fffffffffffffffffffffffffffffffff16610ebd9190614a9c565b92506101000a8154816fffffffffffffffffffffffffffffffff02191690836fffffffffffffffffffffffffffffffff1602179055508481600101819055505050505050565b610f0b613516565b6000600260003373ffffffffffffffffffffffffffffffffffffffff1673ffffffffffffffffffffffffffffffffffffffff16815260200190815260200160002090508181600001541015610f95576040517f08c379a0000000000000000000000000000000000000000000000000000000008152600401610f8c90614b2c565b60405180910390fd5b81816000016000828254610fa9919061495a565b92505081905550610ffb338360008054906101000a900473ffffffffffffffffffffffffffffffffffffffff1673ffffffffffffffffffffffffffffffffffffffff1661356d9092919063ffffffff16565b506110046135ec565b50565b60008083838101906110199190614b4c565b91509150600060046000846fffffffffffffffffffffffffffffffff166fffffffffffffffffffffffffffffffff16815260200190815260200160002090506000600160008360010160009054906101000a900473ffffffffffffffffffffffffffffffffffffffff1673ffffffffffffffffffffffffffffffffffffffff1673ffffffffffffffffffffffffffffffffffffffff16815260200190815260200160002090507f85301d412c91b5025a99ca488ca39b08d0d436c51cec3bd9ea6e0754d7d1991583036111085760018260020160106101000a81548160ff0219169083151502179055506111da565b7f5766ed171599f7913d5137e7b28bc984eec1a87a30800016278646d1777f82fb83036111d95760018260020160116101000a81548160ff0219169083151502179055506000826000018190555060008260020160106101000a81548160ff02191690831515021790555060008260020160116101000a81548160ff02191690831515021790555060008260020160126101000a81548163ffffffff021916908363ffffffff16021790555060008260020160166101000a81548163ffffffff021916908363ffffffff1602179055505b5b600073ffffffffffffffffffffffffffffffffffffffff168160020160009054906101000a900473ffffffffffffffffffffffffffffffffffffffff1673ffffffffffffffffffffffffffffffffffffffff16148061124857508060020160149054906101000a900460ff16155b8061126257508060020160159054906101000a900460ff16155b1561127057505050506117cb565b60005b6007805490508110156117c55760006007828154811061129657611295614b8c565b5b9060005260206000200160009054906101000a900473ffffffffffffffffffffffffffffffffffffffff1690506000600260008373ffffffffffffffffffffffffffffffffffffffff1673ffffffffffffffffffffffffffffffffffffffff16815260200190815260200160002090507f85301d412c91b5025a99ca488ca39b08d0d436c51cec3bd9ea6e0754d7d19915861480156113a857508060050160009054906101000a900473ffffffffffffffffffffffffffffffffffffffff1673ffffffffffffffffffffffffffffffffffffffff168460020160009054906101000a900473ffffffffffffffffffffffffffffffffffffffff1673ffffffffffffffffffffffffffffffffffffffff16145b80156113c257508060050160149054906101000a900460ff165b80156113d5575083600101548160010154105b80156113e957508360010154816000015410155b80156113fd57508360010154816002015410155b156116d8576000846001015490508082600001600082825461141f919061495a565b925050819055508082600201600082825461143a919061495a565b92505081905550808260010160008282546114559190614bbb565b92505081905550808560000160008282546114709190614bbb565b9250508190555080600660008282546114899190614bbb565b92505081905550600085600101548360010154101590506000816114c057836001015487600101546114bb919061495a565b6114c3565b60005b90506040518061010001604052804281526020018481526020018281526020018560040160009054906101000a900473ffffffffffffffffffffffffffffffffffffffff1673ffffffffffffffffffffffffffffffffffffffff1681526020018860020160009054906101000a900473ffffffffffffffffffffffffffffffffffffffff1673ffffffffffffffffffffffffffffffffffffffff1681526020018315158152602001856006015481526020018560070154815250600360008660040160009054906101000a900473ffffffffffffffffffffffffffffffffffffffff1673ffffffffffffffffffffffffffffffffffffffff1673ffffffffffffffffffffffffffffffffffffffff16815260200190815260200160002060008201518160000155602082015181600101556040820151816002015560608201518160030160006101000a81548173ffffffffffffffffffffffffffffffffffffffff021916908373ffffffffffffffffffffffffffffffffffffffff16021790555060808201518160040160006101000a81548173ffffffffffffffffffffffffffffffffffffffff021916908373ffffffffffffffffffffffffffffffffffffffff16021790555060a08201518160040160146101000a81548160ff02191690831515021790555060c0820151816005015560e0820151816006015590505081156116d457600084600101819055505b5050505b7f5766ed171599f7913d5137e7b28bc984eec1a87a30800016278646d1777f82fb86036117b6578360010154816001015410801561178957508360020160009054906101000a900473ffffffffffffffffffffffffffffffffffffffff1673ffffffffffffffffffffffffffffffffffffffff168160050160009054906101000a900473ffffffffffffffffffffffffffffffffffffffff1673ffffffffffffffffffffffffffffffffffffffff16145b156117b557806001015484600101546117a2919061495a565b8160030181905550600081600101819055505b5b50508080600101915050611273565b50505050505b5050565b6117d7613605565b600160008373ffffffffffffffffffffffffffffffffffffffff1673ffffffffffffffffffffffffffffffffffffffff16815260200190815260200160002060020160149054906101000a900460ff1615611867576040517f08c379a000000000000000000000000000000000000000000000000000000000815260040161185e90614c3b565b60405180910390fd5b6040518060e0016040528060008152602001600081526020018373ffffffffffffffffffffffffffffffffffffffff168152602001600115158152602001600115158152602001600560009054906101000a900463ffffffff1663ffffffff16815260200182815250600160008473ffffffffffffffffffffffffffffffffffffffff1673ffffffffffffffffffffffffffffffffffffffff168152602001908152602001600020600082015181600001556020820151816001015560408201518160020160006101000a81548173ffffffffffffffffffffffffffffffffffffffff021916908373ffffffffffffffffffffffffffffffffffffffff16021790555060608201518160020160146101000a81548160ff02191690831515021790555060808201518160020160156101000a81548160ff02191690831515021790555060a08201518160020160166101000a81548163ffffffff021916908363ffffffff16021790555060c082015181600301559050506001600560008282829054906101000a900463ffffffff16611a009190614c5b565b92506101000a81548163ffffffff021916908363ffffffff1602179055505050565b60065481565b611a30613ac4565b600260003373ffffffffffffffffffffffffffffffffffffffff1673ffffffffffffffffffffffffffffffffffffffff16815260200190815260200160002060405180610120016040529081600082015481526020016001820154815260200160028201548152602001600382015481526020016004820160009054906101000a900473ffffffffffffffffffffffffffffffffffffffff1673ffffffffffffffffffffffffffffffffffffffff1673ffffffffffffffffffffffffffffffffffffffff1681526020016005820160009054906101000a900473ffffffffffffffffffffffffffffffffffffffff1673ffffffffffffffffffffffffffffffffffffffff1673ffffffffffffffffffffffffffffffffffffffff1681526020016005820160149054906101000a900460ff1615151515815260200160068201548152602001600782015481525050905090565b611b8b613b44565b60005b600560049054906101000a90046fffffffffffffffffffffffffffffffff166fffffffffffffffffffffffffffffffff168163ffffffff161015611d87576000600460008363ffffffff166fffffffffffffffffffffffffffffffff1681526020019081526020016000206040518060e0016040529081600082015481526020016001820160009054906101000a900473ffffffffffffffffffffffffffffffffffffffff1673ffffffffffffffffffffffffffffffffffffffff1673ffffffffffffffffffffffffffffffffffffffff1681526020016002820160009054906101000a90046fffffffffffffffffffffffffffffffff166fffffffffffffffffffffffffffffffff166fffffffffffffffffffffffffffffffff1681526020016002820160109054906101000a900460ff161515151581526020016002820160119054906101000a900460ff161515151581526020016002820160129054906101000a900463ffffffff1663ffffffff1663ffffffff1681526020016002820160169054906101000a900463ffffffff1663ffffffff1663ffffffff168152505090508373ffffffffffffffffffffffffffffffffffffffff16816020015173ffffffffffffffffffffffffffffffffffffffff1603611d73578092505050611dc3565b508080611d7f90614c93565b915050611b8e565b506040517f08c379a0000000000000000000000000000000000000000000000000000000008152600401611dba90614d0b565b60405180910390fd5b919050565b60046020528060005260406000206000915090508060000154908060010160009054906101000a900473ffffffffffffffffffffffffffffffffffffffff16908060020160009054906101000a90046fffffffffffffffffffffffffffffffff16908060020160109054906101000a900460ff16908060020160119054906101000a900460ff16908060020160129054906101000a900463ffffffff16908060020160169054906101000a900463ffffffff16905087565b6000600260003373ffffffffffffffffffffffffffffffffffffffff1673ffffffffffffffffffffffffffffffffffffffff16815260200190815260200160002090508060050160149054906101000a900460ff16611f14576040517f08c379a0000000000000000000000000000000000000000000000000000000008152600401611f0b90614d77565b60405180910390fd5b60008160050160146101000a81548160ff0219169083151502179055506000600780549050905060005b818110156120b7573373ffffffffffffffffffffffffffffffffffffffff1660078281548110611f7157611f70614b8c565b5b9060005260206000200160009054906101000a900473ffffffffffffffffffffffffffffffffffffffff1673ffffffffffffffffffffffffffffffffffffffff16036120aa576007600183611fc6919061495a565b81548110611fd757611fd6614b8c565b5b9060005260206000200160009054906101000a900473ffffffffffffffffffffffffffffffffffffffff166007828154811061201657612015614b8c565b5b9060005260206000200160006101000a81548173ffffffffffffffffffffffffffffffffffffffff021916908373ffffffffffffffffffffffffffffffffffffffff16021790555060078054806120705761206f614d97565b5b6001900381819060005260206000200160006101000a81549073ffffffffffffffffffffffffffffffffffffffff021916905590556120b7565b8080600101915050611f3e565b505050565b6000606060005b600560049054906101000a90046fffffffffffffffffffffffffffffffff166fffffffffffffffffffffffffffffffff16816fffffffffffffffffffffffffffffffff1610156122af57600060046000836fffffffffffffffffffffffffffffffff166fffffffffffffffffffffffffffffffff1681526020019081526020016000209050428160020160129054906101000a900463ffffffff1663ffffffff161115801561218157508060020160109054906101000a900460ff16155b156121d55760019350817f85301d412c91b5025a99ca488ca39b08d0d436c51cec3bd9ea6e0754d7d199156040516020016121bd929190614dc6565b604051602081830303815290604052925050506122c7565b428160020160129054906101000a900463ffffffff1663ffffffff161080156122185750428160020160169054906101000a900463ffffffff1663ffffffff1611155b801561223257508060020160109054906101000a900460ff165b801561224d57508060020160119054906101000a900460ff16155b156122a15760019350817f5766ed171599f7913d5137e7b28bc984eec1a87a30800016278646d1777f82fb604051602001612289929190614dc6565b604051602081830303815290604052925050506122c7565b5080806001019150506120c3565b50600091506040518060200160405280600081525090505b9250929050565b6122d6613605565b6122e0600061368c565b565b600560149054906101000a900463ffffffff1681565b600560009054906101000a900463ffffffff1681565b600080612319613763565b90508060000160009054906101000a900473ffffffffffffffffffffffffffffffffffffffff1691505090565b60008054906101000a900473ffffffffffffffffffffffffffffffffffffffff1681565b600073ffffffffffffffffffffffffffffffffffffffff168473ffffffffffffffffffffffffffffffffffffffff16036123d9576040517f08c379a00000000000000000000000000000000000000000000000000000000081526004016123d090614e3b565b60405180910390fd5b6000600160008673ffffffffffffffffffffffffffffffffffffffff1673ffffffffffffffffffffffffffffffffffffffff16815260200190815260200160002090506000600260003373ffffffffffffffffffffffffffffffffffffffff1673ffffffffffffffffffffffffffffffffffffffff1681526020019081526020016000209050600085116124a2576040517f08c379a000000000000000000000000000000000000000000000000000000000815260040161249990614ea7565b60405180910390fd5b81600101548510156124e9576040517f08c379a00000000000000000000000000000000000000000000000000000000081526004016124e090614f13565b60405180910390fd5b816001015481600001541015612534576040517f08c379a000000000000000000000000000000000000000000000000000000000815260040161252b90614f7f565b60405180910390fd5b60018160050160146101000a81548160ff021916908315150217905550848160020160008282546125659190614bbb565b92505081905550838160060181905550828160070181905550858160050160006101000a81548173ffffffffffffffffffffffffffffffffffffffff021916908373ffffffffffffffffffffffffffffffffffffffff1602179055506000805b600780549050811015612659573373ffffffffffffffffffffffffffffffffffffffff16600782815481106125fd576125fc614b8c565b5b9060005260206000200160009054906101000a900473ffffffffffffffffffffffffffffffffffffffff1673ffffffffffffffffffffffffffffffffffffffff160361264c5760019150612659565b80806001019150506125c5565b50806126c3576007339080600181540180825580915050600190039060005260206000200160009091909190916101000a81548173ffffffffffffffffffffffffffffffffffffffff021916908373ffffffffffffffffffffffffffffffffffffffff1602179055505b50505050505050565b6126d4613605565b60328163ffffffff161061271d576040517f08c379a000000000000000000000000000000000000000000000000000000000815260040161271490614feb565b60405180910390fd5b80600560146101000a81548163ffffffff021916908363ffffffff16021790555050565b612749613516565b6000811161278c576040517f08c379a000000000000000000000000000000000000000000000000000000000815260040161278390615057565b60405180910390fd5b6000600260003373ffffffffffffffffffffffffffffffffffffffff1673ffffffffffffffffffffffffffffffffffffffff168152602001908152602001600020905061281c33308460008054906101000a900473ffffffffffffffffffffffffffffffffffffffff1673ffffffffffffffffffffffffffffffffffffffff1661378b909392919063ffffffff16565b818160000160008282546128309190614bbb565b92505081905550338160040160006101000a81548173ffffffffffffffffffffffffffffffffffffffff021916908373ffffffffffffffffffffffffffffffffffffffff160217905550506128836135ec565b50565b600061289061380d565b905060008160000160089054906101000a900460ff1615905060008260000160009054906101000a900467ffffffffffffffff1690506000808267ffffffffffffffff161480156128de5750825b9050600060018367ffffffffffffffff16148015612913575060003073ffffffffffffffffffffffffffffffffffffffff163b145b905081158015612921575080155b15612958576040517ff92ee8a900000000000000000000000000000000000000000000000000000000815260040160405180910390fd5b60018560000160006101000a81548167ffffffffffffffff021916908367ffffffffffffffff16021790555083156129a85760018560000160086101000a81548160ff0219169083151502179055505b600073ffffffffffffffffffffffffffffffffffffffff168673ffffffffffffffffffffffffffffffffffffffff1603612a17576040517f08c379a0000000000000000000000000000000000000000000000000000000008152600401612a0e906150c3565b60405180910390fd5b612a1f613821565b612a2833613833565b856000806101000a81548173ffffffffffffffffffffffffffffffffffffffff021916908373ffffffffffffffffffffffffffffffffffffffff1602179055508315612ac45760008560000160086101000a81548160ff0219169083151502179055507fc7f505b2f371ae2175ee4913f4499e1f2633a7b5936321eed1cdaeb6115181d26001604051612abb9190615132565b60405180910390a15b505050505050565b60016020528060005260406000206000915090508060000154908060010154908060020160009054906101000a900473ffffffffffffffffffffffffffffffffffffffff16908060020160149054906101000a900460ff16908060020160159054906101000a900460ff16908060020160169054906101000a900463ffffffff16908060030154905087565b612b60613516565b6000600260003373ffffffffffffffffffffffffffffffffffffffff1673ffffffffffffffffffffffffffffffffffffffff16815260200190815260200160002090506000600160008673ffffffffffffffffffffffffffffffffffffffff1673ffffffffffffffffffffffffffffffffffffffff16815260200190815260200160002090508582600001541015612c2d576040517f08c379a0000000000000000000000000000000000000000000000000000000008152600401612c2490615199565b60405180910390fd5b600073ffffffffffffffffffffffffffffffffffffffff168573ffffffffffffffffffffffffffffffffffffffff1603612c9c576040517f08c379a0000000000000000000000000000000000000000000000000000000008152600401612c9390615205565b60405180910390fd5b8060020160149054906101000a900460ff16612ced576040517f08c379a0000000000000000000000000000000000000000000000000000000008152600401612ce490614833565b60405180910390fd5b8060020160159054906101000a900460ff16612d3e576040517f08c379a0000000000000000000000000000000000000000000000000000000008152600401612d359061489f565b60405180910390fd5b6000816001015411612d85576040517f08c379a0000000000000000000000000000000000000000000000000000000008152600401612d7c90615271565b60405180910390fd5b806001015482600101541115612dd0576040517f08c379a0000000000000000000000000000000000000000000000000000000008152600401612dc7906152dd565b60405180910390fd5b60008160010154878460010154612de79190614bbb565b1115905060008260010154888560010154612e029190614bbb565b14905081612e45576040517f08c379a0000000000000000000000000000000000000000000000000000000008152600401612e3c90615349565b60405180910390fd5b87846001016000828254612e599190614bbb565b925050819055508760066000828254612e729190614bbb565b9250508190555087846000016000828254612e8d919061495a565b9250508190555087836000016000828254612ea89190614bbb565b92505081905550868460050160006101000a81548173ffffffffffffffffffffffffffffffffffffffff021916908373ffffffffffffffffffffffffffffffffffffffff16021790555083600101548360010154612f06919061495a565b8460030181905550600084600101548460010154612f24919061495a565b90506040518061010001604052804281526020018a81526020018281526020013373ffffffffffffffffffffffffffffffffffffffff1681526020018973ffffffffffffffffffffffffffffffffffffffff168152602001831515815260200188815260200187815250600360003373ffffffffffffffffffffffffffffffffffffffff1673ffffffffffffffffffffffffffffffffffffffff16815260200190815260200160002060008201518160000155602082015181600101556040820151816002015560608201518160030160006101000a81548173ffffffffffffffffffffffffffffffffffffffff021916908373ffffffffffffffffffffffffffffffffffffffff16021790555060808201518160040160006101000a81548173ffffffffffffffffffffffffffffffffffffffff021916908373ffffffffffffffffffffffffffffffffffffffff16021790555060a08201518160040160146101000a81548160ff02191690831515021790555060c0820151816005015560e0820151816006015590505050505050506130bd6135ec565b50505050565b60036020528060005260406000206000915090508060000154908060010154908060020154908060030160009054906101000a900473ffffffffffffffffffffffffffffffffffffffff16908060040160009054906101000a900473ffffffffffffffffffffffffffffffffffffffff16908060040160149054906101000a900460ff16908060050154908060060154905088565b613160613605565b6000600160008373ffffffffffffffffffffffffffffffffffffffff1673ffffffffffffffffffffffffffffffffffffffff16815260200190815260200160002090508060020160159054906101000a900460ff166131f4576040517f08c379a00000000000000000000000000000000000000000000000000000000081526004016131eb9061489f565b60405180910390fd5b60008160020160156101000a81548160ff0219169083151502179055505050565b60026020528060005260406000206000915090508060000154908060010154908060020154908060030154908060040160009054906101000a900473ffffffffffffffffffffffffffffffffffffffff16908060050160009054906101000a900473ffffffffffffffffffffffffffffffffffffffff16908060050160149054906101000a900460ff16908060060154908060070154905089565b6132b8613bb9565b6000600160003373ffffffffffffffffffffffffffffffffffffffff1673ffffffffffffffffffffffffffffffffffffffff16815260200190815260200160002090508060020160149054906101000a900460ff1661334c576040517f08c379a0000000000000000000000000000000000000000000000000000000008152600401613343906147c7565b60405180910390fd5b600160008473ffffffffffffffffffffffffffffffffffffffff1673ffffffffffffffffffffffffffffffffffffffff1681526020019081526020016000206040518060e001604052908160008201548152602001600182015481526020016002820160009054906101000a900473ffffffffffffffffffffffffffffffffffffffff1673ffffffffffffffffffffffffffffffffffffffff1673ffffffffffffffffffffffffffffffffffffffff1681526020016002820160149054906101000a900460ff161515151581526020016002820160159054906101000a900460ff161515151581526020016002820160169054906101000a900463ffffffff1663ffffffff1663ffffffff168152602001600382015481525050915050919050565b613476613605565b600073ffffffffffffffffffffffffffffffffffffffff168173ffffffffffffffffffffffffffffffffffffffff16036134e85760006040517f1e4fbdf70000000000000000000000000000000000000000000000000000000081526004016134df9190613e30565b60405180910390fd5b6134f18161368c565b50565b600560049054906101000a90046fffffffffffffffffffffffffffffffff1681565b6000613520613847565b90506002816000015403613560576040517f3ee5aeb500000000000000000000000000000000000000000000000000000000815260040160405180910390fd5b6002816000018190555050565b6135e7838473ffffffffffffffffffffffffffffffffffffffff1663a9059cbb85856040516024016135a0929190615369565b604051602081830303815290604052915060e01b6020820180517bffffffffffffffffffffffffffffffffffffffffffffffffffffffff838183161783525050505061386f565b505050565b60006135f6613847565b90506001816000018190555050565b61360d613911565b73ffffffffffffffffffffffffffffffffffffffff1661362b61230e565b73ffffffffffffffffffffffffffffffffffffffff161461368a5761364e613911565b6040517f118cdaa70000000000000000000000000000000000000000000000000000000081526004016136819190613e30565b60405180910390fd5b565b6000613696613763565b905060008160000160009054906101000a900473ffffffffffffffffffffffffffffffffffffffff169050828260000160006101000a81548173ffffffffffffffffffffffffffffffffffffffff021916908373ffffffffffffffffffffffffffffffffffffffff1602179055508273ffffffffffffffffffffffffffffffffffffffff168173ffffffffffffffffffffffffffffffffffffffff167f8be0079c531659141344cd1fd0a4f28419497f9722a3daafe3b4186f6b6457e060405160405180910390a3505050565b60007f9016d09d72d40fdae2fd8ceac6b6234c7706214fd39c1cd1e609a0528c199300905090565b613807848573ffffffffffffffffffffffffffffffffffffffff166323b872dd8686866040516024016137c093929190615392565b604051602081830303815290604052915060e01b6020820180517bffffffffffffffffffffffffffffffffffffffffffffffffffffffff838183161783525050505061386f565b50505050565b600080613818613919565b90508091505090565b613829613944565b613831613984565b565b61383b613944565b613844816139a5565b50565b60007f9b779b17422d0df92223018b32b4d1fa46e071723d6817e2486d003becc55f00905090565b600080602060008451602086016000885af180613892576040513d6000823e3d81fd5b3d9250600051915050600082146138ad5760018114156138c9565b60008473ffffffffffffffffffffffffffffffffffffffff163b145b1561390b57836040517f5274afe70000000000000000000000000000000000000000000000000000000081526004016139029190613e30565b60405180910390fd5b50505050565b600033905090565b60007ff0c57e16840df040f15088dc2f81fe391c3923bec73e23a9662efc9c229c6a0060001b905090565b61394c613a2b565b613982576040517fd7e6bcf800000000000000000000000000000000000000000000000000000000815260040160405180910390fd5b565b61398c613944565b6000613996613847565b90506001816000018190555050565b6139ad613944565b600073ffffffffffffffffffffffffffffffffffffffff168173ffffffffffffffffffffffffffffffffffffffff1603613a1f5760006040517f1e4fbdf7000000000000000000000000000000000000000000000000000000008152600401613a169190613e30565b60405180910390fd5b613a288161368c565b50565b6000613a3561380d565b60000160089054906101000a900460ff16905090565b604051806101000160405280600081526020016000815260200160008152602001600073ffffffffffffffffffffffffffffffffffffffff168152602001600073ffffffffffffffffffffffffffffffffffffffff16815260200160001515815260200160008019168152602001600080191681525090565b60405180610120016040528060008152602001600081526020016000815260200160008152602001600073ffffffffffffffffffffffffffffffffffffffff168152602001600073ffffffffffffffffffffffffffffffffffffffff16815260200160001515815260200160008019168152602001600080191681525090565b6040518060e0016040528060008152602001600073ffffffffffffffffffffffffffffffffffffffff16815260200160006fffffffffffffffffffffffffffffffff168152602001600015158152602001600015158152602001600063ffffffff168152602001600063ffffffff1681525090565b6040518060e001604052806000815260200160008152602001600073ffffffffffffffffffffffffffffffffffffffff168152602001600015158152602001600015158152602001600063ffffffff168152602001600080191681525090565b600080fd5b600080fd5b600073ffffffffffffffffffffffffffffffffffffffff82169050919050565b6000613c4e82613c23565b9050919050565b613c5e81613c43565b8114613c6957600080fd5b50565b600081359050613c7b81613c55565b92915050565b600060208284031215613c9757613c96613c19565b5b6000613ca584828501613c6c565b91505092915050565b6000819050919050565b613cc181613cae565b82525050565b613cd081613c43565b82525050565b60008115159050919050565b613ceb81613cd6565b82525050565b6000819050919050565b613d0481613cf1565b82525050565b61010082016000820151613d216000850182613cb8565b506020820151613d346020850182613cb8565b506040820151613d476040850182613cb8565b506060820151613d5a6060850182613cc7565b506080820151613d6d6080850182613cc7565b5060a0820151613d8060a0850182613ce2565b5060c0820151613d9360c0850182613cfb565b5060e0820151613da660e0850182613cfb565b50505050565b600061010082019050613dc26000830184613d0a565b92915050565b613dd181613cae565b8114613ddc57600080fd5b50565b600081359050613dee81613dc8565b92915050565b600060208284031215613e0a57613e09613c19565b5b6000613e1884828501613ddf565b91505092915050565b613e2a81613c43565b82525050565b6000602082019050613e456000830184613e21565b92915050565b600063ffffffff82169050919050565b613e6481613e4b565b8114613e6f57600080fd5b50565b600081359050613e8181613e5b565b92915050565b600080600060608486031215613ea057613e9f613c19565b5b6000613eae86828701613ddf565b9350506020613ebf86828701613e72565b9250506040613ed086828701613e72565b9150509250925092565b600080fd5b600080fd5b600080fd5b60008083601f840112613eff57613efe613eda565b5b8235905067ffffffffffffffff811115613f1c57613f1b613edf565b5b602083019150836001820283011115613f3857613f37613ee4565b5b9250929050565b60008060208385031215613f5657613f55613c19565b5b600083013567ffffffffffffffff811115613f7457613f73613c1e565b5b613f8085828601613ee9565b92509250509250929050565b613f9581613cf1565b8114613fa057600080fd5b50565b600081359050613fb281613f8c565b92915050565b60008060408385031215613fcf57613fce613c19565b5b6000613fdd85828601613c6c565b9250506020613fee85828601613fa3565b9150509250929050565b61400181613cae565b82525050565b600060208201905061401c6000830184613ff8565b92915050565b610120820160008201516140396000850182613cb8565b50602082015161404c6020850182613cb8565b50604082015161405f6040850182613cb8565b5060608201516140726060850182613cb8565b5060808201516140856080850182613cc7565b5060a082015161409860a0850182613cc7565b5060c08201516140ab60c0850182613ce2565b5060e08201516140be60e0850182613cfb565b506101008201516140d3610100850182613cfb565b50505050565b6000610120820190506140ef6000830184614022565b92915050565b60006fffffffffffffffffffffffffffffffff82169050919050565b61411a816140f5565b82525050565b61412981613e4b565b82525050565b60e0820160008201516141456000850182613cb8565b5060208201516141586020850182613cc7565b50604082015161416b6040850182614111565b50606082015161417e6060850182613ce2565b5060808201516141916080850182613ce2565b5060a08201516141a460a0850182614120565b5060c08201516141b760c0850182614120565b50505050565b600060e0820190506141d2600083018461412f565b92915050565b6141e1816140f5565b81146141ec57600080fd5b50565b6000813590506141fe816141d8565b92915050565b60006020828403121561421a57614219613c19565b5b6000614228848285016141ef565b91505092915050565b61423a816140f5565b82525050565b61424981613cd6565b82525050565b61425881613e4b565b82525050565b600060e082019050614273600083018a613ff8565b6142806020830189613e21565b61428d6040830188614231565b61429a6060830187614240565b6142a76080830186614240565b6142b460a083018561424f565b6142c160c083018461424f565b98975050505050505050565b600081519050919050565b600082825260208201905092915050565b60005b838110156143075780820151818401526020810190506142ec565b60008484015250505050565b6000601f19601f8301169050919050565b600061432f826142cd565b61433981856142d8565b93506143498185602086016142e9565b61435281614313565b840191505092915050565b60006040820190506143726000830185614240565b81810360208301526143848184614324565b90509392505050565b60006020820190506143a2600083018461424f565b92915050565b6000819050919050565b60006143cd6143c86143c384613c23565b6143a8565b613c23565b9050919050565b60006143df826143b2565b9050919050565b60006143f1826143d4565b9050919050565b614401816143e6565b82525050565b600060208201905061441c60008301846143f8565b92915050565b6000806000806080858703121561443c5761443b613c19565b5b600061444a87828801613c6c565b945050602061445b87828801613ddf565b935050604061446c87828801613fa3565b925050606061447d87828801613fa3565b91505092959194509250565b60006020828403121561449f5761449e613c19565b5b60006144ad84828501613e72565b91505092915050565b6144bf81613cf1565b82525050565b600060e0820190506144da600083018a613ff8565b6144e76020830189613ff8565b6144f46040830188613e21565b6145016060830187614240565b61450e6080830186614240565b61451b60a083018561424f565b61452860c08301846144b6565b98975050505050505050565b6000806000806080858703121561454e5761454d613c19565b5b600061455c87828801613ddf565b945050602061456d87828801613c6c565b935050604061457e87828801613fa3565b925050606061458f87828801613fa3565b91505092959194509250565b6000610100820190506145b1600083018b613ff8565b6145be602083018a613ff8565b6145cb6040830189613ff8565b6145d86060830188613e21565b6145e56080830187613e21565b6145f260a0830186614240565b6145ff60c08301856144b6565b61460c60e08301846144b6565b9998505050505050505050565b60006101208201905061462f600083018c613ff8565b61463c602083018b613ff8565b614649604083018a613ff8565b6146566060830189613ff8565b6146636080830188613e21565b61467060a0830187613e21565b61467d60c0830186614240565b61468a60e08301856144b6565b6146986101008301846144b6565b9a9950505050505050505050565b60e0820160008201516146bc6000850182613cb8565b5060208201516146cf6020850182613cb8565b5060408201516146e26040850182613cc7565b5060608201516146f56060850182613ce2565b5060808201516147086080850182613ce2565b5060a082015161471b60a0850182614120565b5060c082015161472e60c0850182613cfb565b50505050565b600060e08201905061474960008301846146a6565b92915050565b60006020820190506147646000830184614231565b92915050565b600082825260208201905092915050565b7f4e6f742072656769737465726564000000000000000000000000000000000000600082015250565b60006147b1600e8361476a565b91506147bc8261477b565b602082019050919050565b600060208201905081810360008301526147e0816147a4565b9050919050565b7f556e726567697374657265640000000000000000000000000000000000000000600082015250565b600061481d600c8361476a565b9150614828826147e7565b602082019050919050565b6000602082019050818103600083015261484c81614810565b9050919050565b7f496e6e6163746976650000000000000000000000000000000000000000000000600082015250565b600061488960098361476a565b915061489482614853565b602082019050919050565b600060208201905081810360008301526148b88161487c565b9050919050565b7f4d75636820616d6f756e74000000000000000000000000000000000000000000600082015250565b60006148f5600b8361476a565b9150614900826148bf565b602082019050919050565b60006020820190508181036000830152614924816148e8565b9050919050565b7f4e487b7100000000000000000000000000000000000000000000000000000000600052601160045260246000fd5b600061496582613cae565b915061497083613cae565b92508282039050818111156149885761498761492b565b5b92915050565b600061499982613cae565b91506149a483613cae565b92508282026149b281613cae565b915082820484148315176149c9576149c861492b565b5b5092915050565b7f4e487b7100000000000000000000000000000000000000000000000000000000600052601260045260246000fd5b6000614a0a82613cae565b9150614a1583613cae565b925082614a2557614a246149d0565b5b828204905092915050565b7f496e616374697665000000000000000000000000000000000000000000000000600082015250565b6000614a6660088361476a565b9150614a7182614a30565b602082019050919050565b60006020820190508181036000830152614a9581614a59565b9050919050565b6000614aa7826140f5565b9150614ab2836140f5565b925082820190506fffffffffffffffffffffffffffffffff811115614ada57614ad961492b565b5b92915050565b7f4d75636800000000000000000000000000000000000000000000000000000000600082015250565b6000614b1660048361476a565b9150614b2182614ae0565b602082019050919050565b60006020820190508181036000830152614b4581614b09565b9050919050565b60008060408385031215614b6357614b62613c19565b5b6000614b71858286016141ef565b9250506020614b8285828601613fa3565b9150509250929050565b7f4e487b7100000000000000000000000000000000000000000000000000000000600052603260045260246000fd5b6000614bc682613cae565b9150614bd183613cae565b9250828201905080821115614be957614be861492b565b5b92915050565b7f5265676973746572656400000000000000000000000000000000000000000000600082015250565b6000614c25600a8361476a565b9150614c3082614bef565b602082019050919050565b60006020820190508181036000830152614c5481614c18565b9050919050565b6000614c6682613e4b565b9150614c7183613e4b565b9250828201905063ffffffff811115614c8d57614c8c61492b565b5b92915050565b6000614c9e82613e4b565b915063ffffffff8203614cb457614cb361492b565b5b600182019050919050565b7f4e6f206d61746368696e67207465726d20666f756e6400000000000000000000600082015250565b6000614cf560168361476a565b9150614d0082614cbf565b602082019050919050565b60006020820190508181036000830152614d2481614ce8565b9050919050565b7f4e6f206175746f7061796d656e747320666f756e640000000000000000000000600082015250565b6000614d6160158361476a565b9150614d6c82614d2b565b602082019050919050565b60006020820190508181036000830152614d9081614d54565b9050919050565b7f4e487b7100000000000000000000000000000000000000000000000000000000600052603160045260246000fd5b6000604082019050614ddb6000830185614231565b614de860208301846144b6565b9392505050565b7f496e76616c6964207363686f6f6c206164647265737300000000000000000000600082015250565b6000614e2560168361476a565b9150614e3082614def565b602082019050919050565b60006020820190508181036000830152614e5481614e18565b9050919050565b7f496e76616c696420616d6f756e74000000000000000000000000000000000000600082015250565b6000614e91600e8361476a565b9150614e9c82614e5b565b602082019050919050565b60006020820190508181036000830152614ec081614e84565b9050919050565b7f616d6f756e7420213d207363686f6f6c20747574696f6e000000000000000000600082015250565b6000614efd60178361476a565b9150614f0882614ec7565b602082019050919050565b60006020820190508181036000830152614f2c81614ef0565b9050919050565b7f4c6f772062616c616e6365000000000000000000000000000000000000000000600082015250565b6000614f69600b8361476a565b9150614f7482614f33565b602082019050919050565b60006020820190508181036000830152614f9881614f5c565b9050919050565b7f4d75636820666565000000000000000000000000000000000000000000000000600082015250565b6000614fd560088361476a565b9150614fe082614f9f565b602082019050919050565b6000602082019050818103600083015261500481614fc8565b9050919050565b7f496e76616c6964206465706f7369740000000000000000000000000000000000600082015250565b6000615041600f8361476a565b915061504c8261500b565b602082019050919050565b6000602082019050818103600083015261507081615034565b9050919050565b7f496e76616c696420616464726573730000000000000000000000000000000000600082015250565b60006150ad600f8361476a565b91506150b882615077565b602082019050919050565b600060208201905081810360008301526150dc816150a0565b9050919050565b6000819050919050565b600067ffffffffffffffff82169050919050565b600061511c615117615112846150e3565b6143a8565b6150ed565b9050919050565b61512c81615101565b82525050565b60006020820190506151476000830184615123565b92915050565b7f4c6974746c652062616c616e6365000000000000000000000000000000000000600082015250565b6000615183600e8361476a565b915061518e8261514d565b602082019050919050565b600060208201905081810360008301526151b281615176565b9050919050565b7f496e76616c6964207363686f6f6c416464720000000000000000000000000000600082015250565b60006151ef60128361476a565b91506151fa826151b9565b602082019050919050565b6000602082019050818103600083015261521e816151e2565b9050919050565b7f4f75746461746564205465726d00000000000000000000000000000000000000600082015250565b600061525b600d8361476a565b915061526682615225565b602082019050919050565b6000602082019050818103600083015261528a8161524e565b9050919050565b7f596f7527726520636c6561726564210000000000000000000000000000000000600082015250565b60006152c7600f8361476a565b91506152d282615291565b602082019050919050565b600060208201905081810360008301526152f6816152ba565b9050919050565b7f52656475636520616d6f756e7400000000000000000000000000000000000000600082015250565b6000615333600d8361476a565b915061533e826152fd565b602082019050919050565b6000602082019050818103600083015261536281615326565b9050919050565b600060408201905061537e6000830185613e21565b61538b6020830184613ff8565b9392505050565b60006060820190506153a76000830186613e21565b6153b46020830185613e21565b6153c16040830184613ff8565b94935050505056fea2646970667358221220821508604dffca2ccab5488839aff21bd2ce38271d15ca47f518cd7fdfb42a2364736f6c634300081c0033",
  "linkReferences": {},
  "deployedLinkReferences": {}
}