{
  "_format": "hh-sol-artifact-1",
  "contractName": "Tution",
  "sourceName": "contracts/Tution.sol",
  "abi": [
    {
      "inputs": [],
      "name": "InvalidInitialization",
      "type": "error"
    },
    {
      "inputs": [],
      "name": "NotInitializing",
      "type": "error"
    },
    {
      "inputs": [
        {
          "internalType": "address",
          "name": "owner",
          "type": "address"
        }
      ],
      "name": "OwnableInvalidOwner",
      "type": "error"
    },
    {
      "inputs": [
        {
          "internalType": "address",
          "name": "account",
          "type": "address"
        }
      ],
      "name": "OwnableUnauthorizedAccount",
      "type": "error"
    },
    {
      "inputs": [],
      "name": "ReentrancyGuardReentrantCall",
      "type": "error"
    },
    {
      "inputs": [
        {
          "internalType": "address",
          "name": "token",
          "type": "address"
        }
      ],
      "name": "SafeERC20FailedOperation",
      "type": "error"
    },
    {
      "anonymous": false,
      "inputs": [
        {
          "indexed": false,
          "internalType": "uint64",
          "name": "version",
          "type": "uint64"
        }
      ],
      "name": "Initialized",
      "type": "event"
    },
    {
      "anonymous": false,
      "inputs": [
        {
          "indexed": true,
          "internalType": "address",
          "name": "previousOwner",
          "type": "address"
        },
        {
          "indexed": true,
          "internalType": "address",
          "name": "newOwner",
          "type": "address"
        }
      ],
      "name": "OwnershipTransferred",
      "type": "event"
    },
    {
      "inputs": [
        {
          "internalType": "address",
          "name": "_school",
          "type": "address"
        }
      ],
      "name": "activateSchool",
      "outputs": [],
      "stateMutability": "nonpayable",
      "type": "function"
    },
    {
      "inputs": [
        {
          "internalType": "uint256",
          "name": "_amount",
          "type": "uint256"
        }
      ],
      "name": "clientDeposit",
      "outputs": [],
      "stateMutability": "nonpayable",
      "type": "function"
    },
    {
      "inputs": [
        {
          "internalType": "uint256",
          "name": "_amount",
          "type": "uint256"
        }
      ],
      "name": "clientWithdraw",
      "outputs": [],
      "stateMutability": "nonpayable",
      "type": "function"
    },
    {
      "inputs": [
        {
          "internalType": "address",
          "name": "_school",
          "type": "address"
        }
      ],
      "name": "deactivateSchool",
      "outputs": [],
      "stateMutability": "nonpayable",
      "type": "function"
    },
    {
      "inputs": [],
      "name": "getClient",
      "outputs": [
        {
          "components": [
            {
              "internalType": "uint256",
              "name": "balance",
              "type": "uint256"
            },
            {
              "internalType": "address",
              "name": "client",
              "type": "address"
            }
          ],
          "internalType": "struct Tution.Payer",
          "name": "",
          "type": "tuple"
        }
      ],
      "stateMutability": "view",
      "type": "function"
    },
    {
      "inputs": [
        {
          "internalType": "address",
          "name": "_user",
          "type": "address"
        }
      ],
      "name": "getReceipt",
      "outputs": [
        {
          "components": [
            {
              "internalType": "uint256",
              "name": "time",
              "type": "uint256"
            },
            {
              "internalType": "uint256",
              "name": "amount",
              "type": "uint256"
            },
            {
              "internalType": "uint256",
              "name": "balance",
              "type": "uint256"
            },
            {
              "internalType": "address",
              "name": "payer",
              "type": "address"
            },
            {
              "internalType": "address",
              "name": "school",
              "type": "address"
            },
            {
              "internalType": "bool",
              "name": "cleared",
              "type": "bool"
            },
            {
              "internalType": "bytes32",
              "name": "student",
              "type": "bytes32"
            },
            {
              "internalType": "bytes32",
              "name": "class",
              "type": "bytes32"
            }
          ],
          "internalType": "struct Tution.Receipt",
          "name": "",
          "type": "tuple"
        }
      ],
      "stateMutability": "view",
      "type": "function"
    },
    {
      "inputs": [
        {
          "internalType": "address",
          "name": "_school",
          "type": "address"
        }
      ],
      "name": "getSchoolInfo",
      "outputs": [
        {
          "components": [
            {
              "internalType": "uint256",
              "name": "balance",
              "type": "uint256"
            },
            {
              "internalType": "uint256",
              "name": "tution",
              "type": "uint256"
            },
            {
              "internalType": "address",
              "name": "school",
              "type": "address"
            },
            {
              "internalType": "bool",
              "name": "isRegistered",
              "type": "bool"
            },
            {
              "internalType": "bool",
              "name": "isActive",
              "type": "bool"
            },
            {
              "internalType": "bytes32",
              "name": "name",
              "type": "bytes32"
            }
          ],
          "internalType": "struct Tution.School",
          "name": "",
          "type": "tuple"
        }
      ],
      "stateMutability": "view",
      "type": "function"
    },
    {
      "inputs": [
        {
          "internalType": "address",
          "name": "_tokenUsed",
          "type": "address"
        }
      ],
      "name": "initialize",
      "outputs": [],
      "stateMutability": "nonpayable",
      "type": "function"
    },
    {
      "inputs": [],
      "name": "owner",
      "outputs": [
        {
          "internalType": "address",
          "name": "",
          "type": "address"
        }
      ],
      "stateMutability": "view",
      "type": "function"
    },
    {
      "inputs": [
        {
          "internalType": "address",
          "name": "",
          "type": "address"
        }
      ],
      "name": "payer",
      "outputs": [
        {
          "internalType": "uint256",
          "name": "balance",
          "type": "uint256"
        },
        {
          "internalType": "address",
          "name": "client",
          "type": "address"
        }
      ],
      "stateMutability": "view",
      "type": "function"
    },
    {
      "inputs": [],
      "name": "percentageFee",
      "outputs": [
        {
          "internalType": "uint32",
          "name": "",
          "type": "uint32"
        }
      ],
      "stateMutability": "view",
      "type": "function"
    },
    {
      "inputs": [
        {
          "internalType": "address",
          "name": "",
          "type": "address"
        }
      ],
      "name": "receipt",
      "outputs": [
        {
          "internalType": "uint256",
          "name": "time",
          "type": "uint256"
        },
        {
          "internalType": "uint256",
          "name": "amount",
          "type": "uint256"
        },
        {
          "internalType": "uint256",
          "name": "balance",
          "type": "uint256"
        },
        {
          "internalType": "address",
          "name": "payer",
          "type": "address"
        },
        {
          "internalType": "address",
          "name": "school",
          "type": "address"
        },
        {
          "internalType": "bool",
          "name": "cleared",
          "type": "bool"
        },
        {
          "internalType": "bytes32",
          "name": "student",
          "type": "bytes32"
        },
        {
          "internalType": "bytes32",
          "name": "class",
          "type": "bytes32"
        }
      ],
      "stateMutability": "view",
      "type": "function"
    },
    {
      "inputs": [
        {
          "internalType": "address",
          "name": "_school",
          "type": "address"
        },
        {
          "internalType": "bytes32",
          "name": "_name",
          "type": "bytes32"
        },
        {
          "internalType": "uint256",
          "name": "_tution",
          "type": "uint256"
        }
      ],
      "name": "registerSchool",
      "outputs": [],
      "stateMutability": "nonpayable",
      "type": "function"
    },
    {
      "inputs": [],
      "name": "renounceOwnership",
      "outputs": [],
      "stateMutability": "nonpayable",
      "type": "function"
    },
    {
      "inputs": [
        {
          "internalType": "address",
          "name": "",
          "type": "address"
        }
      ],
      "name": "school",
      "outputs": [
        {
          "internalType": "uint256",
          "name": "balance",
          "type": "uint256"
        },
        {
          "internalType": "uint256",
          "name": "tution",
          "type": "uint256"
        },
        {
          "internalType": "address",
          "name": "school",
          "type": "address"
        },
        {
          "internalType": "bool",
          "name": "isRegistered",
          "type": "bool"
        },
        {
          "internalType": "bool",
          "name": "isActive",
          "type": "bool"
        },
        {
          "internalType": "bytes32",
          "name": "name",
          "type": "bytes32"
        }
      ],
      "stateMutability": "view",
      "type": "function"
    },
    {
      "inputs": [
        {
          "internalType": "address",
          "name": "",
          "type": "address"
        }
      ],
      "name": "schoolWithdraw",
      "outputs": [
        {
          "internalType": "uint256",
          "name": "amount",
          "type": "uint256"
        },
        {
          "internalType": "uint256",
          "name": "net",
          "type": "uint256"
        },
        {
          "internalType": "address",
          "name": "school",
          "type": "address"
        },
        {
          "internalType": "uint32",
          "name": "fee",
          "type": "uint32"
        }
      ],
      "stateMutability": "view",
      "type": "function"
    },
    {
      "inputs": [
        {
          "internalType": "uint256",
          "name": "_amount",
          "type": "uint256"
        }
      ],
      "name": "schoolWithdrawal",
      "outputs": [],
      "stateMutability": "nonpayable",
      "type": "function"
    },
    {
      "inputs": [],
      "name": "stableToken",
      "outputs": [
        {
          "internalType": "contract IERC20",
          "name": "",
          "type": "address"
        }
      ],
      "stateMutability": "view",
      "type": "function"
    },
    {
      "inputs": [
        {
          "internalType": "address",
          "name": "newOwner",
          "type": "address"
        }
      ],
      "name": "transferOwnership",
      "outputs": [],
      "stateMutability": "nonpayable",
      "type": "function"
    },
    {
      "inputs": [
        {
          "internalType": "uint256",
          "name": "_amount",
          "type": "uint256"
        },
        {
          "internalType": "address",
          "name": "_school",
          "type": "address"
        },
        {
          "internalType": "bytes32",
          "name": "_student",
          "type": "bytes32"
        },
        {
          "internalType": "bytes32",
          "name": "_class",
          "type": "bytes32"
        }
      ],
      "name": "tutionPayment",
      "outputs": [],
      "stateMutability": "nonpayable",
      "type": "function"
    },
    {
      "inputs": [
        {
          "internalType": "uint256",
          "name": "_tution",
          "type": "uint256"
        }
      ],
      "name": "updateTution",
      "outputs": [],
      "stateMutability": "nonpayable",
      "type": "function"
    },
    {
      "inputs": [
        {
          "internalType": "uint32",
          "name": "_percentage",
          "type": "uint32"
        }
      ],
      "name": "updateTxFee",
      "outputs": [],
      "stateMutability": "nonpayable",
      "type": "function"
    }
  ],
  "bytecode": "0x6080604052348015600f57600080fd5b50612ec98061001f6000396000f3fe608060405234801561001057600080fd5b50600436106101425760003560e01c8063a9d75b2b116100b8578063c82855921161007c578063c828559214610341578063e35e56631461035d578063e424666214610394578063e5b73e08146103b0578063e97e3f17146103e1578063f2fde38b1461041157610142565b8063a9d75b2b1461029a578063baae1892146102b8578063bd53d5cc146102d4578063c4d66de8146102f0578063c652365c1461030c57610142565b80633b4979c01161010a5780633b4979c0146101e757806359dc735c1461021a578063715018a614610238578063780a7ff0146102425780638745e114146102605780638da5cb5b1461027c57610142565b806304562d9514610147578063065ed3da146101775780630ab01237146101935780633a3cd062146101af5780633b2bb80a146101cb575b600080fd5b610161600480360381019061015c91906121c4565b61042d565b60405161016e91906122ef565b60405180910390f35b610191600480360381019061018c9190612337565b610580565b005b6101ad60048036038101906101a891906121c4565b610902565b005b6101c960048036038101906101c49190612337565b610a10565b005b6101e560048036038101906101e09190612337565b610b14565b005b61020160048036038101906101fc91906121c4565b610c9b565b60405161021194939291906123a1565b60405180910390f35b610222610cfb565b60405161022f9190612415565b60405180910390f35b610240610db2565b005b61024a610dc6565b6040516102579190612430565b60405180910390f35b61027a60048036038101906102759190612477565b610ddc565b005b610284610f1a565b60405161029191906124ca565b60405180910390f35b6102a2610f52565b6040516102af9190612544565b60405180910390f35b6102d260048036038101906102cd919061258b565b610f76565b005b6102ee60048036038101906102e99190612337565b610feb565b005b61030a600480360381019061030591906121c4565b6110e7565b005b610326600480360381019061032191906121c4565b61132d565b604051610338969594939291906125d6565b60405180910390f35b61035b60048036038101906103569190612637565b6113a3565b005b610377600480360381019061037291906121c4565b61177c565b60405161038b98979695949392919061269e565b60405180910390f35b6103ae60048036038101906103a991906121c4565b611811565b005b6103ca60048036038101906103c591906121c4565b6118ce565b6040516103d892919061271c565b60405180910390f35b6103fb60048036038101906103f691906121c4565b611912565b60405161040891906127c0565b60405180910390f35b61042b600480360381019061042691906121c4565b611aaa565b005b610435612065565b600360008373ffffffffffffffffffffffffffffffffffffffff1673ffffffffffffffffffffffffffffffffffffffff168152602001908152602001600020604051806101000160405290816000820154815260200160018201548152602001600282015481526020016003820160009054906101000a900473ffffffffffffffffffffffffffffffffffffffff1673ffffffffffffffffffffffffffffffffffffffff1673ffffffffffffffffffffffffffffffffffffffff1681526020016004820160009054906101000a900473ffffffffffffffffffffffffffffffffffffffff1673ffffffffffffffffffffffffffffffffffffffff1673ffffffffffffffffffffffffffffffffffffffff1681526020016004820160149054906101000a900460ff16151515158152602001600582015481526020016006820154815250509050919050565b6000600160003373ffffffffffffffffffffffffffffffffffffffff1673ffffffffffffffffffffffffffffffffffffffff16815260200190815260200160002090508060020160149054906101000a900460ff16610614576040517f08c379a000000000000000000000000000000000000000000000000000000000815260040161060b90612838565b60405180910390fd5b61061c611b30565b6000600160003373ffffffffffffffffffffffffffffffffffffffff1673ffffffffffffffffffffffffffffffffffffffff16815260200190815260200160002090508060020160149054906101000a900460ff166106b0576040517f08c379a00000000000000000000000000000000000000000000000000000000081526004016106a7906128a4565b60405180910390fd5b8060020160159054906101000a900460ff16610701576040517f08c379a00000000000000000000000000000000000000000000000000000000081526004016106f890612910565b60405180910390fd5b82816000015411610747576040517f08c379a000000000000000000000000000000000000000000000000000000000815260040161073e9061297c565b60405180910390fd5b8281600001600082825461075b91906129cb565b9250508190555060006103e8600560009054906101000a900463ffffffff1663ffffffff168561078b91906129ff565b6107959190612a70565b9050600081856107a591906129cb565b905060405180608001604052808681526020018281526020013373ffffffffffffffffffffffffffffffffffffffff1681526020018363ffffffff16815250600460003373ffffffffffffffffffffffffffffffffffffffff1673ffffffffffffffffffffffffffffffffffffffff168152602001908152602001600020600082015181600001556020820151816001015560408201518160020160006101000a81548173ffffffffffffffffffffffffffffffffffffffff021916908373ffffffffffffffffffffffffffffffffffffffff16021790555060608201518160020160146101000a81548163ffffffff021916908363ffffffff1602179055509050506108f3338260008054906101000a900473ffffffffffffffffffffffffffffffffffffffff1673ffffffffffffffffffffffffffffffffffffffff16611b879092919063ffffffff16565b5050506108fe611c06565b5050565b61090a611c1f565b6000600160008373ffffffffffffffffffffffffffffffffffffffff1673ffffffffffffffffffffffffffffffffffffffff16815260200190815260200160002090508060020160149054906101000a900460ff1661099e576040517f08c379a0000000000000000000000000000000000000000000000000000000008152600401610995906128a4565b60405180910390fd5b8060020160159054906101000a900460ff166109ef576040517f08c379a00000000000000000000000000000000000000000000000000000000081526004016109e690612910565b60405180910390fd5b60018160020160156101000a81548160ff0219169083151502179055505050565b610a18611b30565b6000600260003373ffffffffffffffffffffffffffffffffffffffff1673ffffffffffffffffffffffffffffffffffffffff16815260200190815260200160002090508181600001541015610aa2576040517f08c379a0000000000000000000000000000000000000000000000000000000008152600401610a9990612aed565b60405180910390fd5b81816000016000828254610ab691906129cb565b92505081905550610b08338360008054906101000a900473ffffffffffffffffffffffffffffffffffffffff1673ffffffffffffffffffffffffffffffffffffffff16611b879092919063ffffffff16565b50610b11611c06565b50565b6000600160003373ffffffffffffffffffffffffffffffffffffffff1673ffffffffffffffffffffffffffffffffffffffff16815260200190815260200160002090508060020160149054906101000a900460ff16610ba8576040517f08c379a0000000000000000000000000000000000000000000000000000000008152600401610b9f90612838565b60405180910390fd5b6000600160003373ffffffffffffffffffffffffffffffffffffffff1673ffffffffffffffffffffffffffffffffffffffff16815260200190815260200160002090508060020160149054906101000a900460ff16610c3c576040517f08c379a0000000000000000000000000000000000000000000000000000000008152600401610c33906128a4565b60405180910390fd5b8060020160159054906101000a900460ff16610c8d576040517f08c379a0000000000000000000000000000000000000000000000000000000008152600401610c8490612b59565b60405180910390fd5b828160010181905550505050565b60046020528060005260406000206000915090508060000154908060010154908060020160009054906101000a900473ffffffffffffffffffffffffffffffffffffffff16908060020160149054906101000a900463ffffffff16905084565b610d036120de565b600260003373ffffffffffffffffffffffffffffffffffffffff1673ffffffffffffffffffffffffffffffffffffffff168152602001908152602001600020604051806040016040529081600082015481526020016001820160009054906101000a900473ffffffffffffffffffffffffffffffffffffffff1673ffffffffffffffffffffffffffffffffffffffff1673ffffffffffffffffffffffffffffffffffffffff1681525050905090565b610dba611c1f565b610dc46000611ca6565b565b600560009054906101000a900463ffffffff1681565b610de4611c1f565b6040518060c00160405280600081526020018281526020018473ffffffffffffffffffffffffffffffffffffffff16815260200160011515815260200160011515815260200183815250600160003373ffffffffffffffffffffffffffffffffffffffff1673ffffffffffffffffffffffffffffffffffffffff168152602001908152602001600020600082015181600001556020820151816001015560408201518160020160006101000a81548173ffffffffffffffffffffffffffffffffffffffff021916908373ffffffffffffffffffffffffffffffffffffffff16021790555060608201518160020160146101000a81548160ff02191690831515021790555060808201518160020160156101000a81548160ff02191690831515021790555060a08201518160030155905050505050565b600080610f25611d7d565b90508060000160009054906101000a900473ffffffffffffffffffffffffffffffffffffffff1691505090565b60008054906101000a900473ffffffffffffffffffffffffffffffffffffffff1681565b610f7e611c1f565b60328163ffffffff1610610fc7576040517f08c379a0000000000000000000000000000000000000000000000000000000008152600401610fbe90612bc5565b60405180910390fd5b80600560006101000a81548163ffffffff021916908363ffffffff16021790555050565b610ff3611b30565b60008111611036576040517f08c379a000000000000000000000000000000000000000000000000000000000815260040161102d90612c31565b60405180910390fd5b61108333308360008054906101000a900473ffffffffffffffffffffffffffffffffffffffff1673ffffffffffffffffffffffffffffffffffffffff16611da5909392919063ffffffff16565b80600260003373ffffffffffffffffffffffffffffffffffffffff1673ffffffffffffffffffffffffffffffffffffffff16815260200190815260200160002060000160008282546110d59190612c51565b925050819055506110e4611c06565b50565b60006110f1611e27565b905060008160000160089054906101000a900460ff1615905060008260000160009054906101000a900467ffffffffffffffff1690506000808267ffffffffffffffff1614801561113f5750825b9050600060018367ffffffffffffffff16148015611174575060003073ffffffffffffffffffffffffffffffffffffffff163b145b905081158015611182575080155b156111b9576040517ff92ee8a900000000000000000000000000000000000000000000000000000000815260040160405180910390fd5b60018560000160006101000a81548167ffffffffffffffff021916908367ffffffffffffffff16021790555083156112095760018560000160086101000a81548160ff0219169083151502179055505b600073ffffffffffffffffffffffffffffffffffffffff168673ffffffffffffffffffffffffffffffffffffffff1603611278576040517f08c379a000000000000000000000000000000000000000000000000000000000815260040161126f90612cd1565b60405180910390fd5b611280611e3b565b61128933611e4d565b856000806101000a81548173ffffffffffffffffffffffffffffffffffffffff021916908373ffffffffffffffffffffffffffffffffffffffff16021790555083156113255760008560000160086101000a81548160ff0219169083151502179055507fc7f505b2f371ae2175ee4913f4499e1f2633a7b5936321eed1cdaeb6115181d2600160405161131c9190612d40565b60405180910390a15b505050505050565b60016020528060005260406000206000915090508060000154908060010154908060020160009054906101000a900473ffffffffffffffffffffffffffffffffffffffff16908060020160149054906101000a900460ff16908060020160159054906101000a900460ff16908060030154905086565b6113ab611b30565b6000600260003373ffffffffffffffffffffffffffffffffffffffff1673ffffffffffffffffffffffffffffffffffffffff16815260200190815260200160002090506000600160008673ffffffffffffffffffffffffffffffffffffffff1673ffffffffffffffffffffffffffffffffffffffff168152602001908152602001600020905085826000015411611477576040517f08c379a000000000000000000000000000000000000000000000000000000000815260040161146e90612da7565b60405180910390fd5b600073ffffffffffffffffffffffffffffffffffffffff168573ffffffffffffffffffffffffffffffffffffffff16036114e6576040517f08c379a00000000000000000000000000000000000000000000000000000000081526004016114dd90612e13565b60405180910390fd5b8060020160149054906101000a900460ff16611537576040517f08c379a000000000000000000000000000000000000000000000000000000000815260040161152e906128a4565b60405180910390fd5b8060020160159054906101000a900460ff16611588576040517f08c379a000000000000000000000000000000000000000000000000000000000815260040161157f90612910565b60405180910390fd5b8582600001600082825461159c91906129cb565b92505081905550858160000160008282546115b79190612c51565b925050819055506040518061010001604052804281526020018781526020018783600101546115e691906129cb565b81526020013373ffffffffffffffffffffffffffffffffffffffff1681526020018673ffffffffffffffffffffffffffffffffffffffff1681526020018260010154881015611636576000611639565b60015b1515815260200185815260200184815250600360003373ffffffffffffffffffffffffffffffffffffffff1673ffffffffffffffffffffffffffffffffffffffff16815260200190815260200160002060008201518160000155602082015181600101556040820151816002015560608201518160030160006101000a81548173ffffffffffffffffffffffffffffffffffffffff021916908373ffffffffffffffffffffffffffffffffffffffff16021790555060808201518160040160006101000a81548173ffffffffffffffffffffffffffffffffffffffff021916908373ffffffffffffffffffffffffffffffffffffffff16021790555060a08201518160040160146101000a81548160ff02191690831515021790555060c0820151816005015560e082015181600601559050505050611776611c06565b50505050565b60036020528060005260406000206000915090508060000154908060010154908060020154908060030160009054906101000a900473ffffffffffffffffffffffffffffffffffffffff16908060040160009054906101000a900473ffffffffffffffffffffffffffffffffffffffff16908060040160149054906101000a900460ff16908060050154908060060154905088565b611819611c1f565b6000600160008373ffffffffffffffffffffffffffffffffffffffff1673ffffffffffffffffffffffffffffffffffffffff16815260200190815260200160002090508060020160159054906101000a900460ff166118ad576040517f08c379a00000000000000000000000000000000000000000000000000000000081526004016118a490612910565b60405180910390fd5b60008160020160156101000a81548160ff0219169083151502179055505050565b60026020528060005260406000206000915090508060000154908060010160009054906101000a900473ffffffffffffffffffffffffffffffffffffffff16905082565b61191a61210e565b6000600160003373ffffffffffffffffffffffffffffffffffffffff1673ffffffffffffffffffffffffffffffffffffffff16815260200190815260200160002090508060020160149054906101000a900460ff166119ae576040517f08c379a00000000000000000000000000000000000000000000000000000000081526004016119a590612838565b60405180910390fd5b600160008473ffffffffffffffffffffffffffffffffffffffff1673ffffffffffffffffffffffffffffffffffffffff1681526020019081526020016000206040518060c001604052908160008201548152602001600182015481526020016002820160009054906101000a900473ffffffffffffffffffffffffffffffffffffffff1673ffffffffffffffffffffffffffffffffffffffff1673ffffffffffffffffffffffffffffffffffffffff1681526020016002820160149054906101000a900460ff161515151581526020016002820160159054906101000a900460ff16151515158152602001600382015481525050915050919050565b611ab2611c1f565b600073ffffffffffffffffffffffffffffffffffffffff168173ffffffffffffffffffffffffffffffffffffffff1603611b245760006040517f1e4fbdf7000000000000000000000000000000000000000000000000000000008152600401611b1b91906124ca565b60405180910390fd5b611b2d81611ca6565b50565b6000611b3a611e61565b90506002816000015403611b7a576040517f3ee5aeb500000000000000000000000000000000000000000000000000000000815260040160405180910390fd5b6002816000018190555050565b611c01838473ffffffffffffffffffffffffffffffffffffffff1663a9059cbb8585604051602401611bba929190612e33565b604051602081830303815290604052915060e01b6020820180517bffffffffffffffffffffffffffffffffffffffffffffffffffffffff8381831617835250505050611e89565b505050565b6000611c10611e61565b90506001816000018190555050565b611c27611f2b565b73ffffffffffffffffffffffffffffffffffffffff16611c45610f1a565b73ffffffffffffffffffffffffffffffffffffffff1614611ca457611c68611f2b565b6040517f118cdaa7000000000000000000000000000000000000000000000000000000008152600401611c9b91906124ca565b60405180910390fd5b565b6000611cb0611d7d565b905060008160000160009054906101000a900473ffffffffffffffffffffffffffffffffffffffff169050828260000160006101000a81548173ffffffffffffffffffffffffffffffffffffffff021916908373ffffffffffffffffffffffffffffffffffffffff1602179055508273ffffffffffffffffffffffffffffffffffffffff168173ffffffffffffffffffffffffffffffffffffffff167f8be0079c531659141344cd1fd0a4f28419497f9722a3daafe3b4186f6b6457e060405160405180910390a3505050565b60007f9016d09d72d40fdae2fd8ceac6b6234c7706214fd39c1cd1e609a0528c199300905090565b611e21848573ffffffffffffffffffffffffffffffffffffffff166323b872dd868686604051602401611dda93929190612e5c565b604051602081830303815290604052915060e01b6020820180517bffffffffffffffffffffffffffffffffffffffffffffffffffffffff8381831617835250505050611e89565b50505050565b600080611e32611f33565b90508091505090565b611e43611f5e565b611e4b611f9e565b565b611e55611f5e565b611e5e81611fbf565b50565b60007f9b779b17422d0df92223018b32b4d1fa46e071723d6817e2486d003becc55f00905090565b600080602060008451602086016000885af180611eac576040513d6000823e3d81fd5b3d925060005191505060008214611ec7576001811415611ee3565b60008473ffffffffffffffffffffffffffffffffffffffff163b145b15611f2557836040517f5274afe7000000000000000000000000000000000000000000000000000000008152600401611f1c91906124ca565b60405180910390fd5b50505050565b600033905090565b60007ff0c57e16840df040f15088dc2f81fe391c3923bec73e23a9662efc9c229c6a0060001b905090565b611f66612045565b611f9c576040517fd7e6bcf800000000000000000000000000000000000000000000000000000000815260040160405180910390fd5b565b611fa6611f5e565b6000611fb0611e61565b90506001816000018190555050565b611fc7611f5e565b600073ffffffffffffffffffffffffffffffffffffffff168173ffffffffffffffffffffffffffffffffffffffff16036120395760006040517f1e4fbdf700000000000000000000000000000000000000000000000000000000815260040161203091906124ca565b60405180910390fd5b61204281611ca6565b50565b600061204f611e27565b60000160089054906101000a900460ff16905090565b604051806101000160405280600081526020016000815260200160008152602001600073ffffffffffffffffffffffffffffffffffffffff168152602001600073ffffffffffffffffffffffffffffffffffffffff16815260200160001515815260200160008019168152602001600080191681525090565b604051806040016040528060008152602001600073ffffffffffffffffffffffffffffffffffffffff1681525090565b6040518060c001604052806000815260200160008152602001600073ffffffffffffffffffffffffffffffffffffffff168152602001600015158152602001600015158152602001600080191681525090565b600080fd5b600073ffffffffffffffffffffffffffffffffffffffff82169050919050565b600061219182612166565b9050919050565b6121a181612186565b81146121ac57600080fd5b50565b6000813590506121be81612198565b92915050565b6000602082840312156121da576121d9612161565b5b60006121e8848285016121af565b91505092915050565b6000819050919050565b612204816121f1565b82525050565b61221381612186565b82525050565b60008115159050919050565b61222e81612219565b82525050565b6000819050919050565b61224781612234565b82525050565b6101008201600082015161226460008501826121fb565b50602082015161227760208501826121fb565b50604082015161228a60408501826121fb565b50606082015161229d606085018261220a565b5060808201516122b0608085018261220a565b5060a08201516122c360a0850182612225565b5060c08201516122d660c085018261223e565b5060e08201516122e960e085018261223e565b50505050565b600061010082019050612305600083018461224d565b92915050565b612314816121f1565b811461231f57600080fd5b50565b6000813590506123318161230b565b92915050565b60006020828403121561234d5761234c612161565b5b600061235b84828501612322565b91505092915050565b61236d816121f1565b82525050565b61237c81612186565b82525050565b600063ffffffff82169050919050565b61239b81612382565b82525050565b60006080820190506123b66000830187612364565b6123c36020830186612364565b6123d06040830185612373565b6123dd6060830184612392565b95945050505050565b6040820160008201516123fc60008501826121fb565b50602082015161240f602085018261220a565b50505050565b600060408201905061242a60008301846123e6565b92915050565b60006020820190506124456000830184612392565b92915050565b61245481612234565b811461245f57600080fd5b50565b6000813590506124718161244b565b92915050565b6000806000606084860312156124905761248f612161565b5b600061249e868287016121af565b93505060206124af86828701612462565b92505060406124c086828701612322565b9150509250925092565b60006020820190506124df6000830184612373565b92915050565b6000819050919050565b600061250a61250561250084612166565b6124e5565b612166565b9050919050565b600061251c826124ef565b9050919050565b600061252e82612511565b9050919050565b61253e81612523565b82525050565b60006020820190506125596000830184612535565b92915050565b61256881612382565b811461257357600080fd5b50565b6000813590506125858161255f565b92915050565b6000602082840312156125a1576125a0612161565b5b60006125af84828501612576565b91505092915050565b6125c181612219565b82525050565b6125d081612234565b82525050565b600060c0820190506125eb6000830189612364565b6125f86020830188612364565b6126056040830187612373565b61261260608301866125b8565b61261f60808301856125b8565b61262c60a08301846125c7565b979650505050505050565b6000806000806080858703121561265157612650612161565b5b600061265f87828801612322565b9450506020612670878288016121af565b935050604061268187828801612462565b925050606061269287828801612462565b91505092959194509250565b6000610100820190506126b4600083018b612364565b6126c1602083018a612364565b6126ce6040830189612364565b6126db6060830188612373565b6126e86080830187612373565b6126f560a08301866125b8565b61270260c08301856125c7565b61270f60e08301846125c7565b9998505050505050505050565b60006040820190506127316000830185612364565b61273e6020830184612373565b9392505050565b60c08201600082015161275b60008501826121fb565b50602082015161276e60208501826121fb565b506040820151612781604085018261220a565b5060608201516127946060850182612225565b5060808201516127a76080850182612225565b5060a08201516127ba60a085018261223e565b50505050565b600060c0820190506127d56000830184612745565b92915050565b600082825260208201905092915050565b7f4e6f742072656769737465726564000000000000000000000000000000000000600082015250565b6000612822600e836127db565b915061282d826127ec565b602082019050919050565b6000602082019050818103600083015261285181612815565b9050919050565b7f556e726567697374657265640000000000000000000000000000000000000000600082015250565b600061288e600c836127db565b915061289982612858565b602082019050919050565b600060208201905081810360008301526128bd81612881565b9050919050565b7f496e6e6163746976650000000000000000000000000000000000000000000000600082015250565b60006128fa6009836127db565b9150612905826128c4565b602082019050919050565b60006020820190508181036000830152612929816128ed565b9050919050565b7f4d75636820616d6f756e74000000000000000000000000000000000000000000600082015250565b6000612966600b836127db565b915061297182612930565b602082019050919050565b6000602082019050818103600083015261299581612959565b9050919050565b7f4e487b7100000000000000000000000000000000000000000000000000000000600052601160045260246000fd5b60006129d6826121f1565b91506129e1836121f1565b92508282039050818111156129f9576129f861299c565b5b92915050565b6000612a0a826121f1565b9150612a15836121f1565b9250828202612a23816121f1565b91508282048414831517612a3a57612a3961299c565b5b5092915050565b7f4e487b7100000000000000000000000000000000000000000000000000000000600052601260045260246000fd5b6000612a7b826121f1565b9150612a86836121f1565b925082612a9657612a95612a41565b5b828204905092915050565b7f4d75636800000000000000000000000000000000000000000000000000000000600082015250565b6000612ad76004836127db565b9150612ae282612aa1565b602082019050919050565b60006020820190508181036000830152612b0681612aca565b9050919050565b7f496e616374697665000000000000000000000000000000000000000000000000600082015250565b6000612b436008836127db565b9150612b4e82612b0d565b602082019050919050565b60006020820190508181036000830152612b7281612b36565b9050919050565b7f4d75636820666565000000000000000000000000000000000000000000000000600082015250565b6000612baf6008836127db565b9150612bba82612b79565b602082019050919050565b60006020820190508181036000830152612bde81612ba2565b9050919050565b7f496e76616c6964206465706f7369740000000000000000000000000000000000600082015250565b6000612c1b600f836127db565b9150612c2682612be5565b602082019050919050565b60006020820190508181036000830152612c4a81612c0e565b9050919050565b6000612c5c826121f1565b9150612c67836121f1565b9250828201905080821115612c7f57612c7e61299c565b5b92915050565b7f496e76616c696420616464726573730000000000000000000000000000000000600082015250565b6000612cbb600f836127db565b9150612cc682612c85565b602082019050919050565b60006020820190508181036000830152612cea81612cae565b9050919050565b6000819050919050565b600067ffffffffffffffff82169050919050565b6000612d2a612d25612d2084612cf1565b6124e5565b612cfb565b9050919050565b612d3a81612d0f565b82525050565b6000602082019050612d556000830184612d31565b92915050565b7f4c6974746c652062616c616e6365000000000000000000000000000000000000600082015250565b6000612d91600e836127db565b9150612d9c82612d5b565b602082019050919050565b60006020820190508181036000830152612dc081612d84565b9050919050565b7f496e76616c6964207363686f6f6c416464720000000000000000000000000000600082015250565b6000612dfd6012836127db565b9150612e0882612dc7565b602082019050919050565b60006020820190508181036000830152612e2c81612df0565b9050919050565b6000604082019050612e486000830185612373565b612e556020830184612364565b9392505050565b6000606082019050612e716000830186612373565b612e7e6020830185612373565b612e8b6040830184612364565b94935050505056fea2646970667358221220918f3eb03c0ec6172f2a3de2bc92f31ba318c07c33fafc8905d788855d5f25b264736f6c634300081c0033",
  "linkReferences": {},
  "deployedLinkReferences": {}
}