{
  "_format": "hh-sol-artifact-1",
  "contractName": "Tution",
  "sourceName": "contracts/Tution.sol",
  "abi": [
    {
      "inputs": [],
      "name": "InvalidInitialization",
      "type": "error"
    },
    {
      "inputs": [],
      "name": "NotInitializing",
      "type": "error"
    },
    {
      "inputs": [
        {
          "internalType": "address",
          "name": "owner",
          "type": "address"
        }
      ],
      "name": "OwnableInvalidOwner",
      "type": "error"
    },
    {
      "inputs": [
        {
          "internalType": "address",
          "name": "account",
          "type": "address"
        }
      ],
      "name": "OwnableUnauthorizedAccount",
      "type": "error"
    },
    {
      "inputs": [],
      "name": "ReentrancyGuardReentrantCall",
      "type": "error"
    },
    {
      "inputs": [
        {
          "internalType": "address",
          "name": "token",
          "type": "address"
        }
      ],
      "name": "SafeERC20FailedOperation",
      "type": "error"
    },
    {
      "anonymous": false,
      "inputs": [
        {
          "indexed": false,
          "internalType": "uint64",
          "name": "version",
          "type": "uint64"
        }
      ],
      "name": "Initialized",
      "type": "event"
    },
    {
      "anonymous": false,
      "inputs": [
        {
          "indexed": true,
          "internalType": "address",
          "name": "previousOwner",
          "type": "address"
        },
        {
          "indexed": true,
          "internalType": "address",
          "name": "newOwner",
          "type": "address"
        }
      ],
      "name": "OwnershipTransferred",
      "type": "event"
    },
    {
      "inputs": [
        {
          "internalType": "uint256",
          "name": "_tution",
          "type": "uint256"
        },
        {
          "internalType": "uint32",
          "name": "_start",
          "type": "uint32"
        },
        {
          "internalType": "uint32",
          "name": "_end",
          "type": "uint32"
        }
      ],
      "name": "AcademicTermUpdate",
      "outputs": [],
      "stateMutability": "nonpayable",
      "type": "function"
    },
    {
      "inputs": [
        {
          "internalType": "uint128",
          "name": "",
          "type": "uint128"
        }
      ],
      "name": "academicTerm",
      "outputs": [
        {
          "internalType": "uint256",
          "name": "tution",
          "type": "uint256"
        },
        {
          "internalType": "address",
          "name": "school",
          "type": "address"
        },
        {
          "internalType": "uint128",
          "name": "termId",
          "type": "uint128"
        },
        {
          "internalType": "bool",
          "name": "hasStarted",
          "type": "bool"
        },
        {
          "internalType": "bool",
          "name": "hasEnded",
          "type": "bool"
        },
        {
          "internalType": "uint32",
          "name": "start",
          "type": "uint32"
        },
        {
          "internalType": "uint32",
          "name": "end",
          "type": "uint32"
        }
      ],
      "stateMutability": "view",
      "type": "function"
    },
    {
      "inputs": [
        {
          "internalType": "address",
          "name": "_school",
          "type": "address"
        }
      ],
      "name": "activateSchool",
      "outputs": [],
      "stateMutability": "nonpayable",
      "type": "function"
    },
    {
      "inputs": [
        {
          "internalType": "bytes",
          "name": "",
          "type": "bytes"
        }
      ],
      "name": "checkUpkeep",
      "outputs": [
        {
          "internalType": "bool",
          "name": "upkeepNeeded",
          "type": "bool"
        },
        {
          "internalType": "bytes",
          "name": "performData",
          "type": "bytes"
        }
      ],
      "stateMutability": "view",
      "type": "function"
    },
    {
      "inputs": [
        {
          "internalType": "uint256",
          "name": "_amount",
          "type": "uint256"
        }
      ],
      "name": "clientDeposit",
      "outputs": [],
      "stateMutability": "nonpayable",
      "type": "function"
    },
    {
      "inputs": [
        {
          "internalType": "uint256",
          "name": "_amount",
          "type": "uint256"
        }
      ],
      "name": "clientWithdraw",
      "outputs": [],
      "stateMutability": "nonpayable",
      "type": "function"
    },
    {
      "inputs": [
        {
          "internalType": "address",
          "name": "_school",
          "type": "address"
        }
      ],
      "name": "deactivateSchool",
      "outputs": [],
      "stateMutability": "nonpayable",
      "type": "function"
    },
    {
      "inputs": [],
      "name": "getClient",
      "outputs": [
        {
          "components": [
            {
              "internalType": "uint256",
              "name": "balance",
              "type": "uint256"
            },
            {
              "internalType": "uint256",
              "name": "termPayments",
              "type": "uint256"
            },
            {
              "internalType": "address",
              "name": "client",
              "type": "address"
            }
          ],
          "internalType": "struct Tution.Payer",
          "name": "",
          "type": "tuple"
        }
      ],
      "stateMutability": "view",
      "type": "function"
    },
    {
      "inputs": [
        {
          "internalType": "address",
          "name": "_user",
          "type": "address"
        }
      ],
      "name": "getReceipt",
      "outputs": [
        {
          "components": [
            {
              "internalType": "uint256",
              "name": "time",
              "type": "uint256"
            },
            {
              "internalType": "uint256",
              "name": "amount",
              "type": "uint256"
            },
            {
              "internalType": "uint256",
              "name": "balance",
              "type": "uint256"
            },
            {
              "internalType": "address",
              "name": "payer",
              "type": "address"
            },
            {
              "internalType": "address",
              "name": "school",
              "type": "address"
            },
            {
              "internalType": "bool",
              "name": "cleared",
              "type": "bool"
            },
            {
              "internalType": "bytes32",
              "name": "student",
              "type": "bytes32"
            },
            {
              "internalType": "bytes32",
              "name": "class",
              "type": "bytes32"
            }
          ],
          "internalType": "struct Tution.Receipt",
          "name": "",
          "type": "tuple"
        }
      ],
      "stateMutability": "view",
      "type": "function"
    },
    {
      "inputs": [
        {
          "internalType": "address",
          "name": "_school",
          "type": "address"
        }
      ],
      "name": "getSchoolInfo",
      "outputs": [
        {
          "components": [
            {
              "internalType": "uint256",
              "name": "balance",
              "type": "uint256"
            },
            {
              "internalType": "uint256",
              "name": "tution",
              "type": "uint256"
            },
            {
              "internalType": "address",
              "name": "school",
              "type": "address"
            },
            {
              "internalType": "bool",
              "name": "isRegistered",
              "type": "bool"
            },
            {
              "internalType": "bool",
              "name": "isActive",
              "type": "bool"
            },
            {
              "internalType": "uint32",
              "name": "schoolId",
              "type": "uint32"
            },
            {
              "internalType": "bytes32",
              "name": "name",
              "type": "bytes32"
            }
          ],
          "internalType": "struct Tution.School",
          "name": "",
          "type": "tuple"
        }
      ],
      "stateMutability": "view",
      "type": "function"
    },
    {
      "inputs": [
        {
          "internalType": "uint128",
          "name": "_termId",
          "type": "uint128"
        }
      ],
      "name": "getacademicTerm",
      "outputs": [
        {
          "components": [
            {
              "internalType": "uint256",
              "name": "tution",
              "type": "uint256"
            },
            {
              "internalType": "address",
              "name": "school",
              "type": "address"
            },
            {
              "internalType": "uint128",
              "name": "termId",
              "type": "uint128"
            },
            {
              "internalType": "bool",
              "name": "hasStarted",
              "type": "bool"
            },
            {
              "internalType": "bool",
              "name": "hasEnded",
              "type": "bool"
            },
            {
              "internalType": "uint32",
              "name": "start",
              "type": "uint32"
            },
            {
              "internalType": "uint32",
              "name": "end",
              "type": "uint32"
            }
          ],
          "internalType": "struct Tution.AcademicTerm",
          "name": "",
          "type": "tuple"
        }
      ],
      "stateMutability": "view",
      "type": "function"
    },
    {
      "inputs": [
        {
          "internalType": "address",
          "name": "_tokenUsed",
          "type": "address"
        }
      ],
      "name": "initialize",
      "outputs": [],
      "stateMutability": "nonpayable",
      "type": "function"
    },
    {
      "inputs": [],
      "name": "newSchoolId",
      "outputs": [
        {
          "internalType": "uint32",
          "name": "",
          "type": "uint32"
        }
      ],
      "stateMutability": "view",
      "type": "function"
    },
    {
      "inputs": [],
      "name": "owner",
      "outputs": [
        {
          "internalType": "address",
          "name": "",
          "type": "address"
        }
      ],
      "stateMutability": "view",
      "type": "function"
    },
    {
      "inputs": [
        {
          "internalType": "address",
          "name": "",
          "type": "address"
        }
      ],
      "name": "payer",
      "outputs": [
        {
          "internalType": "uint256",
          "name": "balance",
          "type": "uint256"
        },
        {
          "internalType": "uint256",
          "name": "termPayments",
          "type": "uint256"
        },
        {
          "internalType": "address",
          "name": "client",
          "type": "address"
        }
      ],
      "stateMutability": "view",
      "type": "function"
    },
    {
      "inputs": [],
      "name": "paymentsMade",
      "outputs": [
        {
          "internalType": "uint256",
          "name": "",
          "type": "uint256"
        }
      ],
      "stateMutability": "view",
      "type": "function"
    },
    {
      "inputs": [],
      "name": "percentageFee",
      "outputs": [
        {
          "internalType": "uint32",
          "name": "",
          "type": "uint32"
        }
      ],
      "stateMutability": "view",
      "type": "function"
    },
    {
      "inputs": [
        {
          "internalType": "bytes",
          "name": "performData",
          "type": "bytes"
        }
      ],
      "name": "performUpkeep",
      "outputs": [],
      "stateMutability": "nonpayable",
      "type": "function"
    },
    {
      "inputs": [
        {
          "internalType": "address",
          "name": "",
          "type": "address"
        }
      ],
      "name": "receipt",
      "outputs": [
        {
          "internalType": "uint256",
          "name": "time",
          "type": "uint256"
        },
        {
          "internalType": "uint256",
          "name": "amount",
          "type": "uint256"
        },
        {
          "internalType": "uint256",
          "name": "balance",
          "type": "uint256"
        },
        {
          "internalType": "address",
          "name": "payer",
          "type": "address"
        },
        {
          "internalType": "address",
          "name": "school",
          "type": "address"
        },
        {
          "internalType": "bool",
          "name": "cleared",
          "type": "bool"
        },
        {
          "internalType": "bytes32",
          "name": "student",
          "type": "bytes32"
        },
        {
          "internalType": "bytes32",
          "name": "class",
          "type": "bytes32"
        }
      ],
      "stateMutability": "view",
      "type": "function"
    },
    {
      "inputs": [
        {
          "internalType": "address",
          "name": "_school",
          "type": "address"
        },
        {
          "internalType": "bytes32",
          "name": "_name",
          "type": "bytes32"
        }
      ],
      "name": "registerSchool",
      "outputs": [],
      "stateMutability": "nonpayable",
      "type": "function"
    },
    {
      "inputs": [],
      "name": "renounceOwnership",
      "outputs": [],
      "stateMutability": "nonpayable",
      "type": "function"
    },
    {
      "inputs": [
        {
          "internalType": "address",
          "name": "",
          "type": "address"
        }
      ],
      "name": "school",
      "outputs": [
        {
          "internalType": "uint256",
          "name": "balance",
          "type": "uint256"
        },
        {
          "internalType": "uint256",
          "name": "tution",
          "type": "uint256"
        },
        {
          "internalType": "address",
          "name": "school",
          "type": "address"
        },
        {
          "internalType": "bool",
          "name": "isRegistered",
          "type": "bool"
        },
        {
          "internalType": "bool",
          "name": "isActive",
          "type": "bool"
        },
        {
          "internalType": "uint32",
          "name": "schoolId",
          "type": "uint32"
        },
        {
          "internalType": "bytes32",
          "name": "name",
          "type": "bytes32"
        }
      ],
      "stateMutability": "view",
      "type": "function"
    },
    {
      "inputs": [
        {
          "internalType": "uint256",
          "name": "_amount",
          "type": "uint256"
        }
      ],
      "name": "schoolWithdrawal",
      "outputs": [],
      "stateMutability": "nonpayable",
      "type": "function"
    },
    {
      "inputs": [],
      "name": "stableToken",
      "outputs": [
        {
          "internalType": "contract IERC20",
          "name": "",
          "type": "address"
        }
      ],
      "stateMutability": "view",
      "type": "function"
    },
    {
      "inputs": [],
      "name": "termIdBySchool",
      "outputs": [
        {
          "internalType": "uint128",
          "name": "",
          "type": "uint128"
        }
      ],
      "stateMutability": "view",
      "type": "function"
    },
    {
      "inputs": [
        {
          "internalType": "address",
          "name": "newOwner",
          "type": "address"
        }
      ],
      "name": "transferOwnership",
      "outputs": [],
      "stateMutability": "nonpayable",
      "type": "function"
    },
    {
      "inputs": [
        {
          "internalType": "uint256",
          "name": "_amount",
          "type": "uint256"
        },
        {
          "internalType": "address",
          "name": "_school",
          "type": "address"
        },
        {
          "internalType": "bytes32",
          "name": "_student",
          "type": "bytes32"
        },
        {
          "internalType": "bytes32",
          "name": "_class",
          "type": "bytes32"
        }
      ],
      "name": "tutionPayment",
      "outputs": [],
      "stateMutability": "nonpayable",
      "type": "function"
    },
    {
      "inputs": [
        {
          "internalType": "uint32",
          "name": "_percentage",
          "type": "uint32"
        }
      ],
      "name": "updateTxFee",
      "outputs": [],
      "stateMutability": "nonpayable",
      "type": "function"
    }
  ],
  "bytecode": "0x6080604052348015600f57600080fd5b50613ffa8061001f6000396000f3fe608060405234801561001057600080fd5b50600436106101c45760003560e01c80638da5cb5b116100f9578063e35e566311610097578063e97e3f1711610071578063e97e3f17146104f1578063f2fde38b14610521578063f93038ad1461053d578063fde345bc1461056d576101c4565b8063e35e56631461046c578063e4246662146104a3578063e5b73e08146104bf576101c4565b8063bd53d5cc116100d3578063bd53d5cc146103e2578063c4d66de8146103fe578063c652365c1461041a578063c828559214610450576101c4565b80638da5cb5b1461038a578063a9d75b2b146103a8578063baae1892146103c6576101c4565b80634ff59cf8116101665780636e04ff0d116101405780636e04ff0d14610313578063715018a614610344578063780a7ff01461034e5780637866eb0f1461036c576101c4565b80634ff59cf8146102a157806359dc735c146102bf57806368df7881146102dd576101c4565b806329546a35116101a257806329546a35146102315780633a3cd0621461024d5780634585e33b146102695780634cd36a1c14610285576101c4565b806304562d95146101c9578063065ed3da146101f95780630ab0123714610215575b600080fd5b6101e360048036038101906101de9190612dba565b61058b565b6040516101f09190612ee5565b60405180910390f35b610213600480360381019061020e9190612f2d565b6106de565b005b61022f600480360381019061022a9190612dba565b61095f565b005b61024b60048036038101906102469190612f96565b610a6d565b005b61026760048036038101906102629190612f2d565b610e45565b005b610283600480360381019061027e919061304e565b610f49565b005b61029f600480360381019061029a91906130c7565b6111eb565b005b6102a961143e565b6040516102b69190613116565b60405180910390f35b6102c7611444565b6040516102d49190613173565b60405180910390f35b6102f760048036038101906102f291906131d6565b611505565b60405161030a979695949392919061323f565b60405180910390f35b61032d6004803603810190610328919061304e565b6115bd565b60405161033b92919061333e565b60405180910390f35b61034c611799565b005b6103566117ad565b604051610363919061336e565b60405180910390f35b6103746117c3565b604051610381919061336e565b60405180910390f35b6103926117d9565b60405161039f9190613389565b60405180910390f35b6103b0611811565b6040516103bd9190613403565b60405180910390f35b6103e060048036038101906103db919061341e565b611835565b005b6103fc60048036038101906103f79190612f2d565b6118aa565b005b61041860048036038101906104139190612dba565b6119ef565b005b610434600480360381019061042f9190612dba565b611c35565b604051610447979695949392919061345a565b60405180910390f35b61046a600480360381019061046591906134c9565b611cc1565b005b61048660048036038101906104819190612dba565b612119565b60405161049a989796959493929190613530565b60405180910390f35b6104bd60048036038101906104b89190612dba565b6121ae565b005b6104d960048036038101906104d49190612dba565b61226b565b6040516104e8939291906135ae565b60405180910390f35b61050b60048036038101906105069190612dba565b6122b5565b6040516105189190613682565b60405180910390f35b61053b60048036038101906105369190612dba565b612473565b005b610557600480360381019061055291906131d6565b6124f9565b604051610564919061373a565b60405180910390f35b610575612676565b6040516105829190613755565b60405180910390f35b610593612bcd565b600360008373ffffffffffffffffffffffffffffffffffffffff1673ffffffffffffffffffffffffffffffffffffffff168152602001908152602001600020604051806101000160405290816000820154815260200160018201548152602001600282015481526020016003820160009054906101000a900473ffffffffffffffffffffffffffffffffffffffff1673ffffffffffffffffffffffffffffffffffffffff1673ffffffffffffffffffffffffffffffffffffffff1681526020016004820160009054906101000a900473ffffffffffffffffffffffffffffffffffffffff1673ffffffffffffffffffffffffffffffffffffffff1673ffffffffffffffffffffffffffffffffffffffff1681526020016004820160149054906101000a900460ff16151515158152602001600582015481526020016006820154815250509050919050565b6000600160003373ffffffffffffffffffffffffffffffffffffffff1673ffffffffffffffffffffffffffffffffffffffff16815260200190815260200160002090508060020160149054906101000a900460ff16610772576040517f08c379a0000000000000000000000000000000000000000000000000000000008152600401610769906137cd565b60405180910390fd5b61077a612698565b6000600160003373ffffffffffffffffffffffffffffffffffffffff1673ffffffffffffffffffffffffffffffffffffffff16815260200190815260200160002090508060020160149054906101000a900460ff1661080e576040517f08c379a000000000000000000000000000000000000000000000000000000000815260040161080590613839565b60405180910390fd5b8060020160159054906101000a900460ff1661085f576040517f08c379a0000000000000000000000000000000000000000000000000000000008152600401610856906138a5565b60405180910390fd5b828160000154116108a5576040517f08c379a000000000000000000000000000000000000000000000000000000000815260040161089c90613911565b60405180910390fd5b828160000160008282546108b99190613960565b9250508190555060006103e8600560149054906101000a900463ffffffff1663ffffffff16856108e99190613994565b6108f39190613a05565b9050600081856109039190613960565b9050610950338260008054906101000a900473ffffffffffffffffffffffffffffffffffffffff1673ffffffffffffffffffffffffffffffffffffffff166126ef9092919063ffffffff16565b50505061095b61276e565b5050565b610967612787565b6000600160008373ffffffffffffffffffffffffffffffffffffffff1673ffffffffffffffffffffffffffffffffffffffff16815260200190815260200160002090508060020160149054906101000a900460ff166109fb576040517f08c379a00000000000000000000000000000000000000000000000000000000081526004016109f290613839565b60405180910390fd5b8060020160159054906101000a900460ff16610a4c576040517f08c379a0000000000000000000000000000000000000000000000000000000008152600401610a43906138a5565b60405180910390fd5b60018160020160156101000a81548160ff0219169083151502179055505050565b6000600160003373ffffffffffffffffffffffffffffffffffffffff1673ffffffffffffffffffffffffffffffffffffffff16815260200190815260200160002090508060020160149054906101000a900460ff16610b01576040517f08c379a0000000000000000000000000000000000000000000000000000000008152600401610af8906137cd565b60405180910390fd5b6000600160003373ffffffffffffffffffffffffffffffffffffffff1673ffffffffffffffffffffffffffffffffffffffff16815260200190815260200160002090508060020160149054906101000a900460ff16610b95576040517f08c379a0000000000000000000000000000000000000000000000000000000008152600401610b8c90613839565b60405180910390fd5b8060020160159054906101000a900460ff16610be6576040517f08c379a0000000000000000000000000000000000000000000000000000000008152600401610bdd90613a82565b60405180910390fd5b6040518060e001604052808681526020013373ffffffffffffffffffffffffffffffffffffffff168152602001600560049054906101000a90046fffffffffffffffffffffffffffffffff166fffffffffffffffffffffffffffffffff1681526020016000151581526020016000151581526020018563ffffffff1681526020018463ffffffff16815250600460008360020160169054906101000a900463ffffffff1663ffffffff166fffffffffffffffffffffffffffffffff1681526020019081526020016000206000820151816000015560208201518160010160006101000a81548173ffffffffffffffffffffffffffffffffffffffff021916908373ffffffffffffffffffffffffffffffffffffffff16021790555060408201518160020160006101000a8154816fffffffffffffffffffffffffffffffff02191690836fffffffffffffffffffffffffffffffff16021790555060608201518160020160106101000a81548160ff02191690831515021790555060808201518160020160116101000a81548160ff02191690831515021790555060a08201518160020160126101000a81548163ffffffff021916908363ffffffff16021790555060c08201518160020160166101000a81548163ffffffff021916908363ffffffff1602179055509050506001600560048282829054906101000a90046fffffffffffffffffffffffffffffffff16610dff9190613aa2565b92506101000a8154816fffffffffffffffffffffffffffffffff02191690836fffffffffffffffffffffffffffffffff1602179055508481600101819055505050505050565b610e4d612698565b6000600260003373ffffffffffffffffffffffffffffffffffffffff1673ffffffffffffffffffffffffffffffffffffffff16815260200190815260200160002090508181600001541015610ed7576040517f08c379a0000000000000000000000000000000000000000000000000000000008152600401610ece90613b32565b60405180910390fd5b81816000016000828254610eeb9190613960565b92505081905550610f3d338360008054906101000a900473ffffffffffffffffffffffffffffffffffffffff1673ffffffffffffffffffffffffffffffffffffffff166126ef9092919063ffffffff16565b50610f4661276e565b50565b60008282810190610f5a9190613b52565b905060005b600560009054906101000a900463ffffffff1663ffffffff168163ffffffff1610156111e5576000600460008363ffffffff166fffffffffffffffffffffffffffffffff1681526020019081526020016000209050428160020160129054906101000a900463ffffffff1663ffffffff1611158015610fed57508060020160109054906101000a900460ff16155b801561101857507f85301d412c91b5025a99ca488ca39b08d0d436c51cec3bd9ea6e0754d7d1991583145b1561103b5760018160020160106101000a81548160ff0219169083151502179055505b428160020160129054906101000a900463ffffffff1663ffffffff1610801561107e5750428160020160169054906101000a900463ffffffff1663ffffffff1611155b801561109857508060020160109054906101000a900460ff165b80156110b357508060020160119054906101000a900460ff16155b80156110de57507f5766ed171599f7913d5137e7b28bc984eec1a87a30800016278646d1777f82fb83145b156111015760018160020160116101000a81548160ff0219169083151502179055505b8060020160119054906101000a900460ff1680156111455750610e108160020160169054906101000a900463ffffffff1661113c9190613b7f565b63ffffffff1642115b156111d7576000816000018190555060008160020160106101000a81548160ff02191690831515021790555060008160020160116101000a81548160ff02191690831515021790555060008160020160126101000a81548163ffffffff021916908363ffffffff16021790555060008160020160166101000a81548163ffffffff021916908363ffffffff1602179055505b508080600101915050610f5f565b50505050565b6111f3612787565b600160008373ffffffffffffffffffffffffffffffffffffffff1673ffffffffffffffffffffffffffffffffffffffff16815260200190815260200160002060020160149054906101000a900460ff1615611283576040517f08c379a000000000000000000000000000000000000000000000000000000000815260040161127a90613c03565b60405180910390fd5b6040518060e0016040528060008152602001600081526020018373ffffffffffffffffffffffffffffffffffffffff168152602001600115158152602001600115158152602001600560009054906101000a900463ffffffff1663ffffffff16815260200182815250600160008473ffffffffffffffffffffffffffffffffffffffff1673ffffffffffffffffffffffffffffffffffffffff168152602001908152602001600020600082015181600001556020820151816001015560408201518160020160006101000a81548173ffffffffffffffffffffffffffffffffffffffff021916908373ffffffffffffffffffffffffffffffffffffffff16021790555060608201518160020160146101000a81548160ff02191690831515021790555060808201518160020160156101000a81548160ff02191690831515021790555060a08201518160020160166101000a81548163ffffffff021916908363ffffffff16021790555060c082015181600301559050506001600560008282829054906101000a900463ffffffff1661141c9190613b7f565b92506101000a81548163ffffffff021916908363ffffffff1602179055505050565b60065481565b61144c612c46565b600260003373ffffffffffffffffffffffffffffffffffffffff1673ffffffffffffffffffffffffffffffffffffffff16815260200190815260200160002060405180606001604052908160008201548152602001600182015481526020016002820160009054906101000a900473ffffffffffffffffffffffffffffffffffffffff1673ffffffffffffffffffffffffffffffffffffffff1673ffffffffffffffffffffffffffffffffffffffff1681525050905090565b60046020528060005260406000206000915090508060000154908060010160009054906101000a900473ffffffffffffffffffffffffffffffffffffffff16908060020160009054906101000a90046fffffffffffffffffffffffffffffffff16908060020160109054906101000a900460ff16908060020160119054906101000a900460ff16908060020160129054906101000a900463ffffffff16908060020160169054906101000a900463ffffffff16905087565b6000606060008060005b600560009054906101000a900463ffffffff1663ffffffff168163ffffffff16101561176a576000600460008363ffffffff166fffffffffffffffffffffffffffffffff1681526020019081526020016000209050428160020160129054906101000a900463ffffffff1663ffffffff161115801561165557508060020160109054906101000a900460ff16155b15611687577f85301d412c91b5025a99ca488ca39b08d0d436c51cec3bd9ea6e0754d7d199159350600192505061176a565b428160020160129054906101000a900463ffffffff1663ffffffff161080156116ca5750428160020160169054906101000a900463ffffffff1663ffffffff1611155b80156116e457508060020160109054906101000a900460ff165b80156116ff57508060020160119054906101000a900460ff16155b801561172a57507f85301d412c91b5025a99ca488ca39b08d0d436c51cec3bd9ea6e0754d7d1991584145b1561175c577f5766ed171599f7913d5137e7b28bc984eec1a87a30800016278646d1777f82fb9350600192505061176a565b5080806001019150506115c7565b508093508160405160200161177f9190613c23565b604051602081830303815290604052925050509250929050565b6117a1612787565b6117ab600061280e565b565b600560149054906101000a900463ffffffff1681565b600560009054906101000a900463ffffffff1681565b6000806117e46128e5565b90508060000160009054906101000a900473ffffffffffffffffffffffffffffffffffffffff1691505090565b60008054906101000a900473ffffffffffffffffffffffffffffffffffffffff1681565b61183d612787565b60328163ffffffff1610611886576040517f08c379a000000000000000000000000000000000000000000000000000000000815260040161187d90613c8a565b60405180910390fd5b80600560146101000a81548163ffffffff021916908363ffffffff16021790555050565b6118b2612698565b600081116118f5576040517f08c379a00000000000000000000000000000000000000000000000000000000081526004016118ec90613cf6565b60405180910390fd5b6000600260003373ffffffffffffffffffffffffffffffffffffffff1673ffffffffffffffffffffffffffffffffffffffff168152602001908152602001600020905061198533308460008054906101000a900473ffffffffffffffffffffffffffffffffffffffff1673ffffffffffffffffffffffffffffffffffffffff1661290d909392919063ffffffff16565b818160000160008282546119999190613d16565b92505081905550338160020160006101000a81548173ffffffffffffffffffffffffffffffffffffffff021916908373ffffffffffffffffffffffffffffffffffffffff160217905550506119ec61276e565b50565b60006119f961298f565b905060008160000160089054906101000a900460ff1615905060008260000160009054906101000a900467ffffffffffffffff1690506000808267ffffffffffffffff16148015611a475750825b9050600060018367ffffffffffffffff16148015611a7c575060003073ffffffffffffffffffffffffffffffffffffffff163b145b905081158015611a8a575080155b15611ac1576040517ff92ee8a900000000000000000000000000000000000000000000000000000000815260040160405180910390fd5b60018560000160006101000a81548167ffffffffffffffff021916908367ffffffffffffffff1602179055508315611b115760018560000160086101000a81548160ff0219169083151502179055505b600073ffffffffffffffffffffffffffffffffffffffff168673ffffffffffffffffffffffffffffffffffffffff1603611b80576040517f08c379a0000000000000000000000000000000000000000000000000000000008152600401611b7790613d96565b60405180910390fd5b611b886129a3565b611b91336129b5565b856000806101000a81548173ffffffffffffffffffffffffffffffffffffffff021916908373ffffffffffffffffffffffffffffffffffffffff1602179055508315611c2d5760008560000160086101000a81548160ff0219169083151502179055507fc7f505b2f371ae2175ee4913f4499e1f2633a7b5936321eed1cdaeb6115181d26001604051611c249190613e05565b60405180910390a15b505050505050565b60016020528060005260406000206000915090508060000154908060010154908060020160009054906101000a900473ffffffffffffffffffffffffffffffffffffffff16908060020160149054906101000a900460ff16908060020160159054906101000a900460ff16908060020160169054906101000a900463ffffffff16908060030154905087565b611cc9612698565b6000600260003373ffffffffffffffffffffffffffffffffffffffff1673ffffffffffffffffffffffffffffffffffffffff16815260200190815260200160002090506000600160008673ffffffffffffffffffffffffffffffffffffffff1673ffffffffffffffffffffffffffffffffffffffff168152602001908152602001600020905085826000015411611d95576040517f08c379a0000000000000000000000000000000000000000000000000000000008152600401611d8c90613e6c565b60405180910390fd5b600073ffffffffffffffffffffffffffffffffffffffff168573ffffffffffffffffffffffffffffffffffffffff1603611e04576040517f08c379a0000000000000000000000000000000000000000000000000000000008152600401611dfb90613ed8565b60405180910390fd5b8060020160149054906101000a900460ff16611e55576040517f08c379a0000000000000000000000000000000000000000000000000000000008152600401611e4c90613839565b60405180910390fd5b8060020160159054906101000a900460ff16611ea6576040517f08c379a0000000000000000000000000000000000000000000000000000000008152600401611e9d906138a5565b60405180910390fd5b806001015482600101541115611ef1576040517f08c379a0000000000000000000000000000000000000000000000000000000008152600401611ee890613f44565b60405180910390fd5b85826001016000828254611f059190613d16565b925050819055508560066000828254611f1e9190613d16565b9250508190555085826000016000828254611f399190613960565b9250508190555085816000016000828254611f549190613d16565b92505081905550604051806101000160405280428152602001878152602001878360010154611f839190613960565b81526020013373ffffffffffffffffffffffffffffffffffffffff1681526020018673ffffffffffffffffffffffffffffffffffffffff1681526020018260010154881015611fd3576000611fd6565b60015b1515815260200185815260200184815250600360003373ffffffffffffffffffffffffffffffffffffffff1673ffffffffffffffffffffffffffffffffffffffff16815260200190815260200160002060008201518160000155602082015181600101556040820151816002015560608201518160030160006101000a81548173ffffffffffffffffffffffffffffffffffffffff021916908373ffffffffffffffffffffffffffffffffffffffff16021790555060808201518160040160006101000a81548173ffffffffffffffffffffffffffffffffffffffff021916908373ffffffffffffffffffffffffffffffffffffffff16021790555060a08201518160040160146101000a81548160ff02191690831515021790555060c0820151816005015560e08201518160060155905050505061211361276e565b50505050565b60036020528060005260406000206000915090508060000154908060010154908060020154908060030160009054906101000a900473ffffffffffffffffffffffffffffffffffffffff16908060040160009054906101000a900473ffffffffffffffffffffffffffffffffffffffff16908060040160149054906101000a900460ff16908060050154908060060154905088565b6121b6612787565b6000600160008373ffffffffffffffffffffffffffffffffffffffff1673ffffffffffffffffffffffffffffffffffffffff16815260200190815260200160002090508060020160159054906101000a900460ff1661224a576040517f08c379a0000000000000000000000000000000000000000000000000000000008152600401612241906138a5565b60405180910390fd5b60008160020160156101000a81548160ff0219169083151502179055505050565b60026020528060005260406000206000915090508060000154908060010154908060020160009054906101000a900473ffffffffffffffffffffffffffffffffffffffff16905083565b6122bd612c7d565b6000600160003373ffffffffffffffffffffffffffffffffffffffff1673ffffffffffffffffffffffffffffffffffffffff16815260200190815260200160002090508060020160149054906101000a900460ff16612351576040517f08c379a0000000000000000000000000000000000000000000000000000000008152600401612348906137cd565b60405180910390fd5b600160008473ffffffffffffffffffffffffffffffffffffffff1673ffffffffffffffffffffffffffffffffffffffff1681526020019081526020016000206040518060e001604052908160008201548152602001600182015481526020016002820160009054906101000a900473ffffffffffffffffffffffffffffffffffffffff1673ffffffffffffffffffffffffffffffffffffffff1673ffffffffffffffffffffffffffffffffffffffff1681526020016002820160149054906101000a900460ff161515151581526020016002820160159054906101000a900460ff161515151581526020016002820160169054906101000a900463ffffffff1663ffffffff1663ffffffff168152602001600382015481525050915050919050565b61247b612787565b600073ffffffffffffffffffffffffffffffffffffffff168173ffffffffffffffffffffffffffffffffffffffff16036124ed5760006040517f1e4fbdf70000000000000000000000000000000000000000000000000000000081526004016124e49190613389565b60405180910390fd5b6124f68161280e565b50565b612501612cdd565b60046000836fffffffffffffffffffffffffffffffff166fffffffffffffffffffffffffffffffff1681526020019081526020016000206040518060e0016040529081600082015481526020016001820160009054906101000a900473ffffffffffffffffffffffffffffffffffffffff1673ffffffffffffffffffffffffffffffffffffffff1673ffffffffffffffffffffffffffffffffffffffff1681526020016002820160009054906101000a90046fffffffffffffffffffffffffffffffff166fffffffffffffffffffffffffffffffff166fffffffffffffffffffffffffffffffff1681526020016002820160109054906101000a900460ff161515151581526020016002820160119054906101000a900460ff161515151581526020016002820160129054906101000a900463ffffffff1663ffffffff1663ffffffff1681526020016002820160169054906101000a900463ffffffff1663ffffffff1663ffffffff16815250509050919050565b600560049054906101000a90046fffffffffffffffffffffffffffffffff1681565b60006126a26129c9565b905060028160000154036126e2576040517f3ee5aeb500000000000000000000000000000000000000000000000000000000815260040160405180910390fd5b6002816000018190555050565b612769838473ffffffffffffffffffffffffffffffffffffffff1663a9059cbb8585604051602401612722929190613f64565b604051602081830303815290604052915060e01b6020820180517bffffffffffffffffffffffffffffffffffffffffffffffffffffffff83818316178352505050506129f1565b505050565b60006127786129c9565b90506001816000018190555050565b61278f612a93565b73ffffffffffffffffffffffffffffffffffffffff166127ad6117d9565b73ffffffffffffffffffffffffffffffffffffffff161461280c576127d0612a93565b6040517f118cdaa70000000000000000000000000000000000000000000000000000000081526004016128039190613389565b60405180910390fd5b565b60006128186128e5565b905060008160000160009054906101000a900473ffffffffffffffffffffffffffffffffffffffff169050828260000160006101000a81548173ffffffffffffffffffffffffffffffffffffffff021916908373ffffffffffffffffffffffffffffffffffffffff1602179055508273ffffffffffffffffffffffffffffffffffffffff168173ffffffffffffffffffffffffffffffffffffffff167f8be0079c531659141344cd1fd0a4f28419497f9722a3daafe3b4186f6b6457e060405160405180910390a3505050565b60007f9016d09d72d40fdae2fd8ceac6b6234c7706214fd39c1cd1e609a0528c199300905090565b612989848573ffffffffffffffffffffffffffffffffffffffff166323b872dd86868660405160240161294293929190613f8d565b604051602081830303815290604052915060e01b6020820180517bffffffffffffffffffffffffffffffffffffffffffffffffffffffff83818316178352505050506129f1565b50505050565b60008061299a612a9b565b90508091505090565b6129ab612ac6565b6129b3612b06565b565b6129bd612ac6565b6129c681612b27565b50565b60007f9b779b17422d0df92223018b32b4d1fa46e071723d6817e2486d003becc55f00905090565b600080602060008451602086016000885af180612a14576040513d6000823e3d81fd5b3d925060005191505060008214612a2f576001811415612a4b565b60008473ffffffffffffffffffffffffffffffffffffffff163b145b15612a8d57836040517f5274afe7000000000000000000000000000000000000000000000000000000008152600401612a849190613389565b60405180910390fd5b50505050565b600033905090565b60007ff0c57e16840df040f15088dc2f81fe391c3923bec73e23a9662efc9c229c6a0060001b905090565b612ace612bad565b612b04576040517fd7e6bcf800000000000000000000000000000000000000000000000000000000815260040160405180910390fd5b565b612b0e612ac6565b6000612b186129c9565b90506001816000018190555050565b612b2f612ac6565b600073ffffffffffffffffffffffffffffffffffffffff168173ffffffffffffffffffffffffffffffffffffffff1603612ba15760006040517f1e4fbdf7000000000000000000000000000000000000000000000000000000008152600401612b989190613389565b60405180910390fd5b612baa8161280e565b50565b6000612bb761298f565b60000160089054906101000a900460ff16905090565b604051806101000160405280600081526020016000815260200160008152602001600073ffffffffffffffffffffffffffffffffffffffff168152602001600073ffffffffffffffffffffffffffffffffffffffff16815260200160001515815260200160008019168152602001600080191681525090565b60405180606001604052806000815260200160008152602001600073ffffffffffffffffffffffffffffffffffffffff1681525090565b6040518060e001604052806000815260200160008152602001600073ffffffffffffffffffffffffffffffffffffffff168152602001600015158152602001600015158152602001600063ffffffff168152602001600080191681525090565b6040518060e0016040528060008152602001600073ffffffffffffffffffffffffffffffffffffffff16815260200160006fffffffffffffffffffffffffffffffff168152602001600015158152602001600015158152602001600063ffffffff168152602001600063ffffffff1681525090565b600080fd5b600080fd5b600073ffffffffffffffffffffffffffffffffffffffff82169050919050565b6000612d8782612d5c565b9050919050565b612d9781612d7c565b8114612da257600080fd5b50565b600081359050612db481612d8e565b92915050565b600060208284031215612dd057612dcf612d52565b5b6000612dde84828501612da5565b91505092915050565b6000819050919050565b612dfa81612de7565b82525050565b612e0981612d7c565b82525050565b60008115159050919050565b612e2481612e0f565b82525050565b6000819050919050565b612e3d81612e2a565b82525050565b61010082016000820151612e5a6000850182612df1565b506020820151612e6d6020850182612df1565b506040820151612e806040850182612df1565b506060820151612e936060850182612e00565b506080820151612ea66080850182612e00565b5060a0820151612eb960a0850182612e1b565b5060c0820151612ecc60c0850182612e34565b5060e0820151612edf60e0850182612e34565b50505050565b600061010082019050612efb6000830184612e43565b92915050565b612f0a81612de7565b8114612f1557600080fd5b50565b600081359050612f2781612f01565b92915050565b600060208284031215612f4357612f42612d52565b5b6000612f5184828501612f18565b91505092915050565b600063ffffffff82169050919050565b612f7381612f5a565b8114612f7e57600080fd5b50565b600081359050612f9081612f6a565b92915050565b600080600060608486031215612faf57612fae612d52565b5b6000612fbd86828701612f18565b9350506020612fce86828701612f81565b9250506040612fdf86828701612f81565b9150509250925092565b600080fd5b600080fd5b600080fd5b60008083601f84011261300e5761300d612fe9565b5b8235905067ffffffffffffffff81111561302b5761302a612fee565b5b60208301915083600182028301111561304757613046612ff3565b5b9250929050565b6000806020838503121561306557613064612d52565b5b600083013567ffffffffffffffff81111561308357613082612d57565b5b61308f85828601612ff8565b92509250509250929050565b6130a481612e2a565b81146130af57600080fd5b50565b6000813590506130c18161309b565b92915050565b600080604083850312156130de576130dd612d52565b5b60006130ec85828601612da5565b92505060206130fd858286016130b2565b9150509250929050565b61311081612de7565b82525050565b600060208201905061312b6000830184613107565b92915050565b6060820160008201516131476000850182612df1565b50602082015161315a6020850182612df1565b50604082015161316d6040850182612e00565b50505050565b60006060820190506131886000830184613131565b92915050565b60006fffffffffffffffffffffffffffffffff82169050919050565b6131b38161318e565b81146131be57600080fd5b50565b6000813590506131d0816131aa565b92915050565b6000602082840312156131ec576131eb612d52565b5b60006131fa848285016131c1565b91505092915050565b61320c81612d7c565b82525050565b61321b8161318e565b82525050565b61322a81612e0f565b82525050565b61323981612f5a565b82525050565b600060e082019050613254600083018a613107565b6132616020830189613203565b61326e6040830188613212565b61327b6060830187613221565b6132886080830186613221565b61329560a0830185613230565b6132a260c0830184613230565b98975050505050505050565b600081519050919050565b600082825260208201905092915050565b60005b838110156132e85780820151818401526020810190506132cd565b60008484015250505050565b6000601f19601f8301169050919050565b6000613310826132ae565b61331a81856132b9565b935061332a8185602086016132ca565b613333816132f4565b840191505092915050565b60006040820190506133536000830185613221565b81810360208301526133658184613305565b90509392505050565b60006020820190506133836000830184613230565b92915050565b600060208201905061339e6000830184613203565b92915050565b6000819050919050565b60006133c96133c46133bf84612d5c565b6133a4565b612d5c565b9050919050565b60006133db826133ae565b9050919050565b60006133ed826133d0565b9050919050565b6133fd816133e2565b82525050565b600060208201905061341860008301846133f4565b92915050565b60006020828403121561343457613433612d52565b5b600061344284828501612f81565b91505092915050565b61345481612e2a565b82525050565b600060e08201905061346f600083018a613107565b61347c6020830189613107565b6134896040830188613203565b6134966060830187613221565b6134a36080830186613221565b6134b060a0830185613230565b6134bd60c083018461344b565b98975050505050505050565b600080600080608085870312156134e3576134e2612d52565b5b60006134f187828801612f18565b945050602061350287828801612da5565b9350506040613513878288016130b2565b9250506060613524878288016130b2565b91505092959194509250565b600061010082019050613546600083018b613107565b613553602083018a613107565b6135606040830189613107565b61356d6060830188613203565b61357a6080830187613203565b61358760a0830186613221565b61359460c083018561344b565b6135a160e083018461344b565b9998505050505050505050565b60006060820190506135c36000830186613107565b6135d06020830185613107565b6135dd6040830184613203565b949350505050565b6135ee81612f5a565b82525050565b60e08201600082015161360a6000850182612df1565b50602082015161361d6020850182612df1565b5060408201516136306040850182612e00565b5060608201516136436060850182612e1b565b5060808201516136566080850182612e1b565b5060a082015161366960a08501826135e5565b5060c082015161367c60c0850182612e34565b50505050565b600060e08201905061369760008301846135f4565b92915050565b6136a68161318e565b82525050565b60e0820160008201516136c26000850182612df1565b5060208201516136d56020850182612e00565b5060408201516136e8604085018261369d565b5060608201516136fb6060850182612e1b565b50608082015161370e6080850182612e1b565b5060a082015161372160a08501826135e5565b5060c082015161373460c08501826135e5565b50505050565b600060e08201905061374f60008301846136ac565b92915050565b600060208201905061376a6000830184613212565b92915050565b600082825260208201905092915050565b7f4e6f742072656769737465726564000000000000000000000000000000000000600082015250565b60006137b7600e83613770565b91506137c282613781565b602082019050919050565b600060208201905081810360008301526137e6816137aa565b9050919050565b7f556e726567697374657265640000000000000000000000000000000000000000600082015250565b6000613823600c83613770565b915061382e826137ed565b602082019050919050565b6000602082019050818103600083015261385281613816565b9050919050565b7f496e6e6163746976650000000000000000000000000000000000000000000000600082015250565b600061388f600983613770565b915061389a82613859565b602082019050919050565b600060208201905081810360008301526138be81613882565b9050919050565b7f4d75636820616d6f756e74000000000000000000000000000000000000000000600082015250565b60006138fb600b83613770565b9150613906826138c5565b602082019050919050565b6000602082019050818103600083015261392a816138ee565b9050919050565b7f4e487b7100000000000000000000000000000000000000000000000000000000600052601160045260246000fd5b600061396b82612de7565b915061397683612de7565b925082820390508181111561398e5761398d613931565b5b92915050565b600061399f82612de7565b91506139aa83612de7565b92508282026139b881612de7565b915082820484148315176139cf576139ce613931565b5b5092915050565b7f4e487b7100000000000000000000000000000000000000000000000000000000600052601260045260246000fd5b6000613a1082612de7565b9150613a1b83612de7565b925082613a2b57613a2a6139d6565b5b828204905092915050565b7f496e616374697665000000000000000000000000000000000000000000000000600082015250565b6000613a6c600883613770565b9150613a7782613a36565b602082019050919050565b60006020820190508181036000830152613a9b81613a5f565b9050919050565b6000613aad8261318e565b9150613ab88361318e565b925082820190506fffffffffffffffffffffffffffffffff811115613ae057613adf613931565b5b92915050565b7f4d75636800000000000000000000000000000000000000000000000000000000600082015250565b6000613b1c600483613770565b9150613b2782613ae6565b602082019050919050565b60006020820190508181036000830152613b4b81613b0f565b9050919050565b600060208284031215613b6857613b67612d52565b5b6000613b76848285016130b2565b91505092915050565b6000613b8a82612f5a565b9150613b9583612f5a565b9250828201905063ffffffff811115613bb157613bb0613931565b5b92915050565b7f5265676973746572656400000000000000000000000000000000000000000000600082015250565b6000613bed600a83613770565b9150613bf882613bb7565b602082019050919050565b60006020820190508181036000830152613c1c81613be0565b9050919050565b6000602082019050613c38600083018461344b565b92915050565b7f4d75636820666565000000000000000000000000000000000000000000000000600082015250565b6000613c74600883613770565b9150613c7f82613c3e565b602082019050919050565b60006020820190508181036000830152613ca381613c67565b9050919050565b7f496e76616c6964206465706f7369740000000000000000000000000000000000600082015250565b6000613ce0600f83613770565b9150613ceb82613caa565b602082019050919050565b60006020820190508181036000830152613d0f81613cd3565b9050919050565b6000613d2182612de7565b9150613d2c83612de7565b9250828201905080821115613d4457613d43613931565b5b92915050565b7f496e76616c696420616464726573730000000000000000000000000000000000600082015250565b6000613d80600f83613770565b9150613d8b82613d4a565b602082019050919050565b60006020820190508181036000830152613daf81613d73565b9050919050565b6000819050919050565b600067ffffffffffffffff82169050919050565b6000613def613dea613de584613db6565b6133a4565b613dc0565b9050919050565b613dff81613dd4565b82525050565b6000602082019050613e1a6000830184613df6565b92915050565b7f4c6974746c652062616c616e6365000000000000000000000000000000000000600082015250565b6000613e56600e83613770565b9150613e6182613e20565b602082019050919050565b60006020820190508181036000830152613e8581613e49565b9050919050565b7f496e76616c6964207363686f6f6c416464720000000000000000000000000000600082015250565b6000613ec2601283613770565b9150613ecd82613e8c565b602082019050919050565b60006020820190508181036000830152613ef181613eb5565b9050919050565b7f596f7527726520636c6561726564000000000000000000000000000000000000600082015250565b6000613f2e600e83613770565b9150613f3982613ef8565b602082019050919050565b60006020820190508181036000830152613f5d81613f21565b9050919050565b6000604082019050613f796000830185613203565b613f866020830184613107565b9392505050565b6000606082019050613fa26000830186613203565b613faf6020830185613203565b613fbc6040830184613107565b94935050505056fea264697066735822122021e54ab4d817dc163bb941d70827404e552bf4ed1b74a6f097230b31a8624d3864736f6c634300081c0033",
  "linkReferences": {},
  "deployedLinkReferences": {}
}