{
  "_format": "hh-sol-artifact-1",
  "contractName": "Tution",
  "sourceName": "contracts/Tution.sol",
  "abi": [
    {
      "inputs": [],
      "name": "InvalidInitialization",
      "type": "error"
    },
    {
      "inputs": [],
      "name": "NotInitializing",
      "type": "error"
    },
    {
      "inputs": [
        {
          "internalType": "address",
          "name": "owner",
          "type": "address"
        }
      ],
      "name": "OwnableInvalidOwner",
      "type": "error"
    },
    {
      "inputs": [
        {
          "internalType": "address",
          "name": "account",
          "type": "address"
        }
      ],
      "name": "OwnableUnauthorizedAccount",
      "type": "error"
    },
    {
      "inputs": [],
      "name": "ReentrancyGuardReentrantCall",
      "type": "error"
    },
    {
      "inputs": [
        {
          "internalType": "address",
          "name": "token",
          "type": "address"
        }
      ],
      "name": "SafeERC20FailedOperation",
      "type": "error"
    },
    {
      "anonymous": false,
      "inputs": [
        {
          "indexed": false,
          "internalType": "uint64",
          "name": "version",
          "type": "uint64"
        }
      ],
      "name": "Initialized",
      "type": "event"
    },
    {
      "anonymous": false,
      "inputs": [
        {
          "indexed": true,
          "internalType": "address",
          "name": "previousOwner",
          "type": "address"
        },
        {
          "indexed": true,
          "internalType": "address",
          "name": "newOwner",
          "type": "address"
        }
      ],
      "name": "OwnershipTransferred",
      "type": "event"
    },
    {
      "inputs": [
        {
          "internalType": "uint256",
          "name": "_tution",
          "type": "uint256"
        },
        {
          "internalType": "uint256",
          "name": "_start",
          "type": "uint256"
        },
        {
          "internalType": "uint256",
          "name": "_end",
          "type": "uint256"
        }
      ],
      "name": "AcademicTermUpdate",
      "outputs": [],
      "stateMutability": "nonpayable",
      "type": "function"
    },
    {
      "inputs": [
        {
          "internalType": "uint128",
          "name": "",
          "type": "uint128"
        }
      ],
      "name": "academicTerm",
      "outputs": [
        {
          "internalType": "uint256",
          "name": "tution",
          "type": "uint256"
        },
        {
          "internalType": "uint256",
          "name": "start",
          "type": "uint256"
        },
        {
          "internalType": "uint256",
          "name": "end",
          "type": "uint256"
        },
        {
          "internalType": "address",
          "name": "school",
          "type": "address"
        },
        {
          "internalType": "uint128",
          "name": "termId",
          "type": "uint128"
        },
        {
          "internalType": "bool",
          "name": "hasStarted",
          "type": "bool"
        },
        {
          "internalType": "bool",
          "name": "hasEnded",
          "type": "bool"
        }
      ],
      "stateMutability": "view",
      "type": "function"
    },
    {
      "inputs": [
        {
          "internalType": "address",
          "name": "_school",
          "type": "address"
        }
      ],
      "name": "activateSchool",
      "outputs": [],
      "stateMutability": "nonpayable",
      "type": "function"
    },
    {
      "inputs": [],
      "name": "cancelAutoPayments",
      "outputs": [],
      "stateMutability": "nonpayable",
      "type": "function"
    },
    {
      "inputs": [
        {
          "internalType": "bytes",
          "name": "",
          "type": "bytes"
        }
      ],
      "name": "checkUpkeep",
      "outputs": [
        {
          "internalType": "bool",
          "name": "upkeepNeeded",
          "type": "bool"
        },
        {
          "internalType": "bytes",
          "name": "performData",
          "type": "bytes"
        }
      ],
      "stateMutability": "view",
      "type": "function"
    },
    {
      "inputs": [
        {
          "internalType": "uint256",
          "name": "_amount",
          "type": "uint256"
        }
      ],
      "name": "clientDeposit",
      "outputs": [],
      "stateMutability": "nonpayable",
      "type": "function"
    },
    {
      "inputs": [
        {
          "internalType": "uint256",
          "name": "_amount",
          "type": "uint256"
        }
      ],
      "name": "clientWithdraw",
      "outputs": [],
      "stateMutability": "nonpayable",
      "type": "function"
    },
    {
      "inputs": [
        {
          "internalType": "address",
          "name": "_school",
          "type": "address"
        }
      ],
      "name": "deactivateSchool",
      "outputs": [],
      "stateMutability": "nonpayable",
      "type": "function"
    },
    {
      "inputs": [],
      "name": "getClient",
      "outputs": [
        {
          "components": [
            {
              "internalType": "uint256",
              "name": "balance",
              "type": "uint256"
            },
            {
              "internalType": "uint256",
              "name": "termPayments",
              "type": "uint256"
            },
            {
              "internalType": "uint256",
              "name": "autoPayments",
              "type": "uint256"
            },
            {
              "internalType": "uint256",
              "name": "debts",
              "type": "uint256"
            },
            {
              "internalType": "address",
              "name": "client",
              "type": "address"
            },
            {
              "internalType": "address",
              "name": "school",
              "type": "address"
            },
            {
              "internalType": "uint128",
              "name": "payerId",
              "type": "uint128"
            },
            {
              "internalType": "bool",
              "name": "hasAutoPayments",
              "type": "bool"
            },
            {
              "internalType": "bool",
              "name": "isOnPlatform",
              "type": "bool"
            },
            {
              "internalType": "bytes32",
              "name": "studentName",
              "type": "bytes32"
            },
            {
              "internalType": "bytes32",
              "name": "studentClass",
              "type": "bytes32"
            }
          ],
          "internalType": "struct Tution.Payer",
          "name": "",
          "type": "tuple"
        }
      ],
      "stateMutability": "view",
      "type": "function"
    },
    {
      "inputs": [
        {
          "internalType": "address",
          "name": "_user",
          "type": "address"
        }
      ],
      "name": "getReceipt",
      "outputs": [
        {
          "components": [
            {
              "internalType": "uint256",
              "name": "time",
              "type": "uint256"
            },
            {
              "internalType": "uint256",
              "name": "amount",
              "type": "uint256"
            },
            {
              "internalType": "uint256",
              "name": "balance",
              "type": "uint256"
            },
            {
              "internalType": "address",
              "name": "payer",
              "type": "address"
            },
            {
              "internalType": "address",
              "name": "school",
              "type": "address"
            },
            {
              "internalType": "bool",
              "name": "cleared",
              "type": "bool"
            },
            {
              "internalType": "bytes32",
              "name": "student",
              "type": "bytes32"
            },
            {
              "internalType": "bytes32",
              "name": "class",
              "type": "bytes32"
            }
          ],
          "internalType": "struct Tution.Receipt",
          "name": "",
          "type": "tuple"
        }
      ],
      "stateMutability": "view",
      "type": "function"
    },
    {
      "inputs": [
        {
          "internalType": "address",
          "name": "_school",
          "type": "address"
        }
      ],
      "name": "getSchoolInfo",
      "outputs": [
        {
          "components": [
            {
              "internalType": "uint256",
              "name": "balance",
              "type": "uint256"
            },
            {
              "internalType": "uint256",
              "name": "tution",
              "type": "uint256"
            },
            {
              "internalType": "address",
              "name": "school",
              "type": "address"
            },
            {
              "internalType": "bool",
              "name": "isRegistered",
              "type": "bool"
            },
            {
              "internalType": "bool",
              "name": "isActive",
              "type": "bool"
            },
            {
              "internalType": "uint32",
              "name": "schoolId",
              "type": "uint32"
            },
            {
              "internalType": "bytes32",
              "name": "name",
              "type": "bytes32"
            }
          ],
          "internalType": "struct Tution.School",
          "name": "",
          "type": "tuple"
        }
      ],
      "stateMutability": "view",
      "type": "function"
    },
    {
      "inputs": [
        {
          "internalType": "address",
          "name": "_schoolAddr",
          "type": "address"
        }
      ],
      "name": "getacademicTerm",
      "outputs": [
        {
          "components": [
            {
              "internalType": "uint256",
              "name": "tution",
              "type": "uint256"
            },
            {
              "internalType": "uint256",
              "name": "start",
              "type": "uint256"
            },
            {
              "internalType": "uint256",
              "name": "end",
              "type": "uint256"
            },
            {
              "internalType": "address",
              "name": "school",
              "type": "address"
            },
            {
              "internalType": "uint128",
              "name": "termId",
              "type": "uint128"
            },
            {
              "internalType": "bool",
              "name": "hasStarted",
              "type": "bool"
            },
            {
              "internalType": "bool",
              "name": "hasEnded",
              "type": "bool"
            }
          ],
          "internalType": "struct Tution.AcademicTerm",
          "name": "",
          "type": "tuple"
        }
      ],
      "stateMutability": "view",
      "type": "function"
    },
    {
      "inputs": [
        {
          "internalType": "address",
          "name": "",
          "type": "address"
        }
      ],
      "name": "idByPayer",
      "outputs": [
        {
          "internalType": "uint128",
          "name": "",
          "type": "uint128"
        }
      ],
      "stateMutability": "view",
      "type": "function"
    },
    {
      "inputs": [
        {
          "internalType": "address",
          "name": "_tokenUsed",
          "type": "address"
        }
      ],
      "name": "initialize",
      "outputs": [],
      "stateMutability": "nonpayable",
      "type": "function"
    },
    {
      "inputs": [],
      "name": "newSchoolId",
      "outputs": [
        {
          "internalType": "uint32",
          "name": "",
          "type": "uint32"
        }
      ],
      "stateMutability": "view",
      "type": "function"
    },
    {
      "inputs": [],
      "name": "owner",
      "outputs": [
        {
          "internalType": "address",
          "name": "",
          "type": "address"
        }
      ],
      "stateMutability": "view",
      "type": "function"
    },
    {
      "inputs": [
        {
          "internalType": "address",
          "name": "",
          "type": "address"
        }
      ],
      "name": "payer",
      "outputs": [
        {
          "internalType": "uint256",
          "name": "balance",
          "type": "uint256"
        },
        {
          "internalType": "uint256",
          "name": "termPayments",
          "type": "uint256"
        },
        {
          "internalType": "uint256",
          "name": "autoPayments",
          "type": "uint256"
        },
        {
          "internalType": "uint256",
          "name": "debts",
          "type": "uint256"
        },
        {
          "internalType": "address",
          "name": "client",
          "type": "address"
        },
        {
          "internalType": "address",
          "name": "school",
          "type": "address"
        },
        {
          "internalType": "uint128",
          "name": "payerId",
          "type": "uint128"
        },
        {
          "internalType": "bool",
          "name": "hasAutoPayments",
          "type": "bool"
        },
        {
          "internalType": "bool",
          "name": "isOnPlatform",
          "type": "bool"
        },
        {
          "internalType": "bytes32",
          "name": "studentName",
          "type": "bytes32"
        },
        {
          "internalType": "bytes32",
          "name": "studentClass",
          "type": "bytes32"
        }
      ],
      "stateMutability": "view",
      "type": "function"
    },
    {
      "inputs": [
        {
          "internalType": "uint128",
          "name": "",
          "type": "uint128"
        }
      ],
      "name": "payerById",
      "outputs": [
        {
          "internalType": "address",
          "name": "",
          "type": "address"
        }
      ],
      "stateMutability": "view",
      "type": "function"
    },
    {
      "inputs": [],
      "name": "payerIds",
      "outputs": [
        {
          "internalType": "uint128",
          "name": "",
          "type": "uint128"
        }
      ],
      "stateMutability": "view",
      "type": "function"
    },
    {
      "inputs": [
        {
          "internalType": "address",
          "name": "_school",
          "type": "address"
        },
        {
          "internalType": "uint256",
          "name": "_amount",
          "type": "uint256"
        },
        {
          "internalType": "bytes32",
          "name": "_student",
          "type": "bytes32"
        },
        {
          "internalType": "bytes32",
          "name": "_class",
          "type": "bytes32"
        }
      ],
      "name": "paymentAutomation",
      "outputs": [],
      "stateMutability": "nonpayable",
      "type": "function"
    },
    {
      "inputs": [],
      "name": "paymentsMade",
      "outputs": [
        {
          "internalType": "uint256",
          "name": "",
          "type": "uint256"
        }
      ],
      "stateMutability": "view",
      "type": "function"
    },
    {
      "inputs": [],
      "name": "percentageFee",
      "outputs": [
        {
          "internalType": "uint32",
          "name": "",
          "type": "uint32"
        }
      ],
      "stateMutability": "view",
      "type": "function"
    },
    {
      "inputs": [
        {
          "internalType": "bytes",
          "name": "performData",
          "type": "bytes"
        }
      ],
      "name": "performUpkeep",
      "outputs": [],
      "stateMutability": "nonpayable",
      "type": "function"
    },
    {
      "inputs": [
        {
          "internalType": "uint256",
          "name": "",
          "type": "uint256"
        }
      ],
      "name": "platformAutoPayers",
      "outputs": [
        {
          "internalType": "address",
          "name": "",
          "type": "address"
        }
      ],
      "stateMutability": "view",
      "type": "function"
    },
    {
      "inputs": [
        {
          "internalType": "address",
          "name": "",
          "type": "address"
        }
      ],
      "name": "receipt",
      "outputs": [
        {
          "internalType": "uint256",
          "name": "time",
          "type": "uint256"
        },
        {
          "internalType": "uint256",
          "name": "amount",
          "type": "uint256"
        },
        {
          "internalType": "uint256",
          "name": "balance",
          "type": "uint256"
        },
        {
          "internalType": "address",
          "name": "payer",
          "type": "address"
        },
        {
          "internalType": "address",
          "name": "school",
          "type": "address"
        },
        {
          "internalType": "bool",
          "name": "cleared",
          "type": "bool"
        },
        {
          "internalType": "bytes32",
          "name": "student",
          "type": "bytes32"
        },
        {
          "internalType": "bytes32",
          "name": "class",
          "type": "bytes32"
        }
      ],
      "stateMutability": "view",
      "type": "function"
    },
    {
      "inputs": [
        {
          "internalType": "address",
          "name": "_school",
          "type": "address"
        },
        {
          "internalType": "bytes32",
          "name": "_name",
          "type": "bytes32"
        }
      ],
      "name": "registerSchool",
      "outputs": [],
      "stateMutability": "nonpayable",
      "type": "function"
    },
    {
      "inputs": [],
      "name": "renounceOwnership",
      "outputs": [],
      "stateMutability": "nonpayable",
      "type": "function"
    },
    {
      "inputs": [
        {
          "internalType": "address",
          "name": "",
          "type": "address"
        }
      ],
      "name": "school",
      "outputs": [
        {
          "internalType": "uint256",
          "name": "balance",
          "type": "uint256"
        },
        {
          "internalType": "uint256",
          "name": "tution",
          "type": "uint256"
        },
        {
          "internalType": "address",
          "name": "school",
          "type": "address"
        },
        {
          "internalType": "bool",
          "name": "isRegistered",
          "type": "bool"
        },
        {
          "internalType": "bool",
          "name": "isActive",
          "type": "bool"
        },
        {
          "internalType": "uint32",
          "name": "schoolId",
          "type": "uint32"
        },
        {
          "internalType": "bytes32",
          "name": "name",
          "type": "bytes32"
        }
      ],
      "stateMutability": "view",
      "type": "function"
    },
    {
      "inputs": [
        {
          "internalType": "uint256",
          "name": "_amount",
          "type": "uint256"
        }
      ],
      "name": "schoolWithdrawal",
      "outputs": [],
      "stateMutability": "nonpayable",
      "type": "function"
    },
    {
      "inputs": [],
      "name": "stableToken",
      "outputs": [
        {
          "internalType": "contract IERC20",
          "name": "",
          "type": "address"
        }
      ],
      "stateMutability": "view",
      "type": "function"
    },
    {
      "inputs": [],
      "name": "termIdBySchool",
      "outputs": [
        {
          "internalType": "uint128",
          "name": "",
          "type": "uint128"
        }
      ],
      "stateMutability": "view",
      "type": "function"
    },
    {
      "inputs": [
        {
          "internalType": "address",
          "name": "newOwner",
          "type": "address"
        }
      ],
      "name": "transferOwnership",
      "outputs": [],
      "stateMutability": "nonpayable",
      "type": "function"
    },
    {
      "inputs": [
        {
          "internalType": "uint256",
          "name": "_amount",
          "type": "uint256"
        },
        {
          "internalType": "address",
          "name": "_school",
          "type": "address"
        },
        {
          "internalType": "bytes32",
          "name": "_student",
          "type": "bytes32"
        },
        {
          "internalType": "bytes32",
          "name": "_class",
          "type": "bytes32"
        }
      ],
      "name": "tutionPayment",
      "outputs": [],
      "stateMutability": "nonpayable",
      "type": "function"
    },
    {
      "inputs": [
        {
          "internalType": "uint32",
          "name": "_percentage",
          "type": "uint32"
        }
      ],
      "name": "updateTxFee",
      "outputs": [],
      "stateMutability": "nonpayable",
      "type": "function"
    }
  ],
  "bytecode": "0x6080604052348015600f57600080fd5b506158298061001f6000396000f3fe608060405234801561001057600080fd5b50600436106102065760003560e01c80638282f5eb1161011a578063c5d496fb116100ad578063e42466621161007c578063e4246662146105e9578063e5b73e0814610605578063e97e3f171461063f578063f2fde38b1461066f578063fde345bc1461068b57610206565b8063c5d496fb14610530578063c652365c14610560578063c828559214610596578063e35e5663146105b257610206565b8063b8429828116100e9578063b8429828146104d2578063baae1892146104dc578063bd53d5cc146104f8578063c4d66de81461051457610206565b80638282f5eb1461044a5780638da5cb5b1461047a578063a9d75b2b14610498578063b5ead19e146104b657610206565b80634ff59cf81161019d5780636e04ff0d1161016c5780636e04ff0d146103a357806370721421146103d4578063715018a614610404578063780a7ff01461040e5780637866eb0f1461042c57610206565b80634ff59cf81461030157806359dc735c1461031f5780635e2af8ad1461033d57806368df78811461036d57610206565b80633a3cd062116101d95780633a3cd0621461028f5780634585e33b146102ab578063490f1bfe146102c75780634cd36a1c146102e557610206565b806304562d951461020b578063065ed3da1461023b5780630ab01237146102575780632de19a4f14610273575b600080fd5b61022560048036038101906102209190614057565b6106a9565b6040516102329190614182565b60405180910390f35b610255600480360381019061025091906141ca565b6107fc565b005b610271600480360381019061026c9190614057565b610a7e565b005b61028d600480360381019061028891906141f7565b610b8d565b005b6102a960048036038101906102a491906141ca565b610f1d565b005b6102c560048036038101906102c091906142af565b611021565b005b6102cf611909565b6040516102dc9190614327565b60405180910390f35b6102ff60048036038101906102fa919061436e565b61192b565b005b610309611b7e565b60405161031691906143bd565b60405180910390f35b610327611b84565b60405161033491906144c8565b60405180910390f35b61035760048036038101906103529190614057565b611d44565b6040516103649190614572565b60405180910390f35b610387600480360381019061038291906145b9565b611f63565b60405161039a9796959493929190614604565b60405180910390f35b6103bd60048036038101906103b891906142af565b611ffb565b6040516103cb929190614703565b60405180910390f35b6103ee60048036038101906103e99190614057565b61222b565b6040516103fb9190614327565b60405180910390f35b61040c61225a565b005b61041661226e565b6040516104239190614752565b60405180910390f35b610434612284565b6040516104419190614752565b60405180910390f35b610464600480360381019061045f91906145b9565b61229a565b604051610471919061476d565b60405180910390f35b6104826122cd565b60405161048f919061476d565b60405180910390f35b6104a0612305565b6040516104ad91906147e7565b60405180910390f35b6104d060048036038101906104cb9190614802565b612329565b005b6104da612606565b005b6104f660048036038101906104f19190614895565b612701565b005b610512600480360381019061050d91906141ca565b612776565b005b61052e60048036038101906105299190614057565b612b98565b005b61054a600480360381019061054591906141ca565b612e18565b604051610557919061476d565b60405180910390f35b61057a60048036038101906105759190614057565b612e57565b60405161058d97969594939291906148d1565b60405180910390f35b6105b060048036038101906105ab9190614940565b612ee3565b005b6105cc60048036038101906105c79190614057565b61344e565b6040516105e09897969594939291906149a7565b60405180910390f35b61060360048036038101906105fe9190614057565b6134e3565b005b61061f600480360381019061061a9190614057565b6135a0565b6040516106369b9a99989796959493929190614a25565b60405180910390f35b61065960048036038101906106549190614057565b613670565b6040516106669190614b6d565b60405180910390f35b61068960048036038101906106849190614057565b61382e565b005b6106936138b4565b6040516106a09190614327565b60405180910390f35b6106b1613e0b565b600360008373ffffffffffffffffffffffffffffffffffffffff1673ffffffffffffffffffffffffffffffffffffffff168152602001908152602001600020604051806101000160405290816000820154815260200160018201548152602001600282015481526020016003820160009054906101000a900473ffffffffffffffffffffffffffffffffffffffff1673ffffffffffffffffffffffffffffffffffffffff1673ffffffffffffffffffffffffffffffffffffffff1681526020016004820160009054906101000a900473ffffffffffffffffffffffffffffffffffffffff1673ffffffffffffffffffffffffffffffffffffffff1673ffffffffffffffffffffffffffffffffffffffff1681526020016004820160149054906101000a900460ff16151515158152602001600582015481526020016006820154815250509050919050565b6000600160003373ffffffffffffffffffffffffffffffffffffffff1673ffffffffffffffffffffffffffffffffffffffff16815260200190815260200160002090508060020160149054906101000a900460ff16610890576040517f08c379a000000000000000000000000000000000000000000000000000000000815260040161088790614be5565b60405180910390fd5b6108986138d6565b6000600160003373ffffffffffffffffffffffffffffffffffffffff1673ffffffffffffffffffffffffffffffffffffffff16815260200190815260200160002090508060020160149054906101000a900460ff1661092c576040517f08c379a000000000000000000000000000000000000000000000000000000000815260040161092390614c51565b60405180910390fd5b8060020160159054906101000a900460ff1661097d576040517f08c379a000000000000000000000000000000000000000000000000000000000815260040161097490614cbd565b60405180910390fd5b82816000015410156109c4576040517f08c379a00000000000000000000000000000000000000000000000000000000081526004016109bb90614d29565b60405180910390fd5b828160000160008282546109d89190614d78565b9250508190555060006103e8600760149054906101000a900463ffffffff1663ffffffff1685610a089190614dac565b610a129190614e1d565b905060008185610a229190614d78565b9050610a6f338260008054906101000a900473ffffffffffffffffffffffffffffffffffffffff1673ffffffffffffffffffffffffffffffffffffffff1661392d9092919063ffffffff16565b505050610a7a6139ac565b5050565b610a866139c5565b6000600160008373ffffffffffffffffffffffffffffffffffffffff1673ffffffffffffffffffffffffffffffffffffffff16815260200190815260200160002090508060020160149054906101000a900460ff16610b1a576040517f08c379a0000000000000000000000000000000000000000000000000000000008152600401610b1190614c51565b60405180910390fd5b8060020160159054906101000a900460ff1615610b6c576040517f08c379a0000000000000000000000000000000000000000000000000000000008152600401610b6390614cbd565b60405180910390fd5b60018160020160156101000a81548160ff0219169083151502179055505050565b6000600160003373ffffffffffffffffffffffffffffffffffffffff1673ffffffffffffffffffffffffffffffffffffffff16815260200190815260200160002090508060020160149054906101000a900460ff16610c21576040517f08c379a0000000000000000000000000000000000000000000000000000000008152600401610c1890614be5565b60405180910390fd5b6000600160003373ffffffffffffffffffffffffffffffffffffffff1673ffffffffffffffffffffffffffffffffffffffff16815260200190815260200160002090508060020160149054906101000a900460ff16610cb5576040517f08c379a0000000000000000000000000000000000000000000000000000000008152600401610cac90614c51565b60405180910390fd5b8060020160159054906101000a900460ff16610d06576040517f08c379a0000000000000000000000000000000000000000000000000000000008152600401610cfd90614e9a565b60405180910390fd5b6000600760049054906101000a90046fffffffffffffffffffffffffffffffff1690506040518060e001604052808781526020018681526020018581526020013373ffffffffffffffffffffffffffffffffffffffff168152602001826fffffffffffffffffffffffffffffffff1681526020016000151581526020016000151581525060046000836fffffffffffffffffffffffffffffffff166fffffffffffffffffffffffffffffffff16815260200190815260200160002060008201518160000155602082015181600101556040820151816002015560608201518160030160006101000a81548173ffffffffffffffffffffffffffffffffffffffff021916908373ffffffffffffffffffffffffffffffffffffffff16021790555060808201518160040160006101000a8154816fffffffffffffffffffffffffffffffff02191690836fffffffffffffffffffffffffffffffff16021790555060a08201518160040160106101000a81548160ff02191690831515021790555060c08201518160040160116101000a81548160ff0219169083151502179055509050506001600760048282829054906101000a90046fffffffffffffffffffffffffffffffff16610ed69190614eba565b92506101000a8154816fffffffffffffffffffffffffffffffff02191690836fffffffffffffffffffffffffffffffff160217905550858260010181905550505050505050565b610f256138d6565b6000600260003373ffffffffffffffffffffffffffffffffffffffff1673ffffffffffffffffffffffffffffffffffffffff16815260200190815260200160002090508181600001541015610faf576040517f08c379a0000000000000000000000000000000000000000000000000000000008152600401610fa690614f4a565b60405180910390fd5b81816000016000828254610fc39190614d78565b92505081905550611015338360008054906101000a900473ffffffffffffffffffffffffffffffffffffffff1673ffffffffffffffffffffffffffffffffffffffff1661392d9092919063ffffffff16565b5061101e6139ac565b50565b60008083838101906110339190614f6a565b91509150600060046000846fffffffffffffffffffffffffffffffff166fffffffffffffffffffffffffffffffff1681526020019081526020016000209050600073ffffffffffffffffffffffffffffffffffffffff168160030160009054906101000a900473ffffffffffffffffffffffffffffffffffffffff1673ffffffffffffffffffffffffffffffffffffffff1614806110d5575060008160000154145b156110e257505050611905565b6000600160008360030160009054906101000a900473ffffffffffffffffffffffffffffffffffffffff1673ffffffffffffffffffffffffffffffffffffffff1673ffffffffffffffffffffffffffffffffffffffff1681526020019081526020016000209050600073ffffffffffffffffffffffffffffffffffffffff168160020160009054906101000a900473ffffffffffffffffffffffffffffffffffffffff1673ffffffffffffffffffffffffffffffffffffffff1614806111b757508060020160149054906101000a900460ff16155b806111d157508060020160159054906101000a900460ff16155b156111df5750505050611905565b7f85301d412c91b5025a99ca488ca39b08d0d436c51cec3bd9ea6e0754d7d1991583036112285760018260040160106101000a81548160ff0219169083151502179055506112a9565b7f5766ed171599f7913d5137e7b28bc984eec1a87a30800016278646d1777f82fb83036112a85760018260040160116101000a81548160ff0219169083151502179055506000826000018190555060008260040160106101000a81548160ff02191690831515021790555060008260010181905550600082600201819055505b5b600073ffffffffffffffffffffffffffffffffffffffff168160020160009054906101000a900473ffffffffffffffffffffffffffffffffffffffff1673ffffffffffffffffffffffffffffffffffffffff16148061131757508060020160149054906101000a900460ff16155b8061133157508060020160159054906101000a900460ff16155b1561133f5750505050611905565b6000600a80549050905060005b81816fffffffffffffffffffffffffffffffff1610156118fe576000600a826fffffffffffffffffffffffffffffffff168154811061138e5761138d614faa565b5b9060005260206000200160009054906101000a900473ffffffffffffffffffffffffffffffffffffffff169050600073ffffffffffffffffffffffffffffffffffffffff168173ffffffffffffffffffffffffffffffffffffffff16036113f557506118eb565b6000600260008373ffffffffffffffffffffffffffffffffffffffff1673ffffffffffffffffffffffffffffffffffffffff16815260200190815260200160002090507f85301d412c91b5025a99ca488ca39b08d0d436c51cec3bd9ea6e0754d7d19915871480156114da57508060050160009054906101000a900473ffffffffffffffffffffffffffffffffffffffff1673ffffffffffffffffffffffffffffffffffffffff168560020160009054906101000a900473ffffffffffffffffffffffffffffffffffffffff1673ffffffffffffffffffffffffffffffffffffffff16145b80156114f457508060060160109054906101000a900460ff165b8015611507575084600101548160010154105b801561151b57508460010154816000015410155b801561152f57508460010154816002015410155b1561180a57600085600101549050808260000160008282546115519190614d78565b925050819055508082600201600082825461156c9190614d78565b92505081905550808260010160008282546115879190614fd9565b92505081905550808660000160008282546115a29190614fd9565b9250508190555080600860008282546115bb9190614fd9565b92505081905550600086600101548360010154101590506000816115f257836001015488600101546115ed9190614d78565b6115f5565b60005b90506040518061010001604052804281526020018481526020018281526020018560040160009054906101000a900473ffffffffffffffffffffffffffffffffffffffff1673ffffffffffffffffffffffffffffffffffffffff1681526020018960020160009054906101000a900473ffffffffffffffffffffffffffffffffffffffff1673ffffffffffffffffffffffffffffffffffffffff1681526020018315158152602001856007015481526020018560080154815250600360008660040160009054906101000a900473ffffffffffffffffffffffffffffffffffffffff1673ffffffffffffffffffffffffffffffffffffffff1673ffffffffffffffffffffffffffffffffffffffff16815260200190815260200160002060008201518160000155602082015181600101556040820151816002015560608201518160030160006101000a81548173ffffffffffffffffffffffffffffffffffffffff021916908373ffffffffffffffffffffffffffffffffffffffff16021790555060808201518160040160006101000a81548173ffffffffffffffffffffffffffffffffffffffff021916908373ffffffffffffffffffffffffffffffffffffffff16021790555060a08201518160040160146101000a81548160ff02191690831515021790555060c0820151816005015560e08201518160060155905050811561180657600084600101819055505b5050505b7f5766ed171599f7913d5137e7b28bc984eec1a87a30800016278646d1777f82fb87036118e857846001015481600101541080156118bb57508460020160009054906101000a900473ffffffffffffffffffffffffffffffffffffffff1673ffffffffffffffffffffffffffffffffffffffff168160050160009054906101000a900473ffffffffffffffffffffffffffffffffffffffff1673ffffffffffffffffffffffffffffffffffffffff16145b156118e757806001015485600101546118d49190614d78565b8160030181905550600081600101819055505b5b50505b80806118f69061500d565b91505061134c565b5050505050505b5050565b600960009054906101000a90046fffffffffffffffffffffffffffffffff1681565b6119336139c5565b600160008373ffffffffffffffffffffffffffffffffffffffff1673ffffffffffffffffffffffffffffffffffffffff16815260200190815260200160002060020160149054906101000a900460ff16156119c3576040517f08c379a00000000000000000000000000000000000000000000000000000000081526004016119ba90615091565b60405180910390fd5b6040518060e0016040528060008152602001600081526020018373ffffffffffffffffffffffffffffffffffffffff168152602001600115158152602001600115158152602001600760009054906101000a900463ffffffff1663ffffffff16815260200182815250600160008473ffffffffffffffffffffffffffffffffffffffff1673ffffffffffffffffffffffffffffffffffffffff168152602001908152602001600020600082015181600001556020820151816001015560408201518160020160006101000a81548173ffffffffffffffffffffffffffffffffffffffff021916908373ffffffffffffffffffffffffffffffffffffffff16021790555060608201518160020160146101000a81548160ff02191690831515021790555060808201518160020160156101000a81548160ff02191690831515021790555060a08201518160020160166101000a81548163ffffffff021916908363ffffffff16021790555060c082015181600301559050506001600760008282829054906101000a900463ffffffff16611b5c91906150b1565b92506101000a81548163ffffffff021916908363ffffffff1602179055505050565b60085481565b611b8c613e84565b600260003373ffffffffffffffffffffffffffffffffffffffff1673ffffffffffffffffffffffffffffffffffffffff16815260200190815260200160002060405180610160016040529081600082015481526020016001820154815260200160028201548152602001600382015481526020016004820160009054906101000a900473ffffffffffffffffffffffffffffffffffffffff1673ffffffffffffffffffffffffffffffffffffffff1673ffffffffffffffffffffffffffffffffffffffff1681526020016005820160009054906101000a900473ffffffffffffffffffffffffffffffffffffffff1673ffffffffffffffffffffffffffffffffffffffff1673ffffffffffffffffffffffffffffffffffffffff1681526020016006820160009054906101000a90046fffffffffffffffffffffffffffffffff166fffffffffffffffffffffffffffffffff166fffffffffffffffffffffffffffffffff1681526020016006820160109054906101000a900460ff161515151581526020016006820160119054906101000a900460ff1615151515815260200160078201548152602001600882015481525050905090565b611d4c613f26565b60005b600760049054906101000a90046fffffffffffffffffffffffffffffffff166fffffffffffffffffffffffffffffffff16816fffffffffffffffffffffffffffffffff161015611f2257600060046000836fffffffffffffffffffffffffffffffff166fffffffffffffffffffffffffffffffff1681526020019081526020016000206040518060e00160405290816000820154815260200160018201548152602001600282015481526020016003820160009054906101000a900473ffffffffffffffffffffffffffffffffffffffff1673ffffffffffffffffffffffffffffffffffffffff1673ffffffffffffffffffffffffffffffffffffffff1681526020016004820160009054906101000a90046fffffffffffffffffffffffffffffffff166fffffffffffffffffffffffffffffffff166fffffffffffffffffffffffffffffffff1681526020016004820160109054906101000a900460ff161515151581526020016004820160119054906101000a900460ff16151515158152505090508373ffffffffffffffffffffffffffffffffffffffff16816060015173ffffffffffffffffffffffffffffffffffffffff1603611f14578092505050611f5e565b508080600101915050611d4f565b506040517f08c379a0000000000000000000000000000000000000000000000000000000008152600401611f5590615135565b60405180910390fd5b919050565b60046020528060005260406000206000915090508060000154908060010154908060020154908060030160009054906101000a900473ffffffffffffffffffffffffffffffffffffffff16908060040160009054906101000a90046fffffffffffffffffffffffffffffffff16908060040160109054906101000a900460ff16908060040160119054906101000a900460ff16905087565b6000606060005b600760049054906101000a90046fffffffffffffffffffffffffffffffff166fffffffffffffffffffffffffffffffff16816fffffffffffffffffffffffffffffffff16101561220c57600060046000836fffffffffffffffffffffffffffffffff166fffffffffffffffffffffffffffffffff1681526020019081526020016000209050600073ffffffffffffffffffffffffffffffffffffffff168160030160009054906101000a900473ffffffffffffffffffffffffffffffffffffffff1673ffffffffffffffffffffffffffffffffffffffff1614806120ea575060008160000154145b156120f557506121ff565b4281600101541115801561211857508060040160109054906101000a900460ff16155b1561216c5760019350817f85301d412c91b5025a99ca488ca39b08d0d436c51cec3bd9ea6e0754d7d19915604051602001612154929190615155565b60405160208183030381529060405292505050612224565b4281600201541115801561218e57508060040160109054906101000a900460ff165b80156121a957508060040160119054906101000a900460ff16155b156121fd5760019350817f5766ed171599f7913d5137e7b28bc984eec1a87a30800016278646d1777f82fb6040516020016121e5929190615155565b60405160208183030381529060405292505050612224565b505b8080600101915050612002565b50600091506040518060200160405280600081525090505b9250929050565b60066020528060005260406000206000915054906101000a90046fffffffffffffffffffffffffffffffff1681565b6122626139c5565b61226c6000613a4c565b565b600760149054906101000a900463ffffffff1681565b600760009054906101000a900463ffffffff1681565b60056020528060005260406000206000915054906101000a900473ffffffffffffffffffffffffffffffffffffffff1681565b6000806122d8613b23565b90508060000160009054906101000a900473ffffffffffffffffffffffffffffffffffffffff1691505090565b60008054906101000a900473ffffffffffffffffffffffffffffffffffffffff1681565b600073ffffffffffffffffffffffffffffffffffffffff168473ffffffffffffffffffffffffffffffffffffffff1603612398576040517f08c379a000000000000000000000000000000000000000000000000000000000815260040161238f906151ca565b60405180910390fd5b6000600160008673ffffffffffffffffffffffffffffffffffffffff1673ffffffffffffffffffffffffffffffffffffffff16815260200190815260200160002090506000600260003373ffffffffffffffffffffffffffffffffffffffff1673ffffffffffffffffffffffffffffffffffffffff168152602001908152602001600020905060008511612461576040517f08c379a000000000000000000000000000000000000000000000000000000000815260040161245890615236565b60405180910390fd5b81600101548510156124a8576040517f08c379a000000000000000000000000000000000000000000000000000000000815260040161249f906152a2565b60405180910390fd5b8160010154816000015410156124f3576040517f08c379a00000000000000000000000000000000000000000000000000000000081526004016124ea9061530e565b60405180910390fd5b60018160060160106101000a81548160ff021916908315150217905550848160020160008282546125249190614fd9565b925050819055508481600001600082825461253f9190614d78565b92505081905550838160070181905550828160080181905550858160050160006101000a81548173ffffffffffffffffffffffffffffffffffffffff021916908373ffffffffffffffffffffffffffffffffffffffff160217905550600a339080600181540180825580915050600190039060005260206000200160009091909190916101000a81548173ffffffffffffffffffffffffffffffffffffffff021916908373ffffffffffffffffffffffffffffffffffffffff160217905550505050505050565b6000600260003373ffffffffffffffffffffffffffffffffffffffff1673ffffffffffffffffffffffffffffffffffffffff16815260200190815260200160002090508060060160109054906101000a900460ff1661269a576040517f08c379a00000000000000000000000000000000000000000000000000000000081526004016126919061537a565b60405180910390fd5b60008160060160106101000a81548160ff021916908315150217905550600a8054806126c9576126c861539a565b5b6001900381819060005260206000200160006101000a81549073ffffffffffffffffffffffffffffffffffffffff0219169055905550565b6127096139c5565b60328163ffffffff1610612752576040517f08c379a000000000000000000000000000000000000000000000000000000000815260040161274990615415565b60405180910390fd5b80600760146101000a81548163ffffffff021916908363ffffffff16021790555050565b61277e6138d6565b600081116127c1576040517f08c379a00000000000000000000000000000000000000000000000000000000081526004016127b890615481565b60405180910390fd5b6000600260003373ffffffffffffffffffffffffffffffffffffffff1673ffffffffffffffffffffffffffffffffffffffff168152602001908152602001600020905061285133308460008054906101000a900473ffffffffffffffffffffffffffffffffffffffff1673ffffffffffffffffffffffffffffffffffffffff16613b4b909392919063ffffffff16565b818160000160008282546128659190614fd9565b92505081905550338160040160006101000a81548173ffffffffffffffffffffffffffffffffffffffff021916908373ffffffffffffffffffffffffffffffffffffffff16021790555060018160060160116101000a81548160ff0219169083151502179055506000600660003373ffffffffffffffffffffffffffffffffffffffff1673ffffffffffffffffffffffffffffffffffffffff16815260200190815260200160002060009054906101000a90046fffffffffffffffffffffffffffffffff166fffffffffffffffffffffffffffffffff1603612af5576000600960009054906101000a90046fffffffffffffffffffffffffffffffff1690503360056000836fffffffffffffffffffffffffffffffff166fffffffffffffffffffffffffffffffff16815260200190815260200160002060006101000a81548173ffffffffffffffffffffffffffffffffffffffff021916908373ffffffffffffffffffffffffffffffffffffffff16021790555080600660003373ffffffffffffffffffffffffffffffffffffffff1673ffffffffffffffffffffffffffffffffffffffff16815260200190815260200160002060006101000a8154816fffffffffffffffffffffffffffffffff02191690836fffffffffffffffffffffffffffffffff160217905550808260060160006101000a8154816fffffffffffffffffffffffffffffffff02191690836fffffffffffffffffffffffffffffffff1602179055506001600960008282829054906101000a90046fffffffffffffffffffffffffffffffff16612ab99190614eba565b92506101000a8154816fffffffffffffffffffffffffffffffff02191690836fffffffffffffffffffffffffffffffff16021790555050612b8c565b600660003373ffffffffffffffffffffffffffffffffffffffff1673ffffffffffffffffffffffffffffffffffffffff16815260200190815260200160002060009054906101000a90046fffffffffffffffffffffffffffffffff168160060160006101000a8154816fffffffffffffffffffffffffffffffff02191690836fffffffffffffffffffffffffffffffff1602179055505b50612b956139ac565b50565b6000612ba2613bcd565b905060008160000160089054906101000a900460ff1615905060008260000160009054906101000a900467ffffffffffffffff1690506000808267ffffffffffffffff16148015612bf05750825b9050600060018367ffffffffffffffff16148015612c25575060003073ffffffffffffffffffffffffffffffffffffffff163b145b905081158015612c33575080155b15612c6a576040517ff92ee8a900000000000000000000000000000000000000000000000000000000815260040160405180910390fd5b60018560000160006101000a81548167ffffffffffffffff021916908367ffffffffffffffff1602179055508315612cba5760018560000160086101000a81548160ff0219169083151502179055505b600073ffffffffffffffffffffffffffffffffffffffff168673ffffffffffffffffffffffffffffffffffffffff1603612d29576040517f08c379a0000000000000000000000000000000000000000000000000000000008152600401612d20906154ed565b60405180910390fd5b612d31613be1565b612d3a33613bf3565b856000806101000a81548173ffffffffffffffffffffffffffffffffffffffff021916908373ffffffffffffffffffffffffffffffffffffffff1602179055506001600960006101000a8154816fffffffffffffffffffffffffffffffff02191690836fffffffffffffffffffffffffffffffff1602179055508315612e105760008560000160086101000a81548160ff0219169083151502179055507fc7f505b2f371ae2175ee4913f4499e1f2633a7b5936321eed1cdaeb6115181d26001604051612e07919061555c565b60405180910390a15b505050505050565b600a8181548110612e2857600080fd5b906000526020600020016000915054906101000a900473ffffffffffffffffffffffffffffffffffffffff1681565b60016020528060005260406000206000915090508060000154908060010154908060020160009054906101000a900473ffffffffffffffffffffffffffffffffffffffff16908060020160149054906101000a900460ff16908060020160159054906101000a900460ff16908060020160169054906101000a900463ffffffff16908060030154905087565b612eeb6138d6565b6000600260003373ffffffffffffffffffffffffffffffffffffffff1673ffffffffffffffffffffffffffffffffffffffff16815260200190815260200160002090506000600160008673ffffffffffffffffffffffffffffffffffffffff1673ffffffffffffffffffffffffffffffffffffffff16815260200190815260200160002090508582600001541015612fb8576040517f08c379a0000000000000000000000000000000000000000000000000000000008152600401612faf906155c3565b60405180910390fd5b600073ffffffffffffffffffffffffffffffffffffffff168573ffffffffffffffffffffffffffffffffffffffff1603613027576040517f08c379a000000000000000000000000000000000000000000000000000000000815260040161301e9061562f565b60405180910390fd5b8060020160149054906101000a900460ff16613078576040517f08c379a000000000000000000000000000000000000000000000000000000000815260040161306f90614c51565b60405180910390fd5b8060020160159054906101000a900460ff166130c9576040517f08c379a00000000000000000000000000000000000000000000000000000000081526004016130c090614cbd565b60405180910390fd5b6000816001015411613110576040517f08c379a00000000000000000000000000000000000000000000000000000000081526004016131079061569b565b60405180910390fd5b80600101548260010154111561315b576040517f08c379a000000000000000000000000000000000000000000000000000000000815260040161315290615707565b60405180910390fd5b600081600101548784600101546131729190614fd9565b111590506000826001015488856001015461318d9190614fd9565b149050816131d0576040517f08c379a00000000000000000000000000000000000000000000000000000000081526004016131c790615773565b60405180910390fd5b878460010160008282546131e49190614fd9565b9250508190555087600860008282546131fd9190614fd9565b92505081905550878460000160008282546132189190614d78565b92505081905550878360000160008282546132339190614fd9565b92505081905550868460050160006101000a81548173ffffffffffffffffffffffffffffffffffffffff021916908373ffffffffffffffffffffffffffffffffffffffff160217905550836001015483600101546132919190614d78565b84600301819055506000846001015484600101546132af9190614d78565b90506040518061010001604052804281526020018a81526020018281526020013373ffffffffffffffffffffffffffffffffffffffff1681526020018973ffffffffffffffffffffffffffffffffffffffff168152602001831515815260200188815260200187815250600360003373ffffffffffffffffffffffffffffffffffffffff1673ffffffffffffffffffffffffffffffffffffffff16815260200190815260200160002060008201518160000155602082015181600101556040820151816002015560608201518160030160006101000a81548173ffffffffffffffffffffffffffffffffffffffff021916908373ffffffffffffffffffffffffffffffffffffffff16021790555060808201518160040160006101000a81548173ffffffffffffffffffffffffffffffffffffffff021916908373ffffffffffffffffffffffffffffffffffffffff16021790555060a08201518160040160146101000a81548160ff02191690831515021790555060c0820151816005015560e0820151816006015590505050505050506134486139ac565b50505050565b60036020528060005260406000206000915090508060000154908060010154908060020154908060030160009054906101000a900473ffffffffffffffffffffffffffffffffffffffff16908060040160009054906101000a900473ffffffffffffffffffffffffffffffffffffffff16908060040160149054906101000a900460ff16908060050154908060060154905088565b6134eb6139c5565b6000600160008373ffffffffffffffffffffffffffffffffffffffff1673ffffffffffffffffffffffffffffffffffffffff16815260200190815260200160002090508060020160159054906101000a900460ff1661357f576040517f08c379a000000000000000000000000000000000000000000000000000000000815260040161357690614cbd565b60405180910390fd5b60008160020160156101000a81548160ff0219169083151502179055505050565b60026020528060005260406000206000915090508060000154908060010154908060020154908060030154908060040160009054906101000a900473ffffffffffffffffffffffffffffffffffffffff16908060050160009054906101000a900473ffffffffffffffffffffffffffffffffffffffff16908060060160009054906101000a90046fffffffffffffffffffffffffffffffff16908060060160109054906101000a900460ff16908060060160119054906101000a900460ff1690806007015490806008015490508b565b613678613f8f565b6000600160003373ffffffffffffffffffffffffffffffffffffffff1673ffffffffffffffffffffffffffffffffffffffff16815260200190815260200160002090508060020160149054906101000a900460ff1661370c576040517f08c379a000000000000000000000000000000000000000000000000000000000815260040161370390614be5565b60405180910390fd5b600160008473ffffffffffffffffffffffffffffffffffffffff1673ffffffffffffffffffffffffffffffffffffffff1681526020019081526020016000206040518060e001604052908160008201548152602001600182015481526020016002820160009054906101000a900473ffffffffffffffffffffffffffffffffffffffff1673ffffffffffffffffffffffffffffffffffffffff1673ffffffffffffffffffffffffffffffffffffffff1681526020016002820160149054906101000a900460ff161515151581526020016002820160159054906101000a900460ff161515151581526020016002820160169054906101000a900463ffffffff1663ffffffff1663ffffffff168152602001600382015481525050915050919050565b6138366139c5565b600073ffffffffffffffffffffffffffffffffffffffff168173ffffffffffffffffffffffffffffffffffffffff16036138a85760006040517f1e4fbdf700000000000000000000000000000000000000000000000000000000815260040161389f919061476d565b60405180910390fd5b6138b181613a4c565b50565b600760049054906101000a90046fffffffffffffffffffffffffffffffff1681565b60006138e0613c07565b90506002816000015403613920576040517f3ee5aeb500000000000000000000000000000000000000000000000000000000815260040160405180910390fd5b6002816000018190555050565b6139a7838473ffffffffffffffffffffffffffffffffffffffff1663a9059cbb8585604051602401613960929190615793565b604051602081830303815290604052915060e01b6020820180517bffffffffffffffffffffffffffffffffffffffffffffffffffffffff8381831617835250505050613c2f565b505050565b60006139b6613c07565b90506001816000018190555050565b6139cd613cd1565b73ffffffffffffffffffffffffffffffffffffffff166139eb6122cd565b73ffffffffffffffffffffffffffffffffffffffff1614613a4a57613a0e613cd1565b6040517f118cdaa7000000000000000000000000000000000000000000000000000000008152600401613a41919061476d565b60405180910390fd5b565b6000613a56613b23565b905060008160000160009054906101000a900473ffffffffffffffffffffffffffffffffffffffff169050828260000160006101000a81548173ffffffffffffffffffffffffffffffffffffffff021916908373ffffffffffffffffffffffffffffffffffffffff1602179055508273ffffffffffffffffffffffffffffffffffffffff168173ffffffffffffffffffffffffffffffffffffffff167f8be0079c531659141344cd1fd0a4f28419497f9722a3daafe3b4186f6b6457e060405160405180910390a3505050565b60007f9016d09d72d40fdae2fd8ceac6b6234c7706214fd39c1cd1e609a0528c199300905090565b613bc7848573ffffffffffffffffffffffffffffffffffffffff166323b872dd868686604051602401613b80939291906157bc565b604051602081830303815290604052915060e01b6020820180517bffffffffffffffffffffffffffffffffffffffffffffffffffffffff8381831617835250505050613c2f565b50505050565b600080613bd8613cd9565b90508091505090565b613be9613d04565b613bf1613d44565b565b613bfb613d04565b613c0481613d65565b50565b60007f9b779b17422d0df92223018b32b4d1fa46e071723d6817e2486d003becc55f00905090565b600080602060008451602086016000885af180613c52576040513d6000823e3d81fd5b3d925060005191505060008214613c6d576001811415613c89565b60008473ffffffffffffffffffffffffffffffffffffffff163b145b15613ccb57836040517f5274afe7000000000000000000000000000000000000000000000000000000008152600401613cc2919061476d565b60405180910390fd5b50505050565b600033905090565b60007ff0c57e16840df040f15088dc2f81fe391c3923bec73e23a9662efc9c229c6a0060001b905090565b613d0c613deb565b613d42576040517fd7e6bcf800000000000000000000000000000000000000000000000000000000815260040160405180910390fd5b565b613d4c613d04565b6000613d56613c07565b90506001816000018190555050565b613d6d613d04565b600073ffffffffffffffffffffffffffffffffffffffff168173ffffffffffffffffffffffffffffffffffffffff1603613ddf5760006040517f1e4fbdf7000000000000000000000000000000000000000000000000000000008152600401613dd6919061476d565b60405180910390fd5b613de881613a4c565b50565b6000613df5613bcd565b60000160089054906101000a900460ff16905090565b604051806101000160405280600081526020016000815260200160008152602001600073ffffffffffffffffffffffffffffffffffffffff168152602001600073ffffffffffffffffffffffffffffffffffffffff16815260200160001515815260200160008019168152602001600080191681525090565b60405180610160016040528060008152602001600081526020016000815260200160008152602001600073ffffffffffffffffffffffffffffffffffffffff168152602001600073ffffffffffffffffffffffffffffffffffffffff16815260200160006fffffffffffffffffffffffffffffffff16815260200160001515815260200160001515815260200160008019168152602001600080191681525090565b6040518060e00160405280600081526020016000815260200160008152602001600073ffffffffffffffffffffffffffffffffffffffff16815260200160006fffffffffffffffffffffffffffffffff1681526020016000151581526020016000151581525090565b6040518060e001604052806000815260200160008152602001600073ffffffffffffffffffffffffffffffffffffffff168152602001600015158152602001600015158152602001600063ffffffff168152602001600080191681525090565b600080fd5b600080fd5b600073ffffffffffffffffffffffffffffffffffffffff82169050919050565b600061402482613ff9565b9050919050565b61403481614019565b811461403f57600080fd5b50565b6000813590506140518161402b565b92915050565b60006020828403121561406d5761406c613fef565b5b600061407b84828501614042565b91505092915050565b6000819050919050565b61409781614084565b82525050565b6140a681614019565b82525050565b60008115159050919050565b6140c1816140ac565b82525050565b6000819050919050565b6140da816140c7565b82525050565b610100820160008201516140f7600085018261408e565b50602082015161410a602085018261408e565b50604082015161411d604085018261408e565b506060820151614130606085018261409d565b506080820151614143608085018261409d565b5060a082015161415660a08501826140b8565b5060c082015161416960c08501826140d1565b5060e082015161417c60e08501826140d1565b50505050565b60006101008201905061419860008301846140e0565b92915050565b6141a781614084565b81146141b257600080fd5b50565b6000813590506141c48161419e565b92915050565b6000602082840312156141e0576141df613fef565b5b60006141ee848285016141b5565b91505092915050565b6000806000606084860312156142105761420f613fef565b5b600061421e868287016141b5565b935050602061422f868287016141b5565b9250506040614240868287016141b5565b9150509250925092565b600080fd5b600080fd5b600080fd5b60008083601f84011261426f5761426e61424a565b5b8235905067ffffffffffffffff81111561428c5761428b61424f565b5b6020830191508360018202830111156142a8576142a7614254565b5b9250929050565b600080602083850312156142c6576142c5613fef565b5b600083013567ffffffffffffffff8111156142e4576142e3613ff4565b5b6142f085828601614259565b92509250509250929050565b60006fffffffffffffffffffffffffffffffff82169050919050565b614321816142fc565b82525050565b600060208201905061433c6000830184614318565b92915050565b61434b816140c7565b811461435657600080fd5b50565b60008135905061436881614342565b92915050565b6000806040838503121561438557614384613fef565b5b600061439385828601614042565b92505060206143a485828601614359565b9150509250929050565b6143b781614084565b82525050565b60006020820190506143d260008301846143ae565b92915050565b6143e1816142fc565b82525050565b610160820160008201516143fe600085018261408e565b506020820151614411602085018261408e565b506040820151614424604085018261408e565b506060820151614437606085018261408e565b50608082015161444a608085018261409d565b5060a082015161445d60a085018261409d565b5060c082015161447060c08501826143d8565b5060e082015161448360e08501826140b8565b506101008201516144986101008501826140b8565b506101208201516144ad6101208501826140d1565b506101408201516144c26101408501826140d1565b50505050565b6000610160820190506144de60008301846143e7565b92915050565b60e0820160008201516144fa600085018261408e565b50602082015161450d602085018261408e565b506040820151614520604085018261408e565b506060820151614533606085018261409d565b50608082015161454660808501826143d8565b5060a082015161455960a08501826140b8565b5060c082015161456c60c08501826140b8565b50505050565b600060e08201905061458760008301846144e4565b92915050565b614596816142fc565b81146145a157600080fd5b50565b6000813590506145b38161458d565b92915050565b6000602082840312156145cf576145ce613fef565b5b60006145dd848285016145a4565b91505092915050565b6145ef81614019565b82525050565b6145fe816140ac565b82525050565b600060e082019050614619600083018a6143ae565b61462660208301896143ae565b61463360408301886143ae565b61464060608301876145e6565b61464d6080830186614318565b61465a60a08301856145f5565b61466760c08301846145f5565b98975050505050505050565b600081519050919050565b600082825260208201905092915050565b60005b838110156146ad578082015181840152602081019050614692565b60008484015250505050565b6000601f19601f8301169050919050565b60006146d582614673565b6146df818561467e565b93506146ef81856020860161468f565b6146f8816146b9565b840191505092915050565b600060408201905061471860008301856145f5565b818103602083015261472a81846146ca565b90509392505050565b600063ffffffff82169050919050565b61474c81614733565b82525050565b60006020820190506147676000830184614743565b92915050565b600060208201905061478260008301846145e6565b92915050565b6000819050919050565b60006147ad6147a86147a384613ff9565b614788565b613ff9565b9050919050565b60006147bf82614792565b9050919050565b60006147d1826147b4565b9050919050565b6147e1816147c6565b82525050565b60006020820190506147fc60008301846147d8565b92915050565b6000806000806080858703121561481c5761481b613fef565b5b600061482a87828801614042565b945050602061483b878288016141b5565b935050604061484c87828801614359565b925050606061485d87828801614359565b91505092959194509250565b61487281614733565b811461487d57600080fd5b50565b60008135905061488f81614869565b92915050565b6000602082840312156148ab576148aa613fef565b5b60006148b984828501614880565b91505092915050565b6148cb816140c7565b82525050565b600060e0820190506148e6600083018a6143ae565b6148f360208301896143ae565b61490060408301886145e6565b61490d60608301876145f5565b61491a60808301866145f5565b61492760a0830185614743565b61493460c08301846148c2565b98975050505050505050565b6000806000806080858703121561495a57614959613fef565b5b6000614968878288016141b5565b945050602061497987828801614042565b935050604061498a87828801614359565b925050606061499b87828801614359565b91505092959194509250565b6000610100820190506149bd600083018b6143ae565b6149ca602083018a6143ae565b6149d760408301896143ae565b6149e460608301886145e6565b6149f160808301876145e6565b6149fe60a08301866145f5565b614a0b60c08301856148c2565b614a1860e08301846148c2565b9998505050505050505050565b600061016082019050614a3b600083018e6143ae565b614a48602083018d6143ae565b614a55604083018c6143ae565b614a62606083018b6143ae565b614a6f608083018a6145e6565b614a7c60a08301896145e6565b614a8960c0830188614318565b614a9660e08301876145f5565b614aa46101008301866145f5565b614ab26101208301856148c2565b614ac06101408301846148c2565b9c9b505050505050505050505050565b614ad981614733565b82525050565b60e082016000820151614af5600085018261408e565b506020820151614b08602085018261408e565b506040820151614b1b604085018261409d565b506060820151614b2e60608501826140b8565b506080820151614b4160808501826140b8565b5060a0820151614b5460a0850182614ad0565b5060c0820151614b6760c08501826140d1565b50505050565b600060e082019050614b826000830184614adf565b92915050565b600082825260208201905092915050565b7f4e6f742072656769737465726564000000000000000000000000000000000000600082015250565b6000614bcf600e83614b88565b9150614bda82614b99565b602082019050919050565b60006020820190508181036000830152614bfe81614bc2565b9050919050565b7f556e726567697374657265640000000000000000000000000000000000000000600082015250565b6000614c3b600c83614b88565b9150614c4682614c05565b602082019050919050565b60006020820190508181036000830152614c6a81614c2e565b9050919050565b7f496e6e6163746976650000000000000000000000000000000000000000000000600082015250565b6000614ca7600983614b88565b9150614cb282614c71565b602082019050919050565b60006020820190508181036000830152614cd681614c9a565b9050919050565b7f4d75636820616d6f756e74000000000000000000000000000000000000000000600082015250565b6000614d13600b83614b88565b9150614d1e82614cdd565b602082019050919050565b60006020820190508181036000830152614d4281614d06565b9050919050565b7f4e487b7100000000000000000000000000000000000000000000000000000000600052601160045260246000fd5b6000614d8382614084565b9150614d8e83614084565b9250828203905081811115614da657614da5614d49565b5b92915050565b6000614db782614084565b9150614dc283614084565b9250828202614dd081614084565b91508282048414831517614de757614de6614d49565b5b5092915050565b7f4e487b7100000000000000000000000000000000000000000000000000000000600052601260045260246000fd5b6000614e2882614084565b9150614e3383614084565b925082614e4357614e42614dee565b5b828204905092915050565b7f496e616374697665000000000000000000000000000000000000000000000000600082015250565b6000614e84600883614b88565b9150614e8f82614e4e565b602082019050919050565b60006020820190508181036000830152614eb381614e77565b9050919050565b6000614ec5826142fc565b9150614ed0836142fc565b925082820190506fffffffffffffffffffffffffffffffff811115614ef857614ef7614d49565b5b92915050565b7f4d75636800000000000000000000000000000000000000000000000000000000600082015250565b6000614f34600483614b88565b9150614f3f82614efe565b602082019050919050565b60006020820190508181036000830152614f6381614f27565b9050919050565b60008060408385031215614f8157614f80613fef565b5b6000614f8f858286016145a4565b9250506020614fa085828601614359565b9150509250929050565b7f4e487b7100000000000000000000000000000000000000000000000000000000600052603260045260246000fd5b6000614fe482614084565b9150614fef83614084565b925082820190508082111561500757615006614d49565b5b92915050565b6000615018826142fc565b91506fffffffffffffffffffffffffffffffff820361503a57615039614d49565b5b600182019050919050565b7f5265676973746572656400000000000000000000000000000000000000000000600082015250565b600061507b600a83614b88565b915061508682615045565b602082019050919050565b600060208201905081810360008301526150aa8161506e565b9050919050565b60006150bc82614733565b91506150c783614733565b9250828201905063ffffffff8111156150e3576150e2614d49565b5b92915050565b7f4e6f206d61746368696e67207465726d20666f756e6400000000000000000000600082015250565b600061511f601683614b88565b915061512a826150e9565b602082019050919050565b6000602082019050818103600083015261514e81615112565b9050919050565b600060408201905061516a6000830185614318565b61517760208301846148c2565b9392505050565b7f496e76616c6964207363686f6f6c206164647265737300000000000000000000600082015250565b60006151b4601683614b88565b91506151bf8261517e565b602082019050919050565b600060208201905081810360008301526151e3816151a7565b9050919050565b7f496e76616c696420616d6f756e74000000000000000000000000000000000000600082015250565b6000615220600e83614b88565b915061522b826151ea565b602082019050919050565b6000602082019050818103600083015261524f81615213565b9050919050565b7f616d6f756e7420213d207363686f6f6c20747574696f6e000000000000000000600082015250565b600061528c601783614b88565b915061529782615256565b602082019050919050565b600060208201905081810360008301526152bb8161527f565b9050919050565b7f4c6f772062616c616e6365000000000000000000000000000000000000000000600082015250565b60006152f8600b83614b88565b9150615303826152c2565b602082019050919050565b60006020820190508181036000830152615327816152eb565b9050919050565b7f4e6f206175746f7061796d656e747320666f756e640000000000000000000000600082015250565b6000615364601583614b88565b915061536f8261532e565b602082019050919050565b6000602082019050818103600083015261539381615357565b9050919050565b7f4e487b7100000000000000000000000000000000000000000000000000000000600052603160045260246000fd5b7f4d75636820666565000000000000000000000000000000000000000000000000600082015250565b60006153ff600883614b88565b915061540a826153c9565b602082019050919050565b6000602082019050818103600083015261542e816153f2565b9050919050565b7f496e76616c6964206465706f7369740000000000000000000000000000000000600082015250565b600061546b600f83614b88565b915061547682615435565b602082019050919050565b6000602082019050818103600083015261549a8161545e565b9050919050565b7f496e76616c696420616464726573730000000000000000000000000000000000600082015250565b60006154d7600f83614b88565b91506154e2826154a1565b602082019050919050565b60006020820190508181036000830152615506816154ca565b9050919050565b6000819050919050565b600067ffffffffffffffff82169050919050565b600061554661554161553c8461550d565b614788565b615517565b9050919050565b6155568161552b565b82525050565b6000602082019050615571600083018461554d565b92915050565b7f4c6974746c652062616c616e6365000000000000000000000000000000000000600082015250565b60006155ad600e83614b88565b91506155b882615577565b602082019050919050565b600060208201905081810360008301526155dc816155a0565b9050919050565b7f496e76616c6964207363686f6f6c416464720000000000000000000000000000600082015250565b6000615619601283614b88565b9150615624826155e3565b602082019050919050565b600060208201905081810360008301526156488161560c565b9050919050565b7f4f75746461746564205465726d00000000000000000000000000000000000000600082015250565b6000615685600d83614b88565b91506156908261564f565b602082019050919050565b600060208201905081810360008301526156b481615678565b9050919050565b7f596f7527726520636c6561726564210000000000000000000000000000000000600082015250565b60006156f1600f83614b88565b91506156fc826156bb565b602082019050919050565b60006020820190508181036000830152615720816156e4565b9050919050565b7f52656475636520616d6f756e7400000000000000000000000000000000000000600082015250565b600061575d600d83614b88565b915061576882615727565b602082019050919050565b6000602082019050818103600083015261578c81615750565b9050919050565b60006040820190506157a860008301856145e6565b6157b560208301846143ae565b9392505050565b60006060820190506157d160008301866145e6565b6157de60208301856145e6565b6157eb60408301846143ae565b94935050505056fea2646970667358221220a031e3894e15804b1b466b47d4e96e47464c5e46b32ec99b31fd06aadcccd86264736f6c634300081c0033",
  "linkReferences": {},
  "deployedLinkReferences": {}
}