{
  "_format": "hh-sol-artifact-1",
  "contractName": "Tution",
  "sourceName": "contracts/Tution.sol",
  "abi": [
    {
      "inputs": [],
      "name": "InvalidInitialization",
      "type": "error"
    },
    {
      "inputs": [],
      "name": "NotInitializing",
      "type": "error"
    },
    {
      "inputs": [
        {
          "internalType": "address",
          "name": "owner",
          "type": "address"
        }
      ],
      "name": "OwnableInvalidOwner",
      "type": "error"
    },
    {
      "inputs": [
        {
          "internalType": "address",
          "name": "account",
          "type": "address"
        }
      ],
      "name": "OwnableUnauthorizedAccount",
      "type": "error"
    },
    {
      "inputs": [],
      "name": "ReentrancyGuardReentrantCall",
      "type": "error"
    },
    {
      "inputs": [
        {
          "internalType": "address",
          "name": "token",
          "type": "address"
        }
      ],
      "name": "SafeERC20FailedOperation",
      "type": "error"
    },
    {
      "anonymous": false,
      "inputs": [
        {
          "indexed": false,
          "internalType": "uint64",
          "name": "version",
          "type": "uint64"
        }
      ],
      "name": "Initialized",
      "type": "event"
    },
    {
      "anonymous": false,
      "inputs": [
        {
          "indexed": true,
          "internalType": "address",
          "name": "previousOwner",
          "type": "address"
        },
        {
          "indexed": true,
          "internalType": "address",
          "name": "newOwner",
          "type": "address"
        }
      ],
      "name": "OwnershipTransferred",
      "type": "event"
    },
    {
      "inputs": [
        {
          "internalType": "uint256",
          "name": "_tution",
          "type": "uint256"
        },
        {
          "internalType": "uint256",
          "name": "_start",
          "type": "uint256"
        },
        {
          "internalType": "uint256",
          "name": "_end",
          "type": "uint256"
        }
      ],
      "name": "AcademicTermUpdate",
      "outputs": [],
      "stateMutability": "nonpayable",
      "type": "function"
    },
    {
      "inputs": [
        {
          "internalType": "uint128",
          "name": "",
          "type": "uint128"
        }
      ],
      "name": "academicTerm",
      "outputs": [
        {
          "internalType": "uint256",
          "name": "tution",
          "type": "uint256"
        },
        {
          "internalType": "uint256",
          "name": "start",
          "type": "uint256"
        },
        {
          "internalType": "uint256",
          "name": "end",
          "type": "uint256"
        },
        {
          "internalType": "address",
          "name": "school",
          "type": "address"
        },
        {
          "internalType": "uint128",
          "name": "termId",
          "type": "uint128"
        },
        {
          "internalType": "bool",
          "name": "hasStarted",
          "type": "bool"
        },
        {
          "internalType": "bool",
          "name": "hasEnded",
          "type": "bool"
        }
      ],
      "stateMutability": "view",
      "type": "function"
    },
    {
      "inputs": [
        {
          "internalType": "address",
          "name": "_school",
          "type": "address"
        }
      ],
      "name": "activateSchool",
      "outputs": [],
      "stateMutability": "nonpayable",
      "type": "function"
    },
    {
      "inputs": [],
      "name": "cancelAutoPayments",
      "outputs": [],
      "stateMutability": "nonpayable",
      "type": "function"
    },
    {
      "inputs": [
        {
          "internalType": "bytes",
          "name": "",
          "type": "bytes"
        }
      ],
      "name": "checkUpkeep",
      "outputs": [
        {
          "internalType": "bool",
          "name": "upkeepNeeded",
          "type": "bool"
        },
        {
          "internalType": "bytes",
          "name": "performData",
          "type": "bytes"
        }
      ],
      "stateMutability": "view",
      "type": "function"
    },
    {
      "inputs": [
        {
          "internalType": "uint256",
          "name": "_amount",
          "type": "uint256"
        }
      ],
      "name": "clientDeposit",
      "outputs": [],
      "stateMutability": "nonpayable",
      "type": "function"
    },
    {
      "inputs": [
        {
          "internalType": "uint256",
          "name": "_amount",
          "type": "uint256"
        }
      ],
      "name": "clientWithdraw",
      "outputs": [],
      "stateMutability": "nonpayable",
      "type": "function"
    },
    {
      "inputs": [
        {
          "internalType": "address",
          "name": "_school",
          "type": "address"
        }
      ],
      "name": "deactivateSchool",
      "outputs": [],
      "stateMutability": "nonpayable",
      "type": "function"
    },
    {
      "inputs": [],
      "name": "getClient",
      "outputs": [
        {
          "components": [
            {
              "internalType": "uint256",
              "name": "balance",
              "type": "uint256"
            },
            {
              "internalType": "uint256",
              "name": "termPayments",
              "type": "uint256"
            },
            {
              "internalType": "uint256",
              "name": "autoPayments",
              "type": "uint256"
            },
            {
              "internalType": "uint256",
              "name": "debts",
              "type": "uint256"
            },
            {
              "internalType": "address",
              "name": "client",
              "type": "address"
            },
            {
              "internalType": "address",
              "name": "school",
              "type": "address"
            },
            {
              "internalType": "uint128",
              "name": "payerId",
              "type": "uint128"
            },
            {
              "internalType": "bool",
              "name": "hasAutoPayments",
              "type": "bool"
            },
            {
              "internalType": "bool",
              "name": "isOnPlatform",
              "type": "bool"
            },
            {
              "internalType": "bytes32",
              "name": "studentName",
              "type": "bytes32"
            },
            {
              "internalType": "bytes32",
              "name": "studentClass",
              "type": "bytes32"
            }
          ],
          "internalType": "struct Tution.Payer",
          "name": "",
          "type": "tuple"
        }
      ],
      "stateMutability": "view",
      "type": "function"
    },
    {
      "inputs": [
        {
          "internalType": "address",
          "name": "_user",
          "type": "address"
        }
      ],
      "name": "getReceipt",
      "outputs": [
        {
          "components": [
            {
              "internalType": "uint256",
              "name": "time",
              "type": "uint256"
            },
            {
              "internalType": "uint256",
              "name": "amount",
              "type": "uint256"
            },
            {
              "internalType": "uint256",
              "name": "balance",
              "type": "uint256"
            },
            {
              "internalType": "address",
              "name": "payer",
              "type": "address"
            },
            {
              "internalType": "address",
              "name": "school",
              "type": "address"
            },
            {
              "internalType": "bool",
              "name": "cleared",
              "type": "bool"
            },
            {
              "internalType": "bytes32",
              "name": "student",
              "type": "bytes32"
            },
            {
              "internalType": "bytes32",
              "name": "class",
              "type": "bytes32"
            }
          ],
          "internalType": "struct Tution.Receipt",
          "name": "",
          "type": "tuple"
        }
      ],
      "stateMutability": "view",
      "type": "function"
    },
    {
      "inputs": [
        {
          "internalType": "address",
          "name": "_school",
          "type": "address"
        }
      ],
      "name": "getSchoolInfo",
      "outputs": [
        {
          "components": [
            {
              "internalType": "uint256",
              "name": "balance",
              "type": "uint256"
            },
            {
              "internalType": "uint256",
              "name": "tution",
              "type": "uint256"
            },
            {
              "internalType": "address",
              "name": "school",
              "type": "address"
            },
            {
              "internalType": "bool",
              "name": "isRegistered",
              "type": "bool"
            },
            {
              "internalType": "bool",
              "name": "isActive",
              "type": "bool"
            },
            {
              "internalType": "uint32",
              "name": "schoolId",
              "type": "uint32"
            },
            {
              "internalType": "bytes32",
              "name": "name",
              "type": "bytes32"
            }
          ],
          "internalType": "struct Tution.School",
          "name": "",
          "type": "tuple"
        }
      ],
      "stateMutability": "view",
      "type": "function"
    },
    {
      "inputs": [
        {
          "internalType": "address",
          "name": "_schoolAddr",
          "type": "address"
        }
      ],
      "name": "getacademicTerm",
      "outputs": [
        {
          "components": [
            {
              "internalType": "uint256",
              "name": "tution",
              "type": "uint256"
            },
            {
              "internalType": "uint256",
              "name": "start",
              "type": "uint256"
            },
            {
              "internalType": "uint256",
              "name": "end",
              "type": "uint256"
            },
            {
              "internalType": "address",
              "name": "school",
              "type": "address"
            },
            {
              "internalType": "uint128",
              "name": "termId",
              "type": "uint128"
            },
            {
              "internalType": "bool",
              "name": "hasStarted",
              "type": "bool"
            },
            {
              "internalType": "bool",
              "name": "hasEnded",
              "type": "bool"
            }
          ],
          "internalType": "struct Tution.AcademicTerm",
          "name": "",
          "type": "tuple"
        }
      ],
      "stateMutability": "view",
      "type": "function"
    },
    {
      "inputs": [
        {
          "internalType": "address",
          "name": "",
          "type": "address"
        }
      ],
      "name": "idByPayer",
      "outputs": [
        {
          "internalType": "uint128",
          "name": "",
          "type": "uint128"
        }
      ],
      "stateMutability": "view",
      "type": "function"
    },
    {
      "inputs": [
        {
          "internalType": "address",
          "name": "_tokenUsed",
          "type": "address"
        }
      ],
      "name": "initialize",
      "outputs": [],
      "stateMutability": "nonpayable",
      "type": "function"
    },
    {
      "inputs": [],
      "name": "newSchoolId",
      "outputs": [
        {
          "internalType": "uint32",
          "name": "",
          "type": "uint32"
        }
      ],
      "stateMutability": "view",
      "type": "function"
    },
    {
      "inputs": [],
      "name": "owner",
      "outputs": [
        {
          "internalType": "address",
          "name": "",
          "type": "address"
        }
      ],
      "stateMutability": "view",
      "type": "function"
    },
    {
      "inputs": [
        {
          "internalType": "address",
          "name": "",
          "type": "address"
        }
      ],
      "name": "payer",
      "outputs": [
        {
          "internalType": "uint256",
          "name": "balance",
          "type": "uint256"
        },
        {
          "internalType": "uint256",
          "name": "termPayments",
          "type": "uint256"
        },
        {
          "internalType": "uint256",
          "name": "autoPayments",
          "type": "uint256"
        },
        {
          "internalType": "uint256",
          "name": "debts",
          "type": "uint256"
        },
        {
          "internalType": "address",
          "name": "client",
          "type": "address"
        },
        {
          "internalType": "address",
          "name": "school",
          "type": "address"
        },
        {
          "internalType": "uint128",
          "name": "payerId",
          "type": "uint128"
        },
        {
          "internalType": "bool",
          "name": "hasAutoPayments",
          "type": "bool"
        },
        {
          "internalType": "bool",
          "name": "isOnPlatform",
          "type": "bool"
        },
        {
          "internalType": "bytes32",
          "name": "studentName",
          "type": "bytes32"
        },
        {
          "internalType": "bytes32",
          "name": "studentClass",
          "type": "bytes32"
        }
      ],
      "stateMutability": "view",
      "type": "function"
    },
    {
      "inputs": [
        {
          "internalType": "uint128",
          "name": "",
          "type": "uint128"
        }
      ],
      "name": "payerById",
      "outputs": [
        {
          "internalType": "address",
          "name": "",
          "type": "address"
        }
      ],
      "stateMutability": "view",
      "type": "function"
    },
    {
      "inputs": [],
      "name": "payerIds",
      "outputs": [
        {
          "internalType": "uint128",
          "name": "",
          "type": "uint128"
        }
      ],
      "stateMutability": "view",
      "type": "function"
    },
    {
      "inputs": [
        {
          "internalType": "address",
          "name": "_school",
          "type": "address"
        },
        {
          "internalType": "uint256",
          "name": "_amount",
          "type": "uint256"
        },
        {
          "internalType": "bytes32",
          "name": "_student",
          "type": "bytes32"
        },
        {
          "internalType": "bytes32",
          "name": "_class",
          "type": "bytes32"
        }
      ],
      "name": "paymentAutomation",
      "outputs": [],
      "stateMutability": "nonpayable",
      "type": "function"
    },
    {
      "inputs": [],
      "name": "paymentsMade",
      "outputs": [
        {
          "internalType": "uint256",
          "name": "",
          "type": "uint256"
        }
      ],
      "stateMutability": "view",
      "type": "function"
    },
    {
      "inputs": [],
      "name": "percentageFee",
      "outputs": [
        {
          "internalType": "uint32",
          "name": "",
          "type": "uint32"
        }
      ],
      "stateMutability": "view",
      "type": "function"
    },
    {
      "inputs": [
        {
          "internalType": "bytes",
          "name": "performData",
          "type": "bytes"
        }
      ],
      "name": "performUpkeep",
      "outputs": [],
      "stateMutability": "nonpayable",
      "type": "function"
    },
    {
      "inputs": [
        {
          "internalType": "address",
          "name": "",
          "type": "address"
        }
      ],
      "name": "receipt",
      "outputs": [
        {
          "internalType": "uint256",
          "name": "time",
          "type": "uint256"
        },
        {
          "internalType": "uint256",
          "name": "amount",
          "type": "uint256"
        },
        {
          "internalType": "uint256",
          "name": "balance",
          "type": "uint256"
        },
        {
          "internalType": "address",
          "name": "payer",
          "type": "address"
        },
        {
          "internalType": "address",
          "name": "school",
          "type": "address"
        },
        {
          "internalType": "bool",
          "name": "cleared",
          "type": "bool"
        },
        {
          "internalType": "bytes32",
          "name": "student",
          "type": "bytes32"
        },
        {
          "internalType": "bytes32",
          "name": "class",
          "type": "bytes32"
        }
      ],
      "stateMutability": "view",
      "type": "function"
    },
    {
      "inputs": [
        {
          "internalType": "address",
          "name": "_school",
          "type": "address"
        },
        {
          "internalType": "bytes32",
          "name": "_name",
          "type": "bytes32"
        }
      ],
      "name": "registerSchool",
      "outputs": [],
      "stateMutability": "nonpayable",
      "type": "function"
    },
    {
      "inputs": [],
      "name": "renounceOwnership",
      "outputs": [],
      "stateMutability": "nonpayable",
      "type": "function"
    },
    {
      "inputs": [
        {
          "internalType": "address",
          "name": "",
          "type": "address"
        }
      ],
      "name": "school",
      "outputs": [
        {
          "internalType": "uint256",
          "name": "balance",
          "type": "uint256"
        },
        {
          "internalType": "uint256",
          "name": "tution",
          "type": "uint256"
        },
        {
          "internalType": "address",
          "name": "school",
          "type": "address"
        },
        {
          "internalType": "bool",
          "name": "isRegistered",
          "type": "bool"
        },
        {
          "internalType": "bool",
          "name": "isActive",
          "type": "bool"
        },
        {
          "internalType": "uint32",
          "name": "schoolId",
          "type": "uint32"
        },
        {
          "internalType": "bytes32",
          "name": "name",
          "type": "bytes32"
        }
      ],
      "stateMutability": "view",
      "type": "function"
    },
    {
      "inputs": [
        {
          "internalType": "uint256",
          "name": "_amount",
          "type": "uint256"
        }
      ],
      "name": "schoolWithdrawal",
      "outputs": [],
      "stateMutability": "nonpayable",
      "type": "function"
    },
    {
      "inputs": [],
      "name": "stableToken",
      "outputs": [
        {
          "internalType": "contract IERC20",
          "name": "",
          "type": "address"
        }
      ],
      "stateMutability": "view",
      "type": "function"
    },
    {
      "inputs": [],
      "name": "termIdBySchool",
      "outputs": [
        {
          "internalType": "uint128",
          "name": "",
          "type": "uint128"
        }
      ],
      "stateMutability": "view",
      "type": "function"
    },
    {
      "inputs": [
        {
          "internalType": "address",
          "name": "newOwner",
          "type": "address"
        }
      ],
      "name": "transferOwnership",
      "outputs": [],
      "stateMutability": "nonpayable",
      "type": "function"
    },
    {
      "inputs": [
        {
          "internalType": "uint256",
          "name": "_amount",
          "type": "uint256"
        },
        {
          "internalType": "address",
          "name": "_school",
          "type": "address"
        },
        {
          "internalType": "bytes32",
          "name": "_student",
          "type": "bytes32"
        },
        {
          "internalType": "bytes32",
          "name": "_class",
          "type": "bytes32"
        }
      ],
      "name": "tutionPayment",
      "outputs": [],
      "stateMutability": "nonpayable",
      "type": "function"
    },
    {
      "inputs": [
        {
          "internalType": "uint32",
          "name": "_percentage",
          "type": "uint32"
        }
      ],
      "name": "updateTxFee",
      "outputs": [],
      "stateMutability": "nonpayable",
      "type": "function"
    }
  ],
  "bytecode": "0x6080604052348015600f57600080fd5b506156988061001f6000396000f3fe608060405234801561001057600080fd5b50600436106101fb5760003560e01c80637866eb0f1161011a578063c4d66de8116100ad578063e42466621161007c578063e4246662146105ae578063e5b73e08146105ca578063e97e3f1714610604578063f2fde38b14610634578063fde345bc14610650576101fb565b8063c4d66de814610509578063c652365c14610525578063c82855921461055b578063e35e566314610577576101fb565b8063b5ead19e116100e9578063b5ead19e146104ab578063b8429828146104c7578063baae1892146104d1578063bd53d5cc146104ed576101fb565b80637866eb0f146104215780638282f5eb1461043f5780638da5cb5b1461046f578063a9d75b2b1461048d576101fb565b80634ff59cf8116101925780636e04ff0d116101615780636e04ff0d1461039857806370721421146103c9578063715018a6146103f9578063780a7ff014610403576101fb565b80634ff59cf8146102f657806359dc735c146103145780635e2af8ad1461033257806368df788114610362576101fb565b80633a3cd062116101ce5780633a3cd062146102845780634585e33b146102a0578063490f1bfe146102bc5780634cd36a1c146102da576101fb565b806304562d9514610200578063065ed3da146102305780630ab012371461024c5780632de19a4f14610268575b600080fd5b61021a60048036038101906102159190613f30565b61066e565b604051610227919061405b565b60405180910390f35b61024a600480360381019061024591906140a3565b6107c1565b005b61026660048036038101906102619190613f30565b610a43565b005b610282600480360381019061027d91906140d0565b610b52565b005b61029e600480360381019061029991906140a3565b610ee2565b005b6102ba60048036038101906102b59190614188565b610fe6565b005b6102c46118f8565b6040516102d19190614200565b60405180910390f35b6102f460048036038101906102ef9190614247565b61191a565b005b6102fe611b6d565b60405161030b9190614296565b60405180910390f35b61031c611b73565b60405161032991906143a1565b60405180910390f35b61034c60048036038101906103479190613f30565b611d33565b604051610359919061444b565b60405180910390f35b61037c60048036038101906103779190614492565b611f40565b60405161038f97969594939291906144dd565b60405180910390f35b6103b260048036038101906103ad9190614188565b611fd8565b6040516103c09291906145dc565b60405180910390f35b6103e360048036038101906103de9190613f30565b612208565b6040516103f09190614200565b60405180910390f35b610401612237565b005b61040b61224b565b604051610418919061462b565b60405180910390f35b610429612261565b604051610436919061462b565b60405180910390f35b61045960048036038101906104549190614492565b612277565b6040516104669190614646565b60405180910390f35b6104776122aa565b6040516104849190614646565b60405180910390f35b6104956122e2565b6040516104a291906146c0565b60405180910390f35b6104c560048036038101906104c091906146db565b612306565b005b6104cf612565565b005b6104eb60048036038101906104e6919061476e565b612619565b005b610507600480360381019061050291906140a3565b61268e565b005b610523600480360381019061051e9190613f30565b612ab0565b005b61053f600480360381019061053a9190613f30565b612d30565b60405161055297969594939291906147aa565b60405180910390f35b61057560048036038101906105709190614819565b612dbc565b005b610591600480360381019061058c9190613f30565b613327565b6040516105a5989796959493929190614880565b60405180910390f35b6105c860048036038101906105c39190613f30565b6133bc565b005b6105e460048036038101906105df9190613f30565b613479565b6040516105fb9b9a999897969594939291906148fe565b60405180910390f35b61061e60048036038101906106199190613f30565b613549565b60405161062b9190614a46565b60405180910390f35b61064e60048036038101906106499190613f30565b613707565b005b61065861378d565b6040516106659190614200565b60405180910390f35b610676613ce4565b600360008373ffffffffffffffffffffffffffffffffffffffff1673ffffffffffffffffffffffffffffffffffffffff168152602001908152602001600020604051806101000160405290816000820154815260200160018201548152602001600282015481526020016003820160009054906101000a900473ffffffffffffffffffffffffffffffffffffffff1673ffffffffffffffffffffffffffffffffffffffff1673ffffffffffffffffffffffffffffffffffffffff1681526020016004820160009054906101000a900473ffffffffffffffffffffffffffffffffffffffff1673ffffffffffffffffffffffffffffffffffffffff1673ffffffffffffffffffffffffffffffffffffffff1681526020016004820160149054906101000a900460ff16151515158152602001600582015481526020016006820154815250509050919050565b6000600160003373ffffffffffffffffffffffffffffffffffffffff1673ffffffffffffffffffffffffffffffffffffffff16815260200190815260200160002090508060020160149054906101000a900460ff16610855576040517f08c379a000000000000000000000000000000000000000000000000000000000815260040161084c90614abe565b60405180910390fd5b61085d6137af565b6000600160003373ffffffffffffffffffffffffffffffffffffffff1673ffffffffffffffffffffffffffffffffffffffff16815260200190815260200160002090508060020160149054906101000a900460ff166108f1576040517f08c379a00000000000000000000000000000000000000000000000000000000081526004016108e890614b2a565b60405180910390fd5b8060020160159054906101000a900460ff16610942576040517f08c379a000000000000000000000000000000000000000000000000000000000815260040161093990614b96565b60405180910390fd5b8281600001541015610989576040517f08c379a000000000000000000000000000000000000000000000000000000000815260040161098090614c02565b60405180910390fd5b8281600001600082825461099d9190614c51565b9250508190555060006103e8600760149054906101000a900463ffffffff1663ffffffff16856109cd9190614c85565b6109d79190614cf6565b9050600081856109e79190614c51565b9050610a34338260008054906101000a900473ffffffffffffffffffffffffffffffffffffffff1673ffffffffffffffffffffffffffffffffffffffff166138069092919063ffffffff16565b505050610a3f613885565b5050565b610a4b61389e565b6000600160008373ffffffffffffffffffffffffffffffffffffffff1673ffffffffffffffffffffffffffffffffffffffff16815260200190815260200160002090508060020160149054906101000a900460ff16610adf576040517f08c379a0000000000000000000000000000000000000000000000000000000008152600401610ad690614b2a565b60405180910390fd5b8060020160159054906101000a900460ff1615610b31576040517f08c379a0000000000000000000000000000000000000000000000000000000008152600401610b2890614b96565b60405180910390fd5b60018160020160156101000a81548160ff0219169083151502179055505050565b6000600160003373ffffffffffffffffffffffffffffffffffffffff1673ffffffffffffffffffffffffffffffffffffffff16815260200190815260200160002090508060020160149054906101000a900460ff16610be6576040517f08c379a0000000000000000000000000000000000000000000000000000000008152600401610bdd90614abe565b60405180910390fd5b6000600160003373ffffffffffffffffffffffffffffffffffffffff1673ffffffffffffffffffffffffffffffffffffffff16815260200190815260200160002090508060020160149054906101000a900460ff16610c7a576040517f08c379a0000000000000000000000000000000000000000000000000000000008152600401610c7190614b2a565b60405180910390fd5b8060020160159054906101000a900460ff16610ccb576040517f08c379a0000000000000000000000000000000000000000000000000000000008152600401610cc290614d73565b60405180910390fd5b6000600760049054906101000a90046fffffffffffffffffffffffffffffffff1690506040518060e001604052808781526020018681526020018581526020013373ffffffffffffffffffffffffffffffffffffffff168152602001826fffffffffffffffffffffffffffffffff1681526020016000151581526020016000151581525060046000836fffffffffffffffffffffffffffffffff166fffffffffffffffffffffffffffffffff16815260200190815260200160002060008201518160000155602082015181600101556040820151816002015560608201518160030160006101000a81548173ffffffffffffffffffffffffffffffffffffffff021916908373ffffffffffffffffffffffffffffffffffffffff16021790555060808201518160040160006101000a8154816fffffffffffffffffffffffffffffffff02191690836fffffffffffffffffffffffffffffffff16021790555060a08201518160040160106101000a81548160ff02191690831515021790555060c08201518160040160116101000a81548160ff0219169083151502179055509050506001600760048282829054906101000a90046fffffffffffffffffffffffffffffffff16610e9b9190614d93565b92506101000a8154816fffffffffffffffffffffffffffffffff02191690836fffffffffffffffffffffffffffffffff160217905550858260010181905550505050505050565b610eea6137af565b6000600260003373ffffffffffffffffffffffffffffffffffffffff1673ffffffffffffffffffffffffffffffffffffffff16815260200190815260200160002090508181600001541015610f74576040517f08c379a0000000000000000000000000000000000000000000000000000000008152600401610f6b90614e23565b60405180910390fd5b81816000016000828254610f889190614c51565b92505081905550610fda338360008054906101000a900473ffffffffffffffffffffffffffffffffffffffff1673ffffffffffffffffffffffffffffffffffffffff166138069092919063ffffffff16565b50610fe3613885565b50565b6000808383810190610ff89190614e43565b91509150600060046000846fffffffffffffffffffffffffffffffff166fffffffffffffffffffffffffffffffff1681526020019081526020016000209050600073ffffffffffffffffffffffffffffffffffffffff168160030160009054906101000a900473ffffffffffffffffffffffffffffffffffffffff1673ffffffffffffffffffffffffffffffffffffffff16148061109a575060008160000154145b156110a7575050506118f4565b6000600160008360030160009054906101000a900473ffffffffffffffffffffffffffffffffffffffff1673ffffffffffffffffffffffffffffffffffffffff1673ffffffffffffffffffffffffffffffffffffffff1681526020019081526020016000209050600073ffffffffffffffffffffffffffffffffffffffff168160020160009054906101000a900473ffffffffffffffffffffffffffffffffffffffff1673ffffffffffffffffffffffffffffffffffffffff16148061117c57508060020160149054906101000a900460ff16155b8061119657508060020160159054906101000a900460ff16155b156111a457505050506118f4565b7f85301d412c91b5025a99ca488ca39b08d0d436c51cec3bd9ea6e0754d7d1991583036111ed5760018260040160106101000a81548160ff02191690831515021790555061126e565b7f5766ed171599f7913d5137e7b28bc984eec1a87a30800016278646d1777f82fb830361126d5760018260040160116101000a81548160ff0219169083151502179055506000826000018190555060008260040160106101000a81548160ff02191690831515021790555060008260010181905550600082600201819055505b5b600073ffffffffffffffffffffffffffffffffffffffff168160020160009054906101000a900473ffffffffffffffffffffffffffffffffffffffff1673ffffffffffffffffffffffffffffffffffffffff1614806112dc57508060020160149054906101000a900460ff16155b806112f657508060020160159054906101000a900460ff16155b1561130457505050506118f4565b6000600190505b600960009054906101000a90046fffffffffffffffffffffffffffffffff166fffffffffffffffffffffffffffffffff16816fffffffffffffffffffffffffffffffff1610156118ee57600060056000836fffffffffffffffffffffffffffffffff166fffffffffffffffffffffffffffffffff16815260200190815260200160002060009054906101000a900473ffffffffffffffffffffffffffffffffffffffff169050600073ffffffffffffffffffffffffffffffffffffffff168173ffffffffffffffffffffffffffffffffffffffff16036113eb57506118e1565b6000600260008373ffffffffffffffffffffffffffffffffffffffff1673ffffffffffffffffffffffffffffffffffffffff16815260200190815260200160002090507f85301d412c91b5025a99ca488ca39b08d0d436c51cec3bd9ea6e0754d7d19915861480156114d057508060050160009054906101000a900473ffffffffffffffffffffffffffffffffffffffff1673ffffffffffffffffffffffffffffffffffffffff168460020160009054906101000a900473ffffffffffffffffffffffffffffffffffffffff1673ffffffffffffffffffffffffffffffffffffffff16145b80156114ea57508060060160109054906101000a900460ff165b80156114fd575083600101548160010154105b801561151157508360010154816000015410155b801561152557508360010154816002015410155b1561180057600084600101549050808260000160008282546115479190614c51565b92505081905550808260020160008282546115629190614c51565b925050819055508082600101600082825461157d9190614e83565b92505081905550808560000160008282546115989190614e83565b9250508190555080600860008282546115b19190614e83565b92505081905550600085600101548360010154101590506000816115e857836001015487600101546115e39190614c51565b6115eb565b60005b90506040518061010001604052804281526020018481526020018281526020018560040160009054906101000a900473ffffffffffffffffffffffffffffffffffffffff1673ffffffffffffffffffffffffffffffffffffffff1681526020018860020160009054906101000a900473ffffffffffffffffffffffffffffffffffffffff1673ffffffffffffffffffffffffffffffffffffffff1681526020018315158152602001856007015481526020018560080154815250600360008660040160009054906101000a900473ffffffffffffffffffffffffffffffffffffffff1673ffffffffffffffffffffffffffffffffffffffff1673ffffffffffffffffffffffffffffffffffffffff16815260200190815260200160002060008201518160000155602082015181600101556040820151816002015560608201518160030160006101000a81548173ffffffffffffffffffffffffffffffffffffffff021916908373ffffffffffffffffffffffffffffffffffffffff16021790555060808201518160040160006101000a81548173ffffffffffffffffffffffffffffffffffffffff021916908373ffffffffffffffffffffffffffffffffffffffff16021790555060a08201518160040160146101000a81548160ff02191690831515021790555060c0820151816005015560e0820151816006015590505081156117fc57600084600101819055505b5050505b7f5766ed171599f7913d5137e7b28bc984eec1a87a30800016278646d1777f82fb86036118de57836001015481600101541080156118b157508360020160009054906101000a900473ffffffffffffffffffffffffffffffffffffffff1673ffffffffffffffffffffffffffffffffffffffff168160050160009054906101000a900473ffffffffffffffffffffffffffffffffffffffff1673ffffffffffffffffffffffffffffffffffffffff16145b156118dd57806001015484600101546118ca9190614c51565b8160030181905550600081600101819055505b5b50505b808060010191505061130b565b50505050505b5050565b600960009054906101000a90046fffffffffffffffffffffffffffffffff1681565b61192261389e565b600160008373ffffffffffffffffffffffffffffffffffffffff1673ffffffffffffffffffffffffffffffffffffffff16815260200190815260200160002060020160149054906101000a900460ff16156119b2576040517f08c379a00000000000000000000000000000000000000000000000000000000081526004016119a990614f03565b60405180910390fd5b6040518060e0016040528060008152602001600081526020018373ffffffffffffffffffffffffffffffffffffffff168152602001600115158152602001600115158152602001600760009054906101000a900463ffffffff1663ffffffff16815260200182815250600160008473ffffffffffffffffffffffffffffffffffffffff1673ffffffffffffffffffffffffffffffffffffffff168152602001908152602001600020600082015181600001556020820151816001015560408201518160020160006101000a81548173ffffffffffffffffffffffffffffffffffffffff021916908373ffffffffffffffffffffffffffffffffffffffff16021790555060608201518160020160146101000a81548160ff02191690831515021790555060808201518160020160156101000a81548160ff02191690831515021790555060a08201518160020160166101000a81548163ffffffff021916908363ffffffff16021790555060c082015181600301559050506001600760008282829054906101000a900463ffffffff16611b4b9190614f23565b92506101000a81548163ffffffff021916908363ffffffff1602179055505050565b60085481565b611b7b613d5d565b600260003373ffffffffffffffffffffffffffffffffffffffff1673ffffffffffffffffffffffffffffffffffffffff16815260200190815260200160002060405180610160016040529081600082015481526020016001820154815260200160028201548152602001600382015481526020016004820160009054906101000a900473ffffffffffffffffffffffffffffffffffffffff1673ffffffffffffffffffffffffffffffffffffffff1673ffffffffffffffffffffffffffffffffffffffff1681526020016005820160009054906101000a900473ffffffffffffffffffffffffffffffffffffffff1673ffffffffffffffffffffffffffffffffffffffff1673ffffffffffffffffffffffffffffffffffffffff1681526020016006820160009054906101000a90046fffffffffffffffffffffffffffffffff166fffffffffffffffffffffffffffffffff166fffffffffffffffffffffffffffffffff1681526020016006820160109054906101000a900460ff161515151581526020016006820160119054906101000a900460ff1615151515815260200160078201548152602001600882015481525050905090565b611d3b613dff565b60005b600760049054906101000a90046fffffffffffffffffffffffffffffffff166fffffffffffffffffffffffffffffffff168163ffffffff161015611eff576000600460008363ffffffff166fffffffffffffffffffffffffffffffff1681526020019081526020016000206040518060e00160405290816000820154815260200160018201548152602001600282015481526020016003820160009054906101000a900473ffffffffffffffffffffffffffffffffffffffff1673ffffffffffffffffffffffffffffffffffffffff1673ffffffffffffffffffffffffffffffffffffffff1681526020016004820160009054906101000a90046fffffffffffffffffffffffffffffffff166fffffffffffffffffffffffffffffffff166fffffffffffffffffffffffffffffffff1681526020016004820160109054906101000a900460ff161515151581526020016004820160119054906101000a900460ff16151515158152505090508373ffffffffffffffffffffffffffffffffffffffff16816060015173ffffffffffffffffffffffffffffffffffffffff1603611eeb578092505050611f3b565b508080611ef790614f5b565b915050611d3e565b506040517f08c379a0000000000000000000000000000000000000000000000000000000008152600401611f3290614fd3565b60405180910390fd5b919050565b60046020528060005260406000206000915090508060000154908060010154908060020154908060030160009054906101000a900473ffffffffffffffffffffffffffffffffffffffff16908060040160009054906101000a90046fffffffffffffffffffffffffffffffff16908060040160109054906101000a900460ff16908060040160119054906101000a900460ff16905087565b6000606060005b600760049054906101000a90046fffffffffffffffffffffffffffffffff166fffffffffffffffffffffffffffffffff16816fffffffffffffffffffffffffffffffff1610156121e957600060046000836fffffffffffffffffffffffffffffffff166fffffffffffffffffffffffffffffffff1681526020019081526020016000209050600073ffffffffffffffffffffffffffffffffffffffff168160030160009054906101000a900473ffffffffffffffffffffffffffffffffffffffff1673ffffffffffffffffffffffffffffffffffffffff1614806120c7575060008160000154145b156120d257506121dc565b428160010154111580156120f557508060040160109054906101000a900460ff16155b156121495760019350817f85301d412c91b5025a99ca488ca39b08d0d436c51cec3bd9ea6e0754d7d19915604051602001612131929190614ff3565b60405160208183030381529060405292505050612201565b4281600201541115801561216b57508060040160109054906101000a900460ff165b801561218657508060040160119054906101000a900460ff16155b156121da5760019350817f5766ed171599f7913d5137e7b28bc984eec1a87a30800016278646d1777f82fb6040516020016121c2929190614ff3565b60405160208183030381529060405292505050612201565b505b8080600101915050611fdf565b50600091506040518060200160405280600081525090505b9250929050565b60066020528060005260406000206000915054906101000a90046fffffffffffffffffffffffffffffffff1681565b61223f61389e565b6122496000613925565b565b600760149054906101000a900463ffffffff1681565b600760009054906101000a900463ffffffff1681565b60056020528060005260406000206000915054906101000a900473ffffffffffffffffffffffffffffffffffffffff1681565b6000806122b56139fc565b90508060000160009054906101000a900473ffffffffffffffffffffffffffffffffffffffff1691505090565b60008054906101000a900473ffffffffffffffffffffffffffffffffffffffff1681565b600073ffffffffffffffffffffffffffffffffffffffff168473ffffffffffffffffffffffffffffffffffffffff1603612375576040517f08c379a000000000000000000000000000000000000000000000000000000000815260040161236c90615068565b60405180910390fd5b6000600160008673ffffffffffffffffffffffffffffffffffffffff1673ffffffffffffffffffffffffffffffffffffffff16815260200190815260200160002090506000600260003373ffffffffffffffffffffffffffffffffffffffff1673ffffffffffffffffffffffffffffffffffffffff16815260200190815260200160002090506000851161243e576040517f08c379a0000000000000000000000000000000000000000000000000000000008152600401612435906150d4565b60405180910390fd5b8160010154851015612485576040517f08c379a000000000000000000000000000000000000000000000000000000000815260040161247c90615140565b60405180910390fd5b8160010154816000015410156124d0576040517f08c379a00000000000000000000000000000000000000000000000000000000081526004016124c7906151ac565b60405180910390fd5b60018160060160106101000a81548160ff021916908315150217905550848160020160008282546125019190614e83565b92505081905550838160070181905550828160080181905550858160050160006101000a81548173ffffffffffffffffffffffffffffffffffffffff021916908373ffffffffffffffffffffffffffffffffffffffff160217905550505050505050565b6000600260003373ffffffffffffffffffffffffffffffffffffffff1673ffffffffffffffffffffffffffffffffffffffff16815260200190815260200160002090508060060160109054906101000a900460ff166125f9576040517f08c379a00000000000000000000000000000000000000000000000000000000081526004016125f090615218565b60405180910390fd5b60008160060160106101000a81548160ff02191690831515021790555050565b61262161389e565b60328163ffffffff161061266a576040517f08c379a000000000000000000000000000000000000000000000000000000000815260040161266190615284565b60405180910390fd5b80600760146101000a81548163ffffffff021916908363ffffffff16021790555050565b6126966137af565b600081116126d9576040517f08c379a00000000000000000000000000000000000000000000000000000000081526004016126d0906152f0565b60405180910390fd5b6000600260003373ffffffffffffffffffffffffffffffffffffffff1673ffffffffffffffffffffffffffffffffffffffff168152602001908152602001600020905061276933308460008054906101000a900473ffffffffffffffffffffffffffffffffffffffff1673ffffffffffffffffffffffffffffffffffffffff16613a24909392919063ffffffff16565b8181600001600082825461277d9190614e83565b92505081905550338160040160006101000a81548173ffffffffffffffffffffffffffffffffffffffff021916908373ffffffffffffffffffffffffffffffffffffffff16021790555060018160060160116101000a81548160ff0219169083151502179055506000600660003373ffffffffffffffffffffffffffffffffffffffff1673ffffffffffffffffffffffffffffffffffffffff16815260200190815260200160002060009054906101000a90046fffffffffffffffffffffffffffffffff166fffffffffffffffffffffffffffffffff1603612a0d576000600960009054906101000a90046fffffffffffffffffffffffffffffffff1690503360056000836fffffffffffffffffffffffffffffffff166fffffffffffffffffffffffffffffffff16815260200190815260200160002060006101000a81548173ffffffffffffffffffffffffffffffffffffffff021916908373ffffffffffffffffffffffffffffffffffffffff16021790555080600660003373ffffffffffffffffffffffffffffffffffffffff1673ffffffffffffffffffffffffffffffffffffffff16815260200190815260200160002060006101000a8154816fffffffffffffffffffffffffffffffff02191690836fffffffffffffffffffffffffffffffff160217905550808260060160006101000a8154816fffffffffffffffffffffffffffffffff02191690836fffffffffffffffffffffffffffffffff1602179055506001600960008282829054906101000a90046fffffffffffffffffffffffffffffffff166129d19190614d93565b92506101000a8154816fffffffffffffffffffffffffffffffff02191690836fffffffffffffffffffffffffffffffff16021790555050612aa4565b600660003373ffffffffffffffffffffffffffffffffffffffff1673ffffffffffffffffffffffffffffffffffffffff16815260200190815260200160002060009054906101000a90046fffffffffffffffffffffffffffffffff168160060160006101000a8154816fffffffffffffffffffffffffffffffff02191690836fffffffffffffffffffffffffffffffff1602179055505b50612aad613885565b50565b6000612aba613aa6565b905060008160000160089054906101000a900460ff1615905060008260000160009054906101000a900467ffffffffffffffff1690506000808267ffffffffffffffff16148015612b085750825b9050600060018367ffffffffffffffff16148015612b3d575060003073ffffffffffffffffffffffffffffffffffffffff163b145b905081158015612b4b575080155b15612b82576040517ff92ee8a900000000000000000000000000000000000000000000000000000000815260040160405180910390fd5b60018560000160006101000a81548167ffffffffffffffff021916908367ffffffffffffffff1602179055508315612bd25760018560000160086101000a81548160ff0219169083151502179055505b600073ffffffffffffffffffffffffffffffffffffffff168673ffffffffffffffffffffffffffffffffffffffff1603612c41576040517f08c379a0000000000000000000000000000000000000000000000000000000008152600401612c389061535c565b60405180910390fd5b612c49613aba565b612c5233613acc565b856000806101000a81548173ffffffffffffffffffffffffffffffffffffffff021916908373ffffffffffffffffffffffffffffffffffffffff1602179055506001600960006101000a8154816fffffffffffffffffffffffffffffffff02191690836fffffffffffffffffffffffffffffffff1602179055508315612d285760008560000160086101000a81548160ff0219169083151502179055507fc7f505b2f371ae2175ee4913f4499e1f2633a7b5936321eed1cdaeb6115181d26001604051612d1f91906153cb565b60405180910390a15b505050505050565b60016020528060005260406000206000915090508060000154908060010154908060020160009054906101000a900473ffffffffffffffffffffffffffffffffffffffff16908060020160149054906101000a900460ff16908060020160159054906101000a900460ff16908060020160169054906101000a900463ffffffff16908060030154905087565b612dc46137af565b6000600260003373ffffffffffffffffffffffffffffffffffffffff1673ffffffffffffffffffffffffffffffffffffffff16815260200190815260200160002090506000600160008673ffffffffffffffffffffffffffffffffffffffff1673ffffffffffffffffffffffffffffffffffffffff16815260200190815260200160002090508582600001541015612e91576040517f08c379a0000000000000000000000000000000000000000000000000000000008152600401612e8890615432565b60405180910390fd5b600073ffffffffffffffffffffffffffffffffffffffff168573ffffffffffffffffffffffffffffffffffffffff1603612f00576040517f08c379a0000000000000000000000000000000000000000000000000000000008152600401612ef79061549e565b60405180910390fd5b8060020160149054906101000a900460ff16612f51576040517f08c379a0000000000000000000000000000000000000000000000000000000008152600401612f4890614b2a565b60405180910390fd5b8060020160159054906101000a900460ff16612fa2576040517f08c379a0000000000000000000000000000000000000000000000000000000008152600401612f9990614b96565b60405180910390fd5b6000816001015411612fe9576040517f08c379a0000000000000000000000000000000000000000000000000000000008152600401612fe09061550a565b60405180910390fd5b806001015482600101541115613034576040517f08c379a000000000000000000000000000000000000000000000000000000000815260040161302b90615576565b60405180910390fd5b6000816001015487846001015461304b9190614e83565b11159050600082600101548885600101546130669190614e83565b149050816130a9576040517f08c379a00000000000000000000000000000000000000000000000000000000081526004016130a0906155e2565b60405180910390fd5b878460010160008282546130bd9190614e83565b9250508190555087600860008282546130d69190614e83565b92505081905550878460000160008282546130f19190614c51565b925050819055508783600001600082825461310c9190614e83565b92505081905550868460050160006101000a81548173ffffffffffffffffffffffffffffffffffffffff021916908373ffffffffffffffffffffffffffffffffffffffff1602179055508360010154836001015461316a9190614c51565b84600301819055506000846001015484600101546131889190614c51565b90506040518061010001604052804281526020018a81526020018281526020013373ffffffffffffffffffffffffffffffffffffffff1681526020018973ffffffffffffffffffffffffffffffffffffffff168152602001831515815260200188815260200187815250600360003373ffffffffffffffffffffffffffffffffffffffff1673ffffffffffffffffffffffffffffffffffffffff16815260200190815260200160002060008201518160000155602082015181600101556040820151816002015560608201518160030160006101000a81548173ffffffffffffffffffffffffffffffffffffffff021916908373ffffffffffffffffffffffffffffffffffffffff16021790555060808201518160040160006101000a81548173ffffffffffffffffffffffffffffffffffffffff021916908373ffffffffffffffffffffffffffffffffffffffff16021790555060a08201518160040160146101000a81548160ff02191690831515021790555060c0820151816005015560e082015181600601559050505050505050613321613885565b50505050565b60036020528060005260406000206000915090508060000154908060010154908060020154908060030160009054906101000a900473ffffffffffffffffffffffffffffffffffffffff16908060040160009054906101000a900473ffffffffffffffffffffffffffffffffffffffff16908060040160149054906101000a900460ff16908060050154908060060154905088565b6133c461389e565b6000600160008373ffffffffffffffffffffffffffffffffffffffff1673ffffffffffffffffffffffffffffffffffffffff16815260200190815260200160002090508060020160159054906101000a900460ff16613458576040517f08c379a000000000000000000000000000000000000000000000000000000000815260040161344f90614b96565b60405180910390fd5b60008160020160156101000a81548160ff0219169083151502179055505050565b60026020528060005260406000206000915090508060000154908060010154908060020154908060030154908060040160009054906101000a900473ffffffffffffffffffffffffffffffffffffffff16908060050160009054906101000a900473ffffffffffffffffffffffffffffffffffffffff16908060060160009054906101000a90046fffffffffffffffffffffffffffffffff16908060060160109054906101000a900460ff16908060060160119054906101000a900460ff1690806007015490806008015490508b565b613551613e68565b6000600160003373ffffffffffffffffffffffffffffffffffffffff1673ffffffffffffffffffffffffffffffffffffffff16815260200190815260200160002090508060020160149054906101000a900460ff166135e5576040517f08c379a00000000000000000000000000000000000000000000000000000000081526004016135dc90614abe565b60405180910390fd5b600160008473ffffffffffffffffffffffffffffffffffffffff1673ffffffffffffffffffffffffffffffffffffffff1681526020019081526020016000206040518060e001604052908160008201548152602001600182015481526020016002820160009054906101000a900473ffffffffffffffffffffffffffffffffffffffff1673ffffffffffffffffffffffffffffffffffffffff1673ffffffffffffffffffffffffffffffffffffffff1681526020016002820160149054906101000a900460ff161515151581526020016002820160159054906101000a900460ff161515151581526020016002820160169054906101000a900463ffffffff1663ffffffff1663ffffffff168152602001600382015481525050915050919050565b61370f61389e565b600073ffffffffffffffffffffffffffffffffffffffff168173ffffffffffffffffffffffffffffffffffffffff16036137815760006040517f1e4fbdf70000000000000000000000000000000000000000000000000000000081526004016137789190614646565b60405180910390fd5b61378a81613925565b50565b600760049054906101000a90046fffffffffffffffffffffffffffffffff1681565b60006137b9613ae0565b905060028160000154036137f9576040517f3ee5aeb500000000000000000000000000000000000000000000000000000000815260040160405180910390fd5b6002816000018190555050565b613880838473ffffffffffffffffffffffffffffffffffffffff1663a9059cbb8585604051602401613839929190615602565b604051602081830303815290604052915060e01b6020820180517bffffffffffffffffffffffffffffffffffffffffffffffffffffffff8381831617835250505050613b08565b505050565b600061388f613ae0565b90506001816000018190555050565b6138a6613baa565b73ffffffffffffffffffffffffffffffffffffffff166138c46122aa565b73ffffffffffffffffffffffffffffffffffffffff1614613923576138e7613baa565b6040517f118cdaa700000000000000000000000000000000000000000000000000000000815260040161391a9190614646565b60405180910390fd5b565b600061392f6139fc565b905060008160000160009054906101000a900473ffffffffffffffffffffffffffffffffffffffff169050828260000160006101000a81548173ffffffffffffffffffffffffffffffffffffffff021916908373ffffffffffffffffffffffffffffffffffffffff1602179055508273ffffffffffffffffffffffffffffffffffffffff168173ffffffffffffffffffffffffffffffffffffffff167f8be0079c531659141344cd1fd0a4f28419497f9722a3daafe3b4186f6b6457e060405160405180910390a3505050565b60007f9016d09d72d40fdae2fd8ceac6b6234c7706214fd39c1cd1e609a0528c199300905090565b613aa0848573ffffffffffffffffffffffffffffffffffffffff166323b872dd868686604051602401613a599392919061562b565b604051602081830303815290604052915060e01b6020820180517bffffffffffffffffffffffffffffffffffffffffffffffffffffffff8381831617835250505050613b08565b50505050565b600080613ab1613bb2565b90508091505090565b613ac2613bdd565b613aca613c1d565b565b613ad4613bdd565b613add81613c3e565b50565b60007f9b779b17422d0df92223018b32b4d1fa46e071723d6817e2486d003becc55f00905090565b600080602060008451602086016000885af180613b2b576040513d6000823e3d81fd5b3d925060005191505060008214613b46576001811415613b62565b60008473ffffffffffffffffffffffffffffffffffffffff163b145b15613ba457836040517f5274afe7000000000000000000000000000000000000000000000000000000008152600401613b9b9190614646565b60405180910390fd5b50505050565b600033905090565b60007ff0c57e16840df040f15088dc2f81fe391c3923bec73e23a9662efc9c229c6a0060001b905090565b613be5613cc4565b613c1b576040517fd7e6bcf800000000000000000000000000000000000000000000000000000000815260040160405180910390fd5b565b613c25613bdd565b6000613c2f613ae0565b90506001816000018190555050565b613c46613bdd565b600073ffffffffffffffffffffffffffffffffffffffff168173ffffffffffffffffffffffffffffffffffffffff1603613cb85760006040517f1e4fbdf7000000000000000000000000000000000000000000000000000000008152600401613caf9190614646565b60405180910390fd5b613cc181613925565b50565b6000613cce613aa6565b60000160089054906101000a900460ff16905090565b604051806101000160405280600081526020016000815260200160008152602001600073ffffffffffffffffffffffffffffffffffffffff168152602001600073ffffffffffffffffffffffffffffffffffffffff16815260200160001515815260200160008019168152602001600080191681525090565b60405180610160016040528060008152602001600081526020016000815260200160008152602001600073ffffffffffffffffffffffffffffffffffffffff168152602001600073ffffffffffffffffffffffffffffffffffffffff16815260200160006fffffffffffffffffffffffffffffffff16815260200160001515815260200160001515815260200160008019168152602001600080191681525090565b6040518060e00160405280600081526020016000815260200160008152602001600073ffffffffffffffffffffffffffffffffffffffff16815260200160006fffffffffffffffffffffffffffffffff1681526020016000151581526020016000151581525090565b6040518060e001604052806000815260200160008152602001600073ffffffffffffffffffffffffffffffffffffffff168152602001600015158152602001600015158152602001600063ffffffff168152602001600080191681525090565b600080fd5b600080fd5b600073ffffffffffffffffffffffffffffffffffffffff82169050919050565b6000613efd82613ed2565b9050919050565b613f0d81613ef2565b8114613f1857600080fd5b50565b600081359050613f2a81613f04565b92915050565b600060208284031215613f4657613f45613ec8565b5b6000613f5484828501613f1b565b91505092915050565b6000819050919050565b613f7081613f5d565b82525050565b613f7f81613ef2565b82525050565b60008115159050919050565b613f9a81613f85565b82525050565b6000819050919050565b613fb381613fa0565b82525050565b61010082016000820151613fd06000850182613f67565b506020820151613fe36020850182613f67565b506040820151613ff66040850182613f67565b5060608201516140096060850182613f76565b50608082015161401c6080850182613f76565b5060a082015161402f60a0850182613f91565b5060c082015161404260c0850182613faa565b5060e082015161405560e0850182613faa565b50505050565b6000610100820190506140716000830184613fb9565b92915050565b61408081613f5d565b811461408b57600080fd5b50565b60008135905061409d81614077565b92915050565b6000602082840312156140b9576140b8613ec8565b5b60006140c78482850161408e565b91505092915050565b6000806000606084860312156140e9576140e8613ec8565b5b60006140f78682870161408e565b93505060206141088682870161408e565b92505060406141198682870161408e565b9150509250925092565b600080fd5b600080fd5b600080fd5b60008083601f84011261414857614147614123565b5b8235905067ffffffffffffffff81111561416557614164614128565b5b6020830191508360018202830111156141815761418061412d565b5b9250929050565b6000806020838503121561419f5761419e613ec8565b5b600083013567ffffffffffffffff8111156141bd576141bc613ecd565b5b6141c985828601614132565b92509250509250929050565b60006fffffffffffffffffffffffffffffffff82169050919050565b6141fa816141d5565b82525050565b600060208201905061421560008301846141f1565b92915050565b61422481613fa0565b811461422f57600080fd5b50565b6000813590506142418161421b565b92915050565b6000806040838503121561425e5761425d613ec8565b5b600061426c85828601613f1b565b925050602061427d85828601614232565b9150509250929050565b61429081613f5d565b82525050565b60006020820190506142ab6000830184614287565b92915050565b6142ba816141d5565b82525050565b610160820160008201516142d76000850182613f67565b5060208201516142ea6020850182613f67565b5060408201516142fd6040850182613f67565b5060608201516143106060850182613f67565b5060808201516143236080850182613f76565b5060a082015161433660a0850182613f76565b5060c082015161434960c08501826142b1565b5060e082015161435c60e0850182613f91565b50610100820151614371610100850182613f91565b50610120820151614386610120850182613faa565b5061014082015161439b610140850182613faa565b50505050565b6000610160820190506143b760008301846142c0565b92915050565b60e0820160008201516143d36000850182613f67565b5060208201516143e66020850182613f67565b5060408201516143f96040850182613f67565b50606082015161440c6060850182613f76565b50608082015161441f60808501826142b1565b5060a082015161443260a0850182613f91565b5060c082015161444560c0850182613f91565b50505050565b600060e08201905061446060008301846143bd565b92915050565b61446f816141d5565b811461447a57600080fd5b50565b60008135905061448c81614466565b92915050565b6000602082840312156144a8576144a7613ec8565b5b60006144b68482850161447d565b91505092915050565b6144c881613ef2565b82525050565b6144d781613f85565b82525050565b600060e0820190506144f2600083018a614287565b6144ff6020830189614287565b61450c6040830188614287565b61451960608301876144bf565b61452660808301866141f1565b61453360a08301856144ce565b61454060c08301846144ce565b98975050505050505050565b600081519050919050565b600082825260208201905092915050565b60005b8381101561458657808201518184015260208101905061456b565b60008484015250505050565b6000601f19601f8301169050919050565b60006145ae8261454c565b6145b88185614557565b93506145c8818560208601614568565b6145d181614592565b840191505092915050565b60006040820190506145f160008301856144ce565b818103602083015261460381846145a3565b90509392505050565b600063ffffffff82169050919050565b6146258161460c565b82525050565b6000602082019050614640600083018461461c565b92915050565b600060208201905061465b60008301846144bf565b92915050565b6000819050919050565b600061468661468161467c84613ed2565b614661565b613ed2565b9050919050565b60006146988261466b565b9050919050565b60006146aa8261468d565b9050919050565b6146ba8161469f565b82525050565b60006020820190506146d560008301846146b1565b92915050565b600080600080608085870312156146f5576146f4613ec8565b5b600061470387828801613f1b565b94505060206147148782880161408e565b935050604061472587828801614232565b925050606061473687828801614232565b91505092959194509250565b61474b8161460c565b811461475657600080fd5b50565b60008135905061476881614742565b92915050565b60006020828403121561478457614783613ec8565b5b600061479284828501614759565b91505092915050565b6147a481613fa0565b82525050565b600060e0820190506147bf600083018a614287565b6147cc6020830189614287565b6147d960408301886144bf565b6147e660608301876144ce565b6147f360808301866144ce565b61480060a083018561461c565b61480d60c083018461479b565b98975050505050505050565b6000806000806080858703121561483357614832613ec8565b5b60006148418782880161408e565b945050602061485287828801613f1b565b935050604061486387828801614232565b925050606061487487828801614232565b91505092959194509250565b600061010082019050614896600083018b614287565b6148a3602083018a614287565b6148b06040830189614287565b6148bd60608301886144bf565b6148ca60808301876144bf565b6148d760a08301866144ce565b6148e460c083018561479b565b6148f160e083018461479b565b9998505050505050505050565b600061016082019050614914600083018e614287565b614921602083018d614287565b61492e604083018c614287565b61493b606083018b614287565b614948608083018a6144bf565b61495560a08301896144bf565b61496260c08301886141f1565b61496f60e08301876144ce565b61497d6101008301866144ce565b61498b61012083018561479b565b61499961014083018461479b565b9c9b505050505050505050505050565b6149b28161460c565b82525050565b60e0820160008201516149ce6000850182613f67565b5060208201516149e16020850182613f67565b5060408201516149f46040850182613f76565b506060820151614a076060850182613f91565b506080820151614a1a6080850182613f91565b5060a0820151614a2d60a08501826149a9565b5060c0820151614a4060c0850182613faa565b50505050565b600060e082019050614a5b60008301846149b8565b92915050565b600082825260208201905092915050565b7f4e6f742072656769737465726564000000000000000000000000000000000000600082015250565b6000614aa8600e83614a61565b9150614ab382614a72565b602082019050919050565b60006020820190508181036000830152614ad781614a9b565b9050919050565b7f556e726567697374657265640000000000000000000000000000000000000000600082015250565b6000614b14600c83614a61565b9150614b1f82614ade565b602082019050919050565b60006020820190508181036000830152614b4381614b07565b9050919050565b7f496e6e6163746976650000000000000000000000000000000000000000000000600082015250565b6000614b80600983614a61565b9150614b8b82614b4a565b602082019050919050565b60006020820190508181036000830152614baf81614b73565b9050919050565b7f4d75636820616d6f756e74000000000000000000000000000000000000000000600082015250565b6000614bec600b83614a61565b9150614bf782614bb6565b602082019050919050565b60006020820190508181036000830152614c1b81614bdf565b9050919050565b7f4e487b7100000000000000000000000000000000000000000000000000000000600052601160045260246000fd5b6000614c5c82613f5d565b9150614c6783613f5d565b9250828203905081811115614c7f57614c7e614c22565b5b92915050565b6000614c9082613f5d565b9150614c9b83613f5d565b9250828202614ca981613f5d565b91508282048414831517614cc057614cbf614c22565b5b5092915050565b7f4e487b7100000000000000000000000000000000000000000000000000000000600052601260045260246000fd5b6000614d0182613f5d565b9150614d0c83613f5d565b925082614d1c57614d1b614cc7565b5b828204905092915050565b7f496e616374697665000000000000000000000000000000000000000000000000600082015250565b6000614d5d600883614a61565b9150614d6882614d27565b602082019050919050565b60006020820190508181036000830152614d8c81614d50565b9050919050565b6000614d9e826141d5565b9150614da9836141d5565b925082820190506fffffffffffffffffffffffffffffffff811115614dd157614dd0614c22565b5b92915050565b7f4d75636800000000000000000000000000000000000000000000000000000000600082015250565b6000614e0d600483614a61565b9150614e1882614dd7565b602082019050919050565b60006020820190508181036000830152614e3c81614e00565b9050919050565b60008060408385031215614e5a57614e59613ec8565b5b6000614e688582860161447d565b9250506020614e7985828601614232565b9150509250929050565b6000614e8e82613f5d565b9150614e9983613f5d565b9250828201905080821115614eb157614eb0614c22565b5b92915050565b7f5265676973746572656400000000000000000000000000000000000000000000600082015250565b6000614eed600a83614a61565b9150614ef882614eb7565b602082019050919050565b60006020820190508181036000830152614f1c81614ee0565b9050919050565b6000614f2e8261460c565b9150614f398361460c565b9250828201905063ffffffff811115614f5557614f54614c22565b5b92915050565b6000614f668261460c565b915063ffffffff8203614f7c57614f7b614c22565b5b600182019050919050565b7f4e6f206d61746368696e67207465726d20666f756e6400000000000000000000600082015250565b6000614fbd601683614a61565b9150614fc882614f87565b602082019050919050565b60006020820190508181036000830152614fec81614fb0565b9050919050565b600060408201905061500860008301856141f1565b615015602083018461479b565b9392505050565b7f496e76616c6964207363686f6f6c206164647265737300000000000000000000600082015250565b6000615052601683614a61565b915061505d8261501c565b602082019050919050565b6000602082019050818103600083015261508181615045565b9050919050565b7f496e76616c696420616d6f756e74000000000000000000000000000000000000600082015250565b60006150be600e83614a61565b91506150c982615088565b602082019050919050565b600060208201905081810360008301526150ed816150b1565b9050919050565b7f616d6f756e7420213d207363686f6f6c20747574696f6e000000000000000000600082015250565b600061512a601783614a61565b9150615135826150f4565b602082019050919050565b600060208201905081810360008301526151598161511d565b9050919050565b7f4c6f772062616c616e6365000000000000000000000000000000000000000000600082015250565b6000615196600b83614a61565b91506151a182615160565b602082019050919050565b600060208201905081810360008301526151c581615189565b9050919050565b7f4e6f206175746f7061796d656e747320666f756e640000000000000000000000600082015250565b6000615202601583614a61565b915061520d826151cc565b602082019050919050565b60006020820190508181036000830152615231816151f5565b9050919050565b7f4d75636820666565000000000000000000000000000000000000000000000000600082015250565b600061526e600883614a61565b915061527982615238565b602082019050919050565b6000602082019050818103600083015261529d81615261565b9050919050565b7f496e76616c6964206465706f7369740000000000000000000000000000000000600082015250565b60006152da600f83614a61565b91506152e5826152a4565b602082019050919050565b60006020820190508181036000830152615309816152cd565b9050919050565b7f496e76616c696420616464726573730000000000000000000000000000000000600082015250565b6000615346600f83614a61565b915061535182615310565b602082019050919050565b6000602082019050818103600083015261537581615339565b9050919050565b6000819050919050565b600067ffffffffffffffff82169050919050565b60006153b56153b06153ab8461537c565b614661565b615386565b9050919050565b6153c58161539a565b82525050565b60006020820190506153e060008301846153bc565b92915050565b7f4c6974746c652062616c616e6365000000000000000000000000000000000000600082015250565b600061541c600e83614a61565b9150615427826153e6565b602082019050919050565b6000602082019050818103600083015261544b8161540f565b9050919050565b7f496e76616c6964207363686f6f6c416464720000000000000000000000000000600082015250565b6000615488601283614a61565b915061549382615452565b602082019050919050565b600060208201905081810360008301526154b78161547b565b9050919050565b7f4f75746461746564205465726d00000000000000000000000000000000000000600082015250565b60006154f4600d83614a61565b91506154ff826154be565b602082019050919050565b60006020820190508181036000830152615523816154e7565b9050919050565b7f596f7527726520636c6561726564210000000000000000000000000000000000600082015250565b6000615560600f83614a61565b915061556b8261552a565b602082019050919050565b6000602082019050818103600083015261558f81615553565b9050919050565b7f52656475636520616d6f756e7400000000000000000000000000000000000000600082015250565b60006155cc600d83614a61565b91506155d782615596565b602082019050919050565b600060208201905081810360008301526155fb816155bf565b9050919050565b600060408201905061561760008301856144bf565b6156246020830184614287565b9392505050565b600060608201905061564060008301866144bf565b61564d60208301856144bf565b61565a6040830184614287565b94935050505056fea264697066735822122096f4e1d5a6e9ce8ecc56dd96a90b5ae66b7aa6dd0411824b36d0925da65c8b4264736f6c634300081c0033",
  "linkReferences": {},
  "deployedLinkReferences": {}
}