{
  "_format": "hh-sol-artifact-1",
  "contractName": "Tution",
  "sourceName": "contracts/Tution.sol",
  "abi": [
    {
      "inputs": [],
      "name": "InvalidInitialization",
      "type": "error"
    },
    {
      "inputs": [],
      "name": "NotInitializing",
      "type": "error"
    },
    {
      "inputs": [
        {
          "internalType": "address",
          "name": "owner",
          "type": "address"
        }
      ],
      "name": "OwnableInvalidOwner",
      "type": "error"
    },
    {
      "inputs": [
        {
          "internalType": "address",
          "name": "account",
          "type": "address"
        }
      ],
      "name": "OwnableUnauthorizedAccount",
      "type": "error"
    },
    {
      "inputs": [],
      "name": "ReentrancyGuardReentrantCall",
      "type": "error"
    },
    {
      "inputs": [
        {
          "internalType": "address",
          "name": "token",
          "type": "address"
        }
      ],
      "name": "SafeERC20FailedOperation",
      "type": "error"
    },
    {
      "anonymous": false,
      "inputs": [
        {
          "indexed": false,
          "internalType": "uint64",
          "name": "version",
          "type": "uint64"
        }
      ],
      "name": "Initialized",
      "type": "event"
    },
    {
      "anonymous": false,
      "inputs": [
        {
          "indexed": true,
          "internalType": "address",
          "name": "previousOwner",
          "type": "address"
        },
        {
          "indexed": true,
          "internalType": "address",
          "name": "newOwner",
          "type": "address"
        }
      ],
      "name": "OwnershipTransferred",
      "type": "event"
    },
    {
      "inputs": [
        {
          "internalType": "uint256",
          "name": "_tution",
          "type": "uint256"
        },
        {
          "internalType": "uint256",
          "name": "_start",
          "type": "uint256"
        },
        {
          "internalType": "uint256",
          "name": "_end",
          "type": "uint256"
        }
      ],
      "name": "AcademicTermUpdate",
      "outputs": [],
      "stateMutability": "nonpayable",
      "type": "function"
    },
    {
      "inputs": [
        {
          "internalType": "uint128",
          "name": "",
          "type": "uint128"
        }
      ],
      "name": "academicTerm",
      "outputs": [
        {
          "internalType": "uint256",
          "name": "tution",
          "type": "uint256"
        },
        {
          "internalType": "uint256",
          "name": "start",
          "type": "uint256"
        },
        {
          "internalType": "uint256",
          "name": "end",
          "type": "uint256"
        },
        {
          "internalType": "address",
          "name": "school",
          "type": "address"
        },
        {
          "internalType": "uint128",
          "name": "termId",
          "type": "uint128"
        },
        {
          "internalType": "bool",
          "name": "hasStarted",
          "type": "bool"
        },
        {
          "internalType": "bool",
          "name": "hasEnded",
          "type": "bool"
        }
      ],
      "stateMutability": "view",
      "type": "function"
    },
    {
      "inputs": [
        {
          "internalType": "address",
          "name": "_school",
          "type": "address"
        }
      ],
      "name": "activateSchool",
      "outputs": [],
      "stateMutability": "nonpayable",
      "type": "function"
    },
    {
      "inputs": [],
      "name": "autoIds",
      "outputs": [
        {
          "internalType": "uint128",
          "name": "",
          "type": "uint128"
        }
      ],
      "stateMutability": "view",
      "type": "function"
    },
    {
      "inputs": [
        {
          "internalType": "uint128",
          "name": "",
          "type": "uint128"
        }
      ],
      "name": "autoPayers",
      "outputs": [
        {
          "internalType": "uint256",
          "name": "balance",
          "type": "uint256"
        },
        {
          "internalType": "uint256",
          "name": "debts",
          "type": "uint256"
        },
        {
          "internalType": "address",
          "name": "client",
          "type": "address"
        },
        {
          "internalType": "address",
          "name": "school",
          "type": "address"
        },
        {
          "internalType": "uint128",
          "name": "autoPayerId",
          "type": "uint128"
        },
        {
          "internalType": "bool",
          "name": "hasAutoPayments",
          "type": "bool"
        },
        {
          "internalType": "bool",
          "name": "hasPaid",
          "type": "bool"
        },
        {
          "internalType": "bytes32",
          "name": "studentName",
          "type": "bytes32"
        },
        {
          "internalType": "bytes32",
          "name": "studentClass",
          "type": "bytes32"
        }
      ],
      "stateMutability": "view",
      "type": "function"
    },
    {
      "inputs": [],
      "name": "cancelAutoPayments",
      "outputs": [],
      "stateMutability": "nonpayable",
      "type": "function"
    },
    {
      "inputs": [
        {
          "internalType": "bytes",
          "name": "",
          "type": "bytes"
        }
      ],
      "name": "checkUpkeep",
      "outputs": [
        {
          "internalType": "bool",
          "name": "upkeepNeeded",
          "type": "bool"
        },
        {
          "internalType": "bytes",
          "name": "performData",
          "type": "bytes"
        }
      ],
      "stateMutability": "view",
      "type": "function"
    },
    {
      "inputs": [
        {
          "internalType": "uint256",
          "name": "_amount",
          "type": "uint256"
        }
      ],
      "name": "clientDeposit",
      "outputs": [],
      "stateMutability": "nonpayable",
      "type": "function"
    },
    {
      "inputs": [
        {
          "internalType": "uint256",
          "name": "_amount",
          "type": "uint256"
        }
      ],
      "name": "clientWithdraw",
      "outputs": [],
      "stateMutability": "nonpayable",
      "type": "function"
    },
    {
      "inputs": [
        {
          "internalType": "address",
          "name": "_school",
          "type": "address"
        }
      ],
      "name": "deactivateSchool",
      "outputs": [],
      "stateMutability": "nonpayable",
      "type": "function"
    },
    {
      "inputs": [],
      "name": "getAutoPayer",
      "outputs": [
        {
          "components": [
            {
              "internalType": "uint256",
              "name": "balance",
              "type": "uint256"
            },
            {
              "internalType": "uint256",
              "name": "debts",
              "type": "uint256"
            },
            {
              "internalType": "address",
              "name": "client",
              "type": "address"
            },
            {
              "internalType": "address",
              "name": "school",
              "type": "address"
            },
            {
              "internalType": "uint128",
              "name": "autoPayerId",
              "type": "uint128"
            },
            {
              "internalType": "bool",
              "name": "hasAutoPayments",
              "type": "bool"
            },
            {
              "internalType": "bool",
              "name": "hasPaid",
              "type": "bool"
            },
            {
              "internalType": "bytes32",
              "name": "studentName",
              "type": "bytes32"
            },
            {
              "internalType": "bytes32",
              "name": "studentClass",
              "type": "bytes32"
            }
          ],
          "internalType": "struct Tution.AutoPayer",
          "name": "",
          "type": "tuple"
        }
      ],
      "stateMutability": "view",
      "type": "function"
    },
    {
      "inputs": [],
      "name": "getClient",
      "outputs": [
        {
          "components": [
            {
              "internalType": "uint256",
              "name": "balance",
              "type": "uint256"
            },
            {
              "internalType": "uint256",
              "name": "termPayments",
              "type": "uint256"
            },
            {
              "internalType": "uint256",
              "name": "autoPayments",
              "type": "uint256"
            },
            {
              "internalType": "uint256",
              "name": "debts",
              "type": "uint256"
            },
            {
              "internalType": "address",
              "name": "client",
              "type": "address"
            },
            {
              "internalType": "address",
              "name": "school",
              "type": "address"
            },
            {
              "internalType": "uint128",
              "name": "payerId",
              "type": "uint128"
            },
            {
              "internalType": "bool",
              "name": "isOnPlatform",
              "type": "bool"
            },
            {
              "internalType": "bytes32",
              "name": "studentName",
              "type": "bytes32"
            },
            {
              "internalType": "bytes32",
              "name": "studentClass",
              "type": "bytes32"
            }
          ],
          "internalType": "struct Tution.Payer",
          "name": "",
          "type": "tuple"
        }
      ],
      "stateMutability": "view",
      "type": "function"
    },
    {
      "inputs": [
        {
          "internalType": "address",
          "name": "_user",
          "type": "address"
        }
      ],
      "name": "getReceipt",
      "outputs": [
        {
          "components": [
            {
              "internalType": "uint256",
              "name": "time",
              "type": "uint256"
            },
            {
              "internalType": "uint256",
              "name": "amount",
              "type": "uint256"
            },
            {
              "internalType": "uint256",
              "name": "balance",
              "type": "uint256"
            },
            {
              "internalType": "address",
              "name": "payer",
              "type": "address"
            },
            {
              "internalType": "address",
              "name": "school",
              "type": "address"
            },
            {
              "internalType": "bool",
              "name": "cleared",
              "type": "bool"
            },
            {
              "internalType": "bytes32",
              "name": "student",
              "type": "bytes32"
            },
            {
              "internalType": "bytes32",
              "name": "class",
              "type": "bytes32"
            }
          ],
          "internalType": "struct Tution.Receipt",
          "name": "",
          "type": "tuple"
        }
      ],
      "stateMutability": "view",
      "type": "function"
    },
    {
      "inputs": [
        {
          "internalType": "address",
          "name": "_school",
          "type": "address"
        }
      ],
      "name": "getSchoolInfo",
      "outputs": [
        {
          "components": [
            {
              "internalType": "uint256",
              "name": "balance",
              "type": "uint256"
            },
            {
              "internalType": "uint256",
              "name": "tution",
              "type": "uint256"
            },
            {
              "internalType": "address",
              "name": "school",
              "type": "address"
            },
            {
              "internalType": "bool",
              "name": "isRegistered",
              "type": "bool"
            },
            {
              "internalType": "bool",
              "name": "isActive",
              "type": "bool"
            },
            {
              "internalType": "uint32",
              "name": "schoolId",
              "type": "uint32"
            },
            {
              "internalType": "bytes32",
              "name": "name",
              "type": "bytes32"
            }
          ],
          "internalType": "struct Tution.School",
          "name": "",
          "type": "tuple"
        }
      ],
      "stateMutability": "view",
      "type": "function"
    },
    {
      "inputs": [
        {
          "internalType": "address",
          "name": "_schoolAddr",
          "type": "address"
        }
      ],
      "name": "getacademicTerm",
      "outputs": [
        {
          "components": [
            {
              "internalType": "uint256",
              "name": "tution",
              "type": "uint256"
            },
            {
              "internalType": "uint256",
              "name": "start",
              "type": "uint256"
            },
            {
              "internalType": "uint256",
              "name": "end",
              "type": "uint256"
            },
            {
              "internalType": "address",
              "name": "school",
              "type": "address"
            },
            {
              "internalType": "uint128",
              "name": "termId",
              "type": "uint128"
            },
            {
              "internalType": "bool",
              "name": "hasStarted",
              "type": "bool"
            },
            {
              "internalType": "bool",
              "name": "hasEnded",
              "type": "bool"
            }
          ],
          "internalType": "struct Tution.AcademicTerm",
          "name": "",
          "type": "tuple"
        }
      ],
      "stateMutability": "view",
      "type": "function"
    },
    {
      "inputs": [
        {
          "internalType": "address",
          "name": "_tokenUsed",
          "type": "address"
        }
      ],
      "name": "initialize",
      "outputs": [],
      "stateMutability": "nonpayable",
      "type": "function"
    },
    {
      "inputs": [],
      "name": "newSchoolId",
      "outputs": [
        {
          "internalType": "uint32",
          "name": "",
          "type": "uint32"
        }
      ],
      "stateMutability": "view",
      "type": "function"
    },
    {
      "inputs": [],
      "name": "owner",
      "outputs": [
        {
          "internalType": "address",
          "name": "",
          "type": "address"
        }
      ],
      "stateMutability": "view",
      "type": "function"
    },
    {
      "inputs": [
        {
          "internalType": "address",
          "name": "",
          "type": "address"
        }
      ],
      "name": "payer",
      "outputs": [
        {
          "internalType": "uint256",
          "name": "balance",
          "type": "uint256"
        },
        {
          "internalType": "uint256",
          "name": "termPayments",
          "type": "uint256"
        },
        {
          "internalType": "uint256",
          "name": "autoPayments",
          "type": "uint256"
        },
        {
          "internalType": "uint256",
          "name": "debts",
          "type": "uint256"
        },
        {
          "internalType": "address",
          "name": "client",
          "type": "address"
        },
        {
          "internalType": "address",
          "name": "school",
          "type": "address"
        },
        {
          "internalType": "uint128",
          "name": "payerId",
          "type": "uint128"
        },
        {
          "internalType": "bool",
          "name": "isOnPlatform",
          "type": "bool"
        },
        {
          "internalType": "bytes32",
          "name": "studentName",
          "type": "bytes32"
        },
        {
          "internalType": "bytes32",
          "name": "studentClass",
          "type": "bytes32"
        }
      ],
      "stateMutability": "view",
      "type": "function"
    },
    {
      "inputs": [],
      "name": "payerIds",
      "outputs": [
        {
          "internalType": "uint128",
          "name": "",
          "type": "uint128"
        }
      ],
      "stateMutability": "view",
      "type": "function"
    },
    {
      "inputs": [
        {
          "internalType": "address",
          "name": "_school",
          "type": "address"
        },
        {
          "internalType": "uint256",
          "name": "_amount",
          "type": "uint256"
        },
        {
          "internalType": "bytes32",
          "name": "_student",
          "type": "bytes32"
        },
        {
          "internalType": "bytes32",
          "name": "_class",
          "type": "bytes32"
        }
      ],
      "name": "paymentAutomation",
      "outputs": [],
      "stateMutability": "nonpayable",
      "type": "function"
    },
    {
      "inputs": [],
      "name": "paymentsMade",
      "outputs": [
        {
          "internalType": "uint256",
          "name": "",
          "type": "uint256"
        }
      ],
      "stateMutability": "view",
      "type": "function"
    },
    {
      "inputs": [],
      "name": "percentageFee",
      "outputs": [
        {
          "internalType": "uint32",
          "name": "",
          "type": "uint32"
        }
      ],
      "stateMutability": "view",
      "type": "function"
    },
    {
      "inputs": [
        {
          "internalType": "bytes",
          "name": "performData",
          "type": "bytes"
        }
      ],
      "name": "performUpkeep",
      "outputs": [],
      "stateMutability": "nonpayable",
      "type": "function"
    },
    {
      "inputs": [
        {
          "internalType": "address",
          "name": "",
          "type": "address"
        }
      ],
      "name": "receipt",
      "outputs": [
        {
          "internalType": "uint256",
          "name": "time",
          "type": "uint256"
        },
        {
          "internalType": "uint256",
          "name": "amount",
          "type": "uint256"
        },
        {
          "internalType": "uint256",
          "name": "balance",
          "type": "uint256"
        },
        {
          "internalType": "address",
          "name": "payer",
          "type": "address"
        },
        {
          "internalType": "address",
          "name": "school",
          "type": "address"
        },
        {
          "internalType": "bool",
          "name": "cleared",
          "type": "bool"
        },
        {
          "internalType": "bytes32",
          "name": "student",
          "type": "bytes32"
        },
        {
          "internalType": "bytes32",
          "name": "class",
          "type": "bytes32"
        }
      ],
      "stateMutability": "view",
      "type": "function"
    },
    {
      "inputs": [
        {
          "internalType": "address",
          "name": "_school",
          "type": "address"
        },
        {
          "internalType": "bytes32",
          "name": "_name",
          "type": "bytes32"
        }
      ],
      "name": "registerSchool",
      "outputs": [],
      "stateMutability": "nonpayable",
      "type": "function"
    },
    {
      "inputs": [],
      "name": "renounceOwnership",
      "outputs": [],
      "stateMutability": "nonpayable",
      "type": "function"
    },
    {
      "inputs": [
        {
          "internalType": "address",
          "name": "",
          "type": "address"
        }
      ],
      "name": "school",
      "outputs": [
        {
          "internalType": "uint256",
          "name": "balance",
          "type": "uint256"
        },
        {
          "internalType": "uint256",
          "name": "tution",
          "type": "uint256"
        },
        {
          "internalType": "address",
          "name": "school",
          "type": "address"
        },
        {
          "internalType": "bool",
          "name": "isRegistered",
          "type": "bool"
        },
        {
          "internalType": "bool",
          "name": "isActive",
          "type": "bool"
        },
        {
          "internalType": "uint32",
          "name": "schoolId",
          "type": "uint32"
        },
        {
          "internalType": "bytes32",
          "name": "name",
          "type": "bytes32"
        }
      ],
      "stateMutability": "view",
      "type": "function"
    },
    {
      "inputs": [
        {
          "internalType": "uint256",
          "name": "_amount",
          "type": "uint256"
        }
      ],
      "name": "schoolWithdrawal",
      "outputs": [],
      "stateMutability": "nonpayable",
      "type": "function"
    },
    {
      "inputs": [],
      "name": "stableToken",
      "outputs": [
        {
          "internalType": "contract IERC20",
          "name": "",
          "type": "address"
        }
      ],
      "stateMutability": "view",
      "type": "function"
    },
    {
      "inputs": [],
      "name": "termIdBySchool",
      "outputs": [
        {
          "internalType": "uint128",
          "name": "",
          "type": "uint128"
        }
      ],
      "stateMutability": "view",
      "type": "function"
    },
    {
      "inputs": [
        {
          "internalType": "address",
          "name": "newOwner",
          "type": "address"
        }
      ],
      "name": "transferOwnership",
      "outputs": [],
      "stateMutability": "nonpayable",
      "type": "function"
    },
    {
      "inputs": [
        {
          "internalType": "uint256",
          "name": "_amount",
          "type": "uint256"
        },
        {
          "internalType": "address",
          "name": "_school",
          "type": "address"
        },
        {
          "internalType": "bytes32",
          "name": "_student",
          "type": "bytes32"
        },
        {
          "internalType": "bytes32",
          "name": "_class",
          "type": "bytes32"
        }
      ],
      "name": "tutionPayment",
      "outputs": [],
      "stateMutability": "nonpayable",
      "type": "function"
    },
    {
      "inputs": [
        {
          "internalType": "uint32",
          "name": "_percentage",
          "type": "uint32"
        }
      ],
      "name": "updateTxFee",
      "outputs": [],
      "stateMutability": "nonpayable",
      "type": "function"
    }
  ],
  "bytecode": "0x6080604052348015600f57600080fd5b506159c88061001f6000396000f3fe608060405234801561001057600080fd5b50600436106102065760003560e01c80638da5cb5b1161011a578063c8285592116100ad578063e43475111161007c578063e4347511146105cb578063e5b73e08146105e9578063e97e3f1714610622578063f2fde38b14610652578063fde345bc1461066e57610206565b8063c82855921461053e578063c9ad84dc1461055a578063e35e566314610578578063e4246662146105af57610206565b8063baae1892116100e9578063baae1892146104b4578063bd53d5cc146104d0578063c4d66de8146104ec578063c652365c1461050857610206565b80638da5cb5b14610452578063a9d75b2b14610470578063b5ead19e1461048e578063b8429828146104aa57610206565b80634ff59cf81161019d5780636e04ff0d1161016c5780636e04ff0d146103a3578063715018a6146103d4578063780a7ff0146103de5780637866eb0f146103fc5780637b2871df1461041a57610206565b80634ff59cf81461030157806359dc735c1461031f5780635e2af8ad1461033d57806368df78811461036d57610206565b80633a3cd062116101d95780633a3cd0621461028f5780634585e33b146102ab578063490f1bfe146102c75780634cd36a1c146102e557610206565b806304562d951461020b578063065ed3da1461023b5780630ab01237146102575780632de19a4f14610273575b600080fd5b610225600480360381019061022091906141bc565b61068c565b60405161023291906142e7565b60405180910390f35b6102556004803603810190610250919061432f565b6107df565b005b610271600480360381019061026c91906141bc565b610a61565b005b61028d6004803603810190610288919061435c565b610b70565b005b6102a960048036038101906102a4919061432f565b610f00565b005b6102c560048036038101906102c09190614414565b61116a565b005b6102cf6117c6565b6040516102dc919061448c565b60405180910390f35b6102ff60048036038101906102fa91906144d3565b6117e8565b005b610309611a3b565b6040516103169190614522565b60405180910390f35b610327611a41565b6040516103349190614618565b60405180910390f35b610357600480360381019061035291906141bc565b611be6565b60405161036491906146c2565b60405180910390f35b61038760048036038101906103829190614709565b611e05565b60405161039a9796959493929190614754565b60405180910390f35b6103bd60048036038101906103b89190614414565b611e9d565b6040516103cb929190614853565b60405180910390f35b6103dc6120cd565b005b6103e66120e1565b6040516103f391906148a2565b60405180910390f35b6104046120f7565b60405161041191906148a2565b60405180910390f35b610434600480360381019061042f9190614709565b61210d565b604051610449999897969594939291906148cc565b60405180910390f35b61045a6121d1565b6040516104679190614959565b60405180910390f35b610478612209565b60405161048591906149d3565b60405180910390f35b6104a860048036038101906104a391906149ee565b61222d565b005b6104b261263a565b005b6104ce60048036038101906104c99190614a81565b612773565b005b6104ea60048036038101906104e5919061432f565b6127e8565b005b610506600480360381019061050191906141bc565b612a24565b005b610522600480360381019061051d91906141bc565b612ca4565b6040516105359796959493929190614aae565b60405180910390f35b61055860048036038101906105539190614b1d565b612d30565b005b61056261329b565b60405161056f919061448c565b60405180910390f35b610592600480360381019061058d91906141bc565b6132bd565b6040516105a6989796959493929190614b84565b60405180910390f35b6105c960048036038101906105c491906141bc565b613352565b005b6105d361340f565b6040516105e09190614cb9565b60405180910390f35b61060360048036038101906105fe91906141bc565b61368d565b6040516106199a99989796959493929190614cd5565b60405180910390f35b61063c600480360381019061063791906141bc565b61374a565b6040516106499190614e0e565b60405180910390f35b61066c600480360381019061066791906141bc565b613908565b005b61067661398e565b604051610683919061448c565b60405180910390f35b610694613ee5565b600360008373ffffffffffffffffffffffffffffffffffffffff1673ffffffffffffffffffffffffffffffffffffffff168152602001908152602001600020604051806101000160405290816000820154815260200160018201548152602001600282015481526020016003820160009054906101000a900473ffffffffffffffffffffffffffffffffffffffff1673ffffffffffffffffffffffffffffffffffffffff1673ffffffffffffffffffffffffffffffffffffffff1681526020016004820160009054906101000a900473ffffffffffffffffffffffffffffffffffffffff1673ffffffffffffffffffffffffffffffffffffffff1673ffffffffffffffffffffffffffffffffffffffff1681526020016004820160149054906101000a900460ff16151515158152602001600582015481526020016006820154815250509050919050565b6000600160003373ffffffffffffffffffffffffffffffffffffffff1673ffffffffffffffffffffffffffffffffffffffff16815260200190815260200160002090508060020160149054906101000a900460ff16610873576040517f08c379a000000000000000000000000000000000000000000000000000000000815260040161086a90614e86565b60405180910390fd5b61087b6139b0565b6000600160003373ffffffffffffffffffffffffffffffffffffffff1673ffffffffffffffffffffffffffffffffffffffff16815260200190815260200160002090508060020160149054906101000a900460ff1661090f576040517f08c379a000000000000000000000000000000000000000000000000000000000815260040161090690614ef2565b60405180910390fd5b8060020160159054906101000a900460ff16610960576040517f08c379a000000000000000000000000000000000000000000000000000000000815260040161095790614f5e565b60405180910390fd5b82816000015410156109a7576040517f08c379a000000000000000000000000000000000000000000000000000000000815260040161099e90614fca565b60405180910390fd5b828160000160008282546109bb9190615019565b9250508190555060006103e8600660149054906101000a900463ffffffff1663ffffffff16856109eb919061504d565b6109f591906150be565b905060008185610a059190615019565b9050610a52338260008054906101000a900473ffffffffffffffffffffffffffffffffffffffff1673ffffffffffffffffffffffffffffffffffffffff16613a079092919063ffffffff16565b505050610a5d613a86565b5050565b610a69613a9f565b6000600160008373ffffffffffffffffffffffffffffffffffffffff1673ffffffffffffffffffffffffffffffffffffffff16815260200190815260200160002090508060020160149054906101000a900460ff16610afd576040517f08c379a0000000000000000000000000000000000000000000000000000000008152600401610af490614ef2565b60405180910390fd5b8060020160159054906101000a900460ff1615610b4f576040517f08c379a0000000000000000000000000000000000000000000000000000000008152600401610b4690614f5e565b60405180910390fd5b60018160020160156101000a81548160ff0219169083151502179055505050565b6000600160003373ffffffffffffffffffffffffffffffffffffffff1673ffffffffffffffffffffffffffffffffffffffff16815260200190815260200160002090508060020160149054906101000a900460ff16610c04576040517f08c379a0000000000000000000000000000000000000000000000000000000008152600401610bfb90614e86565b60405180910390fd5b6000600160003373ffffffffffffffffffffffffffffffffffffffff1673ffffffffffffffffffffffffffffffffffffffff16815260200190815260200160002090508060020160149054906101000a900460ff16610c98576040517f08c379a0000000000000000000000000000000000000000000000000000000008152600401610c8f90614ef2565b60405180910390fd5b8060020160159054906101000a900460ff16610ce9576040517f08c379a0000000000000000000000000000000000000000000000000000000008152600401610ce09061513b565b60405180910390fd5b6000600660049054906101000a90046fffffffffffffffffffffffffffffffff1690506040518060e001604052808781526020018681526020018581526020013373ffffffffffffffffffffffffffffffffffffffff168152602001826fffffffffffffffffffffffffffffffff1681526020016000151581526020016000151581525060046000836fffffffffffffffffffffffffffffffff166fffffffffffffffffffffffffffffffff16815260200190815260200160002060008201518160000155602082015181600101556040820151816002015560608201518160030160006101000a81548173ffffffffffffffffffffffffffffffffffffffff021916908373ffffffffffffffffffffffffffffffffffffffff16021790555060808201518160040160006101000a8154816fffffffffffffffffffffffffffffffff02191690836fffffffffffffffffffffffffffffffff16021790555060a08201518160040160106101000a81548160ff02191690831515021790555060c08201518160040160116101000a81548160ff0219169083151502179055509050506001600660048282829054906101000a90046fffffffffffffffffffffffffffffffff16610eb9919061515b565b92506101000a8154816fffffffffffffffffffffffffffffffff02191690836fffffffffffffffffffffffffffffffff160217905550858260010181905550505050505050565b610f086139b0565b6000600260003373ffffffffffffffffffffffffffffffffffffffff1673ffffffffffffffffffffffffffffffffffffffff16815260200190815260200160002090508181600001541015610f92576040517f08c379a0000000000000000000000000000000000000000000000000000000008152600401610f89906151eb565b60405180910390fd5b81816000016000828254610fa69190615019565b92505081905550610ff8338360008054906101000a900473ffffffffffffffffffffffffffffffffffffffff1673ffffffffffffffffffffffffffffffffffffffff16613a079092919063ffffffff16565b60005b600860109054906101000a90046fffffffffffffffffffffffffffffffff166fffffffffffffffffffffffffffffffff16816fffffffffffffffffffffffffffffffff16101561115d57600060056000836fffffffffffffffffffffffffffffffff166fffffffffffffffffffffffffffffffff16815260200190815260200160002090508060040160109054906101000a900460ff161580156110a3575060008160000154115b80156110fe57503373ffffffffffffffffffffffffffffffffffffffff168160020160009054906101000a900473ffffffffffffffffffffffffffffffffffffffff1673ffffffffffffffffffffffffffffffffffffffff16145b1561114f5761114e338560008054906101000a900473ffffffffffffffffffffffffffffffffffffffff1673ffffffffffffffffffffffffffffffffffffffff16613a079092919063ffffffff16565b5b508080600101915050610ffb565b5050611167613a86565b50565b600080838381019061117c919061520b565b91509150600060046000846fffffffffffffffffffffffffffffffff166fffffffffffffffffffffffffffffffff16815260200190815260200160002090506000600160008360030160009054906101000a900473ffffffffffffffffffffffffffffffffffffffff1673ffffffffffffffffffffffffffffffffffffffff1673ffffffffffffffffffffffffffffffffffffffff16815260200190815260200160002090507f85301d412c91b5025a99ca488ca39b08d0d436c51cec3bd9ea6e0754d7d19915830361126b5760018260040160106101000a81548160ff0219169083151502179055506112ec565b7f5766ed171599f7913d5137e7b28bc984eec1a87a30800016278646d1777f82fb83036112eb5760018260040160116101000a81548160ff0219169083151502179055506000826000018190555060008260040160106101000a81548160ff02191690831515021790555060008260010181905550600082600201819055505b5b60005b600860109054906101000a90046fffffffffffffffffffffffffffffffff166fffffffffffffffffffffffffffffffff16816fffffffffffffffffffffffffffffffff1610156117bd57600060056000836fffffffffffffffffffffffffffffffff166fffffffffffffffffffffffffffffffff16815260200190815260200160002090507f85301d412c91b5025a99ca488ca39b08d0d436c51cec3bd9ea6e0754d7d199158514801561141657508060030160009054906101000a900473ffffffffffffffffffffffffffffffffffffffff1673ffffffffffffffffffffffffffffffffffffffff168360020160009054906101000a900473ffffffffffffffffffffffffffffffffffffffff1673ffffffffffffffffffffffffffffffffffffffff16145b80156114735750600073ffffffffffffffffffffffffffffffffffffffff168360020160009054906101000a900473ffffffffffffffffffffffffffffffffffffffff1673ffffffffffffffffffffffffffffffffffffffff1614155b801561148757508260010154816000015410155b80156114a157508060040160109054906101000a900460ff165b80156114bc57508060040160119054906101000a900460ff16155b1561174f5760008360010154905060008460010154836000015410159050818360000160008282546114ee9190615019565b9250508190555081856000016000828254611509919061524b565b925050819055508160076000828254611522919061524b565b9250508190555060018360040160116101000a81548160ff021916908315150217905550801561174c57604051806101000160405280428152602001838152602001600081526020018460020160009054906101000a900473ffffffffffffffffffffffffffffffffffffffff1673ffffffffffffffffffffffffffffffffffffffff1681526020018660020160009054906101000a900473ffffffffffffffffffffffffffffffffffffffff1673ffffffffffffffffffffffffffffffffffffffff1681526020018215158152602001846005015481526020018460060154815250600360008560020160009054906101000a900473ffffffffffffffffffffffffffffffffffffffff1673ffffffffffffffffffffffffffffffffffffffff1673ffffffffffffffffffffffffffffffffffffffff16815260200190815260200160002060008201518160000155602082015181600101556040820151816002015560608201518160030160006101000a81548173ffffffffffffffffffffffffffffffffffffffff021916908373ffffffffffffffffffffffffffffffffffffffff16021790555060808201518160040160006101000a81548173ffffffffffffffffffffffffffffffffffffffff021916908373ffffffffffffffffffffffffffffffffffffffff16021790555060a08201518160040160146101000a81548160ff02191690831515021790555060c0820151816005015560e082015181600601559050505b50505b7f5766ed171599f7913d5137e7b28bc984eec1a87a30800016278646d1777f82fb8514801561178c57508060040160119054906101000a900460ff165b156117af5760008160040160116101000a81548160ff0219169083151502179055505b5080806001019150506112ef565b50505050505050565b600860009054906101000a90046fffffffffffffffffffffffffffffffff1681565b6117f0613a9f565b600160008373ffffffffffffffffffffffffffffffffffffffff1673ffffffffffffffffffffffffffffffffffffffff16815260200190815260200160002060020160149054906101000a900460ff1615611880576040517f08c379a0000000000000000000000000000000000000000000000000000000008152600401611877906152cb565b60405180910390fd5b6040518060e0016040528060008152602001600081526020018373ffffffffffffffffffffffffffffffffffffffff168152602001600115158152602001600115158152602001600660009054906101000a900463ffffffff1663ffffffff16815260200182815250600160008473ffffffffffffffffffffffffffffffffffffffff1673ffffffffffffffffffffffffffffffffffffffff168152602001908152602001600020600082015181600001556020820151816001015560408201518160020160006101000a81548173ffffffffffffffffffffffffffffffffffffffff021916908373ffffffffffffffffffffffffffffffffffffffff16021790555060608201518160020160146101000a81548160ff02191690831515021790555060808201518160020160156101000a81548160ff02191690831515021790555060a08201518160020160166101000a81548163ffffffff021916908363ffffffff16021790555060c082015181600301559050506001600660008282829054906101000a900463ffffffff16611a1991906152eb565b92506101000a81548163ffffffff021916908363ffffffff1602179055505050565b60075481565b611a49613f5e565b600260003373ffffffffffffffffffffffffffffffffffffffff1673ffffffffffffffffffffffffffffffffffffffff16815260200190815260200160002060405180610140016040529081600082015481526020016001820154815260200160028201548152602001600382015481526020016004820160009054906101000a900473ffffffffffffffffffffffffffffffffffffffff1673ffffffffffffffffffffffffffffffffffffffff1673ffffffffffffffffffffffffffffffffffffffff1681526020016005820160009054906101000a900473ffffffffffffffffffffffffffffffffffffffff1673ffffffffffffffffffffffffffffffffffffffff1673ffffffffffffffffffffffffffffffffffffffff1681526020016006820160009054906101000a90046fffffffffffffffffffffffffffffffff166fffffffffffffffffffffffffffffffff166fffffffffffffffffffffffffffffffff1681526020016006820160109054906101000a900460ff1615151515815260200160078201548152602001600882015481525050905090565b611bee613ff7565b60005b600660049054906101000a90046fffffffffffffffffffffffffffffffff166fffffffffffffffffffffffffffffffff16816fffffffffffffffffffffffffffffffff161015611dc457600060046000836fffffffffffffffffffffffffffffffff166fffffffffffffffffffffffffffffffff1681526020019081526020016000206040518060e00160405290816000820154815260200160018201548152602001600282015481526020016003820160009054906101000a900473ffffffffffffffffffffffffffffffffffffffff1673ffffffffffffffffffffffffffffffffffffffff1673ffffffffffffffffffffffffffffffffffffffff1681526020016004820160009054906101000a90046fffffffffffffffffffffffffffffffff166fffffffffffffffffffffffffffffffff166fffffffffffffffffffffffffffffffff1681526020016004820160109054906101000a900460ff161515151581526020016004820160119054906101000a900460ff16151515158152505090508373ffffffffffffffffffffffffffffffffffffffff16816060015173ffffffffffffffffffffffffffffffffffffffff1603611db6578092505050611e00565b508080600101915050611bf1565b506040517f08c379a0000000000000000000000000000000000000000000000000000000008152600401611df79061536f565b60405180910390fd5b919050565b60046020528060005260406000206000915090508060000154908060010154908060020154908060030160009054906101000a900473ffffffffffffffffffffffffffffffffffffffff16908060040160009054906101000a90046fffffffffffffffffffffffffffffffff16908060040160109054906101000a900460ff16908060040160119054906101000a900460ff16905087565b6000606060005b600660049054906101000a90046fffffffffffffffffffffffffffffffff166fffffffffffffffffffffffffffffffff16816fffffffffffffffffffffffffffffffff1610156120ae57600060046000836fffffffffffffffffffffffffffffffff166fffffffffffffffffffffffffffffffff1681526020019081526020016000209050600073ffffffffffffffffffffffffffffffffffffffff168160030160009054906101000a900473ffffffffffffffffffffffffffffffffffffffff1673ffffffffffffffffffffffffffffffffffffffff161480611f8c575060008160000154145b15611f9757506120a1565b42816001015411158015611fba57508060040160109054906101000a900460ff16155b1561200e5760019350817f85301d412c91b5025a99ca488ca39b08d0d436c51cec3bd9ea6e0754d7d19915604051602001611ff692919061538f565b604051602081830303815290604052925050506120c6565b4281600201541115801561203057508060040160109054906101000a900460ff165b801561204b57508060040160119054906101000a900460ff16155b1561209f5760019350817f5766ed171599f7913d5137e7b28bc984eec1a87a30800016278646d1777f82fb60405160200161208792919061538f565b604051602081830303815290604052925050506120c6565b505b8080600101915050611ea4565b50600091506040518060200160405280600081525090505b9250929050565b6120d5613a9f565b6120df6000613b26565b565b600660149054906101000a900463ffffffff1681565b600660009054906101000a900463ffffffff1681565b60056020528060005260406000206000915090508060000154908060010154908060020160009054906101000a900473ffffffffffffffffffffffffffffffffffffffff16908060030160009054906101000a900473ffffffffffffffffffffffffffffffffffffffff16908060040160009054906101000a90046fffffffffffffffffffffffffffffffff16908060040160109054906101000a900460ff16908060040160119054906101000a900460ff16908060050154908060060154905089565b6000806121dc613bfd565b90508060000160009054906101000a900473ffffffffffffffffffffffffffffffffffffffff1691505090565b60008054906101000a900473ffffffffffffffffffffffffffffffffffffffff1681565b600073ffffffffffffffffffffffffffffffffffffffff168473ffffffffffffffffffffffffffffffffffffffff160361229c576040517f08c379a000000000000000000000000000000000000000000000000000000000815260040161229390615404565b60405180910390fd5b6000600160008673ffffffffffffffffffffffffffffffffffffffff1673ffffffffffffffffffffffffffffffffffffffff168152602001908152602001600020905060008411612322576040517f08c379a000000000000000000000000000000000000000000000000000000000815260040161231990615470565b60405180910390fd5b8060010154841015612369576040517f08c379a0000000000000000000000000000000000000000000000000000000008152600401612360906154dc565b60405180910390fd5b6000600860109054906101000a90046fffffffffffffffffffffffffffffffff169050604051806101200160405280868152602001600081526020013373ffffffffffffffffffffffffffffffffffffffff1681526020018773ffffffffffffffffffffffffffffffffffffffff168152602001826fffffffffffffffffffffffffffffffff1681526020016001151581526020016000151581526020018581526020018481525060056000836fffffffffffffffffffffffffffffffff166fffffffffffffffffffffffffffffffff168152602001908152602001600020600082015181600001556020820151816001015560408201518160020160006101000a81548173ffffffffffffffffffffffffffffffffffffffff021916908373ffffffffffffffffffffffffffffffffffffffff16021790555060608201518160030160006101000a81548173ffffffffffffffffffffffffffffffffffffffff021916908373ffffffffffffffffffffffffffffffffffffffff16021790555060808201518160040160006101000a8154816fffffffffffffffffffffffffffffffff02191690836fffffffffffffffffffffffffffffffff16021790555060a08201518160040160106101000a81548160ff02191690831515021790555060c08201518160040160116101000a81548160ff02191690831515021790555060e0820151816005015561010082015181600601559050506001600860108282829054906101000a90046fffffffffffffffffffffffffffffffff166125af919061515b565b92506101000a8154816fffffffffffffffffffffffffffffffff02191690836fffffffffffffffffffffffffffffffff16021790555061263233308760008054906101000a900473ffffffffffffffffffffffffffffffffffffffff1673ffffffffffffffffffffffffffffffffffffffff16613c25909392919063ffffffff16565b505050505050565b60005b600860109054906101000a90046fffffffffffffffffffffffffffffffff166fffffffffffffffffffffffffffffffff16816fffffffffffffffffffffffffffffffff16101561277057600060056000836fffffffffffffffffffffffffffffffff166fffffffffffffffffffffffffffffffff16815260200190815260200160002090508060040160109054906101000a900460ff1680156126e4575060008160010154145b801561273f57503373ffffffffffffffffffffffffffffffffffffffff168160020160009054906101000a900473ffffffffffffffffffffffffffffffffffffffff1673ffffffffffffffffffffffffffffffffffffffff16145b156127625760008160040160106101000a81548160ff0219169083151502179055505b50808060010191505061263d565b50565b61277b613a9f565b60328163ffffffff16106127c4576040517f08c379a00000000000000000000000000000000000000000000000000000000081526004016127bb90615548565b60405180910390fd5b80600660146101000a81548163ffffffff021916908363ffffffff16021790555050565b6127f06139b0565b60008111612833576040517f08c379a000000000000000000000000000000000000000000000000000000000815260040161282a906155b4565b60405180910390fd5b6000600260003373ffffffffffffffffffffffffffffffffffffffff1673ffffffffffffffffffffffffffffffffffffffff16815260200190815260200160002090506128c333308460008054906101000a900473ffffffffffffffffffffffffffffffffffffffff1673ffffffffffffffffffffffffffffffffffffffff16613c25909392919063ffffffff16565b818160000160008282546128d7919061524b565b92505081905550338160040160006101000a81548173ffffffffffffffffffffffffffffffffffffffff021916908373ffffffffffffffffffffffffffffffffffffffff1602179055508060060160109054906101000a900460ff16612a18576000600860009054906101000a90046fffffffffffffffffffffffffffffffff169050808260060160006101000a8154816fffffffffffffffffffffffffffffffff02191690836fffffffffffffffffffffffffffffffff1602179055506001600860008282829054906101000a90046fffffffffffffffffffffffffffffffff166129c3919061515b565b92506101000a8154816fffffffffffffffffffffffffffffffff02191690836fffffffffffffffffffffffffffffffff16021790555060018260060160106101000a81548160ff021916908315150217905550505b50612a21613a86565b50565b6000612a2e613ca7565b905060008160000160089054906101000a900460ff1615905060008260000160009054906101000a900467ffffffffffffffff1690506000808267ffffffffffffffff16148015612a7c5750825b9050600060018367ffffffffffffffff16148015612ab1575060003073ffffffffffffffffffffffffffffffffffffffff163b145b905081158015612abf575080155b15612af6576040517ff92ee8a900000000000000000000000000000000000000000000000000000000815260040160405180910390fd5b60018560000160006101000a81548167ffffffffffffffff021916908367ffffffffffffffff1602179055508315612b465760018560000160086101000a81548160ff0219169083151502179055505b600073ffffffffffffffffffffffffffffffffffffffff168673ffffffffffffffffffffffffffffffffffffffff1603612bb5576040517f08c379a0000000000000000000000000000000000000000000000000000000008152600401612bac90615620565b60405180910390fd5b612bbd613cbb565b612bc633613ccd565b856000806101000a81548173ffffffffffffffffffffffffffffffffffffffff021916908373ffffffffffffffffffffffffffffffffffffffff1602179055506001600860006101000a8154816fffffffffffffffffffffffffffffffff02191690836fffffffffffffffffffffffffffffffff1602179055508315612c9c5760008560000160086101000a81548160ff0219169083151502179055507fc7f505b2f371ae2175ee4913f4499e1f2633a7b5936321eed1cdaeb6115181d26001604051612c93919061568f565b60405180910390a15b505050505050565b60016020528060005260406000206000915090508060000154908060010154908060020160009054906101000a900473ffffffffffffffffffffffffffffffffffffffff16908060020160149054906101000a900460ff16908060020160159054906101000a900460ff16908060020160169054906101000a900463ffffffff16908060030154905087565b612d386139b0565b6000600260003373ffffffffffffffffffffffffffffffffffffffff1673ffffffffffffffffffffffffffffffffffffffff16815260200190815260200160002090506000600160008673ffffffffffffffffffffffffffffffffffffffff1673ffffffffffffffffffffffffffffffffffffffff16815260200190815260200160002090508582600001541015612e05576040517f08c379a0000000000000000000000000000000000000000000000000000000008152600401612dfc906156f6565b60405180910390fd5b600073ffffffffffffffffffffffffffffffffffffffff168573ffffffffffffffffffffffffffffffffffffffff1603612e74576040517f08c379a0000000000000000000000000000000000000000000000000000000008152600401612e6b90615762565b60405180910390fd5b8060020160149054906101000a900460ff16612ec5576040517f08c379a0000000000000000000000000000000000000000000000000000000008152600401612ebc90614ef2565b60405180910390fd5b8060020160159054906101000a900460ff16612f16576040517f08c379a0000000000000000000000000000000000000000000000000000000008152600401612f0d90614f5e565b60405180910390fd5b6000816001015411612f5d576040517f08c379a0000000000000000000000000000000000000000000000000000000008152600401612f54906157ce565b60405180910390fd5b806001015482600101541115612fa8576040517f08c379a0000000000000000000000000000000000000000000000000000000008152600401612f9f9061583a565b60405180910390fd5b60008160010154878460010154612fbf919061524b565b1115905060008260010154888560010154612fda919061524b565b1490508161301d576040517f08c379a0000000000000000000000000000000000000000000000000000000008152600401613014906158a6565b60405180910390fd5b87846001016000828254613031919061524b565b92505081905550876007600082825461304a919061524b565b92505081905550878460000160008282546130659190615019565b9250508190555087836000016000828254613080919061524b565b92505081905550868460050160006101000a81548173ffffffffffffffffffffffffffffffffffffffff021916908373ffffffffffffffffffffffffffffffffffffffff160217905550836001015483600101546130de9190615019565b84600301819055506000846001015484600101546130fc9190615019565b90506040518061010001604052804281526020018a81526020018281526020013373ffffffffffffffffffffffffffffffffffffffff1681526020018973ffffffffffffffffffffffffffffffffffffffff168152602001831515815260200188815260200187815250600360003373ffffffffffffffffffffffffffffffffffffffff1673ffffffffffffffffffffffffffffffffffffffff16815260200190815260200160002060008201518160000155602082015181600101556040820151816002015560608201518160030160006101000a81548173ffffffffffffffffffffffffffffffffffffffff021916908373ffffffffffffffffffffffffffffffffffffffff16021790555060808201518160040160006101000a81548173ffffffffffffffffffffffffffffffffffffffff021916908373ffffffffffffffffffffffffffffffffffffffff16021790555060a08201518160040160146101000a81548160ff02191690831515021790555060c0820151816005015560e082015181600601559050505050505050613295613a86565b50505050565b600860109054906101000a90046fffffffffffffffffffffffffffffffff1681565b60036020528060005260406000206000915090508060000154908060010154908060020154908060030160009054906101000a900473ffffffffffffffffffffffffffffffffffffffff16908060040160009054906101000a900473ffffffffffffffffffffffffffffffffffffffff16908060040160149054906101000a900460ff16908060050154908060060154905088565b61335a613a9f565b6000600160008373ffffffffffffffffffffffffffffffffffffffff1673ffffffffffffffffffffffffffffffffffffffff16815260200190815260200160002090508060020160159054906101000a900460ff166133ee576040517f08c379a00000000000000000000000000000000000000000000000000000000081526004016133e590614f5e565b60405180910390fd5b60008160020160156101000a81548160ff0219169083151502179055505050565b613417614060565b60005b600860109054906101000a90046fffffffffffffffffffffffffffffffff166fffffffffffffffffffffffffffffffff16816fffffffffffffffffffffffffffffffff16101561364e57600060056000836fffffffffffffffffffffffffffffffff166fffffffffffffffffffffffffffffffff1681526020019081526020016000206040518061012001604052908160008201548152602001600182015481526020016002820160009054906101000a900473ffffffffffffffffffffffffffffffffffffffff1673ffffffffffffffffffffffffffffffffffffffff1673ffffffffffffffffffffffffffffffffffffffff1681526020016003820160009054906101000a900473ffffffffffffffffffffffffffffffffffffffff1673ffffffffffffffffffffffffffffffffffffffff1673ffffffffffffffffffffffffffffffffffffffff1681526020016004820160009054906101000a90046fffffffffffffffffffffffffffffffff166fffffffffffffffffffffffffffffffff166fffffffffffffffffffffffffffffffff1681526020016004820160109054906101000a900460ff161515151581526020016004820160119054906101000a900460ff161515151581526020016005820154815260200160068201548152505090503373ffffffffffffffffffffffffffffffffffffffff16816040015173ffffffffffffffffffffffffffffffffffffffff160361364057809250505061368a565b50808060010191505061341a565b506040517f08c379a000000000000000000000000000000000000000000000000000000000815260040161368190615912565b60405180910390fd5b90565b60026020528060005260406000206000915090508060000154908060010154908060020154908060030154908060040160009054906101000a900473ffffffffffffffffffffffffffffffffffffffff16908060050160009054906101000a900473ffffffffffffffffffffffffffffffffffffffff16908060060160009054906101000a90046fffffffffffffffffffffffffffffffff16908060060160109054906101000a900460ff1690806007015490806008015490508a565b6137526140f4565b6000600160003373ffffffffffffffffffffffffffffffffffffffff1673ffffffffffffffffffffffffffffffffffffffff16815260200190815260200160002090508060020160149054906101000a900460ff166137e6576040517f08c379a00000000000000000000000000000000000000000000000000000000081526004016137dd90614e86565b60405180910390fd5b600160008473ffffffffffffffffffffffffffffffffffffffff1673ffffffffffffffffffffffffffffffffffffffff1681526020019081526020016000206040518060e001604052908160008201548152602001600182015481526020016002820160009054906101000a900473ffffffffffffffffffffffffffffffffffffffff1673ffffffffffffffffffffffffffffffffffffffff1673ffffffffffffffffffffffffffffffffffffffff1681526020016002820160149054906101000a900460ff161515151581526020016002820160159054906101000a900460ff161515151581526020016002820160169054906101000a900463ffffffff1663ffffffff1663ffffffff168152602001600382015481525050915050919050565b613910613a9f565b600073ffffffffffffffffffffffffffffffffffffffff168173ffffffffffffffffffffffffffffffffffffffff16036139825760006040517f1e4fbdf70000000000000000000000000000000000000000000000000000000081526004016139799190614959565b60405180910390fd5b61398b81613b26565b50565b600660049054906101000a90046fffffffffffffffffffffffffffffffff1681565b60006139ba613ce1565b905060028160000154036139fa576040517f3ee5aeb500000000000000000000000000000000000000000000000000000000815260040160405180910390fd5b6002816000018190555050565b613a81838473ffffffffffffffffffffffffffffffffffffffff1663a9059cbb8585604051602401613a3a929190615932565b604051602081830303815290604052915060e01b6020820180517bffffffffffffffffffffffffffffffffffffffffffffffffffffffff8381831617835250505050613d09565b505050565b6000613a90613ce1565b90506001816000018190555050565b613aa7613dab565b73ffffffffffffffffffffffffffffffffffffffff16613ac56121d1565b73ffffffffffffffffffffffffffffffffffffffff1614613b2457613ae8613dab565b6040517f118cdaa7000000000000000000000000000000000000000000000000000000008152600401613b1b9190614959565b60405180910390fd5b565b6000613b30613bfd565b905060008160000160009054906101000a900473ffffffffffffffffffffffffffffffffffffffff169050828260000160006101000a81548173ffffffffffffffffffffffffffffffffffffffff021916908373ffffffffffffffffffffffffffffffffffffffff1602179055508273ffffffffffffffffffffffffffffffffffffffff168173ffffffffffffffffffffffffffffffffffffffff167f8be0079c531659141344cd1fd0a4f28419497f9722a3daafe3b4186f6b6457e060405160405180910390a3505050565b60007f9016d09d72d40fdae2fd8ceac6b6234c7706214fd39c1cd1e609a0528c199300905090565b613ca1848573ffffffffffffffffffffffffffffffffffffffff166323b872dd868686604051602401613c5a9392919061595b565b604051602081830303815290604052915060e01b6020820180517bffffffffffffffffffffffffffffffffffffffffffffffffffffffff8381831617835250505050613d09565b50505050565b600080613cb2613db3565b90508091505090565b613cc3613dde565b613ccb613e1e565b565b613cd5613dde565b613cde81613e3f565b50565b60007f9b779b17422d0df92223018b32b4d1fa46e071723d6817e2486d003becc55f00905090565b600080602060008451602086016000885af180613d2c576040513d6000823e3d81fd5b3d925060005191505060008214613d47576001811415613d63565b60008473ffffffffffffffffffffffffffffffffffffffff163b145b15613da557836040517f5274afe7000000000000000000000000000000000000000000000000000000008152600401613d9c9190614959565b60405180910390fd5b50505050565b600033905090565b60007ff0c57e16840df040f15088dc2f81fe391c3923bec73e23a9662efc9c229c6a0060001b905090565b613de6613ec5565b613e1c576040517fd7e6bcf800000000000000000000000000000000000000000000000000000000815260040160405180910390fd5b565b613e26613dde565b6000613e30613ce1565b90506001816000018190555050565b613e47613dde565b600073ffffffffffffffffffffffffffffffffffffffff168173ffffffffffffffffffffffffffffffffffffffff1603613eb95760006040517f1e4fbdf7000000000000000000000000000000000000000000000000000000008152600401613eb09190614959565b60405180910390fd5b613ec281613b26565b50565b6000613ecf613ca7565b60000160089054906101000a900460ff16905090565b604051806101000160405280600081526020016000815260200160008152602001600073ffffffffffffffffffffffffffffffffffffffff168152602001600073ffffffffffffffffffffffffffffffffffffffff16815260200160001515815260200160008019168152602001600080191681525090565b60405180610140016040528060008152602001600081526020016000815260200160008152602001600073ffffffffffffffffffffffffffffffffffffffff168152602001600073ffffffffffffffffffffffffffffffffffffffff16815260200160006fffffffffffffffffffffffffffffffff16815260200160001515815260200160008019168152602001600080191681525090565b6040518060e00160405280600081526020016000815260200160008152602001600073ffffffffffffffffffffffffffffffffffffffff16815260200160006fffffffffffffffffffffffffffffffff1681526020016000151581526020016000151581525090565b6040518061012001604052806000815260200160008152602001600073ffffffffffffffffffffffffffffffffffffffff168152602001600073ffffffffffffffffffffffffffffffffffffffff16815260200160006fffffffffffffffffffffffffffffffff16815260200160001515815260200160001515815260200160008019168152602001600080191681525090565b6040518060e001604052806000815260200160008152602001600073ffffffffffffffffffffffffffffffffffffffff168152602001600015158152602001600015158152602001600063ffffffff168152602001600080191681525090565b600080fd5b600080fd5b600073ffffffffffffffffffffffffffffffffffffffff82169050919050565b60006141898261415e565b9050919050565b6141998161417e565b81146141a457600080fd5b50565b6000813590506141b681614190565b92915050565b6000602082840312156141d2576141d1614154565b5b60006141e0848285016141a7565b91505092915050565b6000819050919050565b6141fc816141e9565b82525050565b61420b8161417e565b82525050565b60008115159050919050565b61422681614211565b82525050565b6000819050919050565b61423f8161422c565b82525050565b6101008201600082015161425c60008501826141f3565b50602082015161426f60208501826141f3565b50604082015161428260408501826141f3565b5060608201516142956060850182614202565b5060808201516142a86080850182614202565b5060a08201516142bb60a085018261421d565b5060c08201516142ce60c0850182614236565b5060e08201516142e160e0850182614236565b50505050565b6000610100820190506142fd6000830184614245565b92915050565b61430c816141e9565b811461431757600080fd5b50565b60008135905061432981614303565b92915050565b60006020828403121561434557614344614154565b5b60006143538482850161431a565b91505092915050565b60008060006060848603121561437557614374614154565b5b60006143838682870161431a565b93505060206143948682870161431a565b92505060406143a58682870161431a565b9150509250925092565b600080fd5b600080fd5b600080fd5b60008083601f8401126143d4576143d36143af565b5b8235905067ffffffffffffffff8111156143f1576143f06143b4565b5b60208301915083600182028301111561440d5761440c6143b9565b5b9250929050565b6000806020838503121561442b5761442a614154565b5b600083013567ffffffffffffffff81111561444957614448614159565b5b614455858286016143be565b92509250509250929050565b60006fffffffffffffffffffffffffffffffff82169050919050565b61448681614461565b82525050565b60006020820190506144a1600083018461447d565b92915050565b6144b08161422c565b81146144bb57600080fd5b50565b6000813590506144cd816144a7565b92915050565b600080604083850312156144ea576144e9614154565b5b60006144f8858286016141a7565b9250506020614509858286016144be565b9150509250929050565b61451c816141e9565b82525050565b60006020820190506145376000830184614513565b92915050565b61454681614461565b82525050565b6101408201600082015161456360008501826141f3565b50602082015161457660208501826141f3565b50604082015161458960408501826141f3565b50606082015161459c60608501826141f3565b5060808201516145af6080850182614202565b5060a08201516145c260a0850182614202565b5060c08201516145d560c085018261453d565b5060e08201516145e860e085018261421d565b506101008201516145fd610100850182614236565b50610120820151614612610120850182614236565b50505050565b60006101408201905061462e600083018461454c565b92915050565b60e08201600082015161464a60008501826141f3565b50602082015161465d60208501826141f3565b50604082015161467060408501826141f3565b5060608201516146836060850182614202565b506080820151614696608085018261453d565b5060a08201516146a960a085018261421d565b5060c08201516146bc60c085018261421d565b50505050565b600060e0820190506146d76000830184614634565b92915050565b6146e681614461565b81146146f157600080fd5b50565b600081359050614703816146dd565b92915050565b60006020828403121561471f5761471e614154565b5b600061472d848285016146f4565b91505092915050565b61473f8161417e565b82525050565b61474e81614211565b82525050565b600060e082019050614769600083018a614513565b6147766020830189614513565b6147836040830188614513565b6147906060830187614736565b61479d608083018661447d565b6147aa60a0830185614745565b6147b760c0830184614745565b98975050505050505050565b600081519050919050565b600082825260208201905092915050565b60005b838110156147fd5780820151818401526020810190506147e2565b60008484015250505050565b6000601f19601f8301169050919050565b6000614825826147c3565b61482f81856147ce565b935061483f8185602086016147df565b61484881614809565b840191505092915050565b60006040820190506148686000830185614745565b818103602083015261487a818461481a565b90509392505050565b600063ffffffff82169050919050565b61489c81614883565b82525050565b60006020820190506148b76000830184614893565b92915050565b6148c68161422c565b82525050565b6000610120820190506148e2600083018c614513565b6148ef602083018b614513565b6148fc604083018a614736565b6149096060830189614736565b614916608083018861447d565b61492360a0830187614745565b61493060c0830186614745565b61493d60e08301856148bd565b61494b6101008301846148bd565b9a9950505050505050505050565b600060208201905061496e6000830184614736565b92915050565b6000819050919050565b600061499961499461498f8461415e565b614974565b61415e565b9050919050565b60006149ab8261497e565b9050919050565b60006149bd826149a0565b9050919050565b6149cd816149b2565b82525050565b60006020820190506149e860008301846149c4565b92915050565b60008060008060808587031215614a0857614a07614154565b5b6000614a16878288016141a7565b9450506020614a278782880161431a565b9350506040614a38878288016144be565b9250506060614a49878288016144be565b91505092959194509250565b614a5e81614883565b8114614a6957600080fd5b50565b600081359050614a7b81614a55565b92915050565b600060208284031215614a9757614a96614154565b5b6000614aa584828501614a6c565b91505092915050565b600060e082019050614ac3600083018a614513565b614ad06020830189614513565b614add6040830188614736565b614aea6060830187614745565b614af76080830186614745565b614b0460a0830185614893565b614b1160c08301846148bd565b98975050505050505050565b60008060008060808587031215614b3757614b36614154565b5b6000614b458782880161431a565b9450506020614b56878288016141a7565b9350506040614b67878288016144be565b9250506060614b78878288016144be565b91505092959194509250565b600061010082019050614b9a600083018b614513565b614ba7602083018a614513565b614bb46040830189614513565b614bc16060830188614736565b614bce6080830187614736565b614bdb60a0830186614745565b614be860c08301856148bd565b614bf560e08301846148bd565b9998505050505050505050565b61012082016000820151614c1960008501826141f3565b506020820151614c2c60208501826141f3565b506040820151614c3f6040850182614202565b506060820151614c526060850182614202565b506080820151614c65608085018261453d565b5060a0820151614c7860a085018261421d565b5060c0820151614c8b60c085018261421d565b5060e0820151614c9e60e0850182614236565b50610100820151614cb3610100850182614236565b50505050565b600061012082019050614ccf6000830184614c02565b92915050565b600061014082019050614ceb600083018d614513565b614cf8602083018c614513565b614d05604083018b614513565b614d12606083018a614513565b614d1f6080830189614736565b614d2c60a0830188614736565b614d3960c083018761447d565b614d4660e0830186614745565b614d546101008301856148bd565b614d626101208301846148bd565b9b9a5050505050505050505050565b614d7a81614883565b82525050565b60e082016000820151614d9660008501826141f3565b506020820151614da960208501826141f3565b506040820151614dbc6040850182614202565b506060820151614dcf606085018261421d565b506080820151614de2608085018261421d565b5060a0820151614df560a0850182614d71565b5060c0820151614e0860c0850182614236565b50505050565b600060e082019050614e236000830184614d80565b92915050565b600082825260208201905092915050565b7f4e6f742072656769737465726564000000000000000000000000000000000000600082015250565b6000614e70600e83614e29565b9150614e7b82614e3a565b602082019050919050565b60006020820190508181036000830152614e9f81614e63565b9050919050565b7f556e726567697374657265640000000000000000000000000000000000000000600082015250565b6000614edc600c83614e29565b9150614ee782614ea6565b602082019050919050565b60006020820190508181036000830152614f0b81614ecf565b9050919050565b7f496e6e6163746976650000000000000000000000000000000000000000000000600082015250565b6000614f48600983614e29565b9150614f5382614f12565b602082019050919050565b60006020820190508181036000830152614f7781614f3b565b9050919050565b7f4d75636820616d6f756e74000000000000000000000000000000000000000000600082015250565b6000614fb4600b83614e29565b9150614fbf82614f7e565b602082019050919050565b60006020820190508181036000830152614fe381614fa7565b9050919050565b7f4e487b7100000000000000000000000000000000000000000000000000000000600052601160045260246000fd5b6000615024826141e9565b915061502f836141e9565b925082820390508181111561504757615046614fea565b5b92915050565b6000615058826141e9565b9150615063836141e9565b9250828202615071816141e9565b9150828204841483151761508857615087614fea565b5b5092915050565b7f4e487b7100000000000000000000000000000000000000000000000000000000600052601260045260246000fd5b60006150c9826141e9565b91506150d4836141e9565b9250826150e4576150e361508f565b5b828204905092915050565b7f496e616374697665000000000000000000000000000000000000000000000000600082015250565b6000615125600883614e29565b9150615130826150ef565b602082019050919050565b6000602082019050818103600083015261515481615118565b9050919050565b600061516682614461565b915061517183614461565b925082820190506fffffffffffffffffffffffffffffffff81111561519957615198614fea565b5b92915050565b7f4d75636800000000000000000000000000000000000000000000000000000000600082015250565b60006151d5600483614e29565b91506151e08261519f565b602082019050919050565b60006020820190508181036000830152615204816151c8565b9050919050565b6000806040838503121561522257615221614154565b5b6000615230858286016146f4565b9250506020615241858286016144be565b9150509250929050565b6000615256826141e9565b9150615261836141e9565b925082820190508082111561527957615278614fea565b5b92915050565b7f5265676973746572656400000000000000000000000000000000000000000000600082015250565b60006152b5600a83614e29565b91506152c08261527f565b602082019050919050565b600060208201905081810360008301526152e4816152a8565b9050919050565b60006152f682614883565b915061530183614883565b9250828201905063ffffffff81111561531d5761531c614fea565b5b92915050565b7f4e6f206d61746368696e67207465726d20666f756e6400000000000000000000600082015250565b6000615359601683614e29565b915061536482615323565b602082019050919050565b600060208201905081810360008301526153888161534c565b9050919050565b60006040820190506153a4600083018561447d565b6153b160208301846148bd565b9392505050565b7f496e76616c6964207363686f6f6c206164647265737300000000000000000000600082015250565b60006153ee601683614e29565b91506153f9826153b8565b602082019050919050565b6000602082019050818103600083015261541d816153e1565b9050919050565b7f496e76616c696420616d6f756e74000000000000000000000000000000000000600082015250565b600061545a600e83614e29565b915061546582615424565b602082019050919050565b600060208201905081810360008301526154898161544d565b9050919050565b7f616d6f756e7420213d207363686f6f6c20747574696f6e000000000000000000600082015250565b60006154c6601783614e29565b91506154d182615490565b602082019050919050565b600060208201905081810360008301526154f5816154b9565b9050919050565b7f4d75636820666565000000000000000000000000000000000000000000000000600082015250565b6000615532600883614e29565b915061553d826154fc565b602082019050919050565b6000602082019050818103600083015261556181615525565b9050919050565b7f496e76616c6964206465706f7369740000000000000000000000000000000000600082015250565b600061559e600f83614e29565b91506155a982615568565b602082019050919050565b600060208201905081810360008301526155cd81615591565b9050919050565b7f496e76616c696420616464726573730000000000000000000000000000000000600082015250565b600061560a600f83614e29565b9150615615826155d4565b602082019050919050565b60006020820190508181036000830152615639816155fd565b9050919050565b6000819050919050565b600067ffffffffffffffff82169050919050565b600061567961567461566f84615640565b614974565b61564a565b9050919050565b6156898161565e565b82525050565b60006020820190506156a46000830184615680565b92915050565b7f4c6974746c652062616c616e6365000000000000000000000000000000000000600082015250565b60006156e0600e83614e29565b91506156eb826156aa565b602082019050919050565b6000602082019050818103600083015261570f816156d3565b9050919050565b7f496e76616c6964207363686f6f6c416464720000000000000000000000000000600082015250565b600061574c601283614e29565b915061575782615716565b602082019050919050565b6000602082019050818103600083015261577b8161573f565b9050919050565b7f4f75746461746564205465726d00000000000000000000000000000000000000600082015250565b60006157b8600d83614e29565b91506157c382615782565b602082019050919050565b600060208201905081810360008301526157e7816157ab565b9050919050565b7f596f7527726520636c6561726564210000000000000000000000000000000000600082015250565b6000615824600f83614e29565b915061582f826157ee565b602082019050919050565b6000602082019050818103600083015261585381615817565b9050919050565b7f52656475636520616d6f756e7400000000000000000000000000000000000000600082015250565b6000615890600d83614e29565b915061589b8261585a565b602082019050919050565b600060208201905081810360008301526158bf81615883565b9050919050565b7f4e6f206175746f20706179657220666f756e6400000000000000000000000000600082015250565b60006158fc601383614e29565b9150615907826158c6565b602082019050919050565b6000602082019050818103600083015261592b816158ef565b9050919050565b60006040820190506159476000830185614736565b6159546020830184614513565b9392505050565b60006060820190506159706000830186614736565b61597d6020830185614736565b61598a6040830184614513565b94935050505056fea26469706673582212208f309047f9c0ab46096849f341da6632a9741c10de66ed129a00ef49c67cb4d164736f6c634300081c0033",
  "linkReferences": {},
  "deployedLinkReferences": {}
}