{
  "_format": "hh-sol-artifact-1",
  "contractName": "Tution",
  "sourceName": "contracts/Tution.sol",
  "abi": [
    {
      "inputs": [],
      "name": "InvalidInitialization",
      "type": "error"
    },
    {
      "inputs": [],
      "name": "NotInitializing",
      "type": "error"
    },
    {
      "inputs": [
        {
          "internalType": "address",
          "name": "owner",
          "type": "address"
        }
      ],
      "name": "OwnableInvalidOwner",
      "type": "error"
    },
    {
      "inputs": [
        {
          "internalType": "address",
          "name": "account",
          "type": "address"
        }
      ],
      "name": "OwnableUnauthorizedAccount",
      "type": "error"
    },
    {
      "inputs": [],
      "name": "ReentrancyGuardReentrantCall",
      "type": "error"
    },
    {
      "inputs": [
        {
          "internalType": "address",
          "name": "token",
          "type": "address"
        }
      ],
      "name": "SafeERC20FailedOperation",
      "type": "error"
    },
    {
      "anonymous": false,
      "inputs": [
        {
          "indexed": false,
          "internalType": "uint64",
          "name": "version",
          "type": "uint64"
        }
      ],
      "name": "Initialized",
      "type": "event"
    },
    {
      "anonymous": false,
      "inputs": [
        {
          "indexed": true,
          "internalType": "address",
          "name": "previousOwner",
          "type": "address"
        },
        {
          "indexed": true,
          "internalType": "address",
          "name": "newOwner",
          "type": "address"
        }
      ],
      "name": "OwnershipTransferred",
      "type": "event"
    },
    {
      "inputs": [
        {
          "internalType": "uint256",
          "name": "_tution",
          "type": "uint256"
        },
        {
          "internalType": "uint32",
          "name": "_start",
          "type": "uint32"
        },
        {
          "internalType": "uint32",
          "name": "_end",
          "type": "uint32"
        }
      ],
      "name": "AcademicTermUpdate",
      "outputs": [],
      "stateMutability": "nonpayable",
      "type": "function"
    },
    {
      "inputs": [
        {
          "internalType": "uint128",
          "name": "",
          "type": "uint128"
        }
      ],
      "name": "academicTerm",
      "outputs": [
        {
          "internalType": "uint256",
          "name": "tution",
          "type": "uint256"
        },
        {
          "internalType": "address",
          "name": "school",
          "type": "address"
        },
        {
          "internalType": "uint128",
          "name": "termId",
          "type": "uint128"
        },
        {
          "internalType": "bool",
          "name": "hasStarted",
          "type": "bool"
        },
        {
          "internalType": "bool",
          "name": "hasEnded",
          "type": "bool"
        },
        {
          "internalType": "uint32",
          "name": "start",
          "type": "uint32"
        },
        {
          "internalType": "uint32",
          "name": "end",
          "type": "uint32"
        }
      ],
      "stateMutability": "view",
      "type": "function"
    },
    {
      "inputs": [
        {
          "internalType": "address",
          "name": "_school",
          "type": "address"
        }
      ],
      "name": "activateSchool",
      "outputs": [],
      "stateMutability": "nonpayable",
      "type": "function"
    },
    {
      "inputs": [
        {
          "internalType": "uint256",
          "name": "",
          "type": "uint256"
        }
      ],
      "name": "autoPayers",
      "outputs": [
        {
          "internalType": "address",
          "name": "",
          "type": "address"
        }
      ],
      "stateMutability": "view",
      "type": "function"
    },
    {
      "inputs": [],
      "name": "canselAutoPayments",
      "outputs": [],
      "stateMutability": "nonpayable",
      "type": "function"
    },
    {
      "inputs": [
        {
          "internalType": "bytes",
          "name": "",
          "type": "bytes"
        }
      ],
      "name": "checkUpkeep",
      "outputs": [
        {
          "internalType": "bool",
          "name": "upkeepNeeded",
          "type": "bool"
        },
        {
          "internalType": "bytes",
          "name": "performData",
          "type": "bytes"
        }
      ],
      "stateMutability": "view",
      "type": "function"
    },
    {
      "inputs": [
        {
          "internalType": "uint256",
          "name": "_amount",
          "type": "uint256"
        }
      ],
      "name": "clientDeposit",
      "outputs": [],
      "stateMutability": "nonpayable",
      "type": "function"
    },
    {
      "inputs": [
        {
          "internalType": "uint256",
          "name": "_amount",
          "type": "uint256"
        }
      ],
      "name": "clientWithdraw",
      "outputs": [],
      "stateMutability": "nonpayable",
      "type": "function"
    },
    {
      "inputs": [
        {
          "internalType": "address",
          "name": "_school",
          "type": "address"
        }
      ],
      "name": "deactivateSchool",
      "outputs": [],
      "stateMutability": "nonpayable",
      "type": "function"
    },
    {
      "inputs": [],
      "name": "getClient",
      "outputs": [
        {
          "components": [
            {
              "internalType": "uint256",
              "name": "balance",
              "type": "uint256"
            },
            {
              "internalType": "uint256",
              "name": "termPayments",
              "type": "uint256"
            },
            {
              "internalType": "uint256",
              "name": "autoPayments",
              "type": "uint256"
            },
            {
              "internalType": "uint256",
              "name": "debts",
              "type": "uint256"
            },
            {
              "internalType": "address",
              "name": "client",
              "type": "address"
            },
            {
              "internalType": "address",
              "name": "school",
              "type": "address"
            },
            {
              "internalType": "bool",
              "name": "hasAutoPayments",
              "type": "bool"
            },
            {
              "internalType": "bytes32",
              "name": "studentName",
              "type": "bytes32"
            },
            {
              "internalType": "bytes32",
              "name": "studentClass",
              "type": "bytes32"
            }
          ],
          "internalType": "struct Tution.Payer",
          "name": "",
          "type": "tuple"
        }
      ],
      "stateMutability": "view",
      "type": "function"
    },
    {
      "inputs": [
        {
          "internalType": "address",
          "name": "_user",
          "type": "address"
        }
      ],
      "name": "getReceipt",
      "outputs": [
        {
          "components": [
            {
              "internalType": "uint256",
              "name": "time",
              "type": "uint256"
            },
            {
              "internalType": "uint256",
              "name": "amount",
              "type": "uint256"
            },
            {
              "internalType": "uint256",
              "name": "balance",
              "type": "uint256"
            },
            {
              "internalType": "address",
              "name": "payer",
              "type": "address"
            },
            {
              "internalType": "address",
              "name": "school",
              "type": "address"
            },
            {
              "internalType": "bool",
              "name": "cleared",
              "type": "bool"
            },
            {
              "internalType": "bytes32",
              "name": "student",
              "type": "bytes32"
            },
            {
              "internalType": "bytes32",
              "name": "class",
              "type": "bytes32"
            }
          ],
          "internalType": "struct Tution.Receipt",
          "name": "",
          "type": "tuple"
        }
      ],
      "stateMutability": "view",
      "type": "function"
    },
    {
      "inputs": [
        {
          "internalType": "address",
          "name": "_school",
          "type": "address"
        }
      ],
      "name": "getSchoolInfo",
      "outputs": [
        {
          "components": [
            {
              "internalType": "uint256",
              "name": "balance",
              "type": "uint256"
            },
            {
              "internalType": "uint256",
              "name": "tution",
              "type": "uint256"
            },
            {
              "internalType": "address",
              "name": "school",
              "type": "address"
            },
            {
              "internalType": "bool",
              "name": "isRegistered",
              "type": "bool"
            },
            {
              "internalType": "bool",
              "name": "isActive",
              "type": "bool"
            },
            {
              "internalType": "uint32",
              "name": "schoolId",
              "type": "uint32"
            },
            {
              "internalType": "bytes32",
              "name": "name",
              "type": "bytes32"
            }
          ],
          "internalType": "struct Tution.School",
          "name": "",
          "type": "tuple"
        }
      ],
      "stateMutability": "view",
      "type": "function"
    },
    {
      "inputs": [
        {
          "internalType": "address",
          "name": "_schoolAddr",
          "type": "address"
        }
      ],
      "name": "getacademicTerm",
      "outputs": [
        {
          "components": [
            {
              "internalType": "uint256",
              "name": "tution",
              "type": "uint256"
            },
            {
              "internalType": "address",
              "name": "school",
              "type": "address"
            },
            {
              "internalType": "uint128",
              "name": "termId",
              "type": "uint128"
            },
            {
              "internalType": "bool",
              "name": "hasStarted",
              "type": "bool"
            },
            {
              "internalType": "bool",
              "name": "hasEnded",
              "type": "bool"
            },
            {
              "internalType": "uint32",
              "name": "start",
              "type": "uint32"
            },
            {
              "internalType": "uint32",
              "name": "end",
              "type": "uint32"
            }
          ],
          "internalType": "struct Tution.AcademicTerm",
          "name": "",
          "type": "tuple"
        }
      ],
      "stateMutability": "view",
      "type": "function"
    },
    {
      "inputs": [
        {
          "internalType": "address",
          "name": "_tokenUsed",
          "type": "address"
        }
      ],
      "name": "initialize",
      "outputs": [],
      "stateMutability": "nonpayable",
      "type": "function"
    },
    {
      "inputs": [],
      "name": "newSchoolId",
      "outputs": [
        {
          "internalType": "uint32",
          "name": "",
          "type": "uint32"
        }
      ],
      "stateMutability": "view",
      "type": "function"
    },
    {
      "inputs": [],
      "name": "owner",
      "outputs": [
        {
          "internalType": "address",
          "name": "",
          "type": "address"
        }
      ],
      "stateMutability": "view",
      "type": "function"
    },
    {
      "inputs": [
        {
          "internalType": "address",
          "name": "",
          "type": "address"
        }
      ],
      "name": "payer",
      "outputs": [
        {
          "internalType": "uint256",
          "name": "balance",
          "type": "uint256"
        },
        {
          "internalType": "uint256",
          "name": "termPayments",
          "type": "uint256"
        },
        {
          "internalType": "uint256",
          "name": "autoPayments",
          "type": "uint256"
        },
        {
          "internalType": "uint256",
          "name": "debts",
          "type": "uint256"
        },
        {
          "internalType": "address",
          "name": "client",
          "type": "address"
        },
        {
          "internalType": "address",
          "name": "school",
          "type": "address"
        },
        {
          "internalType": "bool",
          "name": "hasAutoPayments",
          "type": "bool"
        },
        {
          "internalType": "bytes32",
          "name": "studentName",
          "type": "bytes32"
        },
        {
          "internalType": "bytes32",
          "name": "studentClass",
          "type": "bytes32"
        }
      ],
      "stateMutability": "view",
      "type": "function"
    },
    {
      "inputs": [
        {
          "internalType": "address",
          "name": "_school",
          "type": "address"
        },
        {
          "internalType": "uint256",
          "name": "_amount",
          "type": "uint256"
        },
        {
          "internalType": "bytes32",
          "name": "_student",
          "type": "bytes32"
        },
        {
          "internalType": "bytes32",
          "name": "_class",
          "type": "bytes32"
        }
      ],
      "name": "paymentAutomation",
      "outputs": [],
      "stateMutability": "nonpayable",
      "type": "function"
    },
    {
      "inputs": [],
      "name": "paymentsMade",
      "outputs": [
        {
          "internalType": "uint256",
          "name": "",
          "type": "uint256"
        }
      ],
      "stateMutability": "view",
      "type": "function"
    },
    {
      "inputs": [],
      "name": "percentageFee",
      "outputs": [
        {
          "internalType": "uint32",
          "name": "",
          "type": "uint32"
        }
      ],
      "stateMutability": "view",
      "type": "function"
    },
    {
      "inputs": [
        {
          "internalType": "bytes",
          "name": "performData",
          "type": "bytes"
        }
      ],
      "name": "performUpkeep",
      "outputs": [],
      "stateMutability": "nonpayable",
      "type": "function"
    },
    {
      "inputs": [
        {
          "internalType": "address",
          "name": "",
          "type": "address"
        }
      ],
      "name": "receipt",
      "outputs": [
        {
          "internalType": "uint256",
          "name": "time",
          "type": "uint256"
        },
        {
          "internalType": "uint256",
          "name": "amount",
          "type": "uint256"
        },
        {
          "internalType": "uint256",
          "name": "balance",
          "type": "uint256"
        },
        {
          "internalType": "address",
          "name": "payer",
          "type": "address"
        },
        {
          "internalType": "address",
          "name": "school",
          "type": "address"
        },
        {
          "internalType": "bool",
          "name": "cleared",
          "type": "bool"
        },
        {
          "internalType": "bytes32",
          "name": "student",
          "type": "bytes32"
        },
        {
          "internalType": "bytes32",
          "name": "class",
          "type": "bytes32"
        }
      ],
      "stateMutability": "view",
      "type": "function"
    },
    {
      "inputs": [
        {
          "internalType": "address",
          "name": "_school",
          "type": "address"
        },
        {
          "internalType": "bytes32",
          "name": "_name",
          "type": "bytes32"
        }
      ],
      "name": "registerSchool",
      "outputs": [],
      "stateMutability": "nonpayable",
      "type": "function"
    },
    {
      "inputs": [],
      "name": "renounceOwnership",
      "outputs": [],
      "stateMutability": "nonpayable",
      "type": "function"
    },
    {
      "inputs": [
        {
          "internalType": "address",
          "name": "",
          "type": "address"
        }
      ],
      "name": "school",
      "outputs": [
        {
          "internalType": "uint256",
          "name": "balance",
          "type": "uint256"
        },
        {
          "internalType": "uint256",
          "name": "tution",
          "type": "uint256"
        },
        {
          "internalType": "address",
          "name": "school",
          "type": "address"
        },
        {
          "internalType": "bool",
          "name": "isRegistered",
          "type": "bool"
        },
        {
          "internalType": "bool",
          "name": "isActive",
          "type": "bool"
        },
        {
          "internalType": "uint32",
          "name": "schoolId",
          "type": "uint32"
        },
        {
          "internalType": "bytes32",
          "name": "name",
          "type": "bytes32"
        }
      ],
      "stateMutability": "view",
      "type": "function"
    },
    {
      "inputs": [
        {
          "internalType": "uint256",
          "name": "_amount",
          "type": "uint256"
        }
      ],
      "name": "schoolWithdrawal",
      "outputs": [],
      "stateMutability": "nonpayable",
      "type": "function"
    },
    {
      "inputs": [],
      "name": "stableToken",
      "outputs": [
        {
          "internalType": "contract IERC20",
          "name": "",
          "type": "address"
        }
      ],
      "stateMutability": "view",
      "type": "function"
    },
    {
      "inputs": [],
      "name": "termIdBySchool",
      "outputs": [
        {
          "internalType": "uint128",
          "name": "",
          "type": "uint128"
        }
      ],
      "stateMutability": "view",
      "type": "function"
    },
    {
      "inputs": [
        {
          "internalType": "address",
          "name": "newOwner",
          "type": "address"
        }
      ],
      "name": "transferOwnership",
      "outputs": [],
      "stateMutability": "nonpayable",
      "type": "function"
    },
    {
      "inputs": [
        {
          "internalType": "uint256",
          "name": "_amount",
          "type": "uint256"
        },
        {
          "internalType": "address",
          "name": "_school",
          "type": "address"
        },
        {
          "internalType": "bytes32",
          "name": "_student",
          "type": "bytes32"
        },
        {
          "internalType": "bytes32",
          "name": "_class",
          "type": "bytes32"
        }
      ],
      "name": "tutionPayment",
      "outputs": [],
      "stateMutability": "nonpayable",
      "type": "function"
    },
    {
      "inputs": [
        {
          "internalType": "uint32",
          "name": "_percentage",
          "type": "uint32"
        }
      ],
      "name": "updateTxFee",
      "outputs": [],
      "stateMutability": "nonpayable",
      "type": "function"
    }
  ],
  "bytecode": "0x6080604052348015600f57600080fd5b506153d38061001f6000396000f3fe608060405234801561001057600080fd5b50600436106101e55760003560e01c8063780a7ff01161010f578063c652365c116100a2578063e5b73e0811610071578063e5b73e0814610566578063e97e3f171461059e578063f2fde38b146105ce578063fde345bc146105ea576101e5565b8063c652365c146104c1578063c8285592146104f7578063e35e566314610513578063e42466621461054a576101e5565b8063b5ead19e116100de578063b5ead19e14610451578063baae18921461046d578063bd53d5cc14610489578063c4d66de8146104a5576101e5565b8063780a7ff0146103d95780637866eb0f146103f75780638da5cb5b14610415578063a9d75b2b14610433576101e5565b80634cd36a1c1161018757806368df78811161015657806368df78811461035e5780636ca47248146103945780636e04ff0d1461039e578063715018a6146103cf576101e5565b80634cd36a1c146102d65780634ff59cf8146102f257806359dc735c146103105780635e2af8ad1461032e576101e5565b80630ab01237116101c35780630ab012371461026657806329546a35146102825780633a3cd0621461029e5780634585e33b146102ba576101e5565b806304562d95146101ea578063065ed3da1461021a57806306d4c90514610236575b600080fd5b61020460048036038101906101ff9190613be9565b610608565b6040516102119190613d14565b60405180910390f35b610234600480360381019061022f9190613d5c565b61075b565b005b610250600480360381019061024b9190613d5c565b6109dd565b60405161025d9190613d98565b60405180910390f35b610280600480360381019061027b9190613be9565b610a1c565b005b61029c60048036038101906102979190613def565b610b2b565b005b6102b860048036038101906102b39190613d5c565b610f03565b005b6102d460048036038101906102cf9190613ea7565b611007565b005b6102f060048036038101906102eb9190613f20565b6117c9565b005b6102fa611a1c565b6040516103079190613f6f565b60405180910390f35b610318611a22565b6040516103259190614041565b60405180910390f35b61034860048036038101906103439190613be9565b611b7d565b6040516103559190614125565b60405180910390f35b6103786004803603810190610373919061416c565b611dc2565b60405161038b97969594939291906141c6565b60405180910390f35b61039c611e7a565b005b6103b860048036038101906103b39190613ea7565b6120b6565b6040516103c69291906142c5565b60405180910390f35b6103d76122c8565b005b6103e16122dc565b6040516103ee91906142f5565b60405180910390f35b6103ff6122f2565b60405161040c91906142f5565b60405180910390f35b61041d612308565b60405161042a9190613d98565b60405180910390f35b61043b612340565b604051610448919061436f565b60405180910390f35b61046b6004803603810190610466919061438a565b612364565b005b610487600480360381019061048291906143f1565b612634565b005b6104a3600480360381019061049e9190613d5c565b6126a9565b005b6104bf60048036038101906104ba9190613be9565b6127ee565b005b6104db60048036038101906104d69190613be9565b612a34565b6040516104ee979695949392919061442d565b60405180910390f35b610511600480360381019061050c919061449c565b612ac0565b005b61052d60048036038101906105289190613be9565b61302b565b604051610541989796959493929190614503565b60405180910390f35b610564600480360381019061055f9190613be9565b6130c0565b005b610580600480360381019061057b9190613be9565b61317d565b60405161059599989796959493929190614581565b60405180910390f35b6105b860048036038101906105b39190613be9565b613218565b6040516105c5919061469c565b60405180910390f35b6105e860048036038101906105e39190613be9565b6133d6565b005b6105f261345c565b6040516105ff91906146b7565b60405180910390f35b6106106139b3565b600360008373ffffffffffffffffffffffffffffffffffffffff1673ffffffffffffffffffffffffffffffffffffffff168152602001908152602001600020604051806101000160405290816000820154815260200160018201548152602001600282015481526020016003820160009054906101000a900473ffffffffffffffffffffffffffffffffffffffff1673ffffffffffffffffffffffffffffffffffffffff1673ffffffffffffffffffffffffffffffffffffffff1681526020016004820160009054906101000a900473ffffffffffffffffffffffffffffffffffffffff1673ffffffffffffffffffffffffffffffffffffffff1673ffffffffffffffffffffffffffffffffffffffff1681526020016004820160149054906101000a900460ff16151515158152602001600582015481526020016006820154815250509050919050565b6000600160003373ffffffffffffffffffffffffffffffffffffffff1673ffffffffffffffffffffffffffffffffffffffff16815260200190815260200160002090508060020160149054906101000a900460ff166107ef576040517f08c379a00000000000000000000000000000000000000000000000000000000081526004016107e69061472f565b60405180910390fd5b6107f761347e565b6000600160003373ffffffffffffffffffffffffffffffffffffffff1673ffffffffffffffffffffffffffffffffffffffff16815260200190815260200160002090508060020160149054906101000a900460ff1661088b576040517f08c379a00000000000000000000000000000000000000000000000000000000081526004016108829061479b565b60405180910390fd5b8060020160159054906101000a900460ff166108dc576040517f08c379a00000000000000000000000000000000000000000000000000000000081526004016108d390614807565b60405180910390fd5b8281600001541015610923576040517f08c379a000000000000000000000000000000000000000000000000000000000815260040161091a90614873565b60405180910390fd5b8281600001600082825461093791906148c2565b9250508190555060006103e8600560149054906101000a900463ffffffff1663ffffffff168561096791906148f6565b6109719190614967565b90506000818561098191906148c2565b90506109ce338260008054906101000a900473ffffffffffffffffffffffffffffffffffffffff1673ffffffffffffffffffffffffffffffffffffffff166134d59092919063ffffffff16565b5050506109d9613554565b5050565b600781815481106109ed57600080fd5b906000526020600020016000915054906101000a900473ffffffffffffffffffffffffffffffffffffffff1681565b610a2461356d565b6000600160008373ffffffffffffffffffffffffffffffffffffffff1673ffffffffffffffffffffffffffffffffffffffff16815260200190815260200160002090508060020160149054906101000a900460ff16610ab8576040517f08c379a0000000000000000000000000000000000000000000000000000000008152600401610aaf9061479b565b60405180910390fd5b8060020160159054906101000a900460ff1615610b0a576040517f08c379a0000000000000000000000000000000000000000000000000000000008152600401610b0190614807565b60405180910390fd5b60018160020160156101000a81548160ff0219169083151502179055505050565b6000600160003373ffffffffffffffffffffffffffffffffffffffff1673ffffffffffffffffffffffffffffffffffffffff16815260200190815260200160002090508060020160149054906101000a900460ff16610bbf576040517f08c379a0000000000000000000000000000000000000000000000000000000008152600401610bb69061472f565b60405180910390fd5b6000600160003373ffffffffffffffffffffffffffffffffffffffff1673ffffffffffffffffffffffffffffffffffffffff16815260200190815260200160002090508060020160149054906101000a900460ff16610c53576040517f08c379a0000000000000000000000000000000000000000000000000000000008152600401610c4a9061479b565b60405180910390fd5b8060020160159054906101000a900460ff16610ca4576040517f08c379a0000000000000000000000000000000000000000000000000000000008152600401610c9b906149e4565b60405180910390fd5b6040518060e001604052808681526020013373ffffffffffffffffffffffffffffffffffffffff168152602001600560049054906101000a90046fffffffffffffffffffffffffffffffff166fffffffffffffffffffffffffffffffff1681526020016000151581526020016000151581526020018563ffffffff1681526020018463ffffffff16815250600460008360020160169054906101000a900463ffffffff1663ffffffff166fffffffffffffffffffffffffffffffff1681526020019081526020016000206000820151816000015560208201518160010160006101000a81548173ffffffffffffffffffffffffffffffffffffffff021916908373ffffffffffffffffffffffffffffffffffffffff16021790555060408201518160020160006101000a8154816fffffffffffffffffffffffffffffffff02191690836fffffffffffffffffffffffffffffffff16021790555060608201518160020160106101000a81548160ff02191690831515021790555060808201518160020160116101000a81548160ff02191690831515021790555060a08201518160020160126101000a81548163ffffffff021916908363ffffffff16021790555060c08201518160020160166101000a81548163ffffffff021916908363ffffffff1602179055509050506001600560048282829054906101000a90046fffffffffffffffffffffffffffffffff16610ebd9190614a04565b92506101000a8154816fffffffffffffffffffffffffffffffff02191690836fffffffffffffffffffffffffffffffff1602179055508481600101819055505050505050565b610f0b61347e565b6000600260003373ffffffffffffffffffffffffffffffffffffffff1673ffffffffffffffffffffffffffffffffffffffff16815260200190815260200160002090508181600001541015610f95576040517f08c379a0000000000000000000000000000000000000000000000000000000008152600401610f8c90614a94565b60405180910390fd5b81816000016000828254610fa991906148c2565b92505081905550610ffb338360008054906101000a900473ffffffffffffffffffffffffffffffffffffffff1673ffffffffffffffffffffffffffffffffffffffff166134d59092919063ffffffff16565b50611004613554565b50565b60008083838101906110199190614ab4565b91509150600060046000846fffffffffffffffffffffffffffffffff166fffffffffffffffffffffffffffffffff16815260200190815260200160002090506000600160008360010160009054906101000a900473ffffffffffffffffffffffffffffffffffffffff1673ffffffffffffffffffffffffffffffffffffffff1673ffffffffffffffffffffffffffffffffffffffff16815260200190815260200160002090507f85301d412c91b5025a99ca488ca39b08d0d436c51cec3bd9ea6e0754d7d1991583036111085760018260020160106101000a81548160ff0219169083151502179055506111da565b7f5766ed171599f7913d5137e7b28bc984eec1a87a30800016278646d1777f82fb83036111d95760018260020160116101000a81548160ff0219169083151502179055506000826000018190555060008260020160106101000a81548160ff02191690831515021790555060008260020160116101000a81548160ff02191690831515021790555060008260020160126101000a81548163ffffffff021916908363ffffffff16021790555060008260020160166101000a81548163ffffffff021916908363ffffffff1602179055505b5b600073ffffffffffffffffffffffffffffffffffffffff168160020160009054906101000a900473ffffffffffffffffffffffffffffffffffffffff1673ffffffffffffffffffffffffffffffffffffffff16148061124857508060020160149054906101000a900460ff16155b8061126257508060020160159054906101000a900460ff16155b1561127057505050506117c5565b60005b6007805490508110156117bf5760006007828154811061129657611295614af4565b5b9060005260206000200160009054906101000a900473ffffffffffffffffffffffffffffffffffffffff1690506000600260008373ffffffffffffffffffffffffffffffffffffffff1673ffffffffffffffffffffffffffffffffffffffff16815260200190815260200160002090507f85301d412c91b5025a99ca488ca39b08d0d436c51cec3bd9ea6e0754d7d19915861480156113a857508060050160009054906101000a900473ffffffffffffffffffffffffffffffffffffffff1673ffffffffffffffffffffffffffffffffffffffff168460020160009054906101000a900473ffffffffffffffffffffffffffffffffffffffff1673ffffffffffffffffffffffffffffffffffffffff16145b80156113c257508060050160149054906101000a900460ff165b80156113d5575083600101548160010154105b156116d25760008460010154905080826000015410156113f457600080fd5b808260020154101561140557600080fd5b8082600001600082825461141991906148c2565b925050819055508082600201600082825461143491906148c2565b925050819055508082600101600082825461144f9190614b23565b925050819055508085600001600082825461146a9190614b23565b9250508190555080600660008282546114839190614b23565b92505081905550600085600101548360010154101590506000816114ba57836001015487600101546114b591906148c2565b6114bd565b60005b90506040518061010001604052804281526020018481526020018281526020018560040160009054906101000a900473ffffffffffffffffffffffffffffffffffffffff1673ffffffffffffffffffffffffffffffffffffffff1681526020018860020160009054906101000a900473ffffffffffffffffffffffffffffffffffffffff1673ffffffffffffffffffffffffffffffffffffffff1681526020018315158152602001856006015481526020018560070154815250600360008660040160009054906101000a900473ffffffffffffffffffffffffffffffffffffffff1673ffffffffffffffffffffffffffffffffffffffff1673ffffffffffffffffffffffffffffffffffffffff16815260200190815260200160002060008201518160000155602082015181600101556040820151816002015560608201518160030160006101000a81548173ffffffffffffffffffffffffffffffffffffffff021916908373ffffffffffffffffffffffffffffffffffffffff16021790555060808201518160040160006101000a81548173ffffffffffffffffffffffffffffffffffffffff021916908373ffffffffffffffffffffffffffffffffffffffff16021790555060a08201518160040160146101000a81548160ff02191690831515021790555060c0820151816005015560e0820151816006015590505081156116ce57600084600101819055505b5050505b7f5766ed171599f7913d5137e7b28bc984eec1a87a30800016278646d1777f82fb86036117b0578360010154816001015410801561178357508360020160009054906101000a900473ffffffffffffffffffffffffffffffffffffffff1673ffffffffffffffffffffffffffffffffffffffff168160050160009054906101000a900473ffffffffffffffffffffffffffffffffffffffff1673ffffffffffffffffffffffffffffffffffffffff16145b156117af578060010154846001015461179c91906148c2565b8160030181905550600081600101819055505b5b50508080600101915050611273565b50505050505b5050565b6117d161356d565b600160008373ffffffffffffffffffffffffffffffffffffffff1673ffffffffffffffffffffffffffffffffffffffff16815260200190815260200160002060020160149054906101000a900460ff1615611861576040517f08c379a000000000000000000000000000000000000000000000000000000000815260040161185890614ba3565b60405180910390fd5b6040518060e0016040528060008152602001600081526020018373ffffffffffffffffffffffffffffffffffffffff168152602001600115158152602001600115158152602001600560009054906101000a900463ffffffff1663ffffffff16815260200182815250600160008473ffffffffffffffffffffffffffffffffffffffff1673ffffffffffffffffffffffffffffffffffffffff168152602001908152602001600020600082015181600001556020820151816001015560408201518160020160006101000a81548173ffffffffffffffffffffffffffffffffffffffff021916908373ffffffffffffffffffffffffffffffffffffffff16021790555060608201518160020160146101000a81548160ff02191690831515021790555060808201518160020160156101000a81548160ff02191690831515021790555060a08201518160020160166101000a81548163ffffffff021916908363ffffffff16021790555060c082015181600301559050506001600560008282829054906101000a900463ffffffff166119fa9190614bc3565b92506101000a81548163ffffffff021916908363ffffffff1602179055505050565b60065481565b611a2a613a2c565b600260003373ffffffffffffffffffffffffffffffffffffffff1673ffffffffffffffffffffffffffffffffffffffff16815260200190815260200160002060405180610120016040529081600082015481526020016001820154815260200160028201548152602001600382015481526020016004820160009054906101000a900473ffffffffffffffffffffffffffffffffffffffff1673ffffffffffffffffffffffffffffffffffffffff1673ffffffffffffffffffffffffffffffffffffffff1681526020016005820160009054906101000a900473ffffffffffffffffffffffffffffffffffffffff1673ffffffffffffffffffffffffffffffffffffffff1673ffffffffffffffffffffffffffffffffffffffff1681526020016005820160149054906101000a900460ff1615151515815260200160068201548152602001600782015481525050905090565b611b85613aac565b60005b600560049054906101000a90046fffffffffffffffffffffffffffffffff166fffffffffffffffffffffffffffffffff168163ffffffff161015611d81576000600460008363ffffffff166fffffffffffffffffffffffffffffffff1681526020019081526020016000206040518060e0016040529081600082015481526020016001820160009054906101000a900473ffffffffffffffffffffffffffffffffffffffff1673ffffffffffffffffffffffffffffffffffffffff1673ffffffffffffffffffffffffffffffffffffffff1681526020016002820160009054906101000a90046fffffffffffffffffffffffffffffffff166fffffffffffffffffffffffffffffffff166fffffffffffffffffffffffffffffffff1681526020016002820160109054906101000a900460ff161515151581526020016002820160119054906101000a900460ff161515151581526020016002820160129054906101000a900463ffffffff1663ffffffff1663ffffffff1681526020016002820160169054906101000a900463ffffffff1663ffffffff1663ffffffff168152505090508373ffffffffffffffffffffffffffffffffffffffff16816020015173ffffffffffffffffffffffffffffffffffffffff1603611d6d578092505050611dbd565b508080611d7990614bfb565b915050611b88565b506040517f08c379a0000000000000000000000000000000000000000000000000000000008152600401611db490614c73565b60405180910390fd5b919050565b60046020528060005260406000206000915090508060000154908060010160009054906101000a900473ffffffffffffffffffffffffffffffffffffffff16908060020160009054906101000a90046fffffffffffffffffffffffffffffffff16908060020160109054906101000a900460ff16908060020160119054906101000a900460ff16908060020160129054906101000a900463ffffffff16908060020160169054906101000a900463ffffffff16905087565b6000600260003373ffffffffffffffffffffffffffffffffffffffff1673ffffffffffffffffffffffffffffffffffffffff16815260200190815260200160002090508060050160149054906101000a900460ff16611f0e576040517f08c379a0000000000000000000000000000000000000000000000000000000008152600401611f0590614cdf565b60405180910390fd5b60008160050160146101000a81548160ff0219169083151502179055506000600780549050905060005b818110156120b1573373ffffffffffffffffffffffffffffffffffffffff1660078281548110611f6b57611f6a614af4565b5b9060005260206000200160009054906101000a900473ffffffffffffffffffffffffffffffffffffffff1673ffffffffffffffffffffffffffffffffffffffff16036120a4576007600183611fc091906148c2565b81548110611fd157611fd0614af4565b5b9060005260206000200160009054906101000a900473ffffffffffffffffffffffffffffffffffffffff16600782815481106120105761200f614af4565b5b9060005260206000200160006101000a81548173ffffffffffffffffffffffffffffffffffffffff021916908373ffffffffffffffffffffffffffffffffffffffff160217905550600780548061206a57612069614cff565b5b6001900381819060005260206000200160006101000a81549073ffffffffffffffffffffffffffffffffffffffff021916905590556120b1565b8080600101915050611f38565b505050565b6000606060005b600560049054906101000a90046fffffffffffffffffffffffffffffffff166fffffffffffffffffffffffffffffffff16816fffffffffffffffffffffffffffffffff1610156122a957600060046000836fffffffffffffffffffffffffffffffff166fffffffffffffffffffffffffffffffff1681526020019081526020016000209050428160020160129054906101000a900463ffffffff1663ffffffff161115801561217b57508060020160109054906101000a900460ff16155b156121cf5760019350817f85301d412c91b5025a99ca488ca39b08d0d436c51cec3bd9ea6e0754d7d199156040516020016121b7929190614d2e565b604051602081830303815290604052925050506122c1565b428160020160129054906101000a900463ffffffff1663ffffffff161080156122125750428160020160169054906101000a900463ffffffff1663ffffffff1611155b801561222c57508060020160109054906101000a900460ff165b801561224757508060020160119054906101000a900460ff16155b1561229b5760019350817f5766ed171599f7913d5137e7b28bc984eec1a87a30800016278646d1777f82fb604051602001612283929190614d2e565b604051602081830303815290604052925050506122c1565b5080806001019150506120bd565b50600091506040518060200160405280600081525090505b9250929050565b6122d061356d565b6122da60006135f4565b565b600560149054906101000a900463ffffffff1681565b600560009054906101000a900463ffffffff1681565b6000806123136136cb565b90508060000160009054906101000a900473ffffffffffffffffffffffffffffffffffffffff1691505090565b60008054906101000a900473ffffffffffffffffffffffffffffffffffffffff1681565b600073ffffffffffffffffffffffffffffffffffffffff168473ffffffffffffffffffffffffffffffffffffffff16036123d3576040517f08c379a00000000000000000000000000000000000000000000000000000000081526004016123ca90614da3565b60405180910390fd5b6000600160008673ffffffffffffffffffffffffffffffffffffffff1673ffffffffffffffffffffffffffffffffffffffff16815260200190815260200160002090506000600260003373ffffffffffffffffffffffffffffffffffffffff1673ffffffffffffffffffffffffffffffffffffffff16815260200190815260200160002090506000851161249c576040517f08c379a000000000000000000000000000000000000000000000000000000000815260040161249390614e0f565b60405180910390fd5b816001015485146124e2576040517f08c379a00000000000000000000000000000000000000000000000000000000081526004016124d990614e7b565b60405180910390fd5b81600101548160000154101561252d576040517f08c379a000000000000000000000000000000000000000000000000000000000815260040161252490614ee7565b60405180910390fd5b8060050160149054906101000a900460ff161561257f576040517f08c379a000000000000000000000000000000000000000000000000000000000815260040161257690614f53565b60405180910390fd5b60018160050160146101000a81548160ff021916908315150217905550848160020160008282546125b09190614b23565b925050819055508381600601819055508281600701819055506007339080600181540180825580915050600190039060005260206000200160009091909190916101000a81548173ffffffffffffffffffffffffffffffffffffffff021916908373ffffffffffffffffffffffffffffffffffffffff160217905550505050505050565b61263c61356d565b60328163ffffffff1610612685576040517f08c379a000000000000000000000000000000000000000000000000000000000815260040161267c90614fbf565b60405180910390fd5b80600560146101000a81548163ffffffff021916908363ffffffff16021790555050565b6126b161347e565b600081116126f4576040517f08c379a00000000000000000000000000000000000000000000000000000000081526004016126eb9061502b565b60405180910390fd5b6000600260003373ffffffffffffffffffffffffffffffffffffffff1673ffffffffffffffffffffffffffffffffffffffff168152602001908152602001600020905061278433308460008054906101000a900473ffffffffffffffffffffffffffffffffffffffff1673ffffffffffffffffffffffffffffffffffffffff166136f3909392919063ffffffff16565b818160000160008282546127989190614b23565b92505081905550338160040160006101000a81548173ffffffffffffffffffffffffffffffffffffffff021916908373ffffffffffffffffffffffffffffffffffffffff160217905550506127eb613554565b50565b60006127f8613775565b905060008160000160089054906101000a900460ff1615905060008260000160009054906101000a900467ffffffffffffffff1690506000808267ffffffffffffffff161480156128465750825b9050600060018367ffffffffffffffff1614801561287b575060003073ffffffffffffffffffffffffffffffffffffffff163b145b905081158015612889575080155b156128c0576040517ff92ee8a900000000000000000000000000000000000000000000000000000000815260040160405180910390fd5b60018560000160006101000a81548167ffffffffffffffff021916908367ffffffffffffffff16021790555083156129105760018560000160086101000a81548160ff0219169083151502179055505b600073ffffffffffffffffffffffffffffffffffffffff168673ffffffffffffffffffffffffffffffffffffffff160361297f576040517f08c379a000000000000000000000000000000000000000000000000000000000815260040161297690615097565b60405180910390fd5b612987613789565b6129903361379b565b856000806101000a81548173ffffffffffffffffffffffffffffffffffffffff021916908373ffffffffffffffffffffffffffffffffffffffff1602179055508315612a2c5760008560000160086101000a81548160ff0219169083151502179055507fc7f505b2f371ae2175ee4913f4499e1f2633a7b5936321eed1cdaeb6115181d26001604051612a239190615106565b60405180910390a15b505050505050565b60016020528060005260406000206000915090508060000154908060010154908060020160009054906101000a900473ffffffffffffffffffffffffffffffffffffffff16908060020160149054906101000a900460ff16908060020160159054906101000a900460ff16908060020160169054906101000a900463ffffffff16908060030154905087565b612ac861347e565b6000600260003373ffffffffffffffffffffffffffffffffffffffff1673ffffffffffffffffffffffffffffffffffffffff16815260200190815260200160002090506000600160008673ffffffffffffffffffffffffffffffffffffffff1673ffffffffffffffffffffffffffffffffffffffff16815260200190815260200160002090508582600001541015612b95576040517f08c379a0000000000000000000000000000000000000000000000000000000008152600401612b8c9061516d565b60405180910390fd5b600073ffffffffffffffffffffffffffffffffffffffff168573ffffffffffffffffffffffffffffffffffffffff1603612c04576040517f08c379a0000000000000000000000000000000000000000000000000000000008152600401612bfb906151d9565b60405180910390fd5b8060020160149054906101000a900460ff16612c55576040517f08c379a0000000000000000000000000000000000000000000000000000000008152600401612c4c9061479b565b60405180910390fd5b8060020160159054906101000a900460ff16612ca6576040517f08c379a0000000000000000000000000000000000000000000000000000000008152600401612c9d90614807565b60405180910390fd5b6000816001015411612ced576040517f08c379a0000000000000000000000000000000000000000000000000000000008152600401612ce490615245565b60405180910390fd5b806001015482600101541115612d38576040517f08c379a0000000000000000000000000000000000000000000000000000000008152600401612d2f906152b1565b60405180910390fd5b60008160010154878460010154612d4f9190614b23565b1115905060008260010154888560010154612d6a9190614b23565b14905081612dad576040517f08c379a0000000000000000000000000000000000000000000000000000000008152600401612da49061531d565b60405180910390fd5b87846001016000828254612dc19190614b23565b925050819055508760066000828254612dda9190614b23565b9250508190555087846000016000828254612df591906148c2565b9250508190555087836000016000828254612e109190614b23565b92505081905550868460050160006101000a81548173ffffffffffffffffffffffffffffffffffffffff021916908373ffffffffffffffffffffffffffffffffffffffff16021790555083600101548360010154612e6e91906148c2565b8460030181905550600084600101548460010154612e8c91906148c2565b90506040518061010001604052804281526020018a81526020018281526020013373ffffffffffffffffffffffffffffffffffffffff1681526020018973ffffffffffffffffffffffffffffffffffffffff168152602001831515815260200188815260200187815250600360003373ffffffffffffffffffffffffffffffffffffffff1673ffffffffffffffffffffffffffffffffffffffff16815260200190815260200160002060008201518160000155602082015181600101556040820151816002015560608201518160030160006101000a81548173ffffffffffffffffffffffffffffffffffffffff021916908373ffffffffffffffffffffffffffffffffffffffff16021790555060808201518160040160006101000a81548173ffffffffffffffffffffffffffffffffffffffff021916908373ffffffffffffffffffffffffffffffffffffffff16021790555060a08201518160040160146101000a81548160ff02191690831515021790555060c0820151816005015560e082015181600601559050505050505050613025613554565b50505050565b60036020528060005260406000206000915090508060000154908060010154908060020154908060030160009054906101000a900473ffffffffffffffffffffffffffffffffffffffff16908060040160009054906101000a900473ffffffffffffffffffffffffffffffffffffffff16908060040160149054906101000a900460ff16908060050154908060060154905088565b6130c861356d565b6000600160008373ffffffffffffffffffffffffffffffffffffffff1673ffffffffffffffffffffffffffffffffffffffff16815260200190815260200160002090508060020160159054906101000a900460ff1661315c576040517f08c379a000000000000000000000000000000000000000000000000000000000815260040161315390614807565b60405180910390fd5b60008160020160156101000a81548160ff0219169083151502179055505050565b60026020528060005260406000206000915090508060000154908060010154908060020154908060030154908060040160009054906101000a900473ffffffffffffffffffffffffffffffffffffffff16908060050160009054906101000a900473ffffffffffffffffffffffffffffffffffffffff16908060050160149054906101000a900460ff16908060060154908060070154905089565b613220613b21565b6000600160003373ffffffffffffffffffffffffffffffffffffffff1673ffffffffffffffffffffffffffffffffffffffff16815260200190815260200160002090508060020160149054906101000a900460ff166132b4576040517f08c379a00000000000000000000000000000000000000000000000000000000081526004016132ab9061472f565b60405180910390fd5b600160008473ffffffffffffffffffffffffffffffffffffffff1673ffffffffffffffffffffffffffffffffffffffff1681526020019081526020016000206040518060e001604052908160008201548152602001600182015481526020016002820160009054906101000a900473ffffffffffffffffffffffffffffffffffffffff1673ffffffffffffffffffffffffffffffffffffffff1673ffffffffffffffffffffffffffffffffffffffff1681526020016002820160149054906101000a900460ff161515151581526020016002820160159054906101000a900460ff161515151581526020016002820160169054906101000a900463ffffffff1663ffffffff1663ffffffff168152602001600382015481525050915050919050565b6133de61356d565b600073ffffffffffffffffffffffffffffffffffffffff168173ffffffffffffffffffffffffffffffffffffffff16036134505760006040517f1e4fbdf70000000000000000000000000000000000000000000000000000000081526004016134479190613d98565b60405180910390fd5b613459816135f4565b50565b600560049054906101000a90046fffffffffffffffffffffffffffffffff1681565b60006134886137af565b905060028160000154036134c8576040517f3ee5aeb500000000000000000000000000000000000000000000000000000000815260040160405180910390fd5b6002816000018190555050565b61354f838473ffffffffffffffffffffffffffffffffffffffff1663a9059cbb858560405160240161350892919061533d565b604051602081830303815290604052915060e01b6020820180517bffffffffffffffffffffffffffffffffffffffffffffffffffffffff83818316178352505050506137d7565b505050565b600061355e6137af565b90506001816000018190555050565b613575613879565b73ffffffffffffffffffffffffffffffffffffffff16613593612308565b73ffffffffffffffffffffffffffffffffffffffff16146135f2576135b6613879565b6040517f118cdaa70000000000000000000000000000000000000000000000000000000081526004016135e99190613d98565b60405180910390fd5b565b60006135fe6136cb565b905060008160000160009054906101000a900473ffffffffffffffffffffffffffffffffffffffff169050828260000160006101000a81548173ffffffffffffffffffffffffffffffffffffffff021916908373ffffffffffffffffffffffffffffffffffffffff1602179055508273ffffffffffffffffffffffffffffffffffffffff168173ffffffffffffffffffffffffffffffffffffffff167f8be0079c531659141344cd1fd0a4f28419497f9722a3daafe3b4186f6b6457e060405160405180910390a3505050565b60007f9016d09d72d40fdae2fd8ceac6b6234c7706214fd39c1cd1e609a0528c199300905090565b61376f848573ffffffffffffffffffffffffffffffffffffffff166323b872dd86868660405160240161372893929190615366565b604051602081830303815290604052915060e01b6020820180517bffffffffffffffffffffffffffffffffffffffffffffffffffffffff83818316178352505050506137d7565b50505050565b600080613780613881565b90508091505090565b6137916138ac565b6137996138ec565b565b6137a36138ac565b6137ac8161390d565b50565b60007f9b779b17422d0df92223018b32b4d1fa46e071723d6817e2486d003becc55f00905090565b600080602060008451602086016000885af1806137fa576040513d6000823e3d81fd5b3d925060005191505060008214613815576001811415613831565b60008473ffffffffffffffffffffffffffffffffffffffff163b145b1561387357836040517f5274afe700000000000000000000000000000000000000000000000000000000815260040161386a9190613d98565b60405180910390fd5b50505050565b600033905090565b60007ff0c57e16840df040f15088dc2f81fe391c3923bec73e23a9662efc9c229c6a0060001b905090565b6138b4613993565b6138ea576040517fd7e6bcf800000000000000000000000000000000000000000000000000000000815260040160405180910390fd5b565b6138f46138ac565b60006138fe6137af565b90506001816000018190555050565b6139156138ac565b600073ffffffffffffffffffffffffffffffffffffffff168173ffffffffffffffffffffffffffffffffffffffff16036139875760006040517f1e4fbdf700000000000000000000000000000000000000000000000000000000815260040161397e9190613d98565b60405180910390fd5b613990816135f4565b50565b600061399d613775565b60000160089054906101000a900460ff16905090565b604051806101000160405280600081526020016000815260200160008152602001600073ffffffffffffffffffffffffffffffffffffffff168152602001600073ffffffffffffffffffffffffffffffffffffffff16815260200160001515815260200160008019168152602001600080191681525090565b60405180610120016040528060008152602001600081526020016000815260200160008152602001600073ffffffffffffffffffffffffffffffffffffffff168152602001600073ffffffffffffffffffffffffffffffffffffffff16815260200160001515815260200160008019168152602001600080191681525090565b6040518060e0016040528060008152602001600073ffffffffffffffffffffffffffffffffffffffff16815260200160006fffffffffffffffffffffffffffffffff168152602001600015158152602001600015158152602001600063ffffffff168152602001600063ffffffff1681525090565b6040518060e001604052806000815260200160008152602001600073ffffffffffffffffffffffffffffffffffffffff168152602001600015158152602001600015158152602001600063ffffffff168152602001600080191681525090565b600080fd5b600080fd5b600073ffffffffffffffffffffffffffffffffffffffff82169050919050565b6000613bb682613b8b565b9050919050565b613bc681613bab565b8114613bd157600080fd5b50565b600081359050613be381613bbd565b92915050565b600060208284031215613bff57613bfe613b81565b5b6000613c0d84828501613bd4565b91505092915050565b6000819050919050565b613c2981613c16565b82525050565b613c3881613bab565b82525050565b60008115159050919050565b613c5381613c3e565b82525050565b6000819050919050565b613c6c81613c59565b82525050565b61010082016000820151613c896000850182613c20565b506020820151613c9c6020850182613c20565b506040820151613caf6040850182613c20565b506060820151613cc26060850182613c2f565b506080820151613cd56080850182613c2f565b5060a0820151613ce860a0850182613c4a565b5060c0820151613cfb60c0850182613c63565b5060e0820151613d0e60e0850182613c63565b50505050565b600061010082019050613d2a6000830184613c72565b92915050565b613d3981613c16565b8114613d4457600080fd5b50565b600081359050613d5681613d30565b92915050565b600060208284031215613d7257613d71613b81565b5b6000613d8084828501613d47565b91505092915050565b613d9281613bab565b82525050565b6000602082019050613dad6000830184613d89565b92915050565b600063ffffffff82169050919050565b613dcc81613db3565b8114613dd757600080fd5b50565b600081359050613de981613dc3565b92915050565b600080600060608486031215613e0857613e07613b81565b5b6000613e1686828701613d47565b9350506020613e2786828701613dda565b9250506040613e3886828701613dda565b9150509250925092565b600080fd5b600080fd5b600080fd5b60008083601f840112613e6757613e66613e42565b5b8235905067ffffffffffffffff811115613e8457613e83613e47565b5b602083019150836001820283011115613ea057613e9f613e4c565b5b9250929050565b60008060208385031215613ebe57613ebd613b81565b5b600083013567ffffffffffffffff811115613edc57613edb613b86565b5b613ee885828601613e51565b92509250509250929050565b613efd81613c59565b8114613f0857600080fd5b50565b600081359050613f1a81613ef4565b92915050565b60008060408385031215613f3757613f36613b81565b5b6000613f4585828601613bd4565b9250506020613f5685828601613f0b565b9150509250929050565b613f6981613c16565b82525050565b6000602082019050613f846000830184613f60565b92915050565b61012082016000820151613fa16000850182613c20565b506020820151613fb46020850182613c20565b506040820151613fc76040850182613c20565b506060820151613fda6060850182613c20565b506080820151613fed6080850182613c2f565b5060a082015161400060a0850182613c2f565b5060c082015161401360c0850182613c4a565b5060e082015161402660e0850182613c63565b5061010082015161403b610100850182613c63565b50505050565b6000610120820190506140576000830184613f8a565b92915050565b60006fffffffffffffffffffffffffffffffff82169050919050565b6140828161405d565b82525050565b61409181613db3565b82525050565b60e0820160008201516140ad6000850182613c20565b5060208201516140c06020850182613c2f565b5060408201516140d36040850182614079565b5060608201516140e66060850182613c4a565b5060808201516140f96080850182613c4a565b5060a082015161410c60a0850182614088565b5060c082015161411f60c0850182614088565b50505050565b600060e08201905061413a6000830184614097565b92915050565b6141498161405d565b811461415457600080fd5b50565b60008135905061416681614140565b92915050565b60006020828403121561418257614181613b81565b5b600061419084828501614157565b91505092915050565b6141a28161405d565b82525050565b6141b181613c3e565b82525050565b6141c081613db3565b82525050565b600060e0820190506141db600083018a613f60565b6141e86020830189613d89565b6141f56040830188614199565b61420260608301876141a8565b61420f60808301866141a8565b61421c60a08301856141b7565b61422960c08301846141b7565b98975050505050505050565b600081519050919050565b600082825260208201905092915050565b60005b8381101561426f578082015181840152602081019050614254565b60008484015250505050565b6000601f19601f8301169050919050565b600061429782614235565b6142a18185614240565b93506142b1818560208601614251565b6142ba8161427b565b840191505092915050565b60006040820190506142da60008301856141a8565b81810360208301526142ec818461428c565b90509392505050565b600060208201905061430a60008301846141b7565b92915050565b6000819050919050565b600061433561433061432b84613b8b565b614310565b613b8b565b9050919050565b60006143478261431a565b9050919050565b60006143598261433c565b9050919050565b6143698161434e565b82525050565b60006020820190506143846000830184614360565b92915050565b600080600080608085870312156143a4576143a3613b81565b5b60006143b287828801613bd4565b94505060206143c387828801613d47565b93505060406143d487828801613f0b565b92505060606143e587828801613f0b565b91505092959194509250565b60006020828403121561440757614406613b81565b5b600061441584828501613dda565b91505092915050565b61442781613c59565b82525050565b600060e082019050614442600083018a613f60565b61444f6020830189613f60565b61445c6040830188613d89565b61446960608301876141a8565b61447660808301866141a8565b61448360a08301856141b7565b61449060c083018461441e565b98975050505050505050565b600080600080608085870312156144b6576144b5613b81565b5b60006144c487828801613d47565b94505060206144d587828801613bd4565b93505060406144e687828801613f0b565b92505060606144f787828801613f0b565b91505092959194509250565b600061010082019050614519600083018b613f60565b614526602083018a613f60565b6145336040830189613f60565b6145406060830188613d89565b61454d6080830187613d89565b61455a60a08301866141a8565b61456760c083018561441e565b61457460e083018461441e565b9998505050505050505050565b600061012082019050614597600083018c613f60565b6145a4602083018b613f60565b6145b1604083018a613f60565b6145be6060830189613f60565b6145cb6080830188613d89565b6145d860a0830187613d89565b6145e560c08301866141a8565b6145f260e083018561441e565b61460061010083018461441e565b9a9950505050505050505050565b60e0820160008201516146246000850182613c20565b5060208201516146376020850182613c20565b50604082015161464a6040850182613c2f565b50606082015161465d6060850182613c4a565b5060808201516146706080850182613c4a565b5060a082015161468360a0850182614088565b5060c082015161469660c0850182613c63565b50505050565b600060e0820190506146b1600083018461460e565b92915050565b60006020820190506146cc6000830184614199565b92915050565b600082825260208201905092915050565b7f4e6f742072656769737465726564000000000000000000000000000000000000600082015250565b6000614719600e836146d2565b9150614724826146e3565b602082019050919050565b600060208201905081810360008301526147488161470c565b9050919050565b7f556e726567697374657265640000000000000000000000000000000000000000600082015250565b6000614785600c836146d2565b91506147908261474f565b602082019050919050565b600060208201905081810360008301526147b481614778565b9050919050565b7f496e6e6163746976650000000000000000000000000000000000000000000000600082015250565b60006147f16009836146d2565b91506147fc826147bb565b602082019050919050565b60006020820190508181036000830152614820816147e4565b9050919050565b7f4d75636820616d6f756e74000000000000000000000000000000000000000000600082015250565b600061485d600b836146d2565b915061486882614827565b602082019050919050565b6000602082019050818103600083015261488c81614850565b9050919050565b7f4e487b7100000000000000000000000000000000000000000000000000000000600052601160045260246000fd5b60006148cd82613c16565b91506148d883613c16565b92508282039050818111156148f0576148ef614893565b5b92915050565b600061490182613c16565b915061490c83613c16565b925082820261491a81613c16565b9150828204841483151761493157614930614893565b5b5092915050565b7f4e487b7100000000000000000000000000000000000000000000000000000000600052601260045260246000fd5b600061497282613c16565b915061497d83613c16565b92508261498d5761498c614938565b5b828204905092915050565b7f496e616374697665000000000000000000000000000000000000000000000000600082015250565b60006149ce6008836146d2565b91506149d982614998565b602082019050919050565b600060208201905081810360008301526149fd816149c1565b9050919050565b6000614a0f8261405d565b9150614a1a8361405d565b925082820190506fffffffffffffffffffffffffffffffff811115614a4257614a41614893565b5b92915050565b7f4d75636800000000000000000000000000000000000000000000000000000000600082015250565b6000614a7e6004836146d2565b9150614a8982614a48565b602082019050919050565b60006020820190508181036000830152614aad81614a71565b9050919050565b60008060408385031215614acb57614aca613b81565b5b6000614ad985828601614157565b9250506020614aea85828601613f0b565b9150509250929050565b7f4e487b7100000000000000000000000000000000000000000000000000000000600052603260045260246000fd5b6000614b2e82613c16565b9150614b3983613c16565b9250828201905080821115614b5157614b50614893565b5b92915050565b7f5265676973746572656400000000000000000000000000000000000000000000600082015250565b6000614b8d600a836146d2565b9150614b9882614b57565b602082019050919050565b60006020820190508181036000830152614bbc81614b80565b9050919050565b6000614bce82613db3565b9150614bd983613db3565b9250828201905063ffffffff811115614bf557614bf4614893565b5b92915050565b6000614c0682613db3565b915063ffffffff8203614c1c57614c1b614893565b5b600182019050919050565b7f4e6f206d61746368696e67207465726d20666f756e6400000000000000000000600082015250565b6000614c5d6016836146d2565b9150614c6882614c27565b602082019050919050565b60006020820190508181036000830152614c8c81614c50565b9050919050565b7f4e6f206175746f7061796d656e747320666f756e640000000000000000000000600082015250565b6000614cc96015836146d2565b9150614cd482614c93565b602082019050919050565b60006020820190508181036000830152614cf881614cbc565b9050919050565b7f4e487b7100000000000000000000000000000000000000000000000000000000600052603160045260246000fd5b6000604082019050614d436000830185614199565b614d50602083018461441e565b9392505050565b7f496e76616c6964207363686f6f6c206164647265737300000000000000000000600082015250565b6000614d8d6016836146d2565b9150614d9882614d57565b602082019050919050565b60006020820190508181036000830152614dbc81614d80565b9050919050565b7f496e76616c696420616d6f756e74000000000000000000000000000000000000600082015250565b6000614df9600e836146d2565b9150614e0482614dc3565b602082019050919050565b60006020820190508181036000830152614e2881614dec565b9050919050565b7f616d6f756e7420213d207363686f6f6c20747574696f6e000000000000000000600082015250565b6000614e656017836146d2565b9150614e7082614e2f565b602082019050919050565b60006020820190508181036000830152614e9481614e58565b9050919050565b7f4c6f772062616c616e6365000000000000000000000000000000000000000000600082015250565b6000614ed1600b836146d2565b9150614edc82614e9b565b602082019050919050565b60006020820190508181036000830152614f0081614ec4565b9050919050565b7f686173204175746f5061796d656e747300000000000000000000000000000000600082015250565b6000614f3d6010836146d2565b9150614f4882614f07565b602082019050919050565b60006020820190508181036000830152614f6c81614f30565b9050919050565b7f4d75636820666565000000000000000000000000000000000000000000000000600082015250565b6000614fa96008836146d2565b9150614fb482614f73565b602082019050919050565b60006020820190508181036000830152614fd881614f9c565b9050919050565b7f496e76616c6964206465706f7369740000000000000000000000000000000000600082015250565b6000615015600f836146d2565b915061502082614fdf565b602082019050919050565b6000602082019050818103600083015261504481615008565b9050919050565b7f496e76616c696420616464726573730000000000000000000000000000000000600082015250565b6000615081600f836146d2565b915061508c8261504b565b602082019050919050565b600060208201905081810360008301526150b081615074565b9050919050565b6000819050919050565b600067ffffffffffffffff82169050919050565b60006150f06150eb6150e6846150b7565b614310565b6150c1565b9050919050565b615100816150d5565b82525050565b600060208201905061511b60008301846150f7565b92915050565b7f4c6974746c652062616c616e6365000000000000000000000000000000000000600082015250565b6000615157600e836146d2565b915061516282615121565b602082019050919050565b600060208201905081810360008301526151868161514a565b9050919050565b7f496e76616c6964207363686f6f6c416464720000000000000000000000000000600082015250565b60006151c36012836146d2565b91506151ce8261518d565b602082019050919050565b600060208201905081810360008301526151f2816151b6565b9050919050565b7f4f75746461746564205465726d00000000000000000000000000000000000000600082015250565b600061522f600d836146d2565b915061523a826151f9565b602082019050919050565b6000602082019050818103600083015261525e81615222565b9050919050565b7f596f7527726520636c6561726564210000000000000000000000000000000000600082015250565b600061529b600f836146d2565b91506152a682615265565b602082019050919050565b600060208201905081810360008301526152ca8161528e565b9050919050565b7f52656475636520616d6f756e7400000000000000000000000000000000000000600082015250565b6000615307600d836146d2565b9150615312826152d1565b602082019050919050565b60006020820190508181036000830152615336816152fa565b9050919050565b60006040820190506153526000830185613d89565b61535f6020830184613f60565b9392505050565b600060608201905061537b6000830186613d89565b6153886020830185613d89565b6153956040830184613f60565b94935050505056fea26469706673582212205647151dab6c5f1d46c9a11b74ff47d72d08f62b9e94d0041e8cda167356cd8564736f6c634300081c0033",
  "linkReferences": {},
  "deployedLinkReferences": {}
}