{
  "_format": "hh-sol-artifact-1",
  "contractName": "Tution",
  "sourceName": "contracts/Tution.sol",
  "abi": [
    {
      "inputs": [],
      "name": "InvalidInitialization",
      "type": "error"
    },
    {
      "inputs": [],
      "name": "NotInitializing",
      "type": "error"
    },
    {
      "inputs": [
        {
          "internalType": "address",
          "name": "owner",
          "type": "address"
        }
      ],
      "name": "OwnableInvalidOwner",
      "type": "error"
    },
    {
      "inputs": [
        {
          "internalType": "address",
          "name": "account",
          "type": "address"
        }
      ],
      "name": "OwnableUnauthorizedAccount",
      "type": "error"
    },
    {
      "inputs": [],
      "name": "ReentrancyGuardReentrantCall",
      "type": "error"
    },
    {
      "inputs": [
        {
          "internalType": "address",
          "name": "token",
          "type": "address"
        }
      ],
      "name": "SafeERC20FailedOperation",
      "type": "error"
    },
    {
      "anonymous": false,
      "inputs": [
        {
          "indexed": false,
          "internalType": "uint64",
          "name": "version",
          "type": "uint64"
        }
      ],
      "name": "Initialized",
      "type": "event"
    },
    {
      "anonymous": false,
      "inputs": [
        {
          "indexed": true,
          "internalType": "address",
          "name": "previousOwner",
          "type": "address"
        },
        {
          "indexed": true,
          "internalType": "address",
          "name": "newOwner",
          "type": "address"
        }
      ],
      "name": "OwnershipTransferred",
      "type": "event"
    },
    {
      "inputs": [
        {
          "internalType": "uint256",
          "name": "_tution",
          "type": "uint256"
        },
        {
          "internalType": "uint32",
          "name": "_start",
          "type": "uint32"
        },
        {
          "internalType": "uint32",
          "name": "_end",
          "type": "uint32"
        }
      ],
      "name": "AcademicTermUpdate",
      "outputs": [],
      "stateMutability": "nonpayable",
      "type": "function"
    },
    {
      "inputs": [
        {
          "internalType": "uint128",
          "name": "",
          "type": "uint128"
        }
      ],
      "name": "academicTerm",
      "outputs": [
        {
          "internalType": "uint256",
          "name": "tution",
          "type": "uint256"
        },
        {
          "internalType": "address",
          "name": "school",
          "type": "address"
        },
        {
          "internalType": "uint128",
          "name": "termId",
          "type": "uint128"
        },
        {
          "internalType": "bool",
          "name": "hasStarted",
          "type": "bool"
        },
        {
          "internalType": "bool",
          "name": "hasEnded",
          "type": "bool"
        },
        {
          "internalType": "uint32",
          "name": "start",
          "type": "uint32"
        },
        {
          "internalType": "uint32",
          "name": "end",
          "type": "uint32"
        }
      ],
      "stateMutability": "view",
      "type": "function"
    },
    {
      "inputs": [
        {
          "internalType": "address",
          "name": "_school",
          "type": "address"
        }
      ],
      "name": "activateSchool",
      "outputs": [],
      "stateMutability": "nonpayable",
      "type": "function"
    },
    {
      "inputs": [
        {
          "internalType": "bytes",
          "name": "",
          "type": "bytes"
        }
      ],
      "name": "checkUpkeep",
      "outputs": [
        {
          "internalType": "bool",
          "name": "upkeepNeeded",
          "type": "bool"
        },
        {
          "internalType": "bytes",
          "name": "performData",
          "type": "bytes"
        }
      ],
      "stateMutability": "view",
      "type": "function"
    },
    {
      "inputs": [
        {
          "internalType": "uint256",
          "name": "_amount",
          "type": "uint256"
        }
      ],
      "name": "clientDeposit",
      "outputs": [],
      "stateMutability": "nonpayable",
      "type": "function"
    },
    {
      "inputs": [
        {
          "internalType": "uint256",
          "name": "_amount",
          "type": "uint256"
        }
      ],
      "name": "clientWithdraw",
      "outputs": [],
      "stateMutability": "nonpayable",
      "type": "function"
    },
    {
      "inputs": [
        {
          "internalType": "address",
          "name": "_school",
          "type": "address"
        }
      ],
      "name": "deactivateSchool",
      "outputs": [],
      "stateMutability": "nonpayable",
      "type": "function"
    },
    {
      "inputs": [],
      "name": "getClient",
      "outputs": [
        {
          "components": [
            {
              "internalType": "uint256",
              "name": "balance",
              "type": "uint256"
            },
            {
              "internalType": "uint256",
              "name": "termPayments",
              "type": "uint256"
            },
            {
              "internalType": "address",
              "name": "client",
              "type": "address"
            }
          ],
          "internalType": "struct Tution.Payer",
          "name": "",
          "type": "tuple"
        }
      ],
      "stateMutability": "view",
      "type": "function"
    },
    {
      "inputs": [
        {
          "internalType": "address",
          "name": "_user",
          "type": "address"
        }
      ],
      "name": "getReceipt",
      "outputs": [
        {
          "components": [
            {
              "internalType": "uint256",
              "name": "time",
              "type": "uint256"
            },
            {
              "internalType": "uint256",
              "name": "amount",
              "type": "uint256"
            },
            {
              "internalType": "uint256",
              "name": "balance",
              "type": "uint256"
            },
            {
              "internalType": "address",
              "name": "payer",
              "type": "address"
            },
            {
              "internalType": "address",
              "name": "school",
              "type": "address"
            },
            {
              "internalType": "bool",
              "name": "cleared",
              "type": "bool"
            },
            {
              "internalType": "bytes32",
              "name": "student",
              "type": "bytes32"
            },
            {
              "internalType": "bytes32",
              "name": "class",
              "type": "bytes32"
            }
          ],
          "internalType": "struct Tution.Receipt",
          "name": "",
          "type": "tuple"
        }
      ],
      "stateMutability": "view",
      "type": "function"
    },
    {
      "inputs": [
        {
          "internalType": "address",
          "name": "_school",
          "type": "address"
        }
      ],
      "name": "getSchoolInfo",
      "outputs": [
        {
          "components": [
            {
              "internalType": "uint256",
              "name": "balance",
              "type": "uint256"
            },
            {
              "internalType": "uint256",
              "name": "tution",
              "type": "uint256"
            },
            {
              "internalType": "address",
              "name": "school",
              "type": "address"
            },
            {
              "internalType": "bool",
              "name": "isRegistered",
              "type": "bool"
            },
            {
              "internalType": "bool",
              "name": "isActive",
              "type": "bool"
            },
            {
              "internalType": "uint32",
              "name": "schoolId",
              "type": "uint32"
            },
            {
              "internalType": "bytes32",
              "name": "name",
              "type": "bytes32"
            }
          ],
          "internalType": "struct Tution.School",
          "name": "",
          "type": "tuple"
        }
      ],
      "stateMutability": "view",
      "type": "function"
    },
    {
      "inputs": [
        {
          "internalType": "uint128",
          "name": "_termId",
          "type": "uint128"
        }
      ],
      "name": "getacademicTerm",
      "outputs": [
        {
          "components": [
            {
              "internalType": "uint256",
              "name": "tution",
              "type": "uint256"
            },
            {
              "internalType": "address",
              "name": "school",
              "type": "address"
            },
            {
              "internalType": "uint128",
              "name": "termId",
              "type": "uint128"
            },
            {
              "internalType": "bool",
              "name": "hasStarted",
              "type": "bool"
            },
            {
              "internalType": "bool",
              "name": "hasEnded",
              "type": "bool"
            },
            {
              "internalType": "uint32",
              "name": "start",
              "type": "uint32"
            },
            {
              "internalType": "uint32",
              "name": "end",
              "type": "uint32"
            }
          ],
          "internalType": "struct Tution.AcademicTerm",
          "name": "",
          "type": "tuple"
        }
      ],
      "stateMutability": "view",
      "type": "function"
    },
    {
      "inputs": [
        {
          "internalType": "address",
          "name": "_tokenUsed",
          "type": "address"
        }
      ],
      "name": "initialize",
      "outputs": [],
      "stateMutability": "nonpayable",
      "type": "function"
    },
    {
      "inputs": [],
      "name": "newSchoolId",
      "outputs": [
        {
          "internalType": "uint32",
          "name": "",
          "type": "uint32"
        }
      ],
      "stateMutability": "view",
      "type": "function"
    },
    {
      "inputs": [],
      "name": "owner",
      "outputs": [
        {
          "internalType": "address",
          "name": "",
          "type": "address"
        }
      ],
      "stateMutability": "view",
      "type": "function"
    },
    {
      "inputs": [
        {
          "internalType": "address",
          "name": "",
          "type": "address"
        }
      ],
      "name": "payer",
      "outputs": [
        {
          "internalType": "uint256",
          "name": "balance",
          "type": "uint256"
        },
        {
          "internalType": "uint256",
          "name": "termPayments",
          "type": "uint256"
        },
        {
          "internalType": "address",
          "name": "client",
          "type": "address"
        }
      ],
      "stateMutability": "view",
      "type": "function"
    },
    {
      "inputs": [],
      "name": "paymentsMade",
      "outputs": [
        {
          "internalType": "uint256",
          "name": "",
          "type": "uint256"
        }
      ],
      "stateMutability": "view",
      "type": "function"
    },
    {
      "inputs": [],
      "name": "percentageFee",
      "outputs": [
        {
          "internalType": "uint32",
          "name": "",
          "type": "uint32"
        }
      ],
      "stateMutability": "view",
      "type": "function"
    },
    {
      "inputs": [
        {
          "internalType": "bytes",
          "name": "performData",
          "type": "bytes"
        }
      ],
      "name": "performUpkeep",
      "outputs": [],
      "stateMutability": "nonpayable",
      "type": "function"
    },
    {
      "inputs": [
        {
          "internalType": "address",
          "name": "",
          "type": "address"
        }
      ],
      "name": "receipt",
      "outputs": [
        {
          "internalType": "uint256",
          "name": "time",
          "type": "uint256"
        },
        {
          "internalType": "uint256",
          "name": "amount",
          "type": "uint256"
        },
        {
          "internalType": "uint256",
          "name": "balance",
          "type": "uint256"
        },
        {
          "internalType": "address",
          "name": "payer",
          "type": "address"
        },
        {
          "internalType": "address",
          "name": "school",
          "type": "address"
        },
        {
          "internalType": "bool",
          "name": "cleared",
          "type": "bool"
        },
        {
          "internalType": "bytes32",
          "name": "student",
          "type": "bytes32"
        },
        {
          "internalType": "bytes32",
          "name": "class",
          "type": "bytes32"
        }
      ],
      "stateMutability": "view",
      "type": "function"
    },
    {
      "inputs": [
        {
          "internalType": "address",
          "name": "_school",
          "type": "address"
        },
        {
          "internalType": "bytes32",
          "name": "_name",
          "type": "bytes32"
        }
      ],
      "name": "registerSchool",
      "outputs": [],
      "stateMutability": "nonpayable",
      "type": "function"
    },
    {
      "inputs": [],
      "name": "renounceOwnership",
      "outputs": [],
      "stateMutability": "nonpayable",
      "type": "function"
    },
    {
      "inputs": [
        {
          "internalType": "address",
          "name": "",
          "type": "address"
        }
      ],
      "name": "school",
      "outputs": [
        {
          "internalType": "uint256",
          "name": "balance",
          "type": "uint256"
        },
        {
          "internalType": "uint256",
          "name": "tution",
          "type": "uint256"
        },
        {
          "internalType": "address",
          "name": "school",
          "type": "address"
        },
        {
          "internalType": "bool",
          "name": "isRegistered",
          "type": "bool"
        },
        {
          "internalType": "bool",
          "name": "isActive",
          "type": "bool"
        },
        {
          "internalType": "uint32",
          "name": "schoolId",
          "type": "uint32"
        },
        {
          "internalType": "bytes32",
          "name": "name",
          "type": "bytes32"
        }
      ],
      "stateMutability": "view",
      "type": "function"
    },
    {
      "inputs": [
        {
          "internalType": "uint256",
          "name": "_amount",
          "type": "uint256"
        }
      ],
      "name": "schoolWithdrawal",
      "outputs": [],
      "stateMutability": "nonpayable",
      "type": "function"
    },
    {
      "inputs": [],
      "name": "stableToken",
      "outputs": [
        {
          "internalType": "contract IERC20",
          "name": "",
          "type": "address"
        }
      ],
      "stateMutability": "view",
      "type": "function"
    },
    {
      "inputs": [],
      "name": "termIdBySchool",
      "outputs": [
        {
          "internalType": "uint128",
          "name": "",
          "type": "uint128"
        }
      ],
      "stateMutability": "view",
      "type": "function"
    },
    {
      "inputs": [
        {
          "internalType": "address",
          "name": "newOwner",
          "type": "address"
        }
      ],
      "name": "transferOwnership",
      "outputs": [],
      "stateMutability": "nonpayable",
      "type": "function"
    },
    {
      "inputs": [
        {
          "internalType": "uint256",
          "name": "_amount",
          "type": "uint256"
        },
        {
          "internalType": "address",
          "name": "_school",
          "type": "address"
        },
        {
          "internalType": "bytes32",
          "name": "_student",
          "type": "bytes32"
        },
        {
          "internalType": "bytes32",
          "name": "_class",
          "type": "bytes32"
        }
      ],
      "name": "tutionPayment",
      "outputs": [],
      "stateMutability": "nonpayable",
      "type": "function"
    },
    {
      "inputs": [
        {
          "internalType": "uint32",
          "name": "_percentage",
          "type": "uint32"
        }
      ],
      "name": "updateTxFee",
      "outputs": [],
      "stateMutability": "nonpayable",
      "type": "function"
    }
  ],
  "bytecode": "0x6080604052348015600f57600080fd5b506140228061001f6000396000f3fe608060405234801561001057600080fd5b50600436106101c45760003560e01c80638da5cb5b116100f9578063e35e566311610097578063e97e3f1711610071578063e97e3f17146104f1578063f2fde38b14610521578063f93038ad1461053d578063fde345bc1461056d576101c4565b8063e35e56631461046c578063e4246662146104a3578063e5b73e08146104bf576101c4565b8063bd53d5cc116100d3578063bd53d5cc146103e2578063c4d66de8146103fe578063c652365c1461041a578063c828559214610450576101c4565b80638da5cb5b1461038a578063a9d75b2b146103a8578063baae1892146103c6576101c4565b80634ff59cf8116101665780636e04ff0d116101405780636e04ff0d14610313578063715018a614610344578063780a7ff01461034e5780637866eb0f1461036c576101c4565b80634ff59cf8146102a157806359dc735c146102bf57806368df7881146102dd576101c4565b806329546a35116101a257806329546a35146102315780633a3cd0621461024d5780634585e33b146102695780634cd36a1c14610285576101c4565b806304562d95146101c9578063065ed3da146101f95780630ab0123714610215575b600080fd5b6101e360048036038101906101de9190612de2565b61058b565b6040516101f09190612f0d565b60405180910390f35b610213600480360381019061020e9190612f55565b6106de565b005b61022f600480360381019061022a9190612de2565b61095f565b005b61024b60048036038101906102469190612fbe565b610a6d565b005b61026760048036038101906102629190612f55565b610e45565b005b610283600480360381019061027e9190613076565b610f49565b005b61029f600480360381019061029a91906130ef565b6111eb565b005b6102a961143e565b6040516102b6919061313e565b60405180910390f35b6102c7611444565b6040516102d4919061319b565b60405180910390f35b6102f760048036038101906102f291906131fe565b611505565b60405161030a9796959493929190613267565b60405180910390f35b61032d60048036038101906103289190613076565b6115bd565b60405161033b929190613366565b60405180910390f35b61034c611799565b005b6103566117ad565b6040516103639190613396565b60405180910390f35b6103746117c3565b6040516103819190613396565b60405180910390f35b6103926117d9565b60405161039f91906133b1565b60405180910390f35b6103b0611811565b6040516103bd919061342b565b60405180910390f35b6103e060048036038101906103db9190613446565b611835565b005b6103fc60048036038101906103f79190612f55565b6118aa565b005b61041860048036038101906104139190612de2565b6119ef565b005b610434600480360381019061042f9190612de2565b611c35565b6040516104479796959493929190613482565b60405180910390f35b61046a600480360381019061046591906134f1565b611cc1565b005b61048660048036038101906104819190612de2565b612141565b60405161049a989796959493929190613558565b60405180910390f35b6104bd60048036038101906104b89190612de2565b6121d6565b005b6104d960048036038101906104d49190612de2565b612293565b6040516104e8939291906135d6565b60405180910390f35b61050b60048036038101906105069190612de2565b6122dd565b60405161051891906136aa565b60405180910390f35b61053b60048036038101906105369190612de2565b61249b565b005b610557600480360381019061055291906131fe565b612521565b6040516105649190613762565b60405180910390f35b61057561269e565b604051610582919061377d565b60405180910390f35b610593612bf5565b600360008373ffffffffffffffffffffffffffffffffffffffff1673ffffffffffffffffffffffffffffffffffffffff168152602001908152602001600020604051806101000160405290816000820154815260200160018201548152602001600282015481526020016003820160009054906101000a900473ffffffffffffffffffffffffffffffffffffffff1673ffffffffffffffffffffffffffffffffffffffff1673ffffffffffffffffffffffffffffffffffffffff1681526020016004820160009054906101000a900473ffffffffffffffffffffffffffffffffffffffff1673ffffffffffffffffffffffffffffffffffffffff1673ffffffffffffffffffffffffffffffffffffffff1681526020016004820160149054906101000a900460ff16151515158152602001600582015481526020016006820154815250509050919050565b6000600160003373ffffffffffffffffffffffffffffffffffffffff1673ffffffffffffffffffffffffffffffffffffffff16815260200190815260200160002090508060020160149054906101000a900460ff16610772576040517f08c379a0000000000000000000000000000000000000000000000000000000008152600401610769906137f5565b60405180910390fd5b61077a6126c0565b6000600160003373ffffffffffffffffffffffffffffffffffffffff1673ffffffffffffffffffffffffffffffffffffffff16815260200190815260200160002090508060020160149054906101000a900460ff1661080e576040517f08c379a000000000000000000000000000000000000000000000000000000000815260040161080590613861565b60405180910390fd5b8060020160159054906101000a900460ff1661085f576040517f08c379a0000000000000000000000000000000000000000000000000000000008152600401610856906138cd565b60405180910390fd5b828160000154116108a5576040517f08c379a000000000000000000000000000000000000000000000000000000000815260040161089c90613939565b60405180910390fd5b828160000160008282546108b99190613988565b9250508190555060006103e8600560149054906101000a900463ffffffff1663ffffffff16856108e991906139bc565b6108f39190613a2d565b9050600081856109039190613988565b9050610950338260008054906101000a900473ffffffffffffffffffffffffffffffffffffffff1673ffffffffffffffffffffffffffffffffffffffff166127179092919063ffffffff16565b50505061095b612796565b5050565b6109676127af565b6000600160008373ffffffffffffffffffffffffffffffffffffffff1673ffffffffffffffffffffffffffffffffffffffff16815260200190815260200160002090508060020160149054906101000a900460ff166109fb576040517f08c379a00000000000000000000000000000000000000000000000000000000081526004016109f290613861565b60405180910390fd5b8060020160159054906101000a900460ff16610a4c576040517f08c379a0000000000000000000000000000000000000000000000000000000008152600401610a43906138cd565b60405180910390fd5b60018160020160156101000a81548160ff0219169083151502179055505050565b6000600160003373ffffffffffffffffffffffffffffffffffffffff1673ffffffffffffffffffffffffffffffffffffffff16815260200190815260200160002090508060020160149054906101000a900460ff16610b01576040517f08c379a0000000000000000000000000000000000000000000000000000000008152600401610af8906137f5565b60405180910390fd5b6000600160003373ffffffffffffffffffffffffffffffffffffffff1673ffffffffffffffffffffffffffffffffffffffff16815260200190815260200160002090508060020160149054906101000a900460ff16610b95576040517f08c379a0000000000000000000000000000000000000000000000000000000008152600401610b8c90613861565b60405180910390fd5b8060020160159054906101000a900460ff16610be6576040517f08c379a0000000000000000000000000000000000000000000000000000000008152600401610bdd90613aaa565b60405180910390fd5b6040518060e001604052808681526020013373ffffffffffffffffffffffffffffffffffffffff168152602001600560049054906101000a90046fffffffffffffffffffffffffffffffff166fffffffffffffffffffffffffffffffff1681526020016000151581526020016000151581526020018563ffffffff1681526020018463ffffffff16815250600460008360020160169054906101000a900463ffffffff1663ffffffff166fffffffffffffffffffffffffffffffff1681526020019081526020016000206000820151816000015560208201518160010160006101000a81548173ffffffffffffffffffffffffffffffffffffffff021916908373ffffffffffffffffffffffffffffffffffffffff16021790555060408201518160020160006101000a8154816fffffffffffffffffffffffffffffffff02191690836fffffffffffffffffffffffffffffffff16021790555060608201518160020160106101000a81548160ff02191690831515021790555060808201518160020160116101000a81548160ff02191690831515021790555060a08201518160020160126101000a81548163ffffffff021916908363ffffffff16021790555060c08201518160020160166101000a81548163ffffffff021916908363ffffffff1602179055509050506001600560048282829054906101000a90046fffffffffffffffffffffffffffffffff16610dff9190613aca565b92506101000a8154816fffffffffffffffffffffffffffffffff02191690836fffffffffffffffffffffffffffffffff1602179055508481600101819055505050505050565b610e4d6126c0565b6000600260003373ffffffffffffffffffffffffffffffffffffffff1673ffffffffffffffffffffffffffffffffffffffff16815260200190815260200160002090508181600001541015610ed7576040517f08c379a0000000000000000000000000000000000000000000000000000000008152600401610ece90613b5a565b60405180910390fd5b81816000016000828254610eeb9190613988565b92505081905550610f3d338360008054906101000a900473ffffffffffffffffffffffffffffffffffffffff1673ffffffffffffffffffffffffffffffffffffffff166127179092919063ffffffff16565b50610f46612796565b50565b60008282810190610f5a9190613b7a565b905060005b600560009054906101000a900463ffffffff1663ffffffff168163ffffffff1610156111e5576000600460008363ffffffff166fffffffffffffffffffffffffffffffff1681526020019081526020016000209050428160020160129054906101000a900463ffffffff1663ffffffff1611158015610fed57508060020160109054906101000a900460ff16155b801561101857507f85301d412c91b5025a99ca488ca39b08d0d436c51cec3bd9ea6e0754d7d1991583145b1561103b5760018160020160106101000a81548160ff0219169083151502179055505b428160020160129054906101000a900463ffffffff1663ffffffff1610801561107e5750428160020160169054906101000a900463ffffffff1663ffffffff1611155b801561109857508060020160109054906101000a900460ff165b80156110b357508060020160119054906101000a900460ff16155b80156110de57507f5766ed171599f7913d5137e7b28bc984eec1a87a30800016278646d1777f82fb83145b156111015760018160020160116101000a81548160ff0219169083151502179055505b8060020160119054906101000a900460ff1680156111455750610e108160020160169054906101000a900463ffffffff1661113c9190613ba7565b63ffffffff1642115b156111d7576000816000018190555060008160020160106101000a81548160ff02191690831515021790555060008160020160116101000a81548160ff02191690831515021790555060008160020160126101000a81548163ffffffff021916908363ffffffff16021790555060008160020160166101000a81548163ffffffff021916908363ffffffff1602179055505b508080600101915050610f5f565b50505050565b6111f36127af565b600160008373ffffffffffffffffffffffffffffffffffffffff1673ffffffffffffffffffffffffffffffffffffffff16815260200190815260200160002060020160149054906101000a900460ff1615611283576040517f08c379a000000000000000000000000000000000000000000000000000000000815260040161127a90613c2b565b60405180910390fd5b6040518060e0016040528060008152602001600081526020018373ffffffffffffffffffffffffffffffffffffffff168152602001600115158152602001600115158152602001600560009054906101000a900463ffffffff1663ffffffff16815260200182815250600160008473ffffffffffffffffffffffffffffffffffffffff1673ffffffffffffffffffffffffffffffffffffffff168152602001908152602001600020600082015181600001556020820151816001015560408201518160020160006101000a81548173ffffffffffffffffffffffffffffffffffffffff021916908373ffffffffffffffffffffffffffffffffffffffff16021790555060608201518160020160146101000a81548160ff02191690831515021790555060808201518160020160156101000a81548160ff02191690831515021790555060a08201518160020160166101000a81548163ffffffff021916908363ffffffff16021790555060c082015181600301559050506001600560008282829054906101000a900463ffffffff1661141c9190613ba7565b92506101000a81548163ffffffff021916908363ffffffff1602179055505050565b60065481565b61144c612c6e565b600260003373ffffffffffffffffffffffffffffffffffffffff1673ffffffffffffffffffffffffffffffffffffffff16815260200190815260200160002060405180606001604052908160008201548152602001600182015481526020016002820160009054906101000a900473ffffffffffffffffffffffffffffffffffffffff1673ffffffffffffffffffffffffffffffffffffffff1673ffffffffffffffffffffffffffffffffffffffff1681525050905090565b60046020528060005260406000206000915090508060000154908060010160009054906101000a900473ffffffffffffffffffffffffffffffffffffffff16908060020160009054906101000a90046fffffffffffffffffffffffffffffffff16908060020160109054906101000a900460ff16908060020160119054906101000a900460ff16908060020160129054906101000a900463ffffffff16908060020160169054906101000a900463ffffffff16905087565b6000606060008060005b600560009054906101000a900463ffffffff1663ffffffff168163ffffffff16101561176a576000600460008363ffffffff166fffffffffffffffffffffffffffffffff1681526020019081526020016000209050428160020160129054906101000a900463ffffffff1663ffffffff161115801561165557508060020160109054906101000a900460ff16155b15611687577f85301d412c91b5025a99ca488ca39b08d0d436c51cec3bd9ea6e0754d7d199159350600192505061176a565b428160020160129054906101000a900463ffffffff1663ffffffff161080156116ca5750428160020160169054906101000a900463ffffffff1663ffffffff1611155b80156116e457508060020160109054906101000a900460ff165b80156116ff57508060020160119054906101000a900460ff16155b801561172a57507f85301d412c91b5025a99ca488ca39b08d0d436c51cec3bd9ea6e0754d7d1991584145b1561175c577f5766ed171599f7913d5137e7b28bc984eec1a87a30800016278646d1777f82fb9350600192505061176a565b5080806001019150506115c7565b508093508160405160200161177f9190613c4b565b604051602081830303815290604052925050509250929050565b6117a16127af565b6117ab6000612836565b565b600560149054906101000a900463ffffffff1681565b600560009054906101000a900463ffffffff1681565b6000806117e461290d565b90508060000160009054906101000a900473ffffffffffffffffffffffffffffffffffffffff1691505090565b60008054906101000a900473ffffffffffffffffffffffffffffffffffffffff1681565b61183d6127af565b60328163ffffffff1610611886576040517f08c379a000000000000000000000000000000000000000000000000000000000815260040161187d90613cb2565b60405180910390fd5b80600560146101000a81548163ffffffff021916908363ffffffff16021790555050565b6118b26126c0565b600081116118f5576040517f08c379a00000000000000000000000000000000000000000000000000000000081526004016118ec90613d1e565b60405180910390fd5b6000600260003373ffffffffffffffffffffffffffffffffffffffff1673ffffffffffffffffffffffffffffffffffffffff168152602001908152602001600020905061198533308460008054906101000a900473ffffffffffffffffffffffffffffffffffffffff1673ffffffffffffffffffffffffffffffffffffffff16612935909392919063ffffffff16565b818160000160008282546119999190613d3e565b92505081905550338160020160006101000a81548173ffffffffffffffffffffffffffffffffffffffff021916908373ffffffffffffffffffffffffffffffffffffffff160217905550506119ec612796565b50565b60006119f96129b7565b905060008160000160089054906101000a900460ff1615905060008260000160009054906101000a900467ffffffffffffffff1690506000808267ffffffffffffffff16148015611a475750825b9050600060018367ffffffffffffffff16148015611a7c575060003073ffffffffffffffffffffffffffffffffffffffff163b145b905081158015611a8a575080155b15611ac1576040517ff92ee8a900000000000000000000000000000000000000000000000000000000815260040160405180910390fd5b60018560000160006101000a81548167ffffffffffffffff021916908367ffffffffffffffff1602179055508315611b115760018560000160086101000a81548160ff0219169083151502179055505b600073ffffffffffffffffffffffffffffffffffffffff168673ffffffffffffffffffffffffffffffffffffffff1603611b80576040517f08c379a0000000000000000000000000000000000000000000000000000000008152600401611b7790613dbe565b60405180910390fd5b611b886129cb565b611b91336129dd565b856000806101000a81548173ffffffffffffffffffffffffffffffffffffffff021916908373ffffffffffffffffffffffffffffffffffffffff1602179055508315611c2d5760008560000160086101000a81548160ff0219169083151502179055507fc7f505b2f371ae2175ee4913f4499e1f2633a7b5936321eed1cdaeb6115181d26001604051611c249190613e2d565b60405180910390a15b505050505050565b60016020528060005260406000206000915090508060000154908060010154908060020160009054906101000a900473ffffffffffffffffffffffffffffffffffffffff16908060020160149054906101000a900460ff16908060020160159054906101000a900460ff16908060020160169054906101000a900463ffffffff16908060030154905087565b611cc96126c0565b6000600260003373ffffffffffffffffffffffffffffffffffffffff1673ffffffffffffffffffffffffffffffffffffffff16815260200190815260200160002090506000600160008673ffffffffffffffffffffffffffffffffffffffff1673ffffffffffffffffffffffffffffffffffffffff168152602001908152602001600020905085826000015411611d95576040517f08c379a0000000000000000000000000000000000000000000000000000000008152600401611d8c90613e94565b60405180910390fd5b600073ffffffffffffffffffffffffffffffffffffffff168573ffffffffffffffffffffffffffffffffffffffff1603611e04576040517f08c379a0000000000000000000000000000000000000000000000000000000008152600401611dfb90613f00565b60405180910390fd5b8060020160149054906101000a900460ff16611e55576040517f08c379a0000000000000000000000000000000000000000000000000000000008152600401611e4c90613861565b60405180910390fd5b8060020160159054906101000a900460ff16611ea6576040517f08c379a0000000000000000000000000000000000000000000000000000000008152600401611e9d906138cd565b60405180910390fd5b60008160010154878460010154611ebd9190613d3e565b1115905060008260010154888560010154611ed89190613d3e565b14905081611f1b576040517f08c379a0000000000000000000000000000000000000000000000000000000008152600401611f1290613f6c565b60405180910390fd5b87846001016000828254611f2f9190613d3e565b925050819055508760066000828254611f489190613d3e565b9250508190555087846000016000828254611f639190613988565b9250508190555087836000016000828254611f7e9190613d3e565b92505081905550604051806101000160405280428152602001898152602001898560010154611fad9190613988565b81526020013373ffffffffffffffffffffffffffffffffffffffff1681526020018873ffffffffffffffffffffffffffffffffffffffff168152602001821515815260200187815260200186815250600360003373ffffffffffffffffffffffffffffffffffffffff1673ffffffffffffffffffffffffffffffffffffffff16815260200190815260200160002060008201518160000155602082015181600101556040820151816002015560608201518160030160006101000a81548173ffffffffffffffffffffffffffffffffffffffff021916908373ffffffffffffffffffffffffffffffffffffffff16021790555060808201518160040160006101000a81548173ffffffffffffffffffffffffffffffffffffffff021916908373ffffffffffffffffffffffffffffffffffffffff16021790555060a08201518160040160146101000a81548160ff02191690831515021790555060c0820151816005015560e08201518160060155905050801561212f57600084600101819055505b5050505061213b612796565b50505050565b60036020528060005260406000206000915090508060000154908060010154908060020154908060030160009054906101000a900473ffffffffffffffffffffffffffffffffffffffff16908060040160009054906101000a900473ffffffffffffffffffffffffffffffffffffffff16908060040160149054906101000a900460ff16908060050154908060060154905088565b6121de6127af565b6000600160008373ffffffffffffffffffffffffffffffffffffffff1673ffffffffffffffffffffffffffffffffffffffff16815260200190815260200160002090508060020160159054906101000a900460ff16612272576040517f08c379a0000000000000000000000000000000000000000000000000000000008152600401612269906138cd565b60405180910390fd5b60008160020160156101000a81548160ff0219169083151502179055505050565b60026020528060005260406000206000915090508060000154908060010154908060020160009054906101000a900473ffffffffffffffffffffffffffffffffffffffff16905083565b6122e5612ca5565b6000600160003373ffffffffffffffffffffffffffffffffffffffff1673ffffffffffffffffffffffffffffffffffffffff16815260200190815260200160002090508060020160149054906101000a900460ff16612379576040517f08c379a0000000000000000000000000000000000000000000000000000000008152600401612370906137f5565b60405180910390fd5b600160008473ffffffffffffffffffffffffffffffffffffffff1673ffffffffffffffffffffffffffffffffffffffff1681526020019081526020016000206040518060e001604052908160008201548152602001600182015481526020016002820160009054906101000a900473ffffffffffffffffffffffffffffffffffffffff1673ffffffffffffffffffffffffffffffffffffffff1673ffffffffffffffffffffffffffffffffffffffff1681526020016002820160149054906101000a900460ff161515151581526020016002820160159054906101000a900460ff161515151581526020016002820160169054906101000a900463ffffffff1663ffffffff1663ffffffff168152602001600382015481525050915050919050565b6124a36127af565b600073ffffffffffffffffffffffffffffffffffffffff168173ffffffffffffffffffffffffffffffffffffffff16036125155760006040517f1e4fbdf700000000000000000000000000000000000000000000000000000000815260040161250c91906133b1565b60405180910390fd5b61251e81612836565b50565b612529612d05565b60046000836fffffffffffffffffffffffffffffffff166fffffffffffffffffffffffffffffffff1681526020019081526020016000206040518060e0016040529081600082015481526020016001820160009054906101000a900473ffffffffffffffffffffffffffffffffffffffff1673ffffffffffffffffffffffffffffffffffffffff1673ffffffffffffffffffffffffffffffffffffffff1681526020016002820160009054906101000a90046fffffffffffffffffffffffffffffffff166fffffffffffffffffffffffffffffffff166fffffffffffffffffffffffffffffffff1681526020016002820160109054906101000a900460ff161515151581526020016002820160119054906101000a900460ff161515151581526020016002820160129054906101000a900463ffffffff1663ffffffff1663ffffffff1681526020016002820160169054906101000a900463ffffffff1663ffffffff1663ffffffff16815250509050919050565b600560049054906101000a90046fffffffffffffffffffffffffffffffff1681565b60006126ca6129f1565b9050600281600001540361270a576040517f3ee5aeb500000000000000000000000000000000000000000000000000000000815260040160405180910390fd5b6002816000018190555050565b612791838473ffffffffffffffffffffffffffffffffffffffff1663a9059cbb858560405160240161274a929190613f8c565b604051602081830303815290604052915060e01b6020820180517bffffffffffffffffffffffffffffffffffffffffffffffffffffffff8381831617835250505050612a19565b505050565b60006127a06129f1565b90506001816000018190555050565b6127b7612abb565b73ffffffffffffffffffffffffffffffffffffffff166127d56117d9565b73ffffffffffffffffffffffffffffffffffffffff1614612834576127f8612abb565b6040517f118cdaa700000000000000000000000000000000000000000000000000000000815260040161282b91906133b1565b60405180910390fd5b565b600061284061290d565b905060008160000160009054906101000a900473ffffffffffffffffffffffffffffffffffffffff169050828260000160006101000a81548173ffffffffffffffffffffffffffffffffffffffff021916908373ffffffffffffffffffffffffffffffffffffffff1602179055508273ffffffffffffffffffffffffffffffffffffffff168173ffffffffffffffffffffffffffffffffffffffff167f8be0079c531659141344cd1fd0a4f28419497f9722a3daafe3b4186f6b6457e060405160405180910390a3505050565b60007f9016d09d72d40fdae2fd8ceac6b6234c7706214fd39c1cd1e609a0528c199300905090565b6129b1848573ffffffffffffffffffffffffffffffffffffffff166323b872dd86868660405160240161296a93929190613fb5565b604051602081830303815290604052915060e01b6020820180517bffffffffffffffffffffffffffffffffffffffffffffffffffffffff8381831617835250505050612a19565b50505050565b6000806129c2612ac3565b90508091505090565b6129d3612aee565b6129db612b2e565b565b6129e5612aee565b6129ee81612b4f565b50565b60007f9b779b17422d0df92223018b32b4d1fa46e071723d6817e2486d003becc55f00905090565b600080602060008451602086016000885af180612a3c576040513d6000823e3d81fd5b3d925060005191505060008214612a57576001811415612a73565b60008473ffffffffffffffffffffffffffffffffffffffff163b145b15612ab557836040517f5274afe7000000000000000000000000000000000000000000000000000000008152600401612aac91906133b1565b60405180910390fd5b50505050565b600033905090565b60007ff0c57e16840df040f15088dc2f81fe391c3923bec73e23a9662efc9c229c6a0060001b905090565b612af6612bd5565b612b2c576040517fd7e6bcf800000000000000000000000000000000000000000000000000000000815260040160405180910390fd5b565b612b36612aee565b6000612b406129f1565b90506001816000018190555050565b612b57612aee565b600073ffffffffffffffffffffffffffffffffffffffff168173ffffffffffffffffffffffffffffffffffffffff1603612bc95760006040517f1e4fbdf7000000000000000000000000000000000000000000000000000000008152600401612bc091906133b1565b60405180910390fd5b612bd281612836565b50565b6000612bdf6129b7565b60000160089054906101000a900460ff16905090565b604051806101000160405280600081526020016000815260200160008152602001600073ffffffffffffffffffffffffffffffffffffffff168152602001600073ffffffffffffffffffffffffffffffffffffffff16815260200160001515815260200160008019168152602001600080191681525090565b60405180606001604052806000815260200160008152602001600073ffffffffffffffffffffffffffffffffffffffff1681525090565b6040518060e001604052806000815260200160008152602001600073ffffffffffffffffffffffffffffffffffffffff168152602001600015158152602001600015158152602001600063ffffffff168152602001600080191681525090565b6040518060e0016040528060008152602001600073ffffffffffffffffffffffffffffffffffffffff16815260200160006fffffffffffffffffffffffffffffffff168152602001600015158152602001600015158152602001600063ffffffff168152602001600063ffffffff1681525090565b600080fd5b600080fd5b600073ffffffffffffffffffffffffffffffffffffffff82169050919050565b6000612daf82612d84565b9050919050565b612dbf81612da4565b8114612dca57600080fd5b50565b600081359050612ddc81612db6565b92915050565b600060208284031215612df857612df7612d7a565b5b6000612e0684828501612dcd565b91505092915050565b6000819050919050565b612e2281612e0f565b82525050565b612e3181612da4565b82525050565b60008115159050919050565b612e4c81612e37565b82525050565b6000819050919050565b612e6581612e52565b82525050565b61010082016000820151612e826000850182612e19565b506020820151612e956020850182612e19565b506040820151612ea86040850182612e19565b506060820151612ebb6060850182612e28565b506080820151612ece6080850182612e28565b5060a0820151612ee160a0850182612e43565b5060c0820151612ef460c0850182612e5c565b5060e0820151612f0760e0850182612e5c565b50505050565b600061010082019050612f236000830184612e6b565b92915050565b612f3281612e0f565b8114612f3d57600080fd5b50565b600081359050612f4f81612f29565b92915050565b600060208284031215612f6b57612f6a612d7a565b5b6000612f7984828501612f40565b91505092915050565b600063ffffffff82169050919050565b612f9b81612f82565b8114612fa657600080fd5b50565b600081359050612fb881612f92565b92915050565b600080600060608486031215612fd757612fd6612d7a565b5b6000612fe586828701612f40565b9350506020612ff686828701612fa9565b925050604061300786828701612fa9565b9150509250925092565b600080fd5b600080fd5b600080fd5b60008083601f84011261303657613035613011565b5b8235905067ffffffffffffffff81111561305357613052613016565b5b60208301915083600182028301111561306f5761306e61301b565b5b9250929050565b6000806020838503121561308d5761308c612d7a565b5b600083013567ffffffffffffffff8111156130ab576130aa612d7f565b5b6130b785828601613020565b92509250509250929050565b6130cc81612e52565b81146130d757600080fd5b50565b6000813590506130e9816130c3565b92915050565b6000806040838503121561310657613105612d7a565b5b600061311485828601612dcd565b9250506020613125858286016130da565b9150509250929050565b61313881612e0f565b82525050565b6000602082019050613153600083018461312f565b92915050565b60608201600082015161316f6000850182612e19565b5060208201516131826020850182612e19565b5060408201516131956040850182612e28565b50505050565b60006060820190506131b06000830184613159565b92915050565b60006fffffffffffffffffffffffffffffffff82169050919050565b6131db816131b6565b81146131e657600080fd5b50565b6000813590506131f8816131d2565b92915050565b60006020828403121561321457613213612d7a565b5b6000613222848285016131e9565b91505092915050565b61323481612da4565b82525050565b613243816131b6565b82525050565b61325281612e37565b82525050565b61326181612f82565b82525050565b600060e08201905061327c600083018a61312f565b613289602083018961322b565b613296604083018861323a565b6132a36060830187613249565b6132b06080830186613249565b6132bd60a0830185613258565b6132ca60c0830184613258565b98975050505050505050565b600081519050919050565b600082825260208201905092915050565b60005b838110156133105780820151818401526020810190506132f5565b60008484015250505050565b6000601f19601f8301169050919050565b6000613338826132d6565b61334281856132e1565b93506133528185602086016132f2565b61335b8161331c565b840191505092915050565b600060408201905061337b6000830185613249565b818103602083015261338d818461332d565b90509392505050565b60006020820190506133ab6000830184613258565b92915050565b60006020820190506133c6600083018461322b565b92915050565b6000819050919050565b60006133f16133ec6133e784612d84565b6133cc565b612d84565b9050919050565b6000613403826133d6565b9050919050565b6000613415826133f8565b9050919050565b6134258161340a565b82525050565b6000602082019050613440600083018461341c565b92915050565b60006020828403121561345c5761345b612d7a565b5b600061346a84828501612fa9565b91505092915050565b61347c81612e52565b82525050565b600060e082019050613497600083018a61312f565b6134a4602083018961312f565b6134b1604083018861322b565b6134be6060830187613249565b6134cb6080830186613249565b6134d860a0830185613258565b6134e560c0830184613473565b98975050505050505050565b6000806000806080858703121561350b5761350a612d7a565b5b600061351987828801612f40565b945050602061352a87828801612dcd565b935050604061353b878288016130da565b925050606061354c878288016130da565b91505092959194509250565b60006101008201905061356e600083018b61312f565b61357b602083018a61312f565b613588604083018961312f565b613595606083018861322b565b6135a2608083018761322b565b6135af60a0830186613249565b6135bc60c0830185613473565b6135c960e0830184613473565b9998505050505050505050565b60006060820190506135eb600083018661312f565b6135f8602083018561312f565b613605604083018461322b565b949350505050565b61361681612f82565b82525050565b60e0820160008201516136326000850182612e19565b5060208201516136456020850182612e19565b5060408201516136586040850182612e28565b50606082015161366b6060850182612e43565b50608082015161367e6080850182612e43565b5060a082015161369160a085018261360d565b5060c08201516136a460c0850182612e5c565b50505050565b600060e0820190506136bf600083018461361c565b92915050565b6136ce816131b6565b82525050565b60e0820160008201516136ea6000850182612e19565b5060208201516136fd6020850182612e28565b50604082015161371060408501826136c5565b5060608201516137236060850182612e43565b5060808201516137366080850182612e43565b5060a082015161374960a085018261360d565b5060c082015161375c60c085018261360d565b50505050565b600060e08201905061377760008301846136d4565b92915050565b6000602082019050613792600083018461323a565b92915050565b600082825260208201905092915050565b7f4e6f742072656769737465726564000000000000000000000000000000000000600082015250565b60006137df600e83613798565b91506137ea826137a9565b602082019050919050565b6000602082019050818103600083015261380e816137d2565b9050919050565b7f556e726567697374657265640000000000000000000000000000000000000000600082015250565b600061384b600c83613798565b915061385682613815565b602082019050919050565b6000602082019050818103600083015261387a8161383e565b9050919050565b7f496e6e6163746976650000000000000000000000000000000000000000000000600082015250565b60006138b7600983613798565b91506138c282613881565b602082019050919050565b600060208201905081810360008301526138e6816138aa565b9050919050565b7f4d75636820616d6f756e74000000000000000000000000000000000000000000600082015250565b6000613923600b83613798565b915061392e826138ed565b602082019050919050565b6000602082019050818103600083015261395281613916565b9050919050565b7f4e487b7100000000000000000000000000000000000000000000000000000000600052601160045260246000fd5b600061399382612e0f565b915061399e83612e0f565b92508282039050818111156139b6576139b5613959565b5b92915050565b60006139c782612e0f565b91506139d283612e0f565b92508282026139e081612e0f565b915082820484148315176139f7576139f6613959565b5b5092915050565b7f4e487b7100000000000000000000000000000000000000000000000000000000600052601260045260246000fd5b6000613a3882612e0f565b9150613a4383612e0f565b925082613a5357613a526139fe565b5b828204905092915050565b7f496e616374697665000000000000000000000000000000000000000000000000600082015250565b6000613a94600883613798565b9150613a9f82613a5e565b602082019050919050565b60006020820190508181036000830152613ac381613a87565b9050919050565b6000613ad5826131b6565b9150613ae0836131b6565b925082820190506fffffffffffffffffffffffffffffffff811115613b0857613b07613959565b5b92915050565b7f4d75636800000000000000000000000000000000000000000000000000000000600082015250565b6000613b44600483613798565b9150613b4f82613b0e565b602082019050919050565b60006020820190508181036000830152613b7381613b37565b9050919050565b600060208284031215613b9057613b8f612d7a565b5b6000613b9e848285016130da565b91505092915050565b6000613bb282612f82565b9150613bbd83612f82565b9250828201905063ffffffff811115613bd957613bd8613959565b5b92915050565b7f5265676973746572656400000000000000000000000000000000000000000000600082015250565b6000613c15600a83613798565b9150613c2082613bdf565b602082019050919050565b60006020820190508181036000830152613c4481613c08565b9050919050565b6000602082019050613c606000830184613473565b92915050565b7f4d75636820666565000000000000000000000000000000000000000000000000600082015250565b6000613c9c600883613798565b9150613ca782613c66565b602082019050919050565b60006020820190508181036000830152613ccb81613c8f565b9050919050565b7f496e76616c6964206465706f7369740000000000000000000000000000000000600082015250565b6000613d08600f83613798565b9150613d1382613cd2565b602082019050919050565b60006020820190508181036000830152613d3781613cfb565b9050919050565b6000613d4982612e0f565b9150613d5483612e0f565b9250828201905080821115613d6c57613d6b613959565b5b92915050565b7f496e76616c696420616464726573730000000000000000000000000000000000600082015250565b6000613da8600f83613798565b9150613db382613d72565b602082019050919050565b60006020820190508181036000830152613dd781613d9b565b9050919050565b6000819050919050565b600067ffffffffffffffff82169050919050565b6000613e17613e12613e0d84613dde565b6133cc565b613de8565b9050919050565b613e2781613dfc565b82525050565b6000602082019050613e426000830184613e1e565b92915050565b7f4c6974746c652062616c616e6365000000000000000000000000000000000000600082015250565b6000613e7e600e83613798565b9150613e8982613e48565b602082019050919050565b60006020820190508181036000830152613ead81613e71565b9050919050565b7f496e76616c6964207363686f6f6c416464720000000000000000000000000000600082015250565b6000613eea601283613798565b9150613ef582613eb4565b602082019050919050565b60006020820190508181036000830152613f1981613edd565b9050919050565b7f52656475636520616d6f756e7400000000000000000000000000000000000000600082015250565b6000613f56600d83613798565b9150613f6182613f20565b602082019050919050565b60006020820190508181036000830152613f8581613f49565b9050919050565b6000604082019050613fa1600083018561322b565b613fae602083018461312f565b9392505050565b6000606082019050613fca600083018661322b565b613fd7602083018561322b565b613fe4604083018461312f565b94935050505056fea26469706673582212205bd42248bcb4ba885979b51bea3bb2a0a60142dff7791ca660b3a6e22de9696664736f6c634300081c0033",
  "linkReferences": {},
  "deployedLinkReferences": {}
}