{
  "_format": "hh-sol-artifact-1",
  "contractName": "Tution",
  "sourceName": "contracts/Tution.sol",
  "abi": [
    {
      "inputs": [],
      "name": "InvalidInitialization",
      "type": "error"
    },
    {
      "inputs": [],
      "name": "NotInitializing",
      "type": "error"
    },
    {
      "inputs": [
        {
          "internalType": "address",
          "name": "owner",
          "type": "address"
        }
      ],
      "name": "OwnableInvalidOwner",
      "type": "error"
    },
    {
      "inputs": [
        {
          "internalType": "address",
          "name": "account",
          "type": "address"
        }
      ],
      "name": "OwnableUnauthorizedAccount",
      "type": "error"
    },
    {
      "inputs": [],
      "name": "ReentrancyGuardReentrantCall",
      "type": "error"
    },
    {
      "inputs": [
        {
          "internalType": "address",
          "name": "token",
          "type": "address"
        }
      ],
      "name": "SafeERC20FailedOperation",
      "type": "error"
    },
    {
      "anonymous": false,
      "inputs": [
        {
          "indexed": false,
          "internalType": "uint64",
          "name": "version",
          "type": "uint64"
        }
      ],
      "name": "Initialized",
      "type": "event"
    },
    {
      "anonymous": false,
      "inputs": [
        {
          "indexed": true,
          "internalType": "address",
          "name": "previousOwner",
          "type": "address"
        },
        {
          "indexed": true,
          "internalType": "address",
          "name": "newOwner",
          "type": "address"
        }
      ],
      "name": "OwnershipTransferred",
      "type": "event"
    },
    {
      "inputs": [
        {
          "internalType": "uint256",
          "name": "_tution",
          "type": "uint256"
        },
        {
          "internalType": "uint32",
          "name": "_start",
          "type": "uint32"
        },
        {
          "internalType": "uint32",
          "name": "_end",
          "type": "uint32"
        }
      ],
      "name": "AcademicTermUpdate",
      "outputs": [],
      "stateMutability": "nonpayable",
      "type": "function"
    },
    {
      "inputs": [
        {
          "internalType": "uint128",
          "name": "",
          "type": "uint128"
        }
      ],
      "name": "academicTerm",
      "outputs": [
        {
          "internalType": "uint256",
          "name": "tution",
          "type": "uint256"
        },
        {
          "internalType": "address",
          "name": "school",
          "type": "address"
        },
        {
          "internalType": "uint128",
          "name": "termId",
          "type": "uint128"
        },
        {
          "internalType": "bool",
          "name": "hasStarted",
          "type": "bool"
        },
        {
          "internalType": "bool",
          "name": "hasEnded",
          "type": "bool"
        },
        {
          "internalType": "uint32",
          "name": "start",
          "type": "uint32"
        },
        {
          "internalType": "uint32",
          "name": "end",
          "type": "uint32"
        }
      ],
      "stateMutability": "view",
      "type": "function"
    },
    {
      "inputs": [
        {
          "internalType": "address",
          "name": "_school",
          "type": "address"
        }
      ],
      "name": "activateSchool",
      "outputs": [],
      "stateMutability": "nonpayable",
      "type": "function"
    },
    {
      "inputs": [
        {
          "internalType": "bytes",
          "name": "",
          "type": "bytes"
        }
      ],
      "name": "checkUpkeep",
      "outputs": [
        {
          "internalType": "bool",
          "name": "upkeepNeeded",
          "type": "bool"
        },
        {
          "internalType": "bytes",
          "name": "performData",
          "type": "bytes"
        }
      ],
      "stateMutability": "view",
      "type": "function"
    },
    {
      "inputs": [
        {
          "internalType": "uint256",
          "name": "_amount",
          "type": "uint256"
        }
      ],
      "name": "clientDeposit",
      "outputs": [],
      "stateMutability": "nonpayable",
      "type": "function"
    },
    {
      "inputs": [
        {
          "internalType": "uint256",
          "name": "_amount",
          "type": "uint256"
        }
      ],
      "name": "clientWithdraw",
      "outputs": [],
      "stateMutability": "nonpayable",
      "type": "function"
    },
    {
      "inputs": [
        {
          "internalType": "address",
          "name": "_school",
          "type": "address"
        }
      ],
      "name": "deactivateSchool",
      "outputs": [],
      "stateMutability": "nonpayable",
      "type": "function"
    },
    {
      "inputs": [],
      "name": "getClient",
      "outputs": [
        {
          "components": [
            {
              "internalType": "uint256",
              "name": "balance",
              "type": "uint256"
            },
            {
              "internalType": "uint256",
              "name": "debts",
              "type": "uint256"
            },
            {
              "internalType": "address",
              "name": "client",
              "type": "address"
            }
          ],
          "internalType": "struct Tution.Payer",
          "name": "",
          "type": "tuple"
        }
      ],
      "stateMutability": "view",
      "type": "function"
    },
    {
      "inputs": [
        {
          "internalType": "address",
          "name": "_user",
          "type": "address"
        }
      ],
      "name": "getReceipt",
      "outputs": [
        {
          "components": [
            {
              "internalType": "uint256",
              "name": "time",
              "type": "uint256"
            },
            {
              "internalType": "uint256",
              "name": "amount",
              "type": "uint256"
            },
            {
              "internalType": "uint256",
              "name": "balance",
              "type": "uint256"
            },
            {
              "internalType": "address",
              "name": "payer",
              "type": "address"
            },
            {
              "internalType": "address",
              "name": "school",
              "type": "address"
            },
            {
              "internalType": "bool",
              "name": "cleared",
              "type": "bool"
            },
            {
              "internalType": "bytes32",
              "name": "student",
              "type": "bytes32"
            },
            {
              "internalType": "bytes32",
              "name": "class",
              "type": "bytes32"
            }
          ],
          "internalType": "struct Tution.Receipt",
          "name": "",
          "type": "tuple"
        }
      ],
      "stateMutability": "view",
      "type": "function"
    },
    {
      "inputs": [
        {
          "internalType": "address",
          "name": "_school",
          "type": "address"
        }
      ],
      "name": "getSchoolInfo",
      "outputs": [
        {
          "components": [
            {
              "internalType": "uint256",
              "name": "balance",
              "type": "uint256"
            },
            {
              "internalType": "uint256",
              "name": "tution",
              "type": "uint256"
            },
            {
              "internalType": "address",
              "name": "school",
              "type": "address"
            },
            {
              "internalType": "bool",
              "name": "isRegistered",
              "type": "bool"
            },
            {
              "internalType": "bool",
              "name": "isActive",
              "type": "bool"
            },
            {
              "internalType": "uint32",
              "name": "schoolId",
              "type": "uint32"
            },
            {
              "internalType": "bytes32",
              "name": "name",
              "type": "bytes32"
            }
          ],
          "internalType": "struct Tution.School",
          "name": "",
          "type": "tuple"
        }
      ],
      "stateMutability": "view",
      "type": "function"
    },
    {
      "inputs": [
        {
          "internalType": "uint128",
          "name": "_termId",
          "type": "uint128"
        }
      ],
      "name": "getacademicTerm",
      "outputs": [
        {
          "components": [
            {
              "internalType": "uint256",
              "name": "tution",
              "type": "uint256"
            },
            {
              "internalType": "address",
              "name": "school",
              "type": "address"
            },
            {
              "internalType": "uint128",
              "name": "termId",
              "type": "uint128"
            },
            {
              "internalType": "bool",
              "name": "hasStarted",
              "type": "bool"
            },
            {
              "internalType": "bool",
              "name": "hasEnded",
              "type": "bool"
            },
            {
              "internalType": "uint32",
              "name": "start",
              "type": "uint32"
            },
            {
              "internalType": "uint32",
              "name": "end",
              "type": "uint32"
            }
          ],
          "internalType": "struct Tution.AcademicTerm",
          "name": "",
          "type": "tuple"
        }
      ],
      "stateMutability": "view",
      "type": "function"
    },
    {
      "inputs": [
        {
          "internalType": "address",
          "name": "_tokenUsed",
          "type": "address"
        }
      ],
      "name": "initialize",
      "outputs": [],
      "stateMutability": "nonpayable",
      "type": "function"
    },
    {
      "inputs": [],
      "name": "newSchoolId",
      "outputs": [
        {
          "internalType": "uint32",
          "name": "",
          "type": "uint32"
        }
      ],
      "stateMutability": "view",
      "type": "function"
    },
    {
      "inputs": [],
      "name": "owner",
      "outputs": [
        {
          "internalType": "address",
          "name": "",
          "type": "address"
        }
      ],
      "stateMutability": "view",
      "type": "function"
    },
    {
      "inputs": [
        {
          "internalType": "address",
          "name": "",
          "type": "address"
        }
      ],
      "name": "payer",
      "outputs": [
        {
          "internalType": "uint256",
          "name": "balance",
          "type": "uint256"
        },
        {
          "internalType": "uint256",
          "name": "debts",
          "type": "uint256"
        },
        {
          "internalType": "address",
          "name": "client",
          "type": "address"
        }
      ],
      "stateMutability": "view",
      "type": "function"
    },
    {
      "inputs": [],
      "name": "percentageFee",
      "outputs": [
        {
          "internalType": "uint32",
          "name": "",
          "type": "uint32"
        }
      ],
      "stateMutability": "view",
      "type": "function"
    },
    {
      "inputs": [
        {
          "internalType": "bytes",
          "name": "performData",
          "type": "bytes"
        }
      ],
      "name": "performUpkeep",
      "outputs": [],
      "stateMutability": "nonpayable",
      "type": "function"
    },
    {
      "inputs": [
        {
          "internalType": "address",
          "name": "",
          "type": "address"
        }
      ],
      "name": "receipt",
      "outputs": [
        {
          "internalType": "uint256",
          "name": "time",
          "type": "uint256"
        },
        {
          "internalType": "uint256",
          "name": "amount",
          "type": "uint256"
        },
        {
          "internalType": "uint256",
          "name": "balance",
          "type": "uint256"
        },
        {
          "internalType": "address",
          "name": "payer",
          "type": "address"
        },
        {
          "internalType": "address",
          "name": "school",
          "type": "address"
        },
        {
          "internalType": "bool",
          "name": "cleared",
          "type": "bool"
        },
        {
          "internalType": "bytes32",
          "name": "student",
          "type": "bytes32"
        },
        {
          "internalType": "bytes32",
          "name": "class",
          "type": "bytes32"
        }
      ],
      "stateMutability": "view",
      "type": "function"
    },
    {
      "inputs": [
        {
          "internalType": "address",
          "name": "_school",
          "type": "address"
        },
        {
          "internalType": "bytes32",
          "name": "_name",
          "type": "bytes32"
        },
        {
          "internalType": "uint256",
          "name": "_tution",
          "type": "uint256"
        }
      ],
      "name": "registerSchool",
      "outputs": [],
      "stateMutability": "nonpayable",
      "type": "function"
    },
    {
      "inputs": [],
      "name": "renounceOwnership",
      "outputs": [],
      "stateMutability": "nonpayable",
      "type": "function"
    },
    {
      "inputs": [
        {
          "internalType": "address",
          "name": "",
          "type": "address"
        }
      ],
      "name": "school",
      "outputs": [
        {
          "internalType": "uint256",
          "name": "balance",
          "type": "uint256"
        },
        {
          "internalType": "uint256",
          "name": "tution",
          "type": "uint256"
        },
        {
          "internalType": "address",
          "name": "school",
          "type": "address"
        },
        {
          "internalType": "bool",
          "name": "isRegistered",
          "type": "bool"
        },
        {
          "internalType": "bool",
          "name": "isActive",
          "type": "bool"
        },
        {
          "internalType": "uint32",
          "name": "schoolId",
          "type": "uint32"
        },
        {
          "internalType": "bytes32",
          "name": "name",
          "type": "bytes32"
        }
      ],
      "stateMutability": "view",
      "type": "function"
    },
    {
      "inputs": [
        {
          "internalType": "uint256",
          "name": "_amount",
          "type": "uint256"
        }
      ],
      "name": "schoolWithdrawal",
      "outputs": [],
      "stateMutability": "nonpayable",
      "type": "function"
    },
    {
      "inputs": [],
      "name": "stableToken",
      "outputs": [
        {
          "internalType": "contract IERC20",
          "name": "",
          "type": "address"
        }
      ],
      "stateMutability": "view",
      "type": "function"
    },
    {
      "inputs": [],
      "name": "termIdBySchool",
      "outputs": [
        {
          "internalType": "uint128",
          "name": "",
          "type": "uint128"
        }
      ],
      "stateMutability": "view",
      "type": "function"
    },
    {
      "inputs": [
        {
          "internalType": "address",
          "name": "newOwner",
          "type": "address"
        }
      ],
      "name": "transferOwnership",
      "outputs": [],
      "stateMutability": "nonpayable",
      "type": "function"
    },
    {
      "inputs": [
        {
          "internalType": "uint256",
          "name": "_amount",
          "type": "uint256"
        },
        {
          "internalType": "address",
          "name": "_school",
          "type": "address"
        },
        {
          "internalType": "bytes32",
          "name": "_student",
          "type": "bytes32"
        },
        {
          "internalType": "bytes32",
          "name": "_class",
          "type": "bytes32"
        }
      ],
      "name": "tutionPayment",
      "outputs": [],
      "stateMutability": "nonpayable",
      "type": "function"
    },
    {
      "inputs": [
        {
          "internalType": "uint32",
          "name": "_percentage",
          "type": "uint32"
        }
      ],
      "name": "updateTxFee",
      "outputs": [],
      "stateMutability": "nonpayable",
      "type": "function"
    }
  ],
  "bytecode": "0x6080604052348015600f57600080fd5b50613ee08061001f6000396000f3fe608060405234801561001057600080fd5b50600436106101a95760003560e01c80638da5cb5b116100f9578063e35e566311610097578063e97e3f1711610071578063e97e3f17146104b8578063f2fde38b146104e8578063f93038ad14610504578063fde345bc14610534576101a9565b8063e35e566314610433578063e42466621461046a578063e5b73e0814610486576101a9565b8063bd53d5cc116100d3578063bd53d5cc146103a9578063c4d66de8146103c5578063c652365c146103e1578063c828559214610417576101a9565b80638da5cb5b14610351578063a9d75b2b1461036f578063baae18921461038d576101a9565b806359dc735c11610166578063715018a611610140578063715018a6146102ef578063780a7ff0146102f95780637866eb0f146103175780638745e11414610335576101a9565b806359dc735c1461026a57806368df7881146102885780636e04ff0d146102be576101a9565b806304562d95146101ae578063065ed3da146101de5780630ab01237146101fa57806329546a35146102165780633a3cd062146102325780634585e33b1461024e575b600080fd5b6101c860048036038101906101c39190612d14565b610552565b6040516101d59190612e3f565b60405180910390f35b6101f860048036038101906101f39190612e87565b6106a5565b005b610214600480360381019061020f9190612d14565b610926565b005b610230600480360381019061022b9190612ef0565b610a34565b005b61024c60048036038101906102479190612e87565b610e0c565b005b61026860048036038101906102639190612fa8565b610f10565b005b6102726111b2565b60405161027f9190613037565b60405180910390f35b6102a2600480360381019061029d919061309a565b611273565b6040516102b59796959493929190613112565b60405180910390f35b6102d860048036038101906102d39190612fa8565b61132b565b6040516102e6929190613211565b60405180910390f35b6102f7611507565b005b61030161151b565b60405161030e9190613241565b60405180910390f35b61031f611531565b60405161032c9190613241565b60405180910390f35b61034f600480360381019061034a9190613288565b611547565b005b61035961179a565b60405161036691906132db565b60405180910390f35b6103776117d2565b6040516103849190613355565b60405180910390f35b6103a760048036038101906103a29190613370565b6117f6565b005b6103c360048036038101906103be9190612e87565b61186b565b005b6103df60048036038101906103da9190612d14565b6119b0565b005b6103fb60048036038101906103f69190612d14565b611bf6565b60405161040e97969594939291906133ac565b60405180910390f35b610431600480360381019061042c919061341b565b611c82565b005b61044d60048036038101906104489190612d14565b612073565b604051610461989796959493929190613482565b60405180910390f35b610484600480360381019061047f9190612d14565b612108565b005b6104a0600480360381019061049b9190612d14565b6121c5565b6040516104af93929190613500565b60405180910390f35b6104d260048036038101906104cd9190612d14565b61220f565b6040516104df91906135d4565b60405180910390f35b61050260048036038101906104fd9190612d14565b6123cd565b005b61051e6004803603810190610519919061309a565b612453565b60405161052b919061368c565b60405180910390f35b61053c6125d0565b60405161054991906136a7565b60405180910390f35b61055a612b27565b600360008373ffffffffffffffffffffffffffffffffffffffff1673ffffffffffffffffffffffffffffffffffffffff168152602001908152602001600020604051806101000160405290816000820154815260200160018201548152602001600282015481526020016003820160009054906101000a900473ffffffffffffffffffffffffffffffffffffffff1673ffffffffffffffffffffffffffffffffffffffff1673ffffffffffffffffffffffffffffffffffffffff1681526020016004820160009054906101000a900473ffffffffffffffffffffffffffffffffffffffff1673ffffffffffffffffffffffffffffffffffffffff1673ffffffffffffffffffffffffffffffffffffffff1681526020016004820160149054906101000a900460ff16151515158152602001600582015481526020016006820154815250509050919050565b6000600160003373ffffffffffffffffffffffffffffffffffffffff1673ffffffffffffffffffffffffffffffffffffffff16815260200190815260200160002090508060020160149054906101000a900460ff16610739576040517f08c379a00000000000000000000000000000000000000000000000000000000081526004016107309061371f565b60405180910390fd5b6107416125f2565b6000600160003373ffffffffffffffffffffffffffffffffffffffff1673ffffffffffffffffffffffffffffffffffffffff16815260200190815260200160002090508060020160149054906101000a900460ff166107d5576040517f08c379a00000000000000000000000000000000000000000000000000000000081526004016107cc9061378b565b60405180910390fd5b8060020160159054906101000a900460ff16610826576040517f08c379a000000000000000000000000000000000000000000000000000000000815260040161081d906137f7565b60405180910390fd5b8281600001541161086c576040517f08c379a000000000000000000000000000000000000000000000000000000000815260040161086390613863565b60405180910390fd5b8281600001600082825461088091906138b2565b9250508190555060006103e8600560149054906101000a900463ffffffff1663ffffffff16856108b091906138e6565b6108ba9190613957565b9050600081856108ca91906138b2565b9050610917338260008054906101000a900473ffffffffffffffffffffffffffffffffffffffff1673ffffffffffffffffffffffffffffffffffffffff166126499092919063ffffffff16565b5050506109226126c8565b5050565b61092e6126e1565b6000600160008373ffffffffffffffffffffffffffffffffffffffff1673ffffffffffffffffffffffffffffffffffffffff16815260200190815260200160002090508060020160149054906101000a900460ff166109c2576040517f08c379a00000000000000000000000000000000000000000000000000000000081526004016109b99061378b565b60405180910390fd5b8060020160159054906101000a900460ff16610a13576040517f08c379a0000000000000000000000000000000000000000000000000000000008152600401610a0a906137f7565b60405180910390fd5b60018160020160156101000a81548160ff0219169083151502179055505050565b6000600160003373ffffffffffffffffffffffffffffffffffffffff1673ffffffffffffffffffffffffffffffffffffffff16815260200190815260200160002090508060020160149054906101000a900460ff16610ac8576040517f08c379a0000000000000000000000000000000000000000000000000000000008152600401610abf9061371f565b60405180910390fd5b6000600160003373ffffffffffffffffffffffffffffffffffffffff1673ffffffffffffffffffffffffffffffffffffffff16815260200190815260200160002090508060020160149054906101000a900460ff16610b5c576040517f08c379a0000000000000000000000000000000000000000000000000000000008152600401610b539061378b565b60405180910390fd5b8060020160159054906101000a900460ff16610bad576040517f08c379a0000000000000000000000000000000000000000000000000000000008152600401610ba4906139d4565b60405180910390fd5b6040518060e001604052808681526020013373ffffffffffffffffffffffffffffffffffffffff168152602001600560049054906101000a90046fffffffffffffffffffffffffffffffff166fffffffffffffffffffffffffffffffff1681526020016000151581526020016000151581526020018563ffffffff1681526020018463ffffffff16815250600460008360020160169054906101000a900463ffffffff1663ffffffff166fffffffffffffffffffffffffffffffff1681526020019081526020016000206000820151816000015560208201518160010160006101000a81548173ffffffffffffffffffffffffffffffffffffffff021916908373ffffffffffffffffffffffffffffffffffffffff16021790555060408201518160020160006101000a8154816fffffffffffffffffffffffffffffffff02191690836fffffffffffffffffffffffffffffffff16021790555060608201518160020160106101000a81548160ff02191690831515021790555060808201518160020160116101000a81548160ff02191690831515021790555060a08201518160020160126101000a81548163ffffffff021916908363ffffffff16021790555060c08201518160020160166101000a81548163ffffffff021916908363ffffffff1602179055509050506001600560048282829054906101000a90046fffffffffffffffffffffffffffffffff16610dc691906139f4565b92506101000a8154816fffffffffffffffffffffffffffffffff02191690836fffffffffffffffffffffffffffffffff1602179055508481600101819055505050505050565b610e146125f2565b6000600260003373ffffffffffffffffffffffffffffffffffffffff1673ffffffffffffffffffffffffffffffffffffffff16815260200190815260200160002090508181600001541015610e9e576040517f08c379a0000000000000000000000000000000000000000000000000000000008152600401610e9590613a84565b60405180910390fd5b81816000016000828254610eb291906138b2565b92505081905550610f04338360008054906101000a900473ffffffffffffffffffffffffffffffffffffffff1673ffffffffffffffffffffffffffffffffffffffff166126499092919063ffffffff16565b50610f0d6126c8565b50565b60008282810190610f219190613aa4565b905060005b600560009054906101000a900463ffffffff1663ffffffff168163ffffffff1610156111ac576000600460008363ffffffff166fffffffffffffffffffffffffffffffff1681526020019081526020016000209050428160020160129054906101000a900463ffffffff1663ffffffff1611158015610fb457508060020160109054906101000a900460ff16155b8015610fdf57507f85301d412c91b5025a99ca488ca39b08d0d436c51cec3bd9ea6e0754d7d1991583145b156110025760018160020160106101000a81548160ff0219169083151502179055505b428160020160129054906101000a900463ffffffff1663ffffffff161080156110455750428160020160169054906101000a900463ffffffff1663ffffffff1611155b801561105f57508060020160109054906101000a900460ff165b801561107a57508060020160119054906101000a900460ff16155b80156110a557507f5766ed171599f7913d5137e7b28bc984eec1a87a30800016278646d1777f82fb83145b156110c85760018160020160116101000a81548160ff0219169083151502179055505b8060020160119054906101000a900460ff16801561110c5750610e108160020160169054906101000a900463ffffffff166111039190613ad1565b63ffffffff1642115b1561119e576000816000018190555060008160020160106101000a81548160ff02191690831515021790555060008160020160116101000a81548160ff02191690831515021790555060008160020160126101000a81548163ffffffff021916908363ffffffff16021790555060008160020160166101000a81548163ffffffff021916908363ffffffff1602179055505b508080600101915050610f26565b50505050565b6111ba612ba0565b600260003373ffffffffffffffffffffffffffffffffffffffff1673ffffffffffffffffffffffffffffffffffffffff16815260200190815260200160002060405180606001604052908160008201548152602001600182015481526020016002820160009054906101000a900473ffffffffffffffffffffffffffffffffffffffff1673ffffffffffffffffffffffffffffffffffffffff1673ffffffffffffffffffffffffffffffffffffffff1681525050905090565b60046020528060005260406000206000915090508060000154908060010160009054906101000a900473ffffffffffffffffffffffffffffffffffffffff16908060020160009054906101000a90046fffffffffffffffffffffffffffffffff16908060020160109054906101000a900460ff16908060020160119054906101000a900460ff16908060020160129054906101000a900463ffffffff16908060020160169054906101000a900463ffffffff16905087565b6000606060008060005b600560009054906101000a900463ffffffff1663ffffffff168163ffffffff1610156114d8576000600460008363ffffffff166fffffffffffffffffffffffffffffffff1681526020019081526020016000209050428160020160129054906101000a900463ffffffff1663ffffffff16111580156113c357508060020160109054906101000a900460ff16155b156113f5577f85301d412c91b5025a99ca488ca39b08d0d436c51cec3bd9ea6e0754d7d19915935060019250506114d8565b428160020160129054906101000a900463ffffffff1663ffffffff161080156114385750428160020160169054906101000a900463ffffffff1663ffffffff1611155b801561145257508060020160109054906101000a900460ff165b801561146d57508060020160119054906101000a900460ff16155b801561149857507f626567696e5465726d000000000000000000000000000000000000000000000084145b156114ca577f5766ed171599f7913d5137e7b28bc984eec1a87a30800016278646d1777f82fb935060019250506114d8565b508080600101915050611335565b50809350816040516020016114ed9190613b09565b604051602081830303815290604052925050509250929050565b61150f6126e1565b6115196000612768565b565b600560149054906101000a900463ffffffff1681565b600560009054906101000a900463ffffffff1681565b61154f6126e1565b600160008473ffffffffffffffffffffffffffffffffffffffff1673ffffffffffffffffffffffffffffffffffffffff16815260200190815260200160002060020160149054906101000a900460ff16156115df576040517f08c379a00000000000000000000000000000000000000000000000000000000081526004016115d690613b70565b60405180910390fd5b6040518060e00160405280600081526020018281526020018473ffffffffffffffffffffffffffffffffffffffff168152602001600115158152602001600115158152602001600560009054906101000a900463ffffffff1663ffffffff16815260200183815250600160008573ffffffffffffffffffffffffffffffffffffffff1673ffffffffffffffffffffffffffffffffffffffff168152602001908152602001600020600082015181600001556020820151816001015560408201518160020160006101000a81548173ffffffffffffffffffffffffffffffffffffffff021916908373ffffffffffffffffffffffffffffffffffffffff16021790555060608201518160020160146101000a81548160ff02191690831515021790555060808201518160020160156101000a81548160ff02191690831515021790555060a08201518160020160166101000a81548163ffffffff021916908363ffffffff16021790555060c082015181600301559050506001600560008282829054906101000a900463ffffffff166117779190613ad1565b92506101000a81548163ffffffff021916908363ffffffff160217905550505050565b6000806117a561283f565b90508060000160009054906101000a900473ffffffffffffffffffffffffffffffffffffffff1691505090565b60008054906101000a900473ffffffffffffffffffffffffffffffffffffffff1681565b6117fe6126e1565b60328163ffffffff1610611847576040517f08c379a000000000000000000000000000000000000000000000000000000000815260040161183e90613bdc565b60405180910390fd5b80600560146101000a81548163ffffffff021916908363ffffffff16021790555050565b6118736125f2565b600081116118b6576040517f08c379a00000000000000000000000000000000000000000000000000000000081526004016118ad90613c48565b60405180910390fd5b6000600260003373ffffffffffffffffffffffffffffffffffffffff1673ffffffffffffffffffffffffffffffffffffffff168152602001908152602001600020905061194633308460008054906101000a900473ffffffffffffffffffffffffffffffffffffffff1673ffffffffffffffffffffffffffffffffffffffff16612867909392919063ffffffff16565b8181600001600082825461195a9190613c68565b92505081905550338160020160006101000a81548173ffffffffffffffffffffffffffffffffffffffff021916908373ffffffffffffffffffffffffffffffffffffffff160217905550506119ad6126c8565b50565b60006119ba6128e9565b905060008160000160089054906101000a900460ff1615905060008260000160009054906101000a900467ffffffffffffffff1690506000808267ffffffffffffffff16148015611a085750825b9050600060018367ffffffffffffffff16148015611a3d575060003073ffffffffffffffffffffffffffffffffffffffff163b145b905081158015611a4b575080155b15611a82576040517ff92ee8a900000000000000000000000000000000000000000000000000000000815260040160405180910390fd5b60018560000160006101000a81548167ffffffffffffffff021916908367ffffffffffffffff1602179055508315611ad25760018560000160086101000a81548160ff0219169083151502179055505b600073ffffffffffffffffffffffffffffffffffffffff168673ffffffffffffffffffffffffffffffffffffffff1603611b41576040517f08c379a0000000000000000000000000000000000000000000000000000000008152600401611b3890613ce8565b60405180910390fd5b611b496128fd565b611b523361290f565b856000806101000a81548173ffffffffffffffffffffffffffffffffffffffff021916908373ffffffffffffffffffffffffffffffffffffffff1602179055508315611bee5760008560000160086101000a81548160ff0219169083151502179055507fc7f505b2f371ae2175ee4913f4499e1f2633a7b5936321eed1cdaeb6115181d26001604051611be59190613d57565b60405180910390a15b505050505050565b60016020528060005260406000206000915090508060000154908060010154908060020160009054906101000a900473ffffffffffffffffffffffffffffffffffffffff16908060020160149054906101000a900460ff16908060020160159054906101000a900460ff16908060020160169054906101000a900463ffffffff16908060030154905087565b611c8a6125f2565b6000600260003373ffffffffffffffffffffffffffffffffffffffff1673ffffffffffffffffffffffffffffffffffffffff16815260200190815260200160002090506000600160008673ffffffffffffffffffffffffffffffffffffffff1673ffffffffffffffffffffffffffffffffffffffff168152602001908152602001600020905085826000015411611d56576040517f08c379a0000000000000000000000000000000000000000000000000000000008152600401611d4d90613dbe565b60405180910390fd5b600073ffffffffffffffffffffffffffffffffffffffff168573ffffffffffffffffffffffffffffffffffffffff1603611dc5576040517f08c379a0000000000000000000000000000000000000000000000000000000008152600401611dbc90613e2a565b60405180910390fd5b8060020160149054906101000a900460ff16611e16576040517f08c379a0000000000000000000000000000000000000000000000000000000008152600401611e0d9061378b565b60405180910390fd5b8060020160159054906101000a900460ff16611e67576040517f08c379a0000000000000000000000000000000000000000000000000000000008152600401611e5e906137f7565b60405180910390fd5b85826000016000828254611e7b91906138b2565b9250508190555085816000016000828254611e969190613c68565b92505081905550858160010154611ead91906138b2565b8260010181905550604051806101000160405280428152602001878152602001878360010154611edd91906138b2565b81526020013373ffffffffffffffffffffffffffffffffffffffff1681526020018673ffffffffffffffffffffffffffffffffffffffff1681526020018260010154881015611f2d576000611f30565b60015b1515815260200185815260200184815250600360003373ffffffffffffffffffffffffffffffffffffffff1673ffffffffffffffffffffffffffffffffffffffff16815260200190815260200160002060008201518160000155602082015181600101556040820151816002015560608201518160030160006101000a81548173ffffffffffffffffffffffffffffffffffffffff021916908373ffffffffffffffffffffffffffffffffffffffff16021790555060808201518160040160006101000a81548173ffffffffffffffffffffffffffffffffffffffff021916908373ffffffffffffffffffffffffffffffffffffffff16021790555060a08201518160040160146101000a81548160ff02191690831515021790555060c0820151816005015560e08201518160060155905050505061206d6126c8565b50505050565b60036020528060005260406000206000915090508060000154908060010154908060020154908060030160009054906101000a900473ffffffffffffffffffffffffffffffffffffffff16908060040160009054906101000a900473ffffffffffffffffffffffffffffffffffffffff16908060040160149054906101000a900460ff16908060050154908060060154905088565b6121106126e1565b6000600160008373ffffffffffffffffffffffffffffffffffffffff1673ffffffffffffffffffffffffffffffffffffffff16815260200190815260200160002090508060020160159054906101000a900460ff166121a4576040517f08c379a000000000000000000000000000000000000000000000000000000000815260040161219b906137f7565b60405180910390fd5b60008160020160156101000a81548160ff0219169083151502179055505050565b60026020528060005260406000206000915090508060000154908060010154908060020160009054906101000a900473ffffffffffffffffffffffffffffffffffffffff16905083565b612217612bd7565b6000600160003373ffffffffffffffffffffffffffffffffffffffff1673ffffffffffffffffffffffffffffffffffffffff16815260200190815260200160002090508060020160149054906101000a900460ff166122ab576040517f08c379a00000000000000000000000000000000000000000000000000000000081526004016122a29061371f565b60405180910390fd5b600160008473ffffffffffffffffffffffffffffffffffffffff1673ffffffffffffffffffffffffffffffffffffffff1681526020019081526020016000206040518060e001604052908160008201548152602001600182015481526020016002820160009054906101000a900473ffffffffffffffffffffffffffffffffffffffff1673ffffffffffffffffffffffffffffffffffffffff1673ffffffffffffffffffffffffffffffffffffffff1681526020016002820160149054906101000a900460ff161515151581526020016002820160159054906101000a900460ff161515151581526020016002820160169054906101000a900463ffffffff1663ffffffff1663ffffffff168152602001600382015481525050915050919050565b6123d56126e1565b600073ffffffffffffffffffffffffffffffffffffffff168173ffffffffffffffffffffffffffffffffffffffff16036124475760006040517f1e4fbdf700000000000000000000000000000000000000000000000000000000815260040161243e91906132db565b60405180910390fd5b61245081612768565b50565b61245b612c37565b60046000836fffffffffffffffffffffffffffffffff166fffffffffffffffffffffffffffffffff1681526020019081526020016000206040518060e0016040529081600082015481526020016001820160009054906101000a900473ffffffffffffffffffffffffffffffffffffffff1673ffffffffffffffffffffffffffffffffffffffff1673ffffffffffffffffffffffffffffffffffffffff1681526020016002820160009054906101000a90046fffffffffffffffffffffffffffffffff166fffffffffffffffffffffffffffffffff166fffffffffffffffffffffffffffffffff1681526020016002820160109054906101000a900460ff161515151581526020016002820160119054906101000a900460ff161515151581526020016002820160129054906101000a900463ffffffff1663ffffffff1663ffffffff1681526020016002820160169054906101000a900463ffffffff1663ffffffff1663ffffffff16815250509050919050565b600560049054906101000a90046fffffffffffffffffffffffffffffffff1681565b60006125fc612923565b9050600281600001540361263c576040517f3ee5aeb500000000000000000000000000000000000000000000000000000000815260040160405180910390fd5b6002816000018190555050565b6126c3838473ffffffffffffffffffffffffffffffffffffffff1663a9059cbb858560405160240161267c929190613e4a565b604051602081830303815290604052915060e01b6020820180517bffffffffffffffffffffffffffffffffffffffffffffffffffffffff838183161783525050505061294b565b505050565b60006126d2612923565b90506001816000018190555050565b6126e96129ed565b73ffffffffffffffffffffffffffffffffffffffff1661270761179a565b73ffffffffffffffffffffffffffffffffffffffff16146127665761272a6129ed565b6040517f118cdaa700000000000000000000000000000000000000000000000000000000815260040161275d91906132db565b60405180910390fd5b565b600061277261283f565b905060008160000160009054906101000a900473ffffffffffffffffffffffffffffffffffffffff169050828260000160006101000a81548173ffffffffffffffffffffffffffffffffffffffff021916908373ffffffffffffffffffffffffffffffffffffffff1602179055508273ffffffffffffffffffffffffffffffffffffffff168173ffffffffffffffffffffffffffffffffffffffff167f8be0079c531659141344cd1fd0a4f28419497f9722a3daafe3b4186f6b6457e060405160405180910390a3505050565b60007f9016d09d72d40fdae2fd8ceac6b6234c7706214fd39c1cd1e609a0528c199300905090565b6128e3848573ffffffffffffffffffffffffffffffffffffffff166323b872dd86868660405160240161289c93929190613e73565b604051602081830303815290604052915060e01b6020820180517bffffffffffffffffffffffffffffffffffffffffffffffffffffffff838183161783525050505061294b565b50505050565b6000806128f46129f5565b90508091505090565b612905612a20565b61290d612a60565b565b612917612a20565b61292081612a81565b50565b60007f9b779b17422d0df92223018b32b4d1fa46e071723d6817e2486d003becc55f00905090565b600080602060008451602086016000885af18061296e576040513d6000823e3d81fd5b3d9250600051915050600082146129895760018114156129a5565b60008473ffffffffffffffffffffffffffffffffffffffff163b145b156129e757836040517f5274afe70000000000000000000000000000000000000000000000000000000081526004016129de91906132db565b60405180910390fd5b50505050565b600033905090565b60007ff0c57e16840df040f15088dc2f81fe391c3923bec73e23a9662efc9c229c6a0060001b905090565b612a28612b07565b612a5e576040517fd7e6bcf800000000000000000000000000000000000000000000000000000000815260040160405180910390fd5b565b612a68612a20565b6000612a72612923565b90506001816000018190555050565b612a89612a20565b600073ffffffffffffffffffffffffffffffffffffffff168173ffffffffffffffffffffffffffffffffffffffff1603612afb5760006040517f1e4fbdf7000000000000000000000000000000000000000000000000000000008152600401612af291906132db565b60405180910390fd5b612b0481612768565b50565b6000612b116128e9565b60000160089054906101000a900460ff16905090565b604051806101000160405280600081526020016000815260200160008152602001600073ffffffffffffffffffffffffffffffffffffffff168152602001600073ffffffffffffffffffffffffffffffffffffffff16815260200160001515815260200160008019168152602001600080191681525090565b60405180606001604052806000815260200160008152602001600073ffffffffffffffffffffffffffffffffffffffff1681525090565b6040518060e001604052806000815260200160008152602001600073ffffffffffffffffffffffffffffffffffffffff168152602001600015158152602001600015158152602001600063ffffffff168152602001600080191681525090565b6040518060e0016040528060008152602001600073ffffffffffffffffffffffffffffffffffffffff16815260200160006fffffffffffffffffffffffffffffffff168152602001600015158152602001600015158152602001600063ffffffff168152602001600063ffffffff1681525090565b600080fd5b600080fd5b600073ffffffffffffffffffffffffffffffffffffffff82169050919050565b6000612ce182612cb6565b9050919050565b612cf181612cd6565b8114612cfc57600080fd5b50565b600081359050612d0e81612ce8565b92915050565b600060208284031215612d2a57612d29612cac565b5b6000612d3884828501612cff565b91505092915050565b6000819050919050565b612d5481612d41565b82525050565b612d6381612cd6565b82525050565b60008115159050919050565b612d7e81612d69565b82525050565b6000819050919050565b612d9781612d84565b82525050565b61010082016000820151612db46000850182612d4b565b506020820151612dc76020850182612d4b565b506040820151612dda6040850182612d4b565b506060820151612ded6060850182612d5a565b506080820151612e006080850182612d5a565b5060a0820151612e1360a0850182612d75565b5060c0820151612e2660c0850182612d8e565b5060e0820151612e3960e0850182612d8e565b50505050565b600061010082019050612e556000830184612d9d565b92915050565b612e6481612d41565b8114612e6f57600080fd5b50565b600081359050612e8181612e5b565b92915050565b600060208284031215612e9d57612e9c612cac565b5b6000612eab84828501612e72565b91505092915050565b600063ffffffff82169050919050565b612ecd81612eb4565b8114612ed857600080fd5b50565b600081359050612eea81612ec4565b92915050565b600080600060608486031215612f0957612f08612cac565b5b6000612f1786828701612e72565b9350506020612f2886828701612edb565b9250506040612f3986828701612edb565b9150509250925092565b600080fd5b600080fd5b600080fd5b60008083601f840112612f6857612f67612f43565b5b8235905067ffffffffffffffff811115612f8557612f84612f48565b5b602083019150836001820283011115612fa157612fa0612f4d565b5b9250929050565b60008060208385031215612fbf57612fbe612cac565b5b600083013567ffffffffffffffff811115612fdd57612fdc612cb1565b5b612fe985828601612f52565b92509250509250929050565b60608201600082015161300b6000850182612d4b565b50602082015161301e6020850182612d4b565b5060408201516130316040850182612d5a565b50505050565b600060608201905061304c6000830184612ff5565b92915050565b60006fffffffffffffffffffffffffffffffff82169050919050565b61307781613052565b811461308257600080fd5b50565b6000813590506130948161306e565b92915050565b6000602082840312156130b0576130af612cac565b5b60006130be84828501613085565b91505092915050565b6130d081612d41565b82525050565b6130df81612cd6565b82525050565b6130ee81613052565b82525050565b6130fd81612d69565b82525050565b61310c81612eb4565b82525050565b600060e082019050613127600083018a6130c7565b61313460208301896130d6565b61314160408301886130e5565b61314e60608301876130f4565b61315b60808301866130f4565b61316860a0830185613103565b61317560c0830184613103565b98975050505050505050565b600081519050919050565b600082825260208201905092915050565b60005b838110156131bb5780820151818401526020810190506131a0565b60008484015250505050565b6000601f19601f8301169050919050565b60006131e382613181565b6131ed818561318c565b93506131fd81856020860161319d565b613206816131c7565b840191505092915050565b600060408201905061322660008301856130f4565b818103602083015261323881846131d8565b90509392505050565b60006020820190506132566000830184613103565b92915050565b61326581612d84565b811461327057600080fd5b50565b6000813590506132828161325c565b92915050565b6000806000606084860312156132a1576132a0612cac565b5b60006132af86828701612cff565b93505060206132c086828701613273565b92505060406132d186828701612e72565b9150509250925092565b60006020820190506132f060008301846130d6565b92915050565b6000819050919050565b600061331b61331661331184612cb6565b6132f6565b612cb6565b9050919050565b600061332d82613300565b9050919050565b600061333f82613322565b9050919050565b61334f81613334565b82525050565b600060208201905061336a6000830184613346565b92915050565b60006020828403121561338657613385612cac565b5b600061339484828501612edb565b91505092915050565b6133a681612d84565b82525050565b600060e0820190506133c1600083018a6130c7565b6133ce60208301896130c7565b6133db60408301886130d6565b6133e860608301876130f4565b6133f560808301866130f4565b61340260a0830185613103565b61340f60c083018461339d565b98975050505050505050565b6000806000806080858703121561343557613434612cac565b5b600061344387828801612e72565b945050602061345487828801612cff565b935050604061346587828801613273565b925050606061347687828801613273565b91505092959194509250565b600061010082019050613498600083018b6130c7565b6134a5602083018a6130c7565b6134b260408301896130c7565b6134bf60608301886130d6565b6134cc60808301876130d6565b6134d960a08301866130f4565b6134e660c083018561339d565b6134f360e083018461339d565b9998505050505050505050565b600060608201905061351560008301866130c7565b61352260208301856130c7565b61352f60408301846130d6565b949350505050565b61354081612eb4565b82525050565b60e08201600082015161355c6000850182612d4b565b50602082015161356f6020850182612d4b565b5060408201516135826040850182612d5a565b5060608201516135956060850182612d75565b5060808201516135a86080850182612d75565b5060a08201516135bb60a0850182613537565b5060c08201516135ce60c0850182612d8e565b50505050565b600060e0820190506135e96000830184613546565b92915050565b6135f881613052565b82525050565b60e0820160008201516136146000850182612d4b565b5060208201516136276020850182612d5a565b50604082015161363a60408501826135ef565b50606082015161364d6060850182612d75565b5060808201516136606080850182612d75565b5060a082015161367360a0850182613537565b5060c082015161368660c0850182613537565b50505050565b600060e0820190506136a160008301846135fe565b92915050565b60006020820190506136bc60008301846130e5565b92915050565b600082825260208201905092915050565b7f4e6f742072656769737465726564000000000000000000000000000000000000600082015250565b6000613709600e836136c2565b9150613714826136d3565b602082019050919050565b60006020820190508181036000830152613738816136fc565b9050919050565b7f556e726567697374657265640000000000000000000000000000000000000000600082015250565b6000613775600c836136c2565b91506137808261373f565b602082019050919050565b600060208201905081810360008301526137a481613768565b9050919050565b7f496e6e6163746976650000000000000000000000000000000000000000000000600082015250565b60006137e16009836136c2565b91506137ec826137ab565b602082019050919050565b60006020820190508181036000830152613810816137d4565b9050919050565b7f4d75636820616d6f756e74000000000000000000000000000000000000000000600082015250565b600061384d600b836136c2565b915061385882613817565b602082019050919050565b6000602082019050818103600083015261387c81613840565b9050919050565b7f4e487b7100000000000000000000000000000000000000000000000000000000600052601160045260246000fd5b60006138bd82612d41565b91506138c883612d41565b92508282039050818111156138e0576138df613883565b5b92915050565b60006138f182612d41565b91506138fc83612d41565b925082820261390a81612d41565b9150828204841483151761392157613920613883565b5b5092915050565b7f4e487b7100000000000000000000000000000000000000000000000000000000600052601260045260246000fd5b600061396282612d41565b915061396d83612d41565b92508261397d5761397c613928565b5b828204905092915050565b7f496e616374697665000000000000000000000000000000000000000000000000600082015250565b60006139be6008836136c2565b91506139c982613988565b602082019050919050565b600060208201905081810360008301526139ed816139b1565b9050919050565b60006139ff82613052565b9150613a0a83613052565b925082820190506fffffffffffffffffffffffffffffffff811115613a3257613a31613883565b5b92915050565b7f4d75636800000000000000000000000000000000000000000000000000000000600082015250565b6000613a6e6004836136c2565b9150613a7982613a38565b602082019050919050565b60006020820190508181036000830152613a9d81613a61565b9050919050565b600060208284031215613aba57613ab9612cac565b5b6000613ac884828501613273565b91505092915050565b6000613adc82612eb4565b9150613ae783612eb4565b9250828201905063ffffffff811115613b0357613b02613883565b5b92915050565b6000602082019050613b1e600083018461339d565b92915050565b7f5265676973746572656400000000000000000000000000000000000000000000600082015250565b6000613b5a600a836136c2565b9150613b6582613b24565b602082019050919050565b60006020820190508181036000830152613b8981613b4d565b9050919050565b7f4d75636820666565000000000000000000000000000000000000000000000000600082015250565b6000613bc66008836136c2565b9150613bd182613b90565b602082019050919050565b60006020820190508181036000830152613bf581613bb9565b9050919050565b7f496e76616c6964206465706f7369740000000000000000000000000000000000600082015250565b6000613c32600f836136c2565b9150613c3d82613bfc565b602082019050919050565b60006020820190508181036000830152613c6181613c25565b9050919050565b6000613c7382612d41565b9150613c7e83612d41565b9250828201905080821115613c9657613c95613883565b5b92915050565b7f496e76616c696420616464726573730000000000000000000000000000000000600082015250565b6000613cd2600f836136c2565b9150613cdd82613c9c565b602082019050919050565b60006020820190508181036000830152613d0181613cc5565b9050919050565b6000819050919050565b600067ffffffffffffffff82169050919050565b6000613d41613d3c613d3784613d08565b6132f6565b613d12565b9050919050565b613d5181613d26565b82525050565b6000602082019050613d6c6000830184613d48565b92915050565b7f4c6974746c652062616c616e6365000000000000000000000000000000000000600082015250565b6000613da8600e836136c2565b9150613db382613d72565b602082019050919050565b60006020820190508181036000830152613dd781613d9b565b9050919050565b7f496e76616c6964207363686f6f6c416464720000000000000000000000000000600082015250565b6000613e146012836136c2565b9150613e1f82613dde565b602082019050919050565b60006020820190508181036000830152613e4381613e07565b9050919050565b6000604082019050613e5f60008301856130d6565b613e6c60208301846130c7565b9392505050565b6000606082019050613e8860008301866130d6565b613e9560208301856130d6565b613ea260408301846130c7565b94935050505056fea26469706673582212201dfa2fedb93da30f98efd5b24dd37e6be4248a14c859657c03585ed6fe50ae9d64736f6c634300081c0033",
  "linkReferences": {},
  "deployedLinkReferences": {}
}