{
  "_format": "hh-sol-artifact-1",
  "contractName": "Tution",
  "sourceName": "contracts/Tution.sol",
  "abi": [
    {
      "inputs": [],
      "name": "InvalidInitialization",
      "type": "error"
    },
    {
      "inputs": [],
      "name": "NotInitializing",
      "type": "error"
    },
    {
      "inputs": [
        {
          "internalType": "address",
          "name": "owner",
          "type": "address"
        }
      ],
      "name": "OwnableInvalidOwner",
      "type": "error"
    },
    {
      "inputs": [
        {
          "internalType": "address",
          "name": "account",
          "type": "address"
        }
      ],
      "name": "OwnableUnauthorizedAccount",
      "type": "error"
    },
    {
      "inputs": [],
      "name": "ReentrancyGuardReentrantCall",
      "type": "error"
    },
    {
      "inputs": [
        {
          "internalType": "address",
          "name": "token",
          "type": "address"
        }
      ],
      "name": "SafeERC20FailedOperation",
      "type": "error"
    },
    {
      "anonymous": false,
      "inputs": [
        {
          "indexed": false,
          "internalType": "uint64",
          "name": "version",
          "type": "uint64"
        }
      ],
      "name": "Initialized",
      "type": "event"
    },
    {
      "anonymous": false,
      "inputs": [
        {
          "indexed": true,
          "internalType": "address",
          "name": "previousOwner",
          "type": "address"
        },
        {
          "indexed": true,
          "internalType": "address",
          "name": "newOwner",
          "type": "address"
        }
      ],
      "name": "OwnershipTransferred",
      "type": "event"
    },
    {
      "inputs": [
        {
          "internalType": "uint256",
          "name": "_tution",
          "type": "uint256"
        },
        {
          "internalType": "uint32",
          "name": "_start",
          "type": "uint32"
        },
        {
          "internalType": "uint32",
          "name": "_end",
          "type": "uint32"
        }
      ],
      "name": "AcademicTermUpdate",
      "outputs": [],
      "stateMutability": "nonpayable",
      "type": "function"
    },
    {
      "inputs": [
        {
          "internalType": "uint128",
          "name": "",
          "type": "uint128"
        }
      ],
      "name": "academicTerm",
      "outputs": [
        {
          "internalType": "uint256",
          "name": "tution",
          "type": "uint256"
        },
        {
          "internalType": "address",
          "name": "school",
          "type": "address"
        },
        {
          "internalType": "uint128",
          "name": "termId",
          "type": "uint128"
        },
        {
          "internalType": "bool",
          "name": "hasStarted",
          "type": "bool"
        },
        {
          "internalType": "bool",
          "name": "hasEnded",
          "type": "bool"
        },
        {
          "internalType": "uint32",
          "name": "start",
          "type": "uint32"
        },
        {
          "internalType": "uint32",
          "name": "end",
          "type": "uint32"
        }
      ],
      "stateMutability": "view",
      "type": "function"
    },
    {
      "inputs": [
        {
          "internalType": "address",
          "name": "_school",
          "type": "address"
        }
      ],
      "name": "activateSchool",
      "outputs": [],
      "stateMutability": "nonpayable",
      "type": "function"
    },
    {
      "inputs": [
        {
          "internalType": "bytes",
          "name": "",
          "type": "bytes"
        }
      ],
      "name": "checkUpkeep",
      "outputs": [
        {
          "internalType": "bool",
          "name": "upkeepNeeded",
          "type": "bool"
        },
        {
          "internalType": "bytes",
          "name": "performData",
          "type": "bytes"
        }
      ],
      "stateMutability": "view",
      "type": "function"
    },
    {
      "inputs": [
        {
          "internalType": "uint256",
          "name": "_amount",
          "type": "uint256"
        }
      ],
      "name": "clientDeposit",
      "outputs": [],
      "stateMutability": "nonpayable",
      "type": "function"
    },
    {
      "inputs": [
        {
          "internalType": "uint256",
          "name": "_amount",
          "type": "uint256"
        }
      ],
      "name": "clientWithdraw",
      "outputs": [],
      "stateMutability": "nonpayable",
      "type": "function"
    },
    {
      "inputs": [
        {
          "internalType": "address",
          "name": "_school",
          "type": "address"
        }
      ],
      "name": "deactivateSchool",
      "outputs": [],
      "stateMutability": "nonpayable",
      "type": "function"
    },
    {
      "inputs": [],
      "name": "getClient",
      "outputs": [
        {
          "components": [
            {
              "internalType": "uint256",
              "name": "balance",
              "type": "uint256"
            },
            {
              "internalType": "uint256",
              "name": "debts",
              "type": "uint256"
            },
            {
              "internalType": "address",
              "name": "client",
              "type": "address"
            }
          ],
          "internalType": "struct Tution.Payer",
          "name": "",
          "type": "tuple"
        }
      ],
      "stateMutability": "view",
      "type": "function"
    },
    {
      "inputs": [
        {
          "internalType": "address",
          "name": "_user",
          "type": "address"
        }
      ],
      "name": "getReceipt",
      "outputs": [
        {
          "components": [
            {
              "internalType": "uint256",
              "name": "time",
              "type": "uint256"
            },
            {
              "internalType": "uint256",
              "name": "amount",
              "type": "uint256"
            },
            {
              "internalType": "uint256",
              "name": "balance",
              "type": "uint256"
            },
            {
              "internalType": "address",
              "name": "payer",
              "type": "address"
            },
            {
              "internalType": "address",
              "name": "school",
              "type": "address"
            },
            {
              "internalType": "bool",
              "name": "cleared",
              "type": "bool"
            },
            {
              "internalType": "bytes32",
              "name": "student",
              "type": "bytes32"
            },
            {
              "internalType": "bytes32",
              "name": "class",
              "type": "bytes32"
            }
          ],
          "internalType": "struct Tution.Receipt",
          "name": "",
          "type": "tuple"
        }
      ],
      "stateMutability": "view",
      "type": "function"
    },
    {
      "inputs": [
        {
          "internalType": "address",
          "name": "_school",
          "type": "address"
        }
      ],
      "name": "getSchoolInfo",
      "outputs": [
        {
          "components": [
            {
              "internalType": "uint256",
              "name": "balance",
              "type": "uint256"
            },
            {
              "internalType": "uint256",
              "name": "tution",
              "type": "uint256"
            },
            {
              "internalType": "address",
              "name": "school",
              "type": "address"
            },
            {
              "internalType": "bool",
              "name": "isRegistered",
              "type": "bool"
            },
            {
              "internalType": "bool",
              "name": "isActive",
              "type": "bool"
            },
            {
              "internalType": "uint32",
              "name": "schoolId",
              "type": "uint32"
            },
            {
              "internalType": "bytes32",
              "name": "name",
              "type": "bytes32"
            }
          ],
          "internalType": "struct Tution.School",
          "name": "",
          "type": "tuple"
        }
      ],
      "stateMutability": "view",
      "type": "function"
    },
    {
      "inputs": [
        {
          "internalType": "uint128",
          "name": "_termId",
          "type": "uint128"
        }
      ],
      "name": "getacademicTerm",
      "outputs": [
        {
          "components": [
            {
              "internalType": "uint256",
              "name": "tution",
              "type": "uint256"
            },
            {
              "internalType": "address",
              "name": "school",
              "type": "address"
            },
            {
              "internalType": "uint128",
              "name": "termId",
              "type": "uint128"
            },
            {
              "internalType": "bool",
              "name": "hasStarted",
              "type": "bool"
            },
            {
              "internalType": "bool",
              "name": "hasEnded",
              "type": "bool"
            },
            {
              "internalType": "uint32",
              "name": "start",
              "type": "uint32"
            },
            {
              "internalType": "uint32",
              "name": "end",
              "type": "uint32"
            }
          ],
          "internalType": "struct Tution.AcademicTerm",
          "name": "",
          "type": "tuple"
        }
      ],
      "stateMutability": "view",
      "type": "function"
    },
    {
      "inputs": [
        {
          "internalType": "address",
          "name": "_tokenUsed",
          "type": "address"
        }
      ],
      "name": "initialize",
      "outputs": [],
      "stateMutability": "nonpayable",
      "type": "function"
    },
    {
      "inputs": [],
      "name": "newSchoolId",
      "outputs": [
        {
          "internalType": "uint32",
          "name": "",
          "type": "uint32"
        }
      ],
      "stateMutability": "view",
      "type": "function"
    },
    {
      "inputs": [],
      "name": "owner",
      "outputs": [
        {
          "internalType": "address",
          "name": "",
          "type": "address"
        }
      ],
      "stateMutability": "view",
      "type": "function"
    },
    {
      "inputs": [
        {
          "internalType": "address",
          "name": "",
          "type": "address"
        }
      ],
      "name": "payer",
      "outputs": [
        {
          "internalType": "uint256",
          "name": "balance",
          "type": "uint256"
        },
        {
          "internalType": "uint256",
          "name": "debts",
          "type": "uint256"
        },
        {
          "internalType": "address",
          "name": "client",
          "type": "address"
        }
      ],
      "stateMutability": "view",
      "type": "function"
    },
    {
      "inputs": [],
      "name": "percentageFee",
      "outputs": [
        {
          "internalType": "uint32",
          "name": "",
          "type": "uint32"
        }
      ],
      "stateMutability": "view",
      "type": "function"
    },
    {
      "inputs": [
        {
          "internalType": "bytes",
          "name": "performData",
          "type": "bytes"
        }
      ],
      "name": "performUpkeep",
      "outputs": [],
      "stateMutability": "nonpayable",
      "type": "function"
    },
    {
      "inputs": [
        {
          "internalType": "address",
          "name": "",
          "type": "address"
        }
      ],
      "name": "receipt",
      "outputs": [
        {
          "internalType": "uint256",
          "name": "time",
          "type": "uint256"
        },
        {
          "internalType": "uint256",
          "name": "amount",
          "type": "uint256"
        },
        {
          "internalType": "uint256",
          "name": "balance",
          "type": "uint256"
        },
        {
          "internalType": "address",
          "name": "payer",
          "type": "address"
        },
        {
          "internalType": "address",
          "name": "school",
          "type": "address"
        },
        {
          "internalType": "bool",
          "name": "cleared",
          "type": "bool"
        },
        {
          "internalType": "bytes32",
          "name": "student",
          "type": "bytes32"
        },
        {
          "internalType": "bytes32",
          "name": "class",
          "type": "bytes32"
        }
      ],
      "stateMutability": "view",
      "type": "function"
    },
    {
      "inputs": [
        {
          "internalType": "address",
          "name": "_school",
          "type": "address"
        },
        {
          "internalType": "bytes32",
          "name": "_name",
          "type": "bytes32"
        },
        {
          "internalType": "uint256",
          "name": "_tution",
          "type": "uint256"
        }
      ],
      "name": "registerSchool",
      "outputs": [],
      "stateMutability": "nonpayable",
      "type": "function"
    },
    {
      "inputs": [],
      "name": "renounceOwnership",
      "outputs": [],
      "stateMutability": "nonpayable",
      "type": "function"
    },
    {
      "inputs": [
        {
          "internalType": "address",
          "name": "",
          "type": "address"
        }
      ],
      "name": "school",
      "outputs": [
        {
          "internalType": "uint256",
          "name": "balance",
          "type": "uint256"
        },
        {
          "internalType": "uint256",
          "name": "tution",
          "type": "uint256"
        },
        {
          "internalType": "address",
          "name": "school",
          "type": "address"
        },
        {
          "internalType": "bool",
          "name": "isRegistered",
          "type": "bool"
        },
        {
          "internalType": "bool",
          "name": "isActive",
          "type": "bool"
        },
        {
          "internalType": "uint32",
          "name": "schoolId",
          "type": "uint32"
        },
        {
          "internalType": "bytes32",
          "name": "name",
          "type": "bytes32"
        }
      ],
      "stateMutability": "view",
      "type": "function"
    },
    {
      "inputs": [
        {
          "internalType": "uint256",
          "name": "_amount",
          "type": "uint256"
        }
      ],
      "name": "schoolWithdrawal",
      "outputs": [],
      "stateMutability": "nonpayable",
      "type": "function"
    },
    {
      "inputs": [],
      "name": "stableToken",
      "outputs": [
        {
          "internalType": "contract IERC20",
          "name": "",
          "type": "address"
        }
      ],
      "stateMutability": "view",
      "type": "function"
    },
    {
      "inputs": [],
      "name": "termIdBySchool",
      "outputs": [
        {
          "internalType": "uint128",
          "name": "",
          "type": "uint128"
        }
      ],
      "stateMutability": "view",
      "type": "function"
    },
    {
      "inputs": [
        {
          "internalType": "address",
          "name": "newOwner",
          "type": "address"
        }
      ],
      "name": "transferOwnership",
      "outputs": [],
      "stateMutability": "nonpayable",
      "type": "function"
    },
    {
      "inputs": [
        {
          "internalType": "uint256",
          "name": "_amount",
          "type": "uint256"
        },
        {
          "internalType": "address",
          "name": "_school",
          "type": "address"
        },
        {
          "internalType": "bytes32",
          "name": "_student",
          "type": "bytes32"
        },
        {
          "internalType": "bytes32",
          "name": "_class",
          "type": "bytes32"
        }
      ],
      "name": "tutionPayment",
      "outputs": [],
      "stateMutability": "nonpayable",
      "type": "function"
    },
    {
      "inputs": [
        {
          "internalType": "uint32",
          "name": "_percentage",
          "type": "uint32"
        }
      ],
      "name": "updateTxFee",
      "outputs": [],
      "stateMutability": "nonpayable",
      "type": "function"
    }
  ],
  "bytecode": "0x6080604052348015600f57600080fd5b50613e978061001f6000396000f3fe608060405234801561001057600080fd5b50600436106101a95760003560e01c80638da5cb5b116100f9578063e35e566311610097578063e97e3f1711610071578063e97e3f17146104b8578063f2fde38b146104e8578063f93038ad14610504578063fde345bc14610534576101a9565b8063e35e566314610433578063e42466621461046a578063e5b73e0814610486576101a9565b8063bd53d5cc116100d3578063bd53d5cc146103a9578063c4d66de8146103c5578063c652365c146103e1578063c828559214610417576101a9565b80638da5cb5b14610351578063a9d75b2b1461036f578063baae18921461038d576101a9565b806359dc735c11610166578063715018a611610140578063715018a6146102ef578063780a7ff0146102f95780637866eb0f146103175780638745e11414610335576101a9565b806359dc735c1461026a57806368df7881146102885780636e04ff0d146102be576101a9565b806304562d95146101ae578063065ed3da146101de5780630ab01237146101fa57806329546a35146102165780633a3cd062146102325780634585e33b1461024e575b600080fd5b6101c860048036038101906101c39190612ccb565b610552565b6040516101d59190612df6565b60405180910390f35b6101f860048036038101906101f39190612e3e565b6106a5565b005b610214600480360381019061020f9190612ccb565b610926565b005b610230600480360381019061022b9190612ea7565b610a34565b005b61024c60048036038101906102479190612e3e565b610e0c565b005b61026860048036038101906102639190612f5f565b610f10565b005b6102726111b2565b60405161027f9190612fee565b60405180910390f35b6102a2600480360381019061029d9190613051565b611273565b6040516102b597969594939291906130c9565b60405180910390f35b6102d860048036038101906102d39190612f5f565b61132b565b6040516102e69291906131c8565b60405180910390f35b6102f7611507565b005b61030161151b565b60405161030e91906131f8565b60405180910390f35b61031f611531565b60405161032c91906131f8565b60405180910390f35b61034f600480360381019061034a919061323f565b611547565b005b61035961179a565b6040516103669190613292565b60405180910390f35b6103776117d2565b604051610384919061330c565b60405180910390f35b6103a760048036038101906103a29190613327565b6117f6565b005b6103c360048036038101906103be9190612e3e565b61186b565b005b6103df60048036038101906103da9190612ccb565b611967565b005b6103fb60048036038101906103f69190612ccb565b611bad565b60405161040e9796959493929190613363565b60405180910390f35b610431600480360381019061042c91906133d2565b611c39565b005b61044d60048036038101906104489190612ccb565b61202a565b604051610461989796959493929190613439565b60405180910390f35b610484600480360381019061047f9190612ccb565b6120bf565b005b6104a0600480360381019061049b9190612ccb565b61217c565b6040516104af939291906134b7565b60405180910390f35b6104d260048036038101906104cd9190612ccb565b6121c6565b6040516104df919061358b565b60405180910390f35b61050260048036038101906104fd9190612ccb565b612384565b005b61051e60048036038101906105199190613051565b61240a565b60405161052b9190613643565b60405180910390f35b61053c612587565b604051610549919061365e565b60405180910390f35b61055a612ade565b600360008373ffffffffffffffffffffffffffffffffffffffff1673ffffffffffffffffffffffffffffffffffffffff168152602001908152602001600020604051806101000160405290816000820154815260200160018201548152602001600282015481526020016003820160009054906101000a900473ffffffffffffffffffffffffffffffffffffffff1673ffffffffffffffffffffffffffffffffffffffff1673ffffffffffffffffffffffffffffffffffffffff1681526020016004820160009054906101000a900473ffffffffffffffffffffffffffffffffffffffff1673ffffffffffffffffffffffffffffffffffffffff1673ffffffffffffffffffffffffffffffffffffffff1681526020016004820160149054906101000a900460ff16151515158152602001600582015481526020016006820154815250509050919050565b6000600160003373ffffffffffffffffffffffffffffffffffffffff1673ffffffffffffffffffffffffffffffffffffffff16815260200190815260200160002090508060020160149054906101000a900460ff16610739576040517f08c379a0000000000000000000000000000000000000000000000000000000008152600401610730906136d6565b60405180910390fd5b6107416125a9565b6000600160003373ffffffffffffffffffffffffffffffffffffffff1673ffffffffffffffffffffffffffffffffffffffff16815260200190815260200160002090508060020160149054906101000a900460ff166107d5576040517f08c379a00000000000000000000000000000000000000000000000000000000081526004016107cc90613742565b60405180910390fd5b8060020160159054906101000a900460ff16610826576040517f08c379a000000000000000000000000000000000000000000000000000000000815260040161081d906137ae565b60405180910390fd5b8281600001541161086c576040517f08c379a00000000000000000000000000000000000000000000000000000000081526004016108639061381a565b60405180910390fd5b828160000160008282546108809190613869565b9250508190555060006103e8600560149054906101000a900463ffffffff1663ffffffff16856108b0919061389d565b6108ba919061390e565b9050600081856108ca9190613869565b9050610917338260008054906101000a900473ffffffffffffffffffffffffffffffffffffffff1673ffffffffffffffffffffffffffffffffffffffff166126009092919063ffffffff16565b50505061092261267f565b5050565b61092e612698565b6000600160008373ffffffffffffffffffffffffffffffffffffffff1673ffffffffffffffffffffffffffffffffffffffff16815260200190815260200160002090508060020160149054906101000a900460ff166109c2576040517f08c379a00000000000000000000000000000000000000000000000000000000081526004016109b990613742565b60405180910390fd5b8060020160159054906101000a900460ff16610a13576040517f08c379a0000000000000000000000000000000000000000000000000000000008152600401610a0a906137ae565b60405180910390fd5b60018160020160156101000a81548160ff0219169083151502179055505050565b6000600160003373ffffffffffffffffffffffffffffffffffffffff1673ffffffffffffffffffffffffffffffffffffffff16815260200190815260200160002090508060020160149054906101000a900460ff16610ac8576040517f08c379a0000000000000000000000000000000000000000000000000000000008152600401610abf906136d6565b60405180910390fd5b6000600160003373ffffffffffffffffffffffffffffffffffffffff1673ffffffffffffffffffffffffffffffffffffffff16815260200190815260200160002090508060020160149054906101000a900460ff16610b5c576040517f08c379a0000000000000000000000000000000000000000000000000000000008152600401610b5390613742565b60405180910390fd5b8060020160159054906101000a900460ff16610bad576040517f08c379a0000000000000000000000000000000000000000000000000000000008152600401610ba49061398b565b60405180910390fd5b6040518060e001604052808681526020013373ffffffffffffffffffffffffffffffffffffffff168152602001600560049054906101000a90046fffffffffffffffffffffffffffffffff166fffffffffffffffffffffffffffffffff1681526020016000151581526020016000151581526020018563ffffffff1681526020018463ffffffff16815250600460008360020160169054906101000a900463ffffffff1663ffffffff166fffffffffffffffffffffffffffffffff1681526020019081526020016000206000820151816000015560208201518160010160006101000a81548173ffffffffffffffffffffffffffffffffffffffff021916908373ffffffffffffffffffffffffffffffffffffffff16021790555060408201518160020160006101000a8154816fffffffffffffffffffffffffffffffff02191690836fffffffffffffffffffffffffffffffff16021790555060608201518160020160106101000a81548160ff02191690831515021790555060808201518160020160116101000a81548160ff02191690831515021790555060a08201518160020160126101000a81548163ffffffff021916908363ffffffff16021790555060c08201518160020160166101000a81548163ffffffff021916908363ffffffff1602179055509050506001600560048282829054906101000a90046fffffffffffffffffffffffffffffffff16610dc691906139ab565b92506101000a8154816fffffffffffffffffffffffffffffffff02191690836fffffffffffffffffffffffffffffffff1602179055508481600101819055505050505050565b610e146125a9565b6000600260003373ffffffffffffffffffffffffffffffffffffffff1673ffffffffffffffffffffffffffffffffffffffff16815260200190815260200160002090508181600001541015610e9e576040517f08c379a0000000000000000000000000000000000000000000000000000000008152600401610e9590613a3b565b60405180910390fd5b81816000016000828254610eb29190613869565b92505081905550610f04338360008054906101000a900473ffffffffffffffffffffffffffffffffffffffff1673ffffffffffffffffffffffffffffffffffffffff166126009092919063ffffffff16565b50610f0d61267f565b50565b60008282810190610f219190613a5b565b905060005b600560009054906101000a900463ffffffff1663ffffffff168163ffffffff1610156111ac576000600460008363ffffffff166fffffffffffffffffffffffffffffffff1681526020019081526020016000209050428160020160129054906101000a900463ffffffff1663ffffffff1611158015610fb457508060020160109054906101000a900460ff16155b8015610fdf57507f85301d412c91b5025a99ca488ca39b08d0d436c51cec3bd9ea6e0754d7d1991583145b156110025760018160020160106101000a81548160ff0219169083151502179055505b428160020160129054906101000a900463ffffffff1663ffffffff161080156110455750428160020160169054906101000a900463ffffffff1663ffffffff1611155b801561105f57508060020160109054906101000a900460ff165b801561107a57508060020160119054906101000a900460ff16155b80156110a557507f5766ed171599f7913d5137e7b28bc984eec1a87a30800016278646d1777f82fb83145b156110c85760018160020160116101000a81548160ff0219169083151502179055505b8060020160119054906101000a900460ff16801561110c5750610e108160020160169054906101000a900463ffffffff166111039190613a88565b63ffffffff1642115b1561119e576000816000018190555060008160020160106101000a81548160ff02191690831515021790555060008160020160116101000a81548160ff02191690831515021790555060008160020160126101000a81548163ffffffff021916908363ffffffff16021790555060008160020160166101000a81548163ffffffff021916908363ffffffff1602179055505b508080600101915050610f26565b50505050565b6111ba612b57565b600260003373ffffffffffffffffffffffffffffffffffffffff1673ffffffffffffffffffffffffffffffffffffffff16815260200190815260200160002060405180606001604052908160008201548152602001600182015481526020016002820160009054906101000a900473ffffffffffffffffffffffffffffffffffffffff1673ffffffffffffffffffffffffffffffffffffffff1673ffffffffffffffffffffffffffffffffffffffff1681525050905090565b60046020528060005260406000206000915090508060000154908060010160009054906101000a900473ffffffffffffffffffffffffffffffffffffffff16908060020160009054906101000a90046fffffffffffffffffffffffffffffffff16908060020160109054906101000a900460ff16908060020160119054906101000a900460ff16908060020160129054906101000a900463ffffffff16908060020160169054906101000a900463ffffffff16905087565b6000606060008060005b600560009054906101000a900463ffffffff1663ffffffff168163ffffffff1610156114d8576000600460008363ffffffff166fffffffffffffffffffffffffffffffff1681526020019081526020016000209050428160020160129054906101000a900463ffffffff1663ffffffff16111580156113c357508060020160109054906101000a900460ff16155b156113f5577f85301d412c91b5025a99ca488ca39b08d0d436c51cec3bd9ea6e0754d7d19915935060019250506114d8565b428160020160129054906101000a900463ffffffff1663ffffffff161080156114385750428160020160169054906101000a900463ffffffff1663ffffffff1611155b801561145257508060020160109054906101000a900460ff165b801561146d57508060020160119054906101000a900460ff16155b801561149857507f626567696e5465726d000000000000000000000000000000000000000000000084145b156114ca577f5766ed171599f7913d5137e7b28bc984eec1a87a30800016278646d1777f82fb935060019250506114d8565b508080600101915050611335565b50809350816040516020016114ed9190613ac0565b604051602081830303815290604052925050509250929050565b61150f612698565b611519600061271f565b565b600560149054906101000a900463ffffffff1681565b600560009054906101000a900463ffffffff1681565b61154f612698565b600160008473ffffffffffffffffffffffffffffffffffffffff1673ffffffffffffffffffffffffffffffffffffffff16815260200190815260200160002060020160149054906101000a900460ff16156115df576040517f08c379a00000000000000000000000000000000000000000000000000000000081526004016115d690613b27565b60405180910390fd5b6040518060e00160405280600081526020018281526020018473ffffffffffffffffffffffffffffffffffffffff168152602001600115158152602001600115158152602001600560009054906101000a900463ffffffff1663ffffffff16815260200183815250600160008573ffffffffffffffffffffffffffffffffffffffff1673ffffffffffffffffffffffffffffffffffffffff168152602001908152602001600020600082015181600001556020820151816001015560408201518160020160006101000a81548173ffffffffffffffffffffffffffffffffffffffff021916908373ffffffffffffffffffffffffffffffffffffffff16021790555060608201518160020160146101000a81548160ff02191690831515021790555060808201518160020160156101000a81548160ff02191690831515021790555060a08201518160020160166101000a81548163ffffffff021916908363ffffffff16021790555060c082015181600301559050506001600560008282829054906101000a900463ffffffff166117779190613a88565b92506101000a81548163ffffffff021916908363ffffffff160217905550505050565b6000806117a56127f6565b90508060000160009054906101000a900473ffffffffffffffffffffffffffffffffffffffff1691505090565b60008054906101000a900473ffffffffffffffffffffffffffffffffffffffff1681565b6117fe612698565b60328163ffffffff1610611847576040517f08c379a000000000000000000000000000000000000000000000000000000000815260040161183e90613b93565b60405180910390fd5b80600560146101000a81548163ffffffff021916908363ffffffff16021790555050565b6118736125a9565b600081116118b6576040517f08c379a00000000000000000000000000000000000000000000000000000000081526004016118ad90613bff565b60405180910390fd5b61190333308360008054906101000a900473ffffffffffffffffffffffffffffffffffffffff1673ffffffffffffffffffffffffffffffffffffffff1661281e909392919063ffffffff16565b80600260003373ffffffffffffffffffffffffffffffffffffffff1673ffffffffffffffffffffffffffffffffffffffff16815260200190815260200160002060000160008282546119559190613c1f565b9250508190555061196461267f565b50565b60006119716128a0565b905060008160000160089054906101000a900460ff1615905060008260000160009054906101000a900467ffffffffffffffff1690506000808267ffffffffffffffff161480156119bf5750825b9050600060018367ffffffffffffffff161480156119f4575060003073ffffffffffffffffffffffffffffffffffffffff163b145b905081158015611a02575080155b15611a39576040517ff92ee8a900000000000000000000000000000000000000000000000000000000815260040160405180910390fd5b60018560000160006101000a81548167ffffffffffffffff021916908367ffffffffffffffff1602179055508315611a895760018560000160086101000a81548160ff0219169083151502179055505b600073ffffffffffffffffffffffffffffffffffffffff168673ffffffffffffffffffffffffffffffffffffffff1603611af8576040517f08c379a0000000000000000000000000000000000000000000000000000000008152600401611aef90613c9f565b60405180910390fd5b611b006128b4565b611b09336128c6565b856000806101000a81548173ffffffffffffffffffffffffffffffffffffffff021916908373ffffffffffffffffffffffffffffffffffffffff1602179055508315611ba55760008560000160086101000a81548160ff0219169083151502179055507fc7f505b2f371ae2175ee4913f4499e1f2633a7b5936321eed1cdaeb6115181d26001604051611b9c9190613d0e565b60405180910390a15b505050505050565b60016020528060005260406000206000915090508060000154908060010154908060020160009054906101000a900473ffffffffffffffffffffffffffffffffffffffff16908060020160149054906101000a900460ff16908060020160159054906101000a900460ff16908060020160169054906101000a900463ffffffff16908060030154905087565b611c416125a9565b6000600260003373ffffffffffffffffffffffffffffffffffffffff1673ffffffffffffffffffffffffffffffffffffffff16815260200190815260200160002090506000600160008673ffffffffffffffffffffffffffffffffffffffff1673ffffffffffffffffffffffffffffffffffffffff168152602001908152602001600020905085826000015411611d0d576040517f08c379a0000000000000000000000000000000000000000000000000000000008152600401611d0490613d75565b60405180910390fd5b600073ffffffffffffffffffffffffffffffffffffffff168573ffffffffffffffffffffffffffffffffffffffff1603611d7c576040517f08c379a0000000000000000000000000000000000000000000000000000000008152600401611d7390613de1565b60405180910390fd5b8060020160149054906101000a900460ff16611dcd576040517f08c379a0000000000000000000000000000000000000000000000000000000008152600401611dc490613742565b60405180910390fd5b8060020160159054906101000a900460ff16611e1e576040517f08c379a0000000000000000000000000000000000000000000000000000000008152600401611e15906137ae565b60405180910390fd5b85826000016000828254611e329190613869565b9250508190555085816000016000828254611e4d9190613c1f565b92505081905550858160010154611e649190613869565b8260010181905550604051806101000160405280428152602001878152602001878360010154611e949190613869565b81526020013373ffffffffffffffffffffffffffffffffffffffff1681526020018673ffffffffffffffffffffffffffffffffffffffff1681526020018260010154881015611ee4576000611ee7565b60015b1515815260200185815260200184815250600360003373ffffffffffffffffffffffffffffffffffffffff1673ffffffffffffffffffffffffffffffffffffffff16815260200190815260200160002060008201518160000155602082015181600101556040820151816002015560608201518160030160006101000a81548173ffffffffffffffffffffffffffffffffffffffff021916908373ffffffffffffffffffffffffffffffffffffffff16021790555060808201518160040160006101000a81548173ffffffffffffffffffffffffffffffffffffffff021916908373ffffffffffffffffffffffffffffffffffffffff16021790555060a08201518160040160146101000a81548160ff02191690831515021790555060c0820151816005015560e08201518160060155905050505061202461267f565b50505050565b60036020528060005260406000206000915090508060000154908060010154908060020154908060030160009054906101000a900473ffffffffffffffffffffffffffffffffffffffff16908060040160009054906101000a900473ffffffffffffffffffffffffffffffffffffffff16908060040160149054906101000a900460ff16908060050154908060060154905088565b6120c7612698565b6000600160008373ffffffffffffffffffffffffffffffffffffffff1673ffffffffffffffffffffffffffffffffffffffff16815260200190815260200160002090508060020160159054906101000a900460ff1661215b576040517f08c379a0000000000000000000000000000000000000000000000000000000008152600401612152906137ae565b60405180910390fd5b60008160020160156101000a81548160ff0219169083151502179055505050565b60026020528060005260406000206000915090508060000154908060010154908060020160009054906101000a900473ffffffffffffffffffffffffffffffffffffffff16905083565b6121ce612b8e565b6000600160003373ffffffffffffffffffffffffffffffffffffffff1673ffffffffffffffffffffffffffffffffffffffff16815260200190815260200160002090508060020160149054906101000a900460ff16612262576040517f08c379a0000000000000000000000000000000000000000000000000000000008152600401612259906136d6565b60405180910390fd5b600160008473ffffffffffffffffffffffffffffffffffffffff1673ffffffffffffffffffffffffffffffffffffffff1681526020019081526020016000206040518060e001604052908160008201548152602001600182015481526020016002820160009054906101000a900473ffffffffffffffffffffffffffffffffffffffff1673ffffffffffffffffffffffffffffffffffffffff1673ffffffffffffffffffffffffffffffffffffffff1681526020016002820160149054906101000a900460ff161515151581526020016002820160159054906101000a900460ff161515151581526020016002820160169054906101000a900463ffffffff1663ffffffff1663ffffffff168152602001600382015481525050915050919050565b61238c612698565b600073ffffffffffffffffffffffffffffffffffffffff168173ffffffffffffffffffffffffffffffffffffffff16036123fe5760006040517f1e4fbdf70000000000000000000000000000000000000000000000000000000081526004016123f59190613292565b60405180910390fd5b6124078161271f565b50565b612412612bee565b60046000836fffffffffffffffffffffffffffffffff166fffffffffffffffffffffffffffffffff1681526020019081526020016000206040518060e0016040529081600082015481526020016001820160009054906101000a900473ffffffffffffffffffffffffffffffffffffffff1673ffffffffffffffffffffffffffffffffffffffff1673ffffffffffffffffffffffffffffffffffffffff1681526020016002820160009054906101000a90046fffffffffffffffffffffffffffffffff166fffffffffffffffffffffffffffffffff166fffffffffffffffffffffffffffffffff1681526020016002820160109054906101000a900460ff161515151581526020016002820160119054906101000a900460ff161515151581526020016002820160129054906101000a900463ffffffff1663ffffffff1663ffffffff1681526020016002820160169054906101000a900463ffffffff1663ffffffff1663ffffffff16815250509050919050565b600560049054906101000a90046fffffffffffffffffffffffffffffffff1681565b60006125b36128da565b905060028160000154036125f3576040517f3ee5aeb500000000000000000000000000000000000000000000000000000000815260040160405180910390fd5b6002816000018190555050565b61267a838473ffffffffffffffffffffffffffffffffffffffff1663a9059cbb8585604051602401612633929190613e01565b604051602081830303815290604052915060e01b6020820180517bffffffffffffffffffffffffffffffffffffffffffffffffffffffff8381831617835250505050612902565b505050565b60006126896128da565b90506001816000018190555050565b6126a06129a4565b73ffffffffffffffffffffffffffffffffffffffff166126be61179a565b73ffffffffffffffffffffffffffffffffffffffff161461271d576126e16129a4565b6040517f118cdaa70000000000000000000000000000000000000000000000000000000081526004016127149190613292565b60405180910390fd5b565b60006127296127f6565b905060008160000160009054906101000a900473ffffffffffffffffffffffffffffffffffffffff169050828260000160006101000a81548173ffffffffffffffffffffffffffffffffffffffff021916908373ffffffffffffffffffffffffffffffffffffffff1602179055508273ffffffffffffffffffffffffffffffffffffffff168173ffffffffffffffffffffffffffffffffffffffff167f8be0079c531659141344cd1fd0a4f28419497f9722a3daafe3b4186f6b6457e060405160405180910390a3505050565b60007f9016d09d72d40fdae2fd8ceac6b6234c7706214fd39c1cd1e609a0528c199300905090565b61289a848573ffffffffffffffffffffffffffffffffffffffff166323b872dd86868660405160240161285393929190613e2a565b604051602081830303815290604052915060e01b6020820180517bffffffffffffffffffffffffffffffffffffffffffffffffffffffff8381831617835250505050612902565b50505050565b6000806128ab6129ac565b90508091505090565b6128bc6129d7565b6128c4612a17565b565b6128ce6129d7565b6128d781612a38565b50565b60007f9b779b17422d0df92223018b32b4d1fa46e071723d6817e2486d003becc55f00905090565b600080602060008451602086016000885af180612925576040513d6000823e3d81fd5b3d92506000519150506000821461294057600181141561295c565b60008473ffffffffffffffffffffffffffffffffffffffff163b145b1561299e57836040517f5274afe70000000000000000000000000000000000000000000000000000000081526004016129959190613292565b60405180910390fd5b50505050565b600033905090565b60007ff0c57e16840df040f15088dc2f81fe391c3923bec73e23a9662efc9c229c6a0060001b905090565b6129df612abe565b612a15576040517fd7e6bcf800000000000000000000000000000000000000000000000000000000815260040160405180910390fd5b565b612a1f6129d7565b6000612a296128da565b90506001816000018190555050565b612a406129d7565b600073ffffffffffffffffffffffffffffffffffffffff168173ffffffffffffffffffffffffffffffffffffffff1603612ab25760006040517f1e4fbdf7000000000000000000000000000000000000000000000000000000008152600401612aa99190613292565b60405180910390fd5b612abb8161271f565b50565b6000612ac86128a0565b60000160089054906101000a900460ff16905090565b604051806101000160405280600081526020016000815260200160008152602001600073ffffffffffffffffffffffffffffffffffffffff168152602001600073ffffffffffffffffffffffffffffffffffffffff16815260200160001515815260200160008019168152602001600080191681525090565b60405180606001604052806000815260200160008152602001600073ffffffffffffffffffffffffffffffffffffffff1681525090565b6040518060e001604052806000815260200160008152602001600073ffffffffffffffffffffffffffffffffffffffff168152602001600015158152602001600015158152602001600063ffffffff168152602001600080191681525090565b6040518060e0016040528060008152602001600073ffffffffffffffffffffffffffffffffffffffff16815260200160006fffffffffffffffffffffffffffffffff168152602001600015158152602001600015158152602001600063ffffffff168152602001600063ffffffff1681525090565b600080fd5b600080fd5b600073ffffffffffffffffffffffffffffffffffffffff82169050919050565b6000612c9882612c6d565b9050919050565b612ca881612c8d565b8114612cb357600080fd5b50565b600081359050612cc581612c9f565b92915050565b600060208284031215612ce157612ce0612c63565b5b6000612cef84828501612cb6565b91505092915050565b6000819050919050565b612d0b81612cf8565b82525050565b612d1a81612c8d565b82525050565b60008115159050919050565b612d3581612d20565b82525050565b6000819050919050565b612d4e81612d3b565b82525050565b61010082016000820151612d6b6000850182612d02565b506020820151612d7e6020850182612d02565b506040820151612d916040850182612d02565b506060820151612da46060850182612d11565b506080820151612db76080850182612d11565b5060a0820151612dca60a0850182612d2c565b5060c0820151612ddd60c0850182612d45565b5060e0820151612df060e0850182612d45565b50505050565b600061010082019050612e0c6000830184612d54565b92915050565b612e1b81612cf8565b8114612e2657600080fd5b50565b600081359050612e3881612e12565b92915050565b600060208284031215612e5457612e53612c63565b5b6000612e6284828501612e29565b91505092915050565b600063ffffffff82169050919050565b612e8481612e6b565b8114612e8f57600080fd5b50565b600081359050612ea181612e7b565b92915050565b600080600060608486031215612ec057612ebf612c63565b5b6000612ece86828701612e29565b9350506020612edf86828701612e92565b9250506040612ef086828701612e92565b9150509250925092565b600080fd5b600080fd5b600080fd5b60008083601f840112612f1f57612f1e612efa565b5b8235905067ffffffffffffffff811115612f3c57612f3b612eff565b5b602083019150836001820283011115612f5857612f57612f04565b5b9250929050565b60008060208385031215612f7657612f75612c63565b5b600083013567ffffffffffffffff811115612f9457612f93612c68565b5b612fa085828601612f09565b92509250509250929050565b606082016000820151612fc26000850182612d02565b506020820151612fd56020850182612d02565b506040820151612fe86040850182612d11565b50505050565b60006060820190506130036000830184612fac565b92915050565b60006fffffffffffffffffffffffffffffffff82169050919050565b61302e81613009565b811461303957600080fd5b50565b60008135905061304b81613025565b92915050565b60006020828403121561306757613066612c63565b5b60006130758482850161303c565b91505092915050565b61308781612cf8565b82525050565b61309681612c8d565b82525050565b6130a581613009565b82525050565b6130b481612d20565b82525050565b6130c381612e6b565b82525050565b600060e0820190506130de600083018a61307e565b6130eb602083018961308d565b6130f8604083018861309c565b61310560608301876130ab565b61311260808301866130ab565b61311f60a08301856130ba565b61312c60c08301846130ba565b98975050505050505050565b600081519050919050565b600082825260208201905092915050565b60005b83811015613172578082015181840152602081019050613157565b60008484015250505050565b6000601f19601f8301169050919050565b600061319a82613138565b6131a48185613143565b93506131b4818560208601613154565b6131bd8161317e565b840191505092915050565b60006040820190506131dd60008301856130ab565b81810360208301526131ef818461318f565b90509392505050565b600060208201905061320d60008301846130ba565b92915050565b61321c81612d3b565b811461322757600080fd5b50565b60008135905061323981613213565b92915050565b60008060006060848603121561325857613257612c63565b5b600061326686828701612cb6565b93505060206132778682870161322a565b925050604061328886828701612e29565b9150509250925092565b60006020820190506132a7600083018461308d565b92915050565b6000819050919050565b60006132d26132cd6132c884612c6d565b6132ad565b612c6d565b9050919050565b60006132e4826132b7565b9050919050565b60006132f6826132d9565b9050919050565b613306816132eb565b82525050565b600060208201905061332160008301846132fd565b92915050565b60006020828403121561333d5761333c612c63565b5b600061334b84828501612e92565b91505092915050565b61335d81612d3b565b82525050565b600060e082019050613378600083018a61307e565b613385602083018961307e565b613392604083018861308d565b61339f60608301876130ab565b6133ac60808301866130ab565b6133b960a08301856130ba565b6133c660c0830184613354565b98975050505050505050565b600080600080608085870312156133ec576133eb612c63565b5b60006133fa87828801612e29565b945050602061340b87828801612cb6565b935050604061341c8782880161322a565b925050606061342d8782880161322a565b91505092959194509250565b60006101008201905061344f600083018b61307e565b61345c602083018a61307e565b613469604083018961307e565b613476606083018861308d565b613483608083018761308d565b61349060a08301866130ab565b61349d60c0830185613354565b6134aa60e0830184613354565b9998505050505050505050565b60006060820190506134cc600083018661307e565b6134d9602083018561307e565b6134e6604083018461308d565b949350505050565b6134f781612e6b565b82525050565b60e0820160008201516135136000850182612d02565b5060208201516135266020850182612d02565b5060408201516135396040850182612d11565b50606082015161354c6060850182612d2c565b50608082015161355f6080850182612d2c565b5060a082015161357260a08501826134ee565b5060c082015161358560c0850182612d45565b50505050565b600060e0820190506135a060008301846134fd565b92915050565b6135af81613009565b82525050565b60e0820160008201516135cb6000850182612d02565b5060208201516135de6020850182612d11565b5060408201516135f160408501826135a6565b5060608201516136046060850182612d2c565b5060808201516136176080850182612d2c565b5060a082015161362a60a08501826134ee565b5060c082015161363d60c08501826134ee565b50505050565b600060e08201905061365860008301846135b5565b92915050565b6000602082019050613673600083018461309c565b92915050565b600082825260208201905092915050565b7f4e6f742072656769737465726564000000000000000000000000000000000000600082015250565b60006136c0600e83613679565b91506136cb8261368a565b602082019050919050565b600060208201905081810360008301526136ef816136b3565b9050919050565b7f556e726567697374657265640000000000000000000000000000000000000000600082015250565b600061372c600c83613679565b9150613737826136f6565b602082019050919050565b6000602082019050818103600083015261375b8161371f565b9050919050565b7f496e6e6163746976650000000000000000000000000000000000000000000000600082015250565b6000613798600983613679565b91506137a382613762565b602082019050919050565b600060208201905081810360008301526137c78161378b565b9050919050565b7f4d75636820616d6f756e74000000000000000000000000000000000000000000600082015250565b6000613804600b83613679565b915061380f826137ce565b602082019050919050565b60006020820190508181036000830152613833816137f7565b9050919050565b7f4e487b7100000000000000000000000000000000000000000000000000000000600052601160045260246000fd5b600061387482612cf8565b915061387f83612cf8565b92508282039050818111156138975761389661383a565b5b92915050565b60006138a882612cf8565b91506138b383612cf8565b92508282026138c181612cf8565b915082820484148315176138d8576138d761383a565b5b5092915050565b7f4e487b7100000000000000000000000000000000000000000000000000000000600052601260045260246000fd5b600061391982612cf8565b915061392483612cf8565b925082613934576139336138df565b5b828204905092915050565b7f496e616374697665000000000000000000000000000000000000000000000000600082015250565b6000613975600883613679565b91506139808261393f565b602082019050919050565b600060208201905081810360008301526139a481613968565b9050919050565b60006139b682613009565b91506139c183613009565b925082820190506fffffffffffffffffffffffffffffffff8111156139e9576139e861383a565b5b92915050565b7f4d75636800000000000000000000000000000000000000000000000000000000600082015250565b6000613a25600483613679565b9150613a30826139ef565b602082019050919050565b60006020820190508181036000830152613a5481613a18565b9050919050565b600060208284031215613a7157613a70612c63565b5b6000613a7f8482850161322a565b91505092915050565b6000613a9382612e6b565b9150613a9e83612e6b565b9250828201905063ffffffff811115613aba57613ab961383a565b5b92915050565b6000602082019050613ad56000830184613354565b92915050565b7f5265676973746572656400000000000000000000000000000000000000000000600082015250565b6000613b11600a83613679565b9150613b1c82613adb565b602082019050919050565b60006020820190508181036000830152613b4081613b04565b9050919050565b7f4d75636820666565000000000000000000000000000000000000000000000000600082015250565b6000613b7d600883613679565b9150613b8882613b47565b602082019050919050565b60006020820190508181036000830152613bac81613b70565b9050919050565b7f496e76616c6964206465706f7369740000000000000000000000000000000000600082015250565b6000613be9600f83613679565b9150613bf482613bb3565b602082019050919050565b60006020820190508181036000830152613c1881613bdc565b9050919050565b6000613c2a82612cf8565b9150613c3583612cf8565b9250828201905080821115613c4d57613c4c61383a565b5b92915050565b7f496e76616c696420616464726573730000000000000000000000000000000000600082015250565b6000613c89600f83613679565b9150613c9482613c53565b602082019050919050565b60006020820190508181036000830152613cb881613c7c565b9050919050565b6000819050919050565b600067ffffffffffffffff82169050919050565b6000613cf8613cf3613cee84613cbf565b6132ad565b613cc9565b9050919050565b613d0881613cdd565b82525050565b6000602082019050613d236000830184613cff565b92915050565b7f4c6974746c652062616c616e6365000000000000000000000000000000000000600082015250565b6000613d5f600e83613679565b9150613d6a82613d29565b602082019050919050565b60006020820190508181036000830152613d8e81613d52565b9050919050565b7f496e76616c6964207363686f6f6c416464720000000000000000000000000000600082015250565b6000613dcb601283613679565b9150613dd682613d95565b602082019050919050565b60006020820190508181036000830152613dfa81613dbe565b9050919050565b6000604082019050613e16600083018561308d565b613e23602083018461307e565b9392505050565b6000606082019050613e3f600083018661308d565b613e4c602083018561308d565b613e59604083018461307e565b94935050505056fea2646970667358221220009cfe569f196b344be2bee9a2d8db52e15ae0091fb8be4781bcb8b481ee1fb864736f6c634300081c0033",
  "linkReferences": {},
  "deployedLinkReferences": {}
}