{
  "_format": "hh-sol-artifact-1",
  "contractName": "BaseUtilityUpgradeable",
  "sourceName": "contracts/BaseUtilityUpgradeable.sol",
  "abi": [
    {
      "inputs": [],
      "name": "InvalidInitialization",
      "type": "error"
    },
    {
      "inputs": [],
      "name": "NotInitializing",
      "type": "error"
    },
    {
      "inputs": [
        {
          "internalType": "address",
          "name": "owner",
          "type": "address"
        }
      ],
      "name": "OwnableInvalidOwner",
      "type": "error"
    },
    {
      "inputs": [
        {
          "internalType": "address",
          "name": "account",
          "type": "address"
        }
      ],
      "name": "OwnableUnauthorizedAccount",
      "type": "error"
    },
    {
      "anonymous": false,
      "inputs": [
        {
          "indexed": true,
          "internalType": "address",
          "name": "company",
          "type": "address"
        }
      ],
      "name": "CompanyDeactivated",
      "type": "event"
    },
    {
      "anonymous": false,
      "inputs": [
        {
          "indexed": true,
          "internalType": "address",
          "name": "company",
          "type": "address"
        },
        {
          "indexed": false,
          "internalType": "string",
          "name": "name",
          "type": "string"
        }
      ],
      "name": "CompanyRegistered",
      "type": "event"
    },
    {
      "anonymous": false,
      "inputs": [
        {
          "indexed": false,
          "internalType": "uint64",
          "name": "version",
          "type": "uint64"
        }
      ],
      "name": "Initialized",
      "type": "event"
    },
    {
      "anonymous": false,
      "inputs": [
        {
          "indexed": true,
          "internalType": "address",
          "name": "previousOwner",
          "type": "address"
        },
        {
          "indexed": true,
          "internalType": "address",
          "name": "newOwner",
          "type": "address"
        }
      ],
      "name": "OwnershipTransferred",
      "type": "event"
    },
    {
      "inputs": [
        {
          "internalType": "address",
          "name": "",
          "type": "address"
        }
      ],
      "name": "companies",
      "outputs": [
        {
          "internalType": "address",
          "name": "companyAddr",
          "type": "address"
        },
        {
          "internalType": "uint256",
          "name": "balance",
          "type": "uint256"
        },
        {
          "internalType": "bool",
          "name": "isActive",
          "type": "bool"
        },
        {
          "internalType": "string",
          "name": "name",
          "type": "string"
        },
        {
          "internalType": "string",
          "name": "utilityService",
          "type": "string"
        }
      ],
      "stateMutability": "view",
      "type": "function"
    },
    {
      "inputs": [
        {
          "internalType": "address",
          "name": "_companyAddr",
          "type": "address"
        }
      ],
      "name": "deactivateCompany",
      "outputs": [],
      "stateMutability": "nonpayable",
      "type": "function"
    },
    {
      "inputs": [
        {
          "internalType": "address",
          "name": "_companyAddr",
          "type": "address"
        }
      ],
      "name": "getCompany",
      "outputs": [
        {
          "components": [
            {
              "internalType": "address",
              "name": "companyAddr",
              "type": "address"
            },
            {
              "internalType": "uint256",
              "name": "balance",
              "type": "uint256"
            },
            {
              "internalType": "bool",
              "name": "isActive",
              "type": "bool"
            },
            {
              "internalType": "string",
              "name": "name",
              "type": "string"
            },
            {
              "internalType": "string",
              "name": "utilityService",
              "type": "string"
            }
          ],
          "internalType": "struct BaseUtilityUpgradeable.Company",
          "name": "",
          "type": "tuple"
        }
      ],
      "stateMutability": "view",
      "type": "function"
    },
    {
      "inputs": [],
      "name": "getRegisteredCompanies",
      "outputs": [
        {
          "components": [
            {
              "internalType": "address",
              "name": "companyAddr",
              "type": "address"
            },
            {
              "internalType": "uint256",
              "name": "balance",
              "type": "uint256"
            },
            {
              "internalType": "bool",
              "name": "isActive",
              "type": "bool"
            },
            {
              "internalType": "string",
              "name": "name",
              "type": "string"
            },
            {
              "internalType": "string",
              "name": "utilityService",
              "type": "string"
            }
          ],
          "internalType": "struct BaseUtilityUpgradeable.Company[]",
          "name": "",
          "type": "tuple[]"
        }
      ],
      "stateMutability": "view",
      "type": "function"
    },
    {
      "inputs": [],
      "name": "initialize",
      "outputs": [],
      "stateMutability": "nonpayable",
      "type": "function"
    },
    {
      "inputs": [
        {
          "internalType": "address",
          "name": "_companyAddr",
          "type": "address"
        }
      ],
      "name": "isCompanyActive",
      "outputs": [
        {
          "internalType": "bool",
          "name": "",
          "type": "bool"
        }
      ],
      "stateMutability": "view",
      "type": "function"
    },
    {
      "inputs": [],
      "name": "owner",
      "outputs": [
        {
          "internalType": "address",
          "name": "",
          "type": "address"
        }
      ],
      "stateMutability": "view",
      "type": "function"
    },
    {
      "inputs": [
        {
          "internalType": "address",
          "name": "_companyAddr",
          "type": "address"
        },
        {
          "internalType": "string",
          "name": "_name",
          "type": "string"
        },
        {
          "internalType": "string",
          "name": "_utilityService",
          "type": "string"
        }
      ],
      "name": "registerCompany",
      "outputs": [],
      "stateMutability": "nonpayable",
      "type": "function"
    },
    {
      "inputs": [
        {
          "internalType": "uint256",
          "name": "",
          "type": "uint256"
        }
      ],
      "name": "registerdCompanies",
      "outputs": [
        {
          "internalType": "address",
          "name": "companyAddr",
          "type": "address"
        },
        {
          "internalType": "uint256",
          "name": "balance",
          "type": "uint256"
        },
        {
          "internalType": "bool",
          "name": "isActive",
          "type": "bool"
        },
        {
          "internalType": "string",
          "name": "name",
          "type": "string"
        },
        {
          "internalType": "string",
          "name": "utilityService",
          "type": "string"
        }
      ],
      "stateMutability": "view",
      "type": "function"
    },
    {
      "inputs": [],
      "name": "renounceOwnership",
      "outputs": [],
      "stateMutability": "nonpayable",
      "type": "function"
    },
    {
      "inputs": [
        {
          "internalType": "address",
          "name": "newOwner",
          "type": "address"
        }
      ],
      "name": "transferOwnership",
      "outputs": [],
      "stateMutability": "nonpayable",
      "type": "function"
    },
    {
      "inputs": [
        {
          "internalType": "string",
          "name": "_name",
          "type": "string"
        },
        {
          "internalType": "string",
          "name": "_utilityService",
          "type": "string"
        }
      ],
      "name": "updateCompany",
      "outputs": [],
      "stateMutability": "nonpayable",
      "type": "function"
    }
  ],
  "bytecode": "0x6080604052348015600f57600080fd5b506120688061001f6000396000f3fe608060405234801561001057600080fd5b50600436106100b45760003560e01c80638da5cb5b116100715780638da5cb5b146101815780638e58238c1461019f578063b60edbbe146101bb578063ce0a8ed5146101eb578063cf97511e14610209578063f2fde38b14610225576100b4565b80631c771579146100b9578063355e6ce8146100ed57806362bc56e614610121578063715018a6146101515780638129fc1c1461015b57806383e005fa14610165575b600080fd5b6100d360048036038101906100ce91906114bd565b610241565b6040516100e49594939291906115e5565b60405180910390f35b61010760048036038101906101029190611672565b6103c4565b6040516101189594939291906115e5565b60405180910390f35b61013b60048036038101906101369190611672565b610537565b6040516101489190611793565b60405180910390f35b61015961072e565b005b610163610742565b005b61017f600480360381019061017a9190611672565b6108d0565b005b610189610a06565b60405161019691906117b5565b60405180910390f35b6101b960048036038101906101b49190611905565b610a3e565b005b6101d560048036038101906101d09190611672565b610d18565b6040516101e29190611990565b60405180910390f35b6101f3610d70565b6040516102009190611aea565b60405180910390f35b610223600480360381019061021e9190611b0c565b610f6e565b005b61023f600480360381019061023a9190611672565b6110df565b005b6001818154811061025157600080fd5b90600052602060002090600502016000915090508060000160009054906101000a900473ffffffffffffffffffffffffffffffffffffffff16908060010154908060020160009054906101000a900460ff16908060030180546102b390611bb3565b80601f01602080910402602001604051908101604052809291908181526020018280546102df90611bb3565b801561032c5780601f106103015761010080835404028352916020019161032c565b820191906000526020600020905b81548152906001019060200180831161030f57829003601f168201915b50505050509080600401805461034190611bb3565b80601f016020809104026020016040519081016040528092919081815260200182805461036d90611bb3565b80156103ba5780601f1061038f576101008083540402835291602001916103ba565b820191906000526020600020905b81548152906001019060200180831161039d57829003601f168201915b5050505050905085565b60006020528060005260406000206000915090508060000160009054906101000a900473ffffffffffffffffffffffffffffffffffffffff16908060010154908060020160009054906101000a900460ff169080600301805461042690611bb3565b80601f016020809104026020016040519081016040528092919081815260200182805461045290611bb3565b801561049f5780601f106104745761010080835404028352916020019161049f565b820191906000526020600020905b81548152906001019060200180831161048257829003601f168201915b5050505050908060040180546104b490611bb3565b80601f01602080910402602001604051908101604052809291908181526020018280546104e090611bb3565b801561052d5780601f106105025761010080835404028352916020019161052d565b820191906000526020600020905b81548152906001019060200180831161051057829003601f168201915b5050505050905085565b61053f61142c565b6000808373ffffffffffffffffffffffffffffffffffffffff1673ffffffffffffffffffffffffffffffffffffffff1681526020019081526020016000206040518060a00160405290816000820160009054906101000a900473ffffffffffffffffffffffffffffffffffffffff1673ffffffffffffffffffffffffffffffffffffffff1673ffffffffffffffffffffffffffffffffffffffff168152602001600182015481526020016002820160009054906101000a900460ff1615151515815260200160038201805461061390611bb3565b80601f016020809104026020016040519081016040528092919081815260200182805461063f90611bb3565b801561068c5780601f106106615761010080835404028352916020019161068c565b820191906000526020600020905b81548152906001019060200180831161066f57829003601f168201915b505050505081526020016004820180546106a590611bb3565b80601f01602080910402602001604051908101604052809291908181526020018280546106d190611bb3565b801561071e5780601f106106f35761010080835404028352916020019161071e565b820191906000526020600020905b81548152906001019060200180831161070157829003601f168201915b5050505050815250509050919050565b610736611165565b61074060006111ec565b565b600061074c6112c3565b905060008160000160089054906101000a900460ff1615905060008260000160009054906101000a900467ffffffffffffffff1690506000808267ffffffffffffffff1614801561079a5750825b9050600060018367ffffffffffffffff161480156107cf575060003073ffffffffffffffffffffffffffffffffffffffff163b145b9050811580156107dd575080155b15610814576040517ff92ee8a900000000000000000000000000000000000000000000000000000000815260040160405180910390fd5b60018560000160006101000a81548167ffffffffffffffff021916908367ffffffffffffffff16021790555083156108645760018560000160086101000a81548160ff0219169083151502179055505b61086d336112d7565b83156108c95760008560000160086101000a81548160ff0219169083151502179055507fc7f505b2f371ae2175ee4913f4499e1f2633a7b5936321eed1cdaeb6115181d260016040516108c09190611c3d565b60405180910390a15b5050505050565b6108d8611165565b6000808273ffffffffffffffffffffffffffffffffffffffff1673ffffffffffffffffffffffffffffffffffffffff16815260200190815260200160002060020160009054906101000a900460ff16610966576040517f08c379a000000000000000000000000000000000000000000000000000000000815260040161095d90611ca4565b60405180910390fd5b60008060008373ffffffffffffffffffffffffffffffffffffffff1673ffffffffffffffffffffffffffffffffffffffff16815260200190815260200160002060020160006101000a81548160ff0219169083151502179055508073ffffffffffffffffffffffffffffffffffffffff167f98d7b3d048e6fa720609caa5b1caf2a826e4148cefd4e5ea25e27562f8ff4cd660405160405180910390a250565b600080610a116112eb565b90508060000160009054906101000a900473ffffffffffffffffffffffffffffffffffffffff1691505090565b610a46611165565b6000808473ffffffffffffffffffffffffffffffffffffffff1673ffffffffffffffffffffffffffffffffffffffff16815260200190815260200160002060020160009054906101000a900460ff1615610ad5576040517f08c379a0000000000000000000000000000000000000000000000000000000008152600401610acc90611d10565b60405180910390fd5b60006040518060a001604052808573ffffffffffffffffffffffffffffffffffffffff16815260200160008152602001600115158152602001848152602001838152509050806000808673ffffffffffffffffffffffffffffffffffffffff1673ffffffffffffffffffffffffffffffffffffffff16815260200190815260200160002060008201518160000160006101000a81548173ffffffffffffffffffffffffffffffffffffffff021916908373ffffffffffffffffffffffffffffffffffffffff1602179055506020820151816001015560408201518160020160006101000a81548160ff0219169083151502179055506060820151816003019081610bdf9190611ed2565b506080820151816004019081610bf59190611ed2565b50905050600181908060018154018082558091505060019003906000526020600020906005020160009091909190915060008201518160000160006101000a81548173ffffffffffffffffffffffffffffffffffffffff021916908373ffffffffffffffffffffffffffffffffffffffff1602179055506020820151816001015560408201518160020160006101000a81548160ff0219169083151502179055506060820151816003019081610cab9190611ed2565b506080820151816004019081610cc19190611ed2565b5050508373ffffffffffffffffffffffffffffffffffffffff167f76686aa361308f4a08557cca1a847299ce61e5602a3495cd359a599a1dca438c84604051610d0a9190611fa4565b60405180910390a250505050565b60008060008373ffffffffffffffffffffffffffffffffffffffff1673ffffffffffffffffffffffffffffffffffffffff16815260200190815260200160002060020160009054906101000a900460ff169050919050565b60606001805480602002602001604051908101604052809291908181526020016000905b82821015610f6557838290600052602060002090600502016040518060a00160405290816000820160009054906101000a900473ffffffffffffffffffffffffffffffffffffffff1673ffffffffffffffffffffffffffffffffffffffff1673ffffffffffffffffffffffffffffffffffffffff168152602001600182015481526020016002820160009054906101000a900460ff16151515158152602001600382018054610e4290611bb3565b80601f0160208091040260200160405190810160405280929190818152602001828054610e6e90611bb3565b8015610ebb5780601f10610e9057610100808354040283529160200191610ebb565b820191906000526020600020905b815481529060010190602001808311610e9e57829003601f168201915b50505050508152602001600482018054610ed490611bb3565b80601f0160208091040260200160405190810160405280929190818152602001828054610f0090611bb3565b8015610f4d5780601f10610f2257610100808354040283529160200191610f4d565b820191906000526020600020905b815481529060010190602001808311610f3057829003601f168201915b50505050508152505081526020019060010190610d94565b50505050905090565b6000803373ffffffffffffffffffffffffffffffffffffffff1673ffffffffffffffffffffffffffffffffffffffff16815260200190815260200160002060000160009054906101000a900473ffffffffffffffffffffffffffffffffffffffff1673ffffffffffffffffffffffffffffffffffffffff163373ffffffffffffffffffffffffffffffffffffffff161461103d576040517f08c379a000000000000000000000000000000000000000000000000000000000815260040161103490612012565b60405180910390fd5b816000803373ffffffffffffffffffffffffffffffffffffffff1673ffffffffffffffffffffffffffffffffffffffff168152602001908152602001600020600301908161108b9190611ed2565b50806000803373ffffffffffffffffffffffffffffffffffffffff1673ffffffffffffffffffffffffffffffffffffffff16815260200190815260200160002060040190816110da9190611ed2565b505050565b6110e7611165565b600073ffffffffffffffffffffffffffffffffffffffff168173ffffffffffffffffffffffffffffffffffffffff16036111595760006040517f1e4fbdf700000000000000000000000000000000000000000000000000000000815260040161115091906117b5565b60405180910390fd5b611162816111ec565b50565b61116d611313565b73ffffffffffffffffffffffffffffffffffffffff1661118b610a06565b73ffffffffffffffffffffffffffffffffffffffff16146111ea576111ae611313565b6040517f118cdaa70000000000000000000000000000000000000000000000000000000081526004016111e191906117b5565b60405180910390fd5b565b60006111f66112eb565b905060008160000160009054906101000a900473ffffffffffffffffffffffffffffffffffffffff169050828260000160006101000a81548173ffffffffffffffffffffffffffffffffffffffff021916908373ffffffffffffffffffffffffffffffffffffffff1602179055508273ffffffffffffffffffffffffffffffffffffffff168173ffffffffffffffffffffffffffffffffffffffff167f8be0079c531659141344cd1fd0a4f28419497f9722a3daafe3b4186f6b6457e060405160405180910390a3505050565b6000806112ce61131b565b90508091505090565b6112df611346565b6112e881611386565b50565b60007f9016d09d72d40fdae2fd8ceac6b6234c7706214fd39c1cd1e609a0528c199300905090565b600033905090565b60007ff0c57e16840df040f15088dc2f81fe391c3923bec73e23a9662efc9c229c6a0060001b905090565b61134e61140c565b611384576040517fd7e6bcf800000000000000000000000000000000000000000000000000000000815260040160405180910390fd5b565b61138e611346565b600073ffffffffffffffffffffffffffffffffffffffff168173ffffffffffffffffffffffffffffffffffffffff16036114005760006040517f1e4fbdf70000000000000000000000000000000000000000000000000000000081526004016113f791906117b5565b60405180910390fd5b611409816111ec565b50565b60006114166112c3565b60000160089054906101000a900460ff16905090565b6040518060a00160405280600073ffffffffffffffffffffffffffffffffffffffff1681526020016000815260200160001515815260200160608152602001606081525090565b6000604051905090565b600080fd5b600080fd5b6000819050919050565b61149a81611487565b81146114a557600080fd5b50565b6000813590506114b781611491565b92915050565b6000602082840312156114d3576114d261147d565b5b60006114e1848285016114a8565b91505092915050565b600073ffffffffffffffffffffffffffffffffffffffff82169050919050565b6000611515826114ea565b9050919050565b6115258161150a565b82525050565b61153481611487565b82525050565b60008115159050919050565b61154f8161153a565b82525050565b600081519050919050565b600082825260208201905092915050565b60005b8381101561158f578082015181840152602081019050611574565b60008484015250505050565b6000601f19601f8301169050919050565b60006115b782611555565b6115c18185611560565b93506115d1818560208601611571565b6115da8161159b565b840191505092915050565b600060a0820190506115fa600083018861151c565b611607602083018761152b565b6116146040830186611546565b818103606083015261162681856115ac565b9050818103608083015261163a81846115ac565b90509695505050505050565b61164f8161150a565b811461165a57600080fd5b50565b60008135905061166c81611646565b92915050565b6000602082840312156116885761168761147d565b5b60006116968482850161165d565b91505092915050565b6116a88161150a565b82525050565b6116b781611487565b82525050565b6116c68161153a565b82525050565b600082825260208201905092915050565b60006116e882611555565b6116f281856116cc565b9350611702818560208601611571565b61170b8161159b565b840191505092915050565b600060a08301600083015161172e600086018261169f565b50602083015161174160208601826116ae565b50604083015161175460408601826116bd565b506060830151848203606086015261176c82826116dd565b9150506080830151848203608086015261178682826116dd565b9150508091505092915050565b600060208201905081810360008301526117ad8184611716565b905092915050565b60006020820190506117ca600083018461151c565b92915050565b600080fd5b600080fd5b7f4e487b7100000000000000000000000000000000000000000000000000000000600052604160045260246000fd5b6118128261159b565b810181811067ffffffffffffffff82111715611831576118306117da565b5b80604052505050565b6000611844611473565b90506118508282611809565b919050565b600067ffffffffffffffff8211156118705761186f6117da565b5b6118798261159b565b9050602081019050919050565b82818337600083830152505050565b60006118a86118a384611855565b61183a565b9050828152602081018484840111156118c4576118c36117d5565b5b6118cf848285611886565b509392505050565b600082601f8301126118ec576118eb6117d0565b5b81356118fc848260208601611895565b91505092915050565b60008060006060848603121561191e5761191d61147d565b5b600061192c8682870161165d565b935050602084013567ffffffffffffffff81111561194d5761194c611482565b5b611959868287016118d7565b925050604084013567ffffffffffffffff81111561197a57611979611482565b5b611986868287016118d7565b9150509250925092565b60006020820190506119a56000830184611546565b92915050565b600081519050919050565b600082825260208201905092915050565b6000819050602082019050919050565b600060a0830160008301516119ef600086018261169f565b506020830151611a0260208601826116ae565b506040830151611a1560408601826116bd565b5060608301518482036060860152611a2d82826116dd565b91505060808301518482036080860152611a4782826116dd565b9150508091505092915050565b6000611a6083836119d7565b905092915050565b6000602082019050919050565b6000611a80826119ab565b611a8a81856119b6565b935083602082028501611a9c856119c7565b8060005b85811015611ad85784840389528151611ab98582611a54565b9450611ac483611a68565b925060208a01995050600181019050611aa0565b50829750879550505050505092915050565b60006020820190508181036000830152611b048184611a75565b905092915050565b60008060408385031215611b2357611b2261147d565b5b600083013567ffffffffffffffff811115611b4157611b40611482565b5b611b4d858286016118d7565b925050602083013567ffffffffffffffff811115611b6e57611b6d611482565b5b611b7a858286016118d7565b9150509250929050565b7f4e487b7100000000000000000000000000000000000000000000000000000000600052602260045260246000fd5b60006002820490506001821680611bcb57607f821691505b602082108103611bde57611bdd611b84565b5b50919050565b6000819050919050565b600067ffffffffffffffff82169050919050565b6000819050919050565b6000611c27611c22611c1d84611be4565b611c02565b611bee565b9050919050565b611c3781611c0c565b82525050565b6000602082019050611c526000830184611c2e565b92915050565b7f436f6d70616e79204e6f7420666f756e64000000000000000000000000000000600082015250565b6000611c8e601183611560565b9150611c9982611c58565b602082019050919050565b60006020820190508181036000830152611cbd81611c81565b9050919050565b7f436f6d70616e7920526567697374657265640000000000000000000000000000600082015250565b6000611cfa601283611560565b9150611d0582611cc4565b602082019050919050565b60006020820190508181036000830152611d2981611ced565b9050919050565b60008190508160005260206000209050919050565b60006020601f8301049050919050565b600082821b905092915050565b600060088302611d927fffffffffffffffffffffffffffffffffffffffffffffffffffffffffffffffff82611d55565b611d9c8683611d55565b95508019841693508086168417925050509392505050565b6000611dcf611dca611dc584611487565b611c02565b611487565b9050919050565b6000819050919050565b611de983611db4565b611dfd611df582611dd6565b848454611d62565b825550505050565b600090565b611e12611e05565b611e1d818484611de0565b505050565b5b81811015611e4157611e36600082611e0a565b600181019050611e23565b5050565b601f821115611e8657611e5781611d30565b611e6084611d45565b81016020851015611e6f578190505b611e83611e7b85611d45565b830182611e22565b50505b505050565b600082821c905092915050565b6000611ea960001984600802611e8b565b1980831691505092915050565b6000611ec28383611e98565b9150826002028217905092915050565b611edb82611555565b67ffffffffffffffff811115611ef457611ef36117da565b5b611efe8254611bb3565b611f09828285611e45565b600060209050601f831160018114611f3c5760008415611f2a578287015190505b611f348582611eb6565b865550611f9c565b601f198416611f4a86611d30565b60005b82811015611f7257848901518255600182019150602085019450602081019050611f4d565b86831015611f8f5784890151611f8b601f891682611e98565b8355505b6001600288020188555050505b505050505050565b60006020820190508181036000830152611fbe81846115ac565b905092915050565b7f4e6f74205265636f676e69736564000000000000000000000000000000000000600082015250565b6000611ffc600e83611560565b915061200782611fc6565b602082019050919050565b6000602082019050818103600083015261202b81611fef565b905091905056fea26469706673582212200a240a397e323e9c3baec8da63296fbe33c20a35a2e25e1eae28821b1a8604cf64736f6c634300081c0033",
  "linkReferences": {},
  "deployedLinkReferences": {}
}