{
  "_format": "hh-sol-artifact-1",
  "contractName": "BaseUtilityUpgradeable",
  "sourceName": "contracts/BaseUtilityUpgradeable.sol",
  "abi": [
    {
      "inputs": [],
      "name": "InvalidInitialization",
      "type": "error"
    },
    {
      "inputs": [],
      "name": "NotInitializing",
      "type": "error"
    },
    {
      "inputs": [
        {
          "internalType": "address",
          "name": "owner",
          "type": "address"
        }
      ],
      "name": "OwnableInvalidOwner",
      "type": "error"
    },
    {
      "inputs": [
        {
          "internalType": "address",
          "name": "account",
          "type": "address"
        }
      ],
      "name": "OwnableUnauthorizedAccount",
      "type": "error"
    },
    {
      "anonymous": false,
      "inputs": [
        {
          "indexed": true,
          "internalType": "address",
          "name": "company",
          "type": "address"
        }
      ],
      "name": "CompanyDeactivated",
      "type": "event"
    },
    {
      "anonymous": false,
      "inputs": [
        {
          "indexed": true,
          "internalType": "address",
          "name": "company",
          "type": "address"
        },
        {
          "indexed": false,
          "internalType": "string",
          "name": "name",
          "type": "string"
        }
      ],
      "name": "CompanyRegistered",
      "type": "event"
    },
    {
      "anonymous": false,
      "inputs": [
        {
          "indexed": false,
          "internalType": "uint64",
          "name": "version",
          "type": "uint64"
        }
      ],
      "name": "Initialized",
      "type": "event"
    },
    {
      "anonymous": false,
      "inputs": [
        {
          "indexed": true,
          "internalType": "address",
          "name": "previousOwner",
          "type": "address"
        },
        {
          "indexed": true,
          "internalType": "address",
          "name": "newOwner",
          "type": "address"
        }
      ],
      "name": "OwnershipTransferred",
      "type": "event"
    },
    {
      "inputs": [
        {
          "internalType": "address",
          "name": "",
          "type": "address"
        }
      ],
      "name": "companies",
      "outputs": [
        {
          "internalType": "address",
          "name": "companyAddr",
          "type": "address"
        },
        {
          "internalType": "uint256",
          "name": "balance",
          "type": "uint256"
        },
        {
          "internalType": "bool",
          "name": "isActive",
          "type": "bool"
        },
        {
          "internalType": "string",
          "name": "name",
          "type": "string"
        },
        {
          "internalType": "string",
          "name": "utilityService",
          "type": "string"
        }
      ],
      "stateMutability": "view",
      "type": "function"
    },
    {
      "inputs": [
        {
          "internalType": "address",
          "name": "_companyAddr",
          "type": "address"
        }
      ],
      "name": "deactivateCompany",
      "outputs": [],
      "stateMutability": "nonpayable",
      "type": "function"
    },
    {
      "inputs": [
        {
          "internalType": "address",
          "name": "_companyAddr",
          "type": "address"
        }
      ],
      "name": "getCompany",
      "outputs": [
        {
          "internalType": "address",
          "name": "companyAddr",
          "type": "address"
        },
        {
          "internalType": "uint256",
          "name": "balance",
          "type": "uint256"
        },
        {
          "internalType": "bool",
          "name": "isActive",
          "type": "bool"
        },
        {
          "internalType": "string",
          "name": "name",
          "type": "string"
        },
        {
          "internalType": "string",
          "name": "utilityService",
          "type": "string"
        }
      ],
      "stateMutability": "view",
      "type": "function"
    },
    {
      "inputs": [],
      "name": "getRegisteredCompanies",
      "outputs": [
        {
          "components": [
            {
              "internalType": "address",
              "name": "companyAddr",
              "type": "address"
            },
            {
              "internalType": "uint256",
              "name": "balance",
              "type": "uint256"
            },
            {
              "internalType": "bool",
              "name": "isActive",
              "type": "bool"
            },
            {
              "internalType": "string",
              "name": "name",
              "type": "string"
            },
            {
              "internalType": "string",
              "name": "utilityService",
              "type": "string"
            }
          ],
          "internalType": "struct BaseUtilityUpgradeable.Company[]",
          "name": "",
          "type": "tuple[]"
        }
      ],
      "stateMutability": "view",
      "type": "function"
    },
    {
      "inputs": [],
      "name": "initialize",
      "outputs": [],
      "stateMutability": "nonpayable",
      "type": "function"
    },
    {
      "inputs": [],
      "name": "owner",
      "outputs": [
        {
          "internalType": "address",
          "name": "",
          "type": "address"
        }
      ],
      "stateMutability": "view",
      "type": "function"
    },
    {
      "inputs": [
        {
          "internalType": "address",
          "name": "_companyAddr",
          "type": "address"
        },
        {
          "internalType": "string",
          "name": "_name",
          "type": "string"
        },
        {
          "internalType": "string",
          "name": "_utilityService",
          "type": "string"
        }
      ],
      "name": "registerCompany",
      "outputs": [],
      "stateMutability": "nonpayable",
      "type": "function"
    },
    {
      "inputs": [
        {
          "internalType": "uint256",
          "name": "",
          "type": "uint256"
        }
      ],
      "name": "registerdCompanies",
      "outputs": [
        {
          "internalType": "address",
          "name": "companyAddr",
          "type": "address"
        },
        {
          "internalType": "uint256",
          "name": "balance",
          "type": "uint256"
        },
        {
          "internalType": "bool",
          "name": "isActive",
          "type": "bool"
        },
        {
          "internalType": "string",
          "name": "name",
          "type": "string"
        },
        {
          "internalType": "string",
          "name": "utilityService",
          "type": "string"
        }
      ],
      "stateMutability": "view",
      "type": "function"
    },
    {
      "inputs": [],
      "name": "renounceOwnership",
      "outputs": [],
      "stateMutability": "nonpayable",
      "type": "function"
    },
    {
      "inputs": [
        {
          "internalType": "address",
          "name": "newOwner",
          "type": "address"
        }
      ],
      "name": "transferOwnership",
      "outputs": [],
      "stateMutability": "nonpayable",
      "type": "function"
    },
    {
      "inputs": [
        {
          "internalType": "string",
          "name": "_name",
          "type": "string"
        },
        {
          "internalType": "string",
          "name": "_utilityService",
          "type": "string"
        }
      ],
      "name": "updateCompany",
      "outputs": [],
      "stateMutability": "nonpayable",
      "type": "function"
    }
  ],
  "bytecode": "0x6080604052348015600f57600080fd5b50611f028061001f6000396000f3fe608060405234801561001057600080fd5b50600436106100a95760003560e01c806383e005fa1161007157806383e005fa1461015e5780638da5cb5b1461017a5780638e58238c14610198578063ce0a8ed5146101b4578063cf97511e146101d2578063f2fde38b146101ee576100a9565b80631c771579146100ae578063355e6ce8146100e257806362bc56e614610116578063715018a61461014a5780638129fc1c14610154575b600080fd5b6100c860048036038101906100c39190611411565b61020a565b6040516100d9959493929190611539565b60405180910390f35b6100fc60048036038101906100f791906115c6565b61038d565b60405161010d959493929190611539565b60405180910390f35b610130600480360381019061012b91906115c6565b610500565b604051610141959493929190611539565b60405180910390f35b610152610721565b005b61015c610735565b005b610178600480360381019061017391906115c6565b6108c3565b005b6101826109f9565b60405161018f91906115f3565b60405180910390f35b6101b260048036038101906101ad9190611743565b610a31565b005b6101bc610d0b565b6040516101c99190611984565b60405180910390f35b6101ec60048036038101906101e791906119a6565b610f09565b005b610208600480360381019061020391906115c6565b61107a565b005b6001818154811061021a57600080fd5b90600052602060002090600502016000915090508060000160009054906101000a900473ffffffffffffffffffffffffffffffffffffffff16908060010154908060020160009054906101000a900460ff169080600301805461027c90611a4d565b80601f01602080910402602001604051908101604052809291908181526020018280546102a890611a4d565b80156102f55780601f106102ca576101008083540402835291602001916102f5565b820191906000526020600020905b8154815290600101906020018083116102d857829003601f168201915b50505050509080600401805461030a90611a4d565b80601f016020809104026020016040519081016040528092919081815260200182805461033690611a4d565b80156103835780601f1061035857610100808354040283529160200191610383565b820191906000526020600020905b81548152906001019060200180831161036657829003601f168201915b5050505050905085565b60006020528060005260406000206000915090508060000160009054906101000a900473ffffffffffffffffffffffffffffffffffffffff16908060010154908060020160009054906101000a900460ff16908060030180546103ef90611a4d565b80601f016020809104026020016040519081016040528092919081815260200182805461041b90611a4d565b80156104685780601f1061043d57610100808354040283529160200191610468565b820191906000526020600020905b81548152906001019060200180831161044b57829003601f168201915b50505050509080600401805461047d90611a4d565b80601f01602080910402602001604051908101604052809291908181526020018280546104a990611a4d565b80156104f65780601f106104cb576101008083540402835291602001916104f6565b820191906000526020600020905b8154815290600101906020018083116104d957829003601f168201915b5050505050905085565b600080600060608060008060008873ffffffffffffffffffffffffffffffffffffffff1673ffffffffffffffffffffffffffffffffffffffff1681526020019081526020016000206040518060a00160405290816000820160009054906101000a900473ffffffffffffffffffffffffffffffffffffffff1673ffffffffffffffffffffffffffffffffffffffff1673ffffffffffffffffffffffffffffffffffffffff168152602001600182015481526020016002820160009054906101000a900460ff161515151581526020016003820180546105de90611a4d565b80601f016020809104026020016040519081016040528092919081815260200182805461060a90611a4d565b80156106575780601f1061062c57610100808354040283529160200191610657565b820191906000526020600020905b81548152906001019060200180831161063a57829003601f168201915b5050505050815260200160048201805461067090611a4d565b80601f016020809104026020016040519081016040528092919081815260200182805461069c90611a4d565b80156106e95780601f106106be576101008083540402835291602001916106e9565b820191906000526020600020905b8154815290600101906020018083116106cc57829003601f168201915b505050505081525050905080600001518160200151826040015183606001518460800151955095509550955095505091939590929450565b610729611100565b6107336000611187565b565b600061073f61125e565b905060008160000160089054906101000a900460ff1615905060008260000160009054906101000a900467ffffffffffffffff1690506000808267ffffffffffffffff1614801561078d5750825b9050600060018367ffffffffffffffff161480156107c2575060003073ffffffffffffffffffffffffffffffffffffffff163b145b9050811580156107d0575080155b15610807576040517ff92ee8a900000000000000000000000000000000000000000000000000000000815260040160405180910390fd5b60018560000160006101000a81548167ffffffffffffffff021916908367ffffffffffffffff16021790555083156108575760018560000160086101000a81548160ff0219169083151502179055505b61086033611272565b83156108bc5760008560000160086101000a81548160ff0219169083151502179055507fc7f505b2f371ae2175ee4913f4499e1f2633a7b5936321eed1cdaeb6115181d260016040516108b39190611ad7565b60405180910390a15b5050505050565b6108cb611100565b6000808273ffffffffffffffffffffffffffffffffffffffff1673ffffffffffffffffffffffffffffffffffffffff16815260200190815260200160002060020160009054906101000a900460ff16610959576040517f08c379a000000000000000000000000000000000000000000000000000000000815260040161095090611b3e565b60405180910390fd5b60008060008373ffffffffffffffffffffffffffffffffffffffff1673ffffffffffffffffffffffffffffffffffffffff16815260200190815260200160002060020160006101000a81548160ff0219169083151502179055508073ffffffffffffffffffffffffffffffffffffffff167f98d7b3d048e6fa720609caa5b1caf2a826e4148cefd4e5ea25e27562f8ff4cd660405160405180910390a250565b600080610a04611286565b90508060000160009054906101000a900473ffffffffffffffffffffffffffffffffffffffff1691505090565b610a39611100565b6000808473ffffffffffffffffffffffffffffffffffffffff1673ffffffffffffffffffffffffffffffffffffffff16815260200190815260200160002060020160009054906101000a900460ff1615610ac8576040517f08c379a0000000000000000000000000000000000000000000000000000000008152600401610abf90611baa565b60405180910390fd5b60006040518060a001604052808573ffffffffffffffffffffffffffffffffffffffff16815260200160008152602001600115158152602001848152602001838152509050806000808673ffffffffffffffffffffffffffffffffffffffff1673ffffffffffffffffffffffffffffffffffffffff16815260200190815260200160002060008201518160000160006101000a81548173ffffffffffffffffffffffffffffffffffffffff021916908373ffffffffffffffffffffffffffffffffffffffff1602179055506020820151816001015560408201518160020160006101000a81548160ff0219169083151502179055506060820151816003019081610bd29190611d6c565b506080820151816004019081610be89190611d6c565b50905050600181908060018154018082558091505060019003906000526020600020906005020160009091909190915060008201518160000160006101000a81548173ffffffffffffffffffffffffffffffffffffffff021916908373ffffffffffffffffffffffffffffffffffffffff1602179055506020820151816001015560408201518160020160006101000a81548160ff0219169083151502179055506060820151816003019081610c9e9190611d6c565b506080820151816004019081610cb49190611d6c565b5050508373ffffffffffffffffffffffffffffffffffffffff167f76686aa361308f4a08557cca1a847299ce61e5602a3495cd359a599a1dca438c84604051610cfd9190611e3e565b60405180910390a250505050565b60606001805480602002602001604051908101604052809291908181526020016000905b82821015610f0057838290600052602060002090600502016040518060a00160405290816000820160009054906101000a900473ffffffffffffffffffffffffffffffffffffffff1673ffffffffffffffffffffffffffffffffffffffff1673ffffffffffffffffffffffffffffffffffffffff168152602001600182015481526020016002820160009054906101000a900460ff16151515158152602001600382018054610ddd90611a4d565b80601f0160208091040260200160405190810160405280929190818152602001828054610e0990611a4d565b8015610e565780601f10610e2b57610100808354040283529160200191610e56565b820191906000526020600020905b815481529060010190602001808311610e3957829003601f168201915b50505050508152602001600482018054610e6f90611a4d565b80601f0160208091040260200160405190810160405280929190818152602001828054610e9b90611a4d565b8015610ee85780601f10610ebd57610100808354040283529160200191610ee8565b820191906000526020600020905b815481529060010190602001808311610ecb57829003601f168201915b50505050508152505081526020019060010190610d2f565b50505050905090565b6000803373ffffffffffffffffffffffffffffffffffffffff1673ffffffffffffffffffffffffffffffffffffffff16815260200190815260200160002060000160009054906101000a900473ffffffffffffffffffffffffffffffffffffffff1673ffffffffffffffffffffffffffffffffffffffff163373ffffffffffffffffffffffffffffffffffffffff1614610fd8576040517f08c379a0000000000000000000000000000000000000000000000000000000008152600401610fcf90611eac565b60405180910390fd5b816000803373ffffffffffffffffffffffffffffffffffffffff1673ffffffffffffffffffffffffffffffffffffffff16815260200190815260200160002060030190816110269190611d6c565b50806000803373ffffffffffffffffffffffffffffffffffffffff1673ffffffffffffffffffffffffffffffffffffffff16815260200190815260200160002060040190816110759190611d6c565b505050565b611082611100565b600073ffffffffffffffffffffffffffffffffffffffff168173ffffffffffffffffffffffffffffffffffffffff16036110f45760006040517f1e4fbdf70000000000000000000000000000000000000000000000000000000081526004016110eb91906115f3565b60405180910390fd5b6110fd81611187565b50565b6111086112ae565b73ffffffffffffffffffffffffffffffffffffffff166111266109f9565b73ffffffffffffffffffffffffffffffffffffffff1614611185576111496112ae565b6040517f118cdaa700000000000000000000000000000000000000000000000000000000815260040161117c91906115f3565b60405180910390fd5b565b6000611191611286565b905060008160000160009054906101000a900473ffffffffffffffffffffffffffffffffffffffff169050828260000160006101000a81548173ffffffffffffffffffffffffffffffffffffffff021916908373ffffffffffffffffffffffffffffffffffffffff1602179055508273ffffffffffffffffffffffffffffffffffffffff168173ffffffffffffffffffffffffffffffffffffffff167f8be0079c531659141344cd1fd0a4f28419497f9722a3daafe3b4186f6b6457e060405160405180910390a3505050565b6000806112696112b6565b90508091505090565b61127a6112e1565b61128381611321565b50565b60007f9016d09d72d40fdae2fd8ceac6b6234c7706214fd39c1cd1e609a0528c199300905090565b600033905090565b60007ff0c57e16840df040f15088dc2f81fe391c3923bec73e23a9662efc9c229c6a0060001b905090565b6112e96113a7565b61131f576040517fd7e6bcf800000000000000000000000000000000000000000000000000000000815260040160405180910390fd5b565b6113296112e1565b600073ffffffffffffffffffffffffffffffffffffffff168173ffffffffffffffffffffffffffffffffffffffff160361139b5760006040517f1e4fbdf700000000000000000000000000000000000000000000000000000000815260040161139291906115f3565b60405180910390fd5b6113a481611187565b50565b60006113b161125e565b60000160089054906101000a900460ff16905090565b6000604051905090565b600080fd5b600080fd5b6000819050919050565b6113ee816113db565b81146113f957600080fd5b50565b60008135905061140b816113e5565b92915050565b600060208284031215611427576114266113d1565b5b6000611435848285016113fc565b91505092915050565b600073ffffffffffffffffffffffffffffffffffffffff82169050919050565b60006114698261143e565b9050919050565b6114798161145e565b82525050565b611488816113db565b82525050565b60008115159050919050565b6114a38161148e565b82525050565b600081519050919050565b600082825260208201905092915050565b60005b838110156114e35780820151818401526020810190506114c8565b60008484015250505050565b6000601f19601f8301169050919050565b600061150b826114a9565b61151581856114b4565b93506115258185602086016114c5565b61152e816114ef565b840191505092915050565b600060a08201905061154e6000830188611470565b61155b602083018761147f565b611568604083018661149a565b818103606083015261157a8185611500565b9050818103608083015261158e8184611500565b90509695505050505050565b6115a38161145e565b81146115ae57600080fd5b50565b6000813590506115c08161159a565b92915050565b6000602082840312156115dc576115db6113d1565b5b60006115ea848285016115b1565b91505092915050565b60006020820190506116086000830184611470565b92915050565b600080fd5b600080fd5b7f4e487b7100000000000000000000000000000000000000000000000000000000600052604160045260246000fd5b611650826114ef565b810181811067ffffffffffffffff8211171561166f5761166e611618565b5b80604052505050565b60006116826113c7565b905061168e8282611647565b919050565b600067ffffffffffffffff8211156116ae576116ad611618565b5b6116b7826114ef565b9050602081019050919050565b82818337600083830152505050565b60006116e66116e184611693565b611678565b90508281526020810184848401111561170257611701611613565b5b61170d8482856116c4565b509392505050565b600082601f83011261172a5761172961160e565b5b813561173a8482602086016116d3565b91505092915050565b60008060006060848603121561175c5761175b6113d1565b5b600061176a868287016115b1565b935050602084013567ffffffffffffffff81111561178b5761178a6113d6565b5b61179786828701611715565b925050604084013567ffffffffffffffff8111156117b8576117b76113d6565b5b6117c486828701611715565b9150509250925092565b600081519050919050565b600082825260208201905092915050565b6000819050602082019050919050565b6118038161145e565b82525050565b611812816113db565b82525050565b6118218161148e565b82525050565b600082825260208201905092915050565b6000611843826114a9565b61184d8185611827565b935061185d8185602086016114c5565b611866816114ef565b840191505092915050565b600060a08301600083015161188960008601826117fa565b50602083015161189c6020860182611809565b5060408301516118af6040860182611818565b50606083015184820360608601526118c78282611838565b915050608083015184820360808601526118e18282611838565b9150508091505092915050565b60006118fa8383611871565b905092915050565b6000602082019050919050565b600061191a826117ce565b61192481856117d9565b935083602082028501611936856117ea565b8060005b85811015611972578484038952815161195385826118ee565b945061195e83611902565b925060208a0199505060018101905061193a565b50829750879550505050505092915050565b6000602082019050818103600083015261199e818461190f565b905092915050565b600080604083850312156119bd576119bc6113d1565b5b600083013567ffffffffffffffff8111156119db576119da6113d6565b5b6119e785828601611715565b925050602083013567ffffffffffffffff811115611a0857611a076113d6565b5b611a1485828601611715565b9150509250929050565b7f4e487b7100000000000000000000000000000000000000000000000000000000600052602260045260246000fd5b60006002820490506001821680611a6557607f821691505b602082108103611a7857611a77611a1e565b5b50919050565b6000819050919050565b600067ffffffffffffffff82169050919050565b6000819050919050565b6000611ac1611abc611ab784611a7e565b611a9c565b611a88565b9050919050565b611ad181611aa6565b82525050565b6000602082019050611aec6000830184611ac8565b92915050565b7f436f6d70616e79204e6f7420666f756e64000000000000000000000000000000600082015250565b6000611b286011836114b4565b9150611b3382611af2565b602082019050919050565b60006020820190508181036000830152611b5781611b1b565b9050919050565b7f436f6d70616e7920526567697374657265640000000000000000000000000000600082015250565b6000611b946012836114b4565b9150611b9f82611b5e565b602082019050919050565b60006020820190508181036000830152611bc381611b87565b9050919050565b60008190508160005260206000209050919050565b60006020601f8301049050919050565b600082821b905092915050565b600060088302611c2c7fffffffffffffffffffffffffffffffffffffffffffffffffffffffffffffffff82611bef565b611c368683611bef565b95508019841693508086168417925050509392505050565b6000611c69611c64611c5f846113db565b611a9c565b6113db565b9050919050565b6000819050919050565b611c8383611c4e565b611c97611c8f82611c70565b848454611bfc565b825550505050565b600090565b611cac611c9f565b611cb7818484611c7a565b505050565b5b81811015611cdb57611cd0600082611ca4565b600181019050611cbd565b5050565b601f821115611d2057611cf181611bca565b611cfa84611bdf565b81016020851015611d09578190505b611d1d611d1585611bdf565b830182611cbc565b50505b505050565b600082821c905092915050565b6000611d4360001984600802611d25565b1980831691505092915050565b6000611d5c8383611d32565b9150826002028217905092915050565b611d75826114a9565b67ffffffffffffffff811115611d8e57611d8d611618565b5b611d988254611a4d565b611da3828285611cdf565b600060209050601f831160018114611dd65760008415611dc4578287015190505b611dce8582611d50565b865550611e36565b601f198416611de486611bca565b60005b82811015611e0c57848901518255600182019150602085019450602081019050611de7565b86831015611e295784890151611e25601f891682611d32565b8355505b6001600288020188555050505b505050505050565b60006020820190508181036000830152611e588184611500565b905092915050565b7f4e6f74205265636f676e69736564000000000000000000000000000000000000600082015250565b6000611e96600e836114b4565b9150611ea182611e60565b602082019050919050565b60006020820190508181036000830152611ec581611e89565b905091905056fea264697066735822122046b5efa222ecbf441071bec7c93fde5eb3f8603639041f1208a525d38fbed41464736f6c634300081c0033",
  "linkReferences": {},
  "deployedLinkReferences": {}
}