{
  "_format": "hh-sol-artifact-1",
  "contractName": "BaseUtilityUpgradeable",
  "sourceName": "contracts/BaseUtilityUpgradeable.sol",
  "abi": [
    {
      "inputs": [],
      "name": "InvalidInitialization",
      "type": "error"
    },
    {
      "inputs": [],
      "name": "NotInitializing",
      "type": "error"
    },
    {
      "inputs": [
        {
          "internalType": "address",
          "name": "owner",
          "type": "address"
        }
      ],
      "name": "OwnableInvalidOwner",
      "type": "error"
    },
    {
      "inputs": [
        {
          "internalType": "address",
          "name": "account",
          "type": "address"
        }
      ],
      "name": "OwnableUnauthorizedAccount",
      "type": "error"
    },
    {
      "anonymous": false,
      "inputs": [
        {
          "indexed": true,
          "internalType": "address",
          "name": "company",
          "type": "address"
        }
      ],
      "name": "CompanyDeactivated",
      "type": "event"
    },
    {
      "anonymous": false,
      "inputs": [
        {
          "indexed": true,
          "internalType": "address",
          "name": "company",
          "type": "address"
        },
        {
          "indexed": false,
          "internalType": "string",
          "name": "name",
          "type": "string"
        }
      ],
      "name": "CompanyRegistered",
      "type": "event"
    },
    {
      "anonymous": false,
      "inputs": [
        {
          "indexed": false,
          "internalType": "uint64",
          "name": "version",
          "type": "uint64"
        }
      ],
      "name": "Initialized",
      "type": "event"
    },
    {
      "anonymous": false,
      "inputs": [
        {
          "indexed": true,
          "internalType": "address",
          "name": "previousOwner",
          "type": "address"
        },
        {
          "indexed": true,
          "internalType": "address",
          "name": "newOwner",
          "type": "address"
        }
      ],
      "name": "OwnershipTransferred",
      "type": "event"
    },
    {
      "inputs": [
        {
          "internalType": "address",
          "name": "",
          "type": "address"
        }
      ],
      "name": "companies",
      "outputs": [
        {
          "internalType": "address",
          "name": "companyAddr",
          "type": "address"
        },
        {
          "internalType": "uint256",
          "name": "balance",
          "type": "uint256"
        },
        {
          "internalType": "bool",
          "name": "isActive",
          "type": "bool"
        },
        {
          "internalType": "string",
          "name": "name",
          "type": "string"
        },
        {
          "internalType": "string",
          "name": "utilityService",
          "type": "string"
        }
      ],
      "stateMutability": "view",
      "type": "function"
    },
    {
      "inputs": [
        {
          "internalType": "address",
          "name": "_companyAddr",
          "type": "address"
        }
      ],
      "name": "deactivateCompany",
      "outputs": [],
      "stateMutability": "nonpayable",
      "type": "function"
    },
    {
      "inputs": [
        {
          "internalType": "address",
          "name": "_companyAddr",
          "type": "address"
        }
      ],
      "name": "getCompany",
      "outputs": [
        {
          "components": [
            {
              "internalType": "address",
              "name": "companyAddr",
              "type": "address"
            },
            {
              "internalType": "uint256",
              "name": "balance",
              "type": "uint256"
            },
            {
              "internalType": "bool",
              "name": "isActive",
              "type": "bool"
            },
            {
              "internalType": "string",
              "name": "name",
              "type": "string"
            },
            {
              "internalType": "string",
              "name": "utilityService",
              "type": "string"
            }
          ],
          "internalType": "struct BaseUtilityUpgradeable.Company",
          "name": "",
          "type": "tuple"
        }
      ],
      "stateMutability": "view",
      "type": "function"
    },
    {
      "inputs": [],
      "name": "initialize",
      "outputs": [],
      "stateMutability": "nonpayable",
      "type": "function"
    },
    {
      "inputs": [
        {
          "internalType": "address",
          "name": "_companyAddr",
          "type": "address"
        }
      ],
      "name": "isCompanyActive",
      "outputs": [
        {
          "internalType": "bool",
          "name": "",
          "type": "bool"
        }
      ],
      "stateMutability": "view",
      "type": "function"
    },
    {
      "inputs": [],
      "name": "owner",
      "outputs": [
        {
          "internalType": "address",
          "name": "",
          "type": "address"
        }
      ],
      "stateMutability": "view",
      "type": "function"
    },
    {
      "inputs": [
        {
          "internalType": "address",
          "name": "_companyAddr",
          "type": "address"
        },
        {
          "internalType": "string",
          "name": "_name",
          "type": "string"
        },
        {
          "internalType": "string",
          "name": "_utilityService",
          "type": "string"
        }
      ],
      "name": "registerCompany",
      "outputs": [],
      "stateMutability": "nonpayable",
      "type": "function"
    },
    {
      "inputs": [],
      "name": "renounceOwnership",
      "outputs": [],
      "stateMutability": "nonpayable",
      "type": "function"
    },
    {
      "inputs": [
        {
          "internalType": "address",
          "name": "newOwner",
          "type": "address"
        }
      ],
      "name": "transferOwnership",
      "outputs": [],
      "stateMutability": "nonpayable",
      "type": "function"
    },
    {
      "inputs": [
        {
          "internalType": "string",
          "name": "_name",
          "type": "string"
        },
        {
          "internalType": "string",
          "name": "_utilityService",
          "type": "string"
        }
      ],
      "name": "updateCompany",
      "outputs": [],
      "stateMutability": "nonpayable",
      "type": "function"
    }
  ],
  "bytecode": "0x6080604052348015600f57600080fd5b506119f48061001f6000396000f3fe608060405234801561001057600080fd5b506004361061009e5760003560e01c80638da5cb5b116100665780638da5cb5b146101375780638e58238c14610155578063b60edbbe14610171578063cf97511e146101a1578063f2fde38b146101bd5761009e565b8063355e6ce8146100a357806362bc56e6146100d7578063715018a6146101075780638129fc1c1461011157806383e005fa1461011b575b600080fd5b6100bd60048036038101906100b8919061102b565b6101d9565b6040516100ce95949392919061112b565b60405180910390f35b6100f160048036038101906100ec919061102b565b61034c565b6040516100fe9190611280565b60405180910390f35b61010f610543565b005b610119610557565b005b6101356004803603810190610130919061102b565b6106e5565b005b61013f61081b565b60405161014c91906112a2565b60405180910390f35b61016f600480360381019061016a91906113f2565b610853565b005b61018b6004803603810190610186919061102b565b610a5c565b604051610198919061147d565b60405180910390f35b6101bb60048036038101906101b69190611498565b610ab4565b005b6101d760048036038101906101d2919061102b565b610c25565b005b60006020528060005260406000206000915090508060000160009054906101000a900473ffffffffffffffffffffffffffffffffffffffff16908060010154908060020160009054906101000a900460ff169080600301805461023b9061153f565b80601f01602080910402602001604051908101604052809291908181526020018280546102679061153f565b80156102b45780601f10610289576101008083540402835291602001916102b4565b820191906000526020600020905b81548152906001019060200180831161029757829003601f168201915b5050505050908060040180546102c99061153f565b80601f01602080910402602001604051908101604052809291908181526020018280546102f59061153f565b80156103425780601f1061031757610100808354040283529160200191610342565b820191906000526020600020905b81548152906001019060200180831161032557829003601f168201915b5050505050905085565b610354610f72565b6000808373ffffffffffffffffffffffffffffffffffffffff1673ffffffffffffffffffffffffffffffffffffffff1681526020019081526020016000206040518060a00160405290816000820160009054906101000a900473ffffffffffffffffffffffffffffffffffffffff1673ffffffffffffffffffffffffffffffffffffffff1673ffffffffffffffffffffffffffffffffffffffff168152602001600182015481526020016002820160009054906101000a900460ff161515151581526020016003820180546104289061153f565b80601f01602080910402602001604051908101604052809291908181526020018280546104549061153f565b80156104a15780601f10610476576101008083540402835291602001916104a1565b820191906000526020600020905b81548152906001019060200180831161048457829003601f168201915b505050505081526020016004820180546104ba9061153f565b80601f01602080910402602001604051908101604052809291908181526020018280546104e69061153f565b80156105335780601f1061050857610100808354040283529160200191610533565b820191906000526020600020905b81548152906001019060200180831161051657829003601f168201915b5050505050815250509050919050565b61054b610cab565b6105556000610d32565b565b6000610561610e09565b905060008160000160089054906101000a900460ff1615905060008260000160009054906101000a900467ffffffffffffffff1690506000808267ffffffffffffffff161480156105af5750825b9050600060018367ffffffffffffffff161480156105e4575060003073ffffffffffffffffffffffffffffffffffffffff163b145b9050811580156105f2575080155b15610629576040517ff92ee8a900000000000000000000000000000000000000000000000000000000815260040160405180910390fd5b60018560000160006101000a81548167ffffffffffffffff021916908367ffffffffffffffff16021790555083156106795760018560000160086101000a81548160ff0219169083151502179055505b61068233610e1d565b83156106de5760008560000160086101000a81548160ff0219169083151502179055507fc7f505b2f371ae2175ee4913f4499e1f2633a7b5936321eed1cdaeb6115181d260016040516106d591906115c9565b60405180910390a15b5050505050565b6106ed610cab565b6000808273ffffffffffffffffffffffffffffffffffffffff1673ffffffffffffffffffffffffffffffffffffffff16815260200190815260200160002060020160009054906101000a900460ff1661077b576040517f08c379a000000000000000000000000000000000000000000000000000000000815260040161077290611630565b60405180910390fd5b60008060008373ffffffffffffffffffffffffffffffffffffffff1673ffffffffffffffffffffffffffffffffffffffff16815260200190815260200160002060020160006101000a81548160ff0219169083151502179055508073ffffffffffffffffffffffffffffffffffffffff167f98d7b3d048e6fa720609caa5b1caf2a826e4148cefd4e5ea25e27562f8ff4cd660405160405180910390a250565b600080610826610e31565b90508060000160009054906101000a900473ffffffffffffffffffffffffffffffffffffffff1691505090565b61085b610cab565b6000808473ffffffffffffffffffffffffffffffffffffffff1673ffffffffffffffffffffffffffffffffffffffff16815260200190815260200160002060020160009054906101000a900460ff16156108ea576040517f08c379a00000000000000000000000000000000000000000000000000000000081526004016108e19061169c565b60405180910390fd5b6040518060a001604052808473ffffffffffffffffffffffffffffffffffffffff16815260200160008152602001600115158152602001838152602001828152506000808573ffffffffffffffffffffffffffffffffffffffff1673ffffffffffffffffffffffffffffffffffffffff16815260200190815260200160002060008201518160000160006101000a81548173ffffffffffffffffffffffffffffffffffffffff021916908373ffffffffffffffffffffffffffffffffffffffff1602179055506020820151816001015560408201518160020160006101000a81548160ff02191690831515021790555060608201518160030190816109ef919061185e565b506080820151816004019081610a05919061185e565b509050508273ffffffffffffffffffffffffffffffffffffffff167f76686aa361308f4a08557cca1a847299ce61e5602a3495cd359a599a1dca438c83604051610a4f9190611930565b60405180910390a2505050565b60008060008373ffffffffffffffffffffffffffffffffffffffff1673ffffffffffffffffffffffffffffffffffffffff16815260200190815260200160002060020160009054906101000a900460ff169050919050565b6000803373ffffffffffffffffffffffffffffffffffffffff1673ffffffffffffffffffffffffffffffffffffffff16815260200190815260200160002060000160009054906101000a900473ffffffffffffffffffffffffffffffffffffffff1673ffffffffffffffffffffffffffffffffffffffff163373ffffffffffffffffffffffffffffffffffffffff1614610b83576040517f08c379a0000000000000000000000000000000000000000000000000000000008152600401610b7a9061199e565b60405180910390fd5b816000803373ffffffffffffffffffffffffffffffffffffffff1673ffffffffffffffffffffffffffffffffffffffff1681526020019081526020016000206003019081610bd1919061185e565b50806000803373ffffffffffffffffffffffffffffffffffffffff1673ffffffffffffffffffffffffffffffffffffffff1681526020019081526020016000206004019081610c20919061185e565b505050565b610c2d610cab565b600073ffffffffffffffffffffffffffffffffffffffff168173ffffffffffffffffffffffffffffffffffffffff1603610c9f5760006040517f1e4fbdf7000000000000000000000000000000000000000000000000000000008152600401610c9691906112a2565b60405180910390fd5b610ca881610d32565b50565b610cb3610e59565b73ffffffffffffffffffffffffffffffffffffffff16610cd161081b565b73ffffffffffffffffffffffffffffffffffffffff1614610d3057610cf4610e59565b6040517f118cdaa7000000000000000000000000000000000000000000000000000000008152600401610d2791906112a2565b60405180910390fd5b565b6000610d3c610e31565b905060008160000160009054906101000a900473ffffffffffffffffffffffffffffffffffffffff169050828260000160006101000a81548173ffffffffffffffffffffffffffffffffffffffff021916908373ffffffffffffffffffffffffffffffffffffffff1602179055508273ffffffffffffffffffffffffffffffffffffffff168173ffffffffffffffffffffffffffffffffffffffff167f8be0079c531659141344cd1fd0a4f28419497f9722a3daafe3b4186f6b6457e060405160405180910390a3505050565b600080610e14610e61565b90508091505090565b610e25610e8c565b610e2e81610ecc565b50565b60007f9016d09d72d40fdae2fd8ceac6b6234c7706214fd39c1cd1e609a0528c199300905090565b600033905090565b60007ff0c57e16840df040f15088dc2f81fe391c3923bec73e23a9662efc9c229c6a0060001b905090565b610e94610f52565b610eca576040517fd7e6bcf800000000000000000000000000000000000000000000000000000000815260040160405180910390fd5b565b610ed4610e8c565b600073ffffffffffffffffffffffffffffffffffffffff168173ffffffffffffffffffffffffffffffffffffffff1603610f465760006040517f1e4fbdf7000000000000000000000000000000000000000000000000000000008152600401610f3d91906112a2565b60405180910390fd5b610f4f81610d32565b50565b6000610f5c610e09565b60000160089054906101000a900460ff16905090565b6040518060a00160405280600073ffffffffffffffffffffffffffffffffffffffff1681526020016000815260200160001515815260200160608152602001606081525090565b6000604051905090565b600080fd5b600080fd5b600073ffffffffffffffffffffffffffffffffffffffff82169050919050565b6000610ff882610fcd565b9050919050565b61100881610fed565b811461101357600080fd5b50565b60008135905061102581610fff565b92915050565b60006020828403121561104157611040610fc3565b5b600061104f84828501611016565b91505092915050565b61106181610fed565b82525050565b6000819050919050565b61107a81611067565b82525050565b60008115159050919050565b61109581611080565b82525050565b600081519050919050565b600082825260208201905092915050565b60005b838110156110d55780820151818401526020810190506110ba565b60008484015250505050565b6000601f19601f8301169050919050565b60006110fd8261109b565b61110781856110a6565b93506111178185602086016110b7565b611120816110e1565b840191505092915050565b600060a0820190506111406000830188611058565b61114d6020830187611071565b61115a604083018661108c565b818103606083015261116c81856110f2565b9050818103608083015261118081846110f2565b90509695505050505050565b61119581610fed565b82525050565b6111a481611067565b82525050565b6111b381611080565b82525050565b600082825260208201905092915050565b60006111d58261109b565b6111df81856111b9565b93506111ef8185602086016110b7565b6111f8816110e1565b840191505092915050565b600060a08301600083015161121b600086018261118c565b50602083015161122e602086018261119b565b50604083015161124160408601826111aa565b506060830151848203606086015261125982826111ca565b9150506080830151848203608086015261127382826111ca565b9150508091505092915050565b6000602082019050818103600083015261129a8184611203565b905092915050565b60006020820190506112b76000830184611058565b92915050565b600080fd5b600080fd5b7f4e487b7100000000000000000000000000000000000000000000000000000000600052604160045260246000fd5b6112ff826110e1565b810181811067ffffffffffffffff8211171561131e5761131d6112c7565b5b80604052505050565b6000611331610fb9565b905061133d82826112f6565b919050565b600067ffffffffffffffff82111561135d5761135c6112c7565b5b611366826110e1565b9050602081019050919050565b82818337600083830152505050565b600061139561139084611342565b611327565b9050828152602081018484840111156113b1576113b06112c2565b5b6113bc848285611373565b509392505050565b600082601f8301126113d9576113d86112bd565b5b81356113e9848260208601611382565b91505092915050565b60008060006060848603121561140b5761140a610fc3565b5b600061141986828701611016565b935050602084013567ffffffffffffffff81111561143a57611439610fc8565b5b611446868287016113c4565b925050604084013567ffffffffffffffff81111561146757611466610fc8565b5b611473868287016113c4565b9150509250925092565b6000602082019050611492600083018461108c565b92915050565b600080604083850312156114af576114ae610fc3565b5b600083013567ffffffffffffffff8111156114cd576114cc610fc8565b5b6114d9858286016113c4565b925050602083013567ffffffffffffffff8111156114fa576114f9610fc8565b5b611506858286016113c4565b9150509250929050565b7f4e487b7100000000000000000000000000000000000000000000000000000000600052602260045260246000fd5b6000600282049050600182168061155757607f821691505b60208210810361156a57611569611510565b5b50919050565b6000819050919050565b600067ffffffffffffffff82169050919050565b6000819050919050565b60006115b36115ae6115a984611570565b61158e565b61157a565b9050919050565b6115c381611598565b82525050565b60006020820190506115de60008301846115ba565b92915050565b7f436f6d70616e79204e6f7420666f756e64000000000000000000000000000000600082015250565b600061161a6011836110a6565b9150611625826115e4565b602082019050919050565b600060208201905081810360008301526116498161160d565b9050919050565b7f436f6d70616e7920526567697374657265640000000000000000000000000000600082015250565b60006116866012836110a6565b915061169182611650565b602082019050919050565b600060208201905081810360008301526116b581611679565b9050919050565b60008190508160005260206000209050919050565b60006020601f8301049050919050565b600082821b905092915050565b60006008830261171e7fffffffffffffffffffffffffffffffffffffffffffffffffffffffffffffffff826116e1565b61172886836116e1565b95508019841693508086168417925050509392505050565b600061175b61175661175184611067565b61158e565b611067565b9050919050565b6000819050919050565b61177583611740565b61178961178182611762565b8484546116ee565b825550505050565b600090565b61179e611791565b6117a981848461176c565b505050565b5b818110156117cd576117c2600082611796565b6001810190506117af565b5050565b601f821115611812576117e3816116bc565b6117ec846116d1565b810160208510156117fb578190505b61180f611807856116d1565b8301826117ae565b50505b505050565b600082821c905092915050565b600061183560001984600802611817565b1980831691505092915050565b600061184e8383611824565b9150826002028217905092915050565b6118678261109b565b67ffffffffffffffff8111156118805761187f6112c7565b5b61188a825461153f565b6118958282856117d1565b600060209050601f8311600181146118c857600084156118b6578287015190505b6118c08582611842565b865550611928565b601f1984166118d6866116bc565b60005b828110156118fe578489015182556001820191506020850194506020810190506118d9565b8683101561191b5784890151611917601f891682611824565b8355505b6001600288020188555050505b505050505050565b6000602082019050818103600083015261194a81846110f2565b905092915050565b7f4e6f74205265636f676e69736564000000000000000000000000000000000000600082015250565b6000611988600e836110a6565b915061199382611952565b602082019050919050565b600060208201905081810360008301526119b78161197b565b905091905056fea26469706673582212205f4afeee4b6c61847b02b2fe96e444bdb59dc1eea18fc316938a42aecb37eb8964736f6c634300081c0033",
  "linkReferences": {},
  "deployedLinkReferences": {}
}