{
  "_format": "hh-sol-artifact-1",
  "contractName": "LogicUtilityUpgradable",
  "sourceName": "contracts/LogicUtilityUpgradable.sol",
  "abi": [
    {
      "inputs": [],
      "name": "InvalidInitialization",
      "type": "error"
    },
    {
      "inputs": [],
      "name": "NotInitializing",
      "type": "error"
    },
    {
      "inputs": [
        {
          "internalType": "address",
          "name": "owner",
          "type": "address"
        }
      ],
      "name": "OwnableInvalidOwner",
      "type": "error"
    },
    {
      "inputs": [
        {
          "internalType": "address",
          "name": "account",
          "type": "address"
        }
      ],
      "name": "OwnableUnauthorizedAccount",
      "type": "error"
    },
    {
      "inputs": [],
      "name": "ReentrancyGuardReentrantCall",
      "type": "error"
    },
    {
      "anonymous": false,
      "inputs": [
        {
          "indexed": true,
          "internalType": "address",
          "name": "company",
          "type": "address"
        },
        {
          "indexed": false,
          "internalType": "uint256",
          "name": "amount",
          "type": "uint256"
        }
      ],
      "name": "CompanyWithdrawn",
      "type": "event"
    },
    {
      "anonymous": false,
      "inputs": [
        {
          "indexed": false,
          "internalType": "uint64",
          "name": "version",
          "type": "uint64"
        }
      ],
      "name": "Initialized",
      "type": "event"
    },
    {
      "anonymous": false,
      "inputs": [
        {
          "indexed": true,
          "internalType": "address",
          "name": "previousOwner",
          "type": "address"
        },
        {
          "indexed": true,
          "internalType": "address",
          "name": "newOwner",
          "type": "address"
        }
      ],
      "name": "OwnershipTransferred",
      "type": "event"
    },
    {
      "anonymous": false,
      "inputs": [
        {
          "indexed": true,
          "internalType": "address",
          "name": "payer",
          "type": "address"
        },
        {
          "indexed": true,
          "internalType": "address",
          "name": "company",
          "type": "address"
        },
        {
          "indexed": false,
          "internalType": "uint256",
          "name": "amount",
          "type": "uint256"
        }
      ],
      "name": "PaymentMode",
      "type": "event"
    },
    {
      "anonymous": false,
      "inputs": [
        {
          "indexed": true,
          "internalType": "address",
          "name": "to",
          "type": "address"
        },
        {
          "indexed": false,
          "internalType": "uint256",
          "name": "amount",
          "type": "uint256"
        }
      ],
      "name": "PlatformFeeWithdrawn",
      "type": "event"
    },
    {
      "inputs": [
        {
          "internalType": "address",
          "name": "",
          "type": "address"
        }
      ],
      "name": "companyBalances",
      "outputs": [
        {
          "internalType": "uint256",
          "name": "",
          "type": "uint256"
        }
      ],
      "stateMutability": "view",
      "type": "function"
    },
    {
      "inputs": [],
      "name": "companyManager",
      "outputs": [
        {
          "internalType": "contract ICompanyManager",
          "name": "",
          "type": "address"
        }
      ],
      "stateMutability": "view",
      "type": "function"
    },
    {
      "inputs": [],
      "name": "feeCollector",
      "outputs": [
        {
          "internalType": "address",
          "name": "",
          "type": "address"
        }
      ],
      "stateMutability": "view",
      "type": "function"
    },
    {
      "inputs": [],
      "name": "feePercentage",
      "outputs": [
        {
          "internalType": "uint256",
          "name": "",
          "type": "uint256"
        }
      ],
      "stateMutability": "view",
      "type": "function"
    },
    {
      "inputs": [
        {
          "internalType": "address",
          "name": "_company",
          "type": "address"
        }
      ],
      "name": "getCompanyBalance",
      "outputs": [
        {
          "internalType": "uint256",
          "name": "",
          "type": "uint256"
        }
      ],
      "stateMutability": "view",
      "type": "function"
    },
    {
      "inputs": [
        {
          "internalType": "address",
          "name": "user",
          "type": "address"
        }
      ],
      "name": "getReceipt",
      "outputs": [
        {
          "components": [
            {
              "internalType": "address",
              "name": "company",
              "type": "address"
            },
            {
              "internalType": "address",
              "name": "payer",
              "type": "address"
            },
            {
              "internalType": "uint96",
              "name": "amount",
              "type": "uint96"
            },
            {
              "internalType": "uint96",
              "name": "platformFee",
              "type": "uint96"
            },
            {
              "internalType": "uint96",
              "name": "netPaid",
              "type": "uint96"
            },
            {
              "internalType": "uint64",
              "name": "timestamp",
              "type": "uint64"
            },
            {
              "internalType": "uint32",
              "name": "id",
              "type": "uint32"
            }
          ],
          "internalType": "struct LogicUtilityUpgradable.Receipt",
          "name": "",
          "type": "tuple"
        }
      ],
      "stateMutability": "view",
      "type": "function"
    },
    {
      "inputs": [
        {
          "internalType": "address",
          "name": "_baseUtility",
          "type": "address"
        }
      ],
      "name": "initialize",
      "outputs": [],
      "stateMutability": "nonpayable",
      "type": "function"
    },
    {
      "inputs": [],
      "name": "owner",
      "outputs": [
        {
          "internalType": "address",
          "name": "",
          "type": "address"
        }
      ],
      "stateMutability": "view",
      "type": "function"
    },
    {
      "inputs": [
        {
          "internalType": "address",
          "name": "_company",
          "type": "address"
        }
      ],
      "name": "payUtility",
      "outputs": [],
      "stateMutability": "payable",
      "type": "function"
    },
    {
      "inputs": [
        {
          "internalType": "address",
          "name": "",
          "type": "address"
        }
      ],
      "name": "receipt",
      "outputs": [
        {
          "internalType": "address",
          "name": "company",
          "type": "address"
        },
        {
          "internalType": "address",
          "name": "payer",
          "type": "address"
        },
        {
          "internalType": "uint96",
          "name": "amount",
          "type": "uint96"
        },
        {
          "internalType": "uint96",
          "name": "platformFee",
          "type": "uint96"
        },
        {
          "internalType": "uint96",
          "name": "netPaid",
          "type": "uint96"
        },
        {
          "internalType": "uint64",
          "name": "timestamp",
          "type": "uint64"
        },
        {
          "internalType": "uint32",
          "name": "id",
          "type": "uint32"
        }
      ],
      "stateMutability": "view",
      "type": "function"
    },
    {
      "inputs": [],
      "name": "receiptCounter",
      "outputs": [
        {
          "internalType": "uint32",
          "name": "",
          "type": "uint32"
        }
      ],
      "stateMutability": "view",
      "type": "function"
    },
    {
      "inputs": [],
      "name": "renounceOwnership",
      "outputs": [],
      "stateMutability": "nonpayable",
      "type": "function"
    },
    {
      "inputs": [],
      "name": "totalFeesCollected",
      "outputs": [
        {
          "internalType": "uint256",
          "name": "",
          "type": "uint256"
        }
      ],
      "stateMutability": "view",
      "type": "function"
    },
    {
      "inputs": [],
      "name": "totalPlatformTransactions",
      "outputs": [
        {
          "internalType": "uint256",
          "name": "",
          "type": "uint256"
        }
      ],
      "stateMutability": "view",
      "type": "function"
    },
    {
      "inputs": [],
      "name": "totalTransactedAmount",
      "outputs": [
        {
          "internalType": "uint256",
          "name": "",
          "type": "uint256"
        }
      ],
      "stateMutability": "view",
      "type": "function"
    },
    {
      "inputs": [
        {
          "internalType": "address",
          "name": "newOwner",
          "type": "address"
        }
      ],
      "name": "transferOwnership",
      "outputs": [],
      "stateMutability": "nonpayable",
      "type": "function"
    },
    {
      "inputs": [
        {
          "internalType": "uint256",
          "name": "_fee",
          "type": "uint256"
        }
      ],
      "name": "updateFees",
      "outputs": [],
      "stateMutability": "nonpayable",
      "type": "function"
    },
    {
      "inputs": [],
      "name": "withdraw",
      "outputs": [],
      "stateMutability": "nonpayable",
      "type": "function"
    },
    {
      "inputs": [
        {
          "internalType": "uint256",
          "name": "_amount",
          "type": "uint256"
        }
      ],
      "name": "withdrawPlatformFee",
      "outputs": [],
      "stateMutability": "nonpayable",
      "type": "function"
    },
    {
      "stateMutability": "payable",
      "type": "receive"
    }
  ],
  "bytecode": "0x6080604052348015600f57600080fd5b5061269a8061001f6000396000f3fe6080604052600436106101185760003560e01c8063a001ecdd116100a0578063dde7c19011610064578063dde7c19014610388578063e1e86fd7146103b1578063e35e5663146103dc578063f2fde38b1461041f578063ffcc0b04146104485761011f565b8063a001ecdd146102b3578063a15b60ad146102de578063c415b95c14610309578063c4d66de814610334578063cc4320b41461035d5761011f565b806360c6d8ae116100e757806360c6d8ae146101e0578063715018a61461020b57806378dacee1146102225780638da5cb5b1461024b5780639ec74878146102765761011f565b806304562d9514610124578063074b6c1414610161578063123c3d111461019e5780633ccfd60b146101c95761011f565b3661011f57005b600080fd5b34801561013057600080fd5b5061014b60048036038101906101469190611b5f565b610464565b6040516101589190611c92565b60405180910390f35b34801561016d57600080fd5b5061018860048036038101906101839190611b5f565b6107e3565b6040516101959190611cc6565b60405180910390f35b3480156101aa57600080fd5b506101b36107fb565b6040516101c09190611cc6565b60405180910390f35b3480156101d557600080fd5b506101de610801565b005b3480156101ec57600080fd5b506101f5610ad6565b6040516102029190611cc6565b60405180910390f35b34801561021757600080fd5b50610220610adc565b005b34801561022e57600080fd5b5061024960048036038101906102449190611d0d565b610af0565b005b34801561025757600080fd5b50610260610b46565b60405161026d9190611d49565b60405180910390f35b34801561028257600080fd5b5061029d60048036038101906102989190611b5f565b610b7e565b6040516102aa9190611cc6565b60405180910390f35b3480156102bf57600080fd5b506102c8610bc7565b6040516102d59190611cc6565b60405180910390f35b3480156102ea57600080fd5b506102f3610bcd565b6040516103009190611d73565b60405180910390f35b34801561031557600080fd5b5061031e610be3565b60405161032b9190611d49565b60405180910390f35b34801561034057600080fd5b5061035b60048036038101906103569190611b5f565b610c09565b005b34801561036957600080fd5b50610372610de0565b60405161037f9190611ded565b60405180910390f35b34801561039457600080fd5b506103af60048036038101906103aa9190611d0d565b610e04565b005b3480156103bd57600080fd5b506103c6610f42565b6040516103d39190611cc6565b60405180910390f35b3480156103e857600080fd5b5061040360048036038101906103fe9190611b5f565b610f4c565b6040516104169796959493929190611e26565b60405180910390f35b34801561042b57600080fd5b5061044660048036038101906104419190611b5f565b61103a565b005b610462600480360381019061045d9190611b5f565b6110c0565b005b61046c611a4a565b600660003373ffffffffffffffffffffffffffffffffffffffff1673ffffffffffffffffffffffffffffffffffffffff16815260200190815260200160002060000160009054906101000a900473ffffffffffffffffffffffffffffffffffffffff1673ffffffffffffffffffffffffffffffffffffffff163373ffffffffffffffffffffffffffffffffffffffff1614806105955750600660003373ffffffffffffffffffffffffffffffffffffffff1673ffffffffffffffffffffffffffffffffffffffff16815260200190815260200160002060010160009054906101000a900473ffffffffffffffffffffffffffffffffffffffff1673ffffffffffffffffffffffffffffffffffffffff163373ffffffffffffffffffffffffffffffffffffffff16145b6105d4576040517f08c379a00000000000000000000000000000000000000000000000000000000081526004016105cb90611ef2565b60405180910390fd5b600660008373ffffffffffffffffffffffffffffffffffffffff1673ffffffffffffffffffffffffffffffffffffffff1681526020019081526020016000206040518060e00160405290816000820160009054906101000a900473ffffffffffffffffffffffffffffffffffffffff1673ffffffffffffffffffffffffffffffffffffffff1673ffffffffffffffffffffffffffffffffffffffff1681526020016001820160009054906101000a900473ffffffffffffffffffffffffffffffffffffffff1673ffffffffffffffffffffffffffffffffffffffff1673ffffffffffffffffffffffffffffffffffffffff1681526020016001820160149054906101000a90046bffffffffffffffffffffffff166bffffffffffffffffffffffff166bffffffffffffffffffffffff1681526020016002820160009054906101000a90046bffffffffffffffffffffffff166bffffffffffffffffffffffff166bffffffffffffffffffffffff16815260200160028201600c9054906101000a90046bffffffffffffffffffffffff166bffffffffffffffffffffffff166bffffffffffffffffffffffff1681526020016002820160189054906101000a900467ffffffffffffffff1667ffffffffffffffff1667ffffffffffffffff1681526020016003820160009054906101000a900463ffffffff1663ffffffff1663ffffffff16815250509050919050565b60046020528060005260406000206000915090505481565b60035481565b6108096116b8565b60008060009054906101000a900473ffffffffffffffffffffffffffffffffffffffff1673ffffffffffffffffffffffffffffffffffffffff166362bc56e6336040518263ffffffff1660e01b81526004016108659190611d49565b600060405180830381865afa158015610882573d6000803e3d6000fd5b505050506040513d6000823e3d601f19601f820116820180604052508101906108ab91906120d5565b5050505090508073ffffffffffffffffffffffffffffffffffffffff163373ffffffffffffffffffffffffffffffffffffffff161461091f576040517f08c379a0000000000000000000000000000000000000000000000000000000008152600401610916906121d4565b60405180910390fd5b6000600460003373ffffffffffffffffffffffffffffffffffffffff1673ffffffffffffffffffffffffffffffffffffffff168152602001908152602001600020549050600081116109a6576040517f08c379a000000000000000000000000000000000000000000000000000000000815260040161099d90612240565b60405180910390fd5b60006103e8600154836109b9919061228f565b6109c39190612300565b9050600081836109d39190612331565b90503373ffffffffffffffffffffffffffffffffffffffff166108fc829081150290604051600060405180830381858888f19350505050158015610a1b573d6000803e3d6000fd5b506000600460003373ffffffffffffffffffffffffffffffffffffffff1673ffffffffffffffffffffffffffffffffffffffff168152602001908152602001600020819055508160026000828254610a739190612365565b925050819055503373ffffffffffffffffffffffffffffffffffffffff167f65305606dea28fc8c58524b3e3c1735f8065e6dc05580d0f73dc2d9e9a8d0e6784604051610ac09190611cc6565b60405180910390a250505050610ad461170f565b565b60025481565b610ae4611728565b610aee60006117af565b565b610af8611728565b6103e88110610b3c576040517f08c379a0000000000000000000000000000000000000000000000000000000008152600401610b33906123e5565b60405180910390fd5b8060018190555050565b600080610b51611886565b90508060000160009054906101000a900473ffffffffffffffffffffffffffffffffffffffff1691505090565b6000600460008373ffffffffffffffffffffffffffffffffffffffff1673ffffffffffffffffffffffffffffffffffffffff168152602001908152602001600020549050919050565b60015481565b600760009054906101000a900463ffffffff1681565b600560009054906101000a900473ffffffffffffffffffffffffffffffffffffffff1681565b6000610c136118ae565b905060008160000160089054906101000a900460ff1615905060008260000160009054906101000a900467ffffffffffffffff1690506000808267ffffffffffffffff16148015610c615750825b9050600060018367ffffffffffffffff16148015610c96575060003073ffffffffffffffffffffffffffffffffffffffff163b145b905081158015610ca4575080155b15610cdb576040517ff92ee8a900000000000000000000000000000000000000000000000000000000815260040160405180910390fd5b60018560000160006101000a81548167ffffffffffffffff021916908367ffffffffffffffff1602179055508315610d2b5760018560000160086101000a81548160ff0219169083151502179055505b610d34336118c2565b610d3c6118d6565b856000806101000a81548173ffffffffffffffffffffffffffffffffffffffff021916908373ffffffffffffffffffffffffffffffffffffffff1602179055508315610dd85760008560000160086101000a81548160ff0219169083151502179055507fc7f505b2f371ae2175ee4913f4499e1f2633a7b5936321eed1cdaeb6115181d26001604051610dcf9190612440565b60405180910390a15b505050505050565b60008054906101000a900473ffffffffffffffffffffffffffffffffffffffff1681565b610e0c611728565b610e146116b8565b610e1c610b46565b73ffffffffffffffffffffffffffffffffffffffff163373ffffffffffffffffffffffffffffffffffffffff1614610e89576040517f08c379a0000000000000000000000000000000000000000000000000000000008152600401610e80906124a7565b60405180910390fd5b3373ffffffffffffffffffffffffffffffffffffffff166108fc829081150290604051600060405180830381858888f19350505050158015610ecf573d6000803e3d6000fd5b508060026000828254610ee29190612331565b925050819055503373ffffffffffffffffffffffffffffffffffffffff167fd116803f8b8538a601b6096e8d1196e3ce3ef43dec6dbbe4cd4e5c69dd171d8b82604051610f2f9190611cc6565b60405180910390a2610f3f61170f565b50565b6000600354905090565b60066020528060005260406000206000915090508060000160009054906101000a900473ffffffffffffffffffffffffffffffffffffffff16908060010160009054906101000a900473ffffffffffffffffffffffffffffffffffffffff16908060010160149054906101000a90046bffffffffffffffffffffffff16908060020160009054906101000a90046bffffffffffffffffffffffff169080600201600c9054906101000a90046bffffffffffffffffffffffff16908060020160189054906101000a900467ffffffffffffffff16908060030160009054906101000a900463ffffffff16905087565b611042611728565b600073ffffffffffffffffffffffffffffffffffffffff168173ffffffffffffffffffffffffffffffffffffffff16036110b45760006040517f1e4fbdf70000000000000000000000000000000000000000000000000000000081526004016110ab9190611d49565b60405180910390fd5b6110bd816117af565b50565b60003411611103576040517f08c379a00000000000000000000000000000000000000000000000000000000081526004016110fa90612513565b60405180910390fd5b60008054906101000a900473ffffffffffffffffffffffffffffffffffffffff1673ffffffffffffffffffffffffffffffffffffffff1663b60edbbe826040518263ffffffff1660e01b815260040161115c9190611d49565b602060405180830381865afa158015611179573d6000803e3d6000fd5b505050506040513d601f19601f8201168201806040525081019061119d9190612533565b6111dc576040517f08c379a00000000000000000000000000000000000000000000000000000000081526004016111d3906125ac565b60405180910390fd5b60008060009054906101000a900473ffffffffffffffffffffffffffffffffffffffff1673ffffffffffffffffffffffffffffffffffffffff166362bc56e6836040518263ffffffff1660e01b81526004016112389190611d49565b600060405180830381865afa158015611255573d6000803e3d6000fd5b505050506040513d6000823e3d601f19601f8201168201806040525081019061127e91906120d5565b505050509050600073ffffffffffffffffffffffffffffffffffffffff168173ffffffffffffffffffffffffffffffffffffffff16036112f3576040517f08c379a00000000000000000000000000000000000000000000000000000000081526004016112ea90612618565b60405180910390fd5b60006103e860015434611306919061228f565b6113109190612300565b9050600081346113209190612331565b90506040518060e001604052808473ffffffffffffffffffffffffffffffffffffffff1681526020013373ffffffffffffffffffffffffffffffffffffffff168152602001346bffffffffffffffffffffffff168152602001836bffffffffffffffffffffffff168152602001826bffffffffffffffffffffffff1681526020014267ffffffffffffffff1681526020016007600081819054906101000a900463ffffffff16809291906113d390612638565b91906101000a81548163ffffffff021916908363ffffffff16021790555063ffffffff16815250600660003373ffffffffffffffffffffffffffffffffffffffff1673ffffffffffffffffffffffffffffffffffffffff16815260200190815260200160002060008201518160000160006101000a81548173ffffffffffffffffffffffffffffffffffffffff021916908373ffffffffffffffffffffffffffffffffffffffff16021790555060208201518160010160006101000a81548173ffffffffffffffffffffffffffffffffffffffff021916908373ffffffffffffffffffffffffffffffffffffffff16021790555060408201518160010160146101000a8154816bffffffffffffffffffffffff02191690836bffffffffffffffffffffffff16021790555060608201518160020160006101000a8154816bffffffffffffffffffffffff02191690836bffffffffffffffffffffffff160217905550608082015181600201600c6101000a8154816bffffffffffffffffffffffff02191690836bffffffffffffffffffffffff16021790555060a08201518160020160186101000a81548167ffffffffffffffff021916908367ffffffffffffffff16021790555060c08201518160030160006101000a81548163ffffffff021916908363ffffffff16021790555090505081600260008282546115d79190612365565b9250508190555034600360008282546115f09190612365565b9250508190555080600460008573ffffffffffffffffffffffffffffffffffffffff1673ffffffffffffffffffffffffffffffffffffffff16815260200190815260200160002060008282546116469190612365565b925050819055508273ffffffffffffffffffffffffffffffffffffffff163373ffffffffffffffffffffffffffffffffffffffff167f75104157b9f31839796f032ad698701badf2fdb84bc160387e540e16faa22fe6346040516116aa9190611cc6565b60405180910390a350505050565b60006116c26118e8565b90506002816000015403611702576040517f3ee5aeb500000000000000000000000000000000000000000000000000000000815260040160405180910390fd5b6002816000018190555050565b60006117196118e8565b90506001816000018190555050565b611730611910565b73ffffffffffffffffffffffffffffffffffffffff1661174e610b46565b73ffffffffffffffffffffffffffffffffffffffff16146117ad57611771611910565b6040517f118cdaa70000000000000000000000000000000000000000000000000000000081526004016117a49190611d49565b60405180910390fd5b565b60006117b9611886565b905060008160000160009054906101000a900473ffffffffffffffffffffffffffffffffffffffff169050828260000160006101000a81548173ffffffffffffffffffffffffffffffffffffffff021916908373ffffffffffffffffffffffffffffffffffffffff1602179055508273ffffffffffffffffffffffffffffffffffffffff168173ffffffffffffffffffffffffffffffffffffffff167f8be0079c531659141344cd1fd0a4f28419497f9722a3daafe3b4186f6b6457e060405160405180910390a3505050565b60007f9016d09d72d40fdae2fd8ceac6b6234c7706214fd39c1cd1e609a0528c199300905090565b6000806118b9611918565b90508091505090565b6118ca611943565b6118d381611983565b50565b6118de611943565b6118e6611a09565b565b60007f9b779b17422d0df92223018b32b4d1fa46e071723d6817e2486d003becc55f00905090565b600033905090565b60007ff0c57e16840df040f15088dc2f81fe391c3923bec73e23a9662efc9c229c6a0060001b905090565b61194b611a2a565b611981576040517fd7e6bcf800000000000000000000000000000000000000000000000000000000815260040160405180910390fd5b565b61198b611943565b600073ffffffffffffffffffffffffffffffffffffffff168173ffffffffffffffffffffffffffffffffffffffff16036119fd5760006040517f1e4fbdf70000000000000000000000000000000000000000000000000000000081526004016119f49190611d49565b60405180910390fd5b611a06816117af565b50565b611a11611943565b6000611a1b6118e8565b90506001816000018190555050565b6000611a346118ae565b60000160089054906101000a900460ff16905090565b6040518060e00160405280600073ffffffffffffffffffffffffffffffffffffffff168152602001600073ffffffffffffffffffffffffffffffffffffffff16815260200160006bffffffffffffffffffffffff16815260200160006bffffffffffffffffffffffff16815260200160006bffffffffffffffffffffffff168152602001600067ffffffffffffffff168152602001600063ffffffff1681525090565b6000604051905090565b600080fd5b600080fd5b600073ffffffffffffffffffffffffffffffffffffffff82169050919050565b6000611b2c82611b01565b9050919050565b611b3c81611b21565b8114611b4757600080fd5b50565b600081359050611b5981611b33565b92915050565b600060208284031215611b7557611b74611af7565b5b6000611b8384828501611b4a565b91505092915050565b611b9581611b21565b82525050565b60006bffffffffffffffffffffffff82169050919050565b611bbc81611b9b565b82525050565b600067ffffffffffffffff82169050919050565b611bdf81611bc2565b82525050565b600063ffffffff82169050919050565b611bfe81611be5565b82525050565b60e082016000820151611c1a6000850182611b8c565b506020820151611c2d6020850182611b8c565b506040820151611c406040850182611bb3565b506060820151611c536060850182611bb3565b506080820151611c666080850182611bb3565b5060a0820151611c7960a0850182611bd6565b5060c0820151611c8c60c0850182611bf5565b50505050565b600060e082019050611ca76000830184611c04565b92915050565b6000819050919050565b611cc081611cad565b82525050565b6000602082019050611cdb6000830184611cb7565b92915050565b611cea81611cad565b8114611cf557600080fd5b50565b600081359050611d0781611ce1565b92915050565b600060208284031215611d2357611d22611af7565b5b6000611d3184828501611cf8565b91505092915050565b611d4381611b21565b82525050565b6000602082019050611d5e6000830184611d3a565b92915050565b611d6d81611be5565b82525050565b6000602082019050611d886000830184611d64565b92915050565b6000819050919050565b6000611db3611dae611da984611b01565b611d8e565b611b01565b9050919050565b6000611dc582611d98565b9050919050565b6000611dd782611dba565b9050919050565b611de781611dcc565b82525050565b6000602082019050611e026000830184611dde565b92915050565b611e1181611b9b565b82525050565b611e2081611bc2565b82525050565b600060e082019050611e3b600083018a611d3a565b611e486020830189611d3a565b611e556040830188611e08565b611e626060830187611e08565b611e6f6080830186611e08565b611e7c60a0830185611e17565b611e8960c0830184611d64565b98975050505050505050565b600082825260208201905092915050565b7f4e6f7420617574686f7269736564210000000000000000000000000000000000600082015250565b6000611edc600f83611e95565b9150611ee782611ea6565b602082019050919050565b60006020820190508181036000830152611f0b81611ecf565b9050919050565b600081519050611f2181611b33565b92915050565b600081519050611f3681611ce1565b92915050565b60008115159050919050565b611f5181611f3c565b8114611f5c57600080fd5b50565b600081519050611f6e81611f48565b92915050565b600080fd5b600080fd5b6000601f19601f8301169050919050565b7f4e487b7100000000000000000000000000000000000000000000000000000000600052604160045260246000fd5b611fc782611f7e565b810181811067ffffffffffffffff82111715611fe657611fe5611f8f565b5b80604052505050565b6000611ff9611aed565b90506120058282611fbe565b919050565b600067ffffffffffffffff82111561202557612024611f8f565b5b61202e82611f7e565b9050602081019050919050565b60005b8381101561205957808201518184015260208101905061203e565b60008484015250505050565b60006120786120738461200a565b611fef565b90508281526020810184848401111561209457612093611f79565b5b61209f84828561203b565b509392505050565b600082601f8301126120bc576120bb611f74565b5b81516120cc848260208601612065565b91505092915050565b600080600080600060a086880312156120f1576120f0611af7565b5b60006120ff88828901611f12565b955050602061211088828901611f27565b945050604061212188828901611f5f565b935050606086015167ffffffffffffffff81111561214257612141611afc565b5b61214e888289016120a7565b925050608086015167ffffffffffffffff81111561216f5761216e611afc565b5b61217b888289016120a7565b9150509295509295909350565b7f4e6f74207265636f676e69736564000000000000000000000000000000000000600082015250565b60006121be600e83611e95565b91506121c982612188565b602082019050919050565b600060208201905081810360008301526121ed816121b1565b9050919050565b7f4e6f7420656e6f7567682062616c616e63650000000000000000000000000000600082015250565b600061222a601283611e95565b9150612235826121f4565b602082019050919050565b600060208201905081810360008301526122598161221d565b9050919050565b7f4e487b7100000000000000000000000000000000000000000000000000000000600052601160045260246000fd5b600061229a82611cad565b91506122a583611cad565b92508282026122b381611cad565b915082820484148315176122ca576122c9612260565b5b5092915050565b7f4e487b7100000000000000000000000000000000000000000000000000000000600052601260045260246000fd5b600061230b82611cad565b915061231683611cad565b925082612326576123256122d1565b5b828204905092915050565b600061233c82611cad565b915061234783611cad565b925082820390508181111561235f5761235e612260565b5b92915050565b600061237082611cad565b915061237b83611cad565b925082820190508082111561239357612392612260565b5b92915050565b7f4869676820666565000000000000000000000000000000000000000000000000600082015250565b60006123cf600883611e95565b91506123da82612399565b602082019050919050565b600060208201905081810360008301526123fe816123c2565b9050919050565b6000819050919050565b600061242a61242561242084612405565b611d8e565b611bc2565b9050919050565b61243a8161240f565b82525050565b60006020820190506124556000830184612431565b92915050565b7f4e6f74204f776e65720000000000000000000000000000000000000000000000600082015250565b6000612491600983611e95565b915061249c8261245b565b602082019050919050565b600060208201905081810360008301526124c081612484565b9050919050565b7f496e76616c696420416d6f756e74000000000000000000000000000000000000600082015250565b60006124fd600e83611e95565b9150612508826124c7565b602082019050919050565b6000602082019050818103600083015261252c816124f0565b9050919050565b60006020828403121561254957612548611af7565b5b600061255784828501611f5f565b91505092915050565b7f436f6d70616e79204e6f7420466f756e64000000000000000000000000000000600082015250565b6000612596601183611e95565b91506125a182612560565b602082019050919050565b600060208201905081810360008301526125c581612589565b9050919050565b7f41646472657373204e6f7420466f756e64000000000000000000000000000000600082015250565b6000612602601183611e95565b915061260d826125cc565b602082019050919050565b60006020820190508181036000830152612631816125f5565b9050919050565b600061264382611be5565b915063ffffffff820361265957612658612260565b5b60018201905091905056fea264697066735822122012453987625e00d1040f3d67bb0054bc4e1be1d2147d218e7aaf2a1d1815c70864736f6c634300081c0033",
  "linkReferences": {},
  "deployedLinkReferences": {}
}