{
  "_format": "hh-sol-artifact-1",
  "contractName": "LogicUtilityUpgradable",
  "sourceName": "contracts/LogicUtilityUpgradable.sol",
  "abi": [
    {
      "inputs": [],
      "name": "InvalidInitialization",
      "type": "error"
    },
    {
      "inputs": [],
      "name": "NotInitializing",
      "type": "error"
    },
    {
      "inputs": [
        {
          "internalType": "address",
          "name": "owner",
          "type": "address"
        }
      ],
      "name": "OwnableInvalidOwner",
      "type": "error"
    },
    {
      "inputs": [
        {
          "internalType": "address",
          "name": "account",
          "type": "address"
        }
      ],
      "name": "OwnableUnauthorizedAccount",
      "type": "error"
    },
    {
      "inputs": [],
      "name": "ReentrancyGuardReentrantCall",
      "type": "error"
    },
    {
      "anonymous": false,
      "inputs": [
        {
          "indexed": true,
          "internalType": "address",
          "name": "company",
          "type": "address"
        },
        {
          "indexed": false,
          "internalType": "uint256",
          "name": "amount",
          "type": "uint256"
        }
      ],
      "name": "CompanyWithdrawn",
      "type": "event"
    },
    {
      "anonymous": false,
      "inputs": [
        {
          "indexed": false,
          "internalType": "uint64",
          "name": "version",
          "type": "uint64"
        }
      ],
      "name": "Initialized",
      "type": "event"
    },
    {
      "anonymous": false,
      "inputs": [
        {
          "indexed": true,
          "internalType": "address",
          "name": "previousOwner",
          "type": "address"
        },
        {
          "indexed": true,
          "internalType": "address",
          "name": "newOwner",
          "type": "address"
        }
      ],
      "name": "OwnershipTransferred",
      "type": "event"
    },
    {
      "anonymous": false,
      "inputs": [
        {
          "indexed": true,
          "internalType": "address",
          "name": "payer",
          "type": "address"
        },
        {
          "indexed": true,
          "internalType": "address",
          "name": "company",
          "type": "address"
        },
        {
          "indexed": false,
          "internalType": "uint256",
          "name": "amount",
          "type": "uint256"
        }
      ],
      "name": "PaymentMode",
      "type": "event"
    },
    {
      "anonymous": false,
      "inputs": [
        {
          "indexed": true,
          "internalType": "address",
          "name": "to",
          "type": "address"
        },
        {
          "indexed": false,
          "internalType": "uint256",
          "name": "amount",
          "type": "uint256"
        }
      ],
      "name": "PlatformFeeWithdrawn",
      "type": "event"
    },
    {
      "inputs": [
        {
          "internalType": "address",
          "name": "",
          "type": "address"
        }
      ],
      "name": "companyBalances",
      "outputs": [
        {
          "internalType": "uint256",
          "name": "",
          "type": "uint256"
        }
      ],
      "stateMutability": "view",
      "type": "function"
    },
    {
      "inputs": [],
      "name": "companyManager",
      "outputs": [
        {
          "internalType": "contract ICompanyManager",
          "name": "",
          "type": "address"
        }
      ],
      "stateMutability": "view",
      "type": "function"
    },
    {
      "inputs": [],
      "name": "feeCollector",
      "outputs": [
        {
          "internalType": "address",
          "name": "",
          "type": "address"
        }
      ],
      "stateMutability": "view",
      "type": "function"
    },
    {
      "inputs": [],
      "name": "feePercentage",
      "outputs": [
        {
          "internalType": "uint256",
          "name": "",
          "type": "uint256"
        }
      ],
      "stateMutability": "view",
      "type": "function"
    },
    {
      "inputs": [
        {
          "internalType": "address",
          "name": "_company",
          "type": "address"
        }
      ],
      "name": "getCompanyBalance",
      "outputs": [
        {
          "internalType": "uint256",
          "name": "",
          "type": "uint256"
        }
      ],
      "stateMutability": "view",
      "type": "function"
    },
    {
      "inputs": [],
      "name": "getReceipt",
      "outputs": [
        {
          "components": [
            {
              "internalType": "address",
              "name": "company",
              "type": "address"
            },
            {
              "internalType": "address",
              "name": "payer",
              "type": "address"
            },
            {
              "internalType": "uint96",
              "name": "amount",
              "type": "uint96"
            },
            {
              "internalType": "uint96",
              "name": "platformFee",
              "type": "uint96"
            },
            {
              "internalType": "uint96",
              "name": "netPaid",
              "type": "uint96"
            },
            {
              "internalType": "uint64",
              "name": "timestamp",
              "type": "uint64"
            },
            {
              "internalType": "uint32",
              "name": "id",
              "type": "uint32"
            }
          ],
          "internalType": "struct LogicUtilityUpgradable.Receipt",
          "name": "",
          "type": "tuple"
        }
      ],
      "stateMutability": "view",
      "type": "function"
    },
    {
      "inputs": [
        {
          "internalType": "address",
          "name": "_baseUtility",
          "type": "address"
        }
      ],
      "name": "initialize",
      "outputs": [],
      "stateMutability": "nonpayable",
      "type": "function"
    },
    {
      "inputs": [],
      "name": "owner",
      "outputs": [
        {
          "internalType": "address",
          "name": "",
          "type": "address"
        }
      ],
      "stateMutability": "view",
      "type": "function"
    },
    {
      "inputs": [
        {
          "internalType": "address",
          "name": "_company",
          "type": "address"
        }
      ],
      "name": "payUtility",
      "outputs": [],
      "stateMutability": "payable",
      "type": "function"
    },
    {
      "inputs": [
        {
          "internalType": "address",
          "name": "",
          "type": "address"
        }
      ],
      "name": "receipt",
      "outputs": [
        {
          "internalType": "address",
          "name": "company",
          "type": "address"
        },
        {
          "internalType": "address",
          "name": "payer",
          "type": "address"
        },
        {
          "internalType": "uint96",
          "name": "amount",
          "type": "uint96"
        },
        {
          "internalType": "uint96",
          "name": "platformFee",
          "type": "uint96"
        },
        {
          "internalType": "uint96",
          "name": "netPaid",
          "type": "uint96"
        },
        {
          "internalType": "uint64",
          "name": "timestamp",
          "type": "uint64"
        },
        {
          "internalType": "uint32",
          "name": "id",
          "type": "uint32"
        }
      ],
      "stateMutability": "view",
      "type": "function"
    },
    {
      "inputs": [],
      "name": "receiptCounter",
      "outputs": [
        {
          "internalType": "uint32",
          "name": "",
          "type": "uint32"
        }
      ],
      "stateMutability": "view",
      "type": "function"
    },
    {
      "inputs": [],
      "name": "renounceOwnership",
      "outputs": [],
      "stateMutability": "nonpayable",
      "type": "function"
    },
    {
      "inputs": [],
      "name": "totalFeesCollected",
      "outputs": [
        {
          "internalType": "uint256",
          "name": "",
          "type": "uint256"
        }
      ],
      "stateMutability": "view",
      "type": "function"
    },
    {
      "inputs": [],
      "name": "totalPlatformTransactions",
      "outputs": [
        {
          "internalType": "uint256",
          "name": "",
          "type": "uint256"
        }
      ],
      "stateMutability": "view",
      "type": "function"
    },
    {
      "inputs": [],
      "name": "totalTransactedAmount",
      "outputs": [
        {
          "internalType": "uint256",
          "name": "",
          "type": "uint256"
        }
      ],
      "stateMutability": "view",
      "type": "function"
    },
    {
      "inputs": [
        {
          "internalType": "address",
          "name": "newOwner",
          "type": "address"
        }
      ],
      "name": "transferOwnership",
      "outputs": [],
      "stateMutability": "nonpayable",
      "type": "function"
    },
    {
      "inputs": [
        {
          "internalType": "uint256",
          "name": "_fee",
          "type": "uint256"
        }
      ],
      "name": "updateFees",
      "outputs": [],
      "stateMutability": "nonpayable",
      "type": "function"
    },
    {
      "inputs": [],
      "name": "withdraw",
      "outputs": [],
      "stateMutability": "nonpayable",
      "type": "function"
    },
    {
      "inputs": [
        {
          "internalType": "uint256",
          "name": "_amount",
          "type": "uint256"
        }
      ],
      "name": "withdrawPlatformFee",
      "outputs": [],
      "stateMutability": "nonpayable",
      "type": "function"
    },
    {
      "stateMutability": "payable",
      "type": "receive"
    }
  ],
  "bytecode": "0x6080604052348015600f57600080fd5b506124b28061001f6000396000f3fe6080604052600436106101185760003560e01c8063a001ecdd116100a0578063dde7c19011610064578063dde7c19014610376578063e1e86fd71461039f578063e35e5663146103ca578063f2fde38b1461040d578063ffcc0b04146104365761011f565b8063a001ecdd146102a1578063a15b60ad146102cc578063c415b95c146102f7578063c4d66de814610322578063cc4320b41461034b5761011f565b806360c6d8ae116100e757806360c6d8ae146101ce578063715018a6146101f957806378dacee1146102105780638da5cb5b146102395780639ec74878146102645761011f565b8063074b6c1414610124578063123c3d11146101615780633ccfd60b1461018c57806357d945c9146101a35761011f565b3661011f57005b600080fd5b34801561013057600080fd5b5061014b600480360381019061014691906119e3565b610452565b6040516101589190611a29565b60405180910390f35b34801561016d57600080fd5b5061017661046a565b6040516101839190611a29565b60405180910390f35b34801561019857600080fd5b506101a1610470565b005b3480156101af57600080fd5b506101b8610745565b6040516101c59190611b4a565b60405180910390f35b3480156101da57600080fd5b506101e361095a565b6040516101f09190611a29565b60405180910390f35b34801561020557600080fd5b5061020e610960565b005b34801561021c57600080fd5b5061023760048036038101906102329190611b91565b610974565b005b34801561024557600080fd5b5061024e6109ca565b60405161025b9190611bcd565b60405180910390f35b34801561027057600080fd5b5061028b600480360381019061028691906119e3565b610a02565b6040516102989190611a29565b60405180910390f35b3480156102ad57600080fd5b506102b6610a4b565b6040516102c39190611a29565b60405180910390f35b3480156102d857600080fd5b506102e1610a51565b6040516102ee9190611bf7565b60405180910390f35b34801561030357600080fd5b5061030c610a67565b6040516103199190611bcd565b60405180910390f35b34801561032e57600080fd5b50610349600480360381019061034491906119e3565b610a8d565b005b34801561035757600080fd5b50610360610c64565b60405161036d9190611c71565b60405180910390f35b34801561038257600080fd5b5061039d60048036038101906103989190611b91565b610c88565b005b3480156103ab57600080fd5b506103b4610dc6565b6040516103c19190611a29565b60405180910390f35b3480156103d657600080fd5b506103f160048036038101906103ec91906119e3565b610dd0565b6040516104049796959493929190611caa565b60405180910390f35b34801561041957600080fd5b50610434600480360381019061042f91906119e3565b610ebe565b005b610450600480360381019061044b91906119e3565b610f44565b005b60046020528060005260406000206000915090505481565b60035481565b61047861153c565b60008060009054906101000a900473ffffffffffffffffffffffffffffffffffffffff1673ffffffffffffffffffffffffffffffffffffffff166362bc56e6336040518263ffffffff1660e01b81526004016104d49190611bcd565b600060405180830381865afa1580156104f1573d6000803e3d6000fd5b505050506040513d6000823e3d601f19601f8201168201806040525081019061051a9190611edc565b5050505090508073ffffffffffffffffffffffffffffffffffffffff163373ffffffffffffffffffffffffffffffffffffffff161461058e576040517f08c379a000000000000000000000000000000000000000000000000000000000815260040161058590611fec565b60405180910390fd5b6000600460003373ffffffffffffffffffffffffffffffffffffffff1673ffffffffffffffffffffffffffffffffffffffff16815260200190815260200160002054905060008111610615576040517f08c379a000000000000000000000000000000000000000000000000000000000815260040161060c90612058565b60405180910390fd5b60006103e86001548361062891906120a7565b6106329190612118565b9050600081836106429190612149565b90503373ffffffffffffffffffffffffffffffffffffffff166108fc829081150290604051600060405180830381858888f1935050505015801561068a573d6000803e3d6000fd5b506000600460003373ffffffffffffffffffffffffffffffffffffffff1673ffffffffffffffffffffffffffffffffffffffff1681526020019081526020016000208190555081600260008282546106e2919061217d565b925050819055503373ffffffffffffffffffffffffffffffffffffffff167f65305606dea28fc8c58524b3e3c1735f8065e6dc05580d0f73dc2d9e9a8d0e678460405161072f9190611a29565b60405180910390a250505050610743611593565b565b61074d6118ce565b600660003373ffffffffffffffffffffffffffffffffffffffff1673ffffffffffffffffffffffffffffffffffffffff1681526020019081526020016000206040518060e00160405290816000820160009054906101000a900473ffffffffffffffffffffffffffffffffffffffff1673ffffffffffffffffffffffffffffffffffffffff1673ffffffffffffffffffffffffffffffffffffffff1681526020016001820160009054906101000a900473ffffffffffffffffffffffffffffffffffffffff1673ffffffffffffffffffffffffffffffffffffffff1673ffffffffffffffffffffffffffffffffffffffff1681526020016001820160149054906101000a90046bffffffffffffffffffffffff166bffffffffffffffffffffffff166bffffffffffffffffffffffff1681526020016002820160009054906101000a90046bffffffffffffffffffffffff166bffffffffffffffffffffffff166bffffffffffffffffffffffff16815260200160028201600c9054906101000a90046bffffffffffffffffffffffff166bffffffffffffffffffffffff166bffffffffffffffffffffffff1681526020016002820160189054906101000a900467ffffffffffffffff1667ffffffffffffffff1667ffffffffffffffff1681526020016003820160009054906101000a900463ffffffff1663ffffffff1663ffffffff1681525050905090565b60025481565b6109686115ac565b6109726000611633565b565b61097c6115ac565b6103e881106109c0576040517f08c379a00000000000000000000000000000000000000000000000000000000081526004016109b7906121fd565b60405180910390fd5b8060018190555050565b6000806109d561170a565b90508060000160009054906101000a900473ffffffffffffffffffffffffffffffffffffffff1691505090565b6000600460008373ffffffffffffffffffffffffffffffffffffffff1673ffffffffffffffffffffffffffffffffffffffff168152602001908152602001600020549050919050565b60015481565b600760009054906101000a900463ffffffff1681565b600560009054906101000a900473ffffffffffffffffffffffffffffffffffffffff1681565b6000610a97611732565b905060008160000160089054906101000a900460ff1615905060008260000160009054906101000a900467ffffffffffffffff1690506000808267ffffffffffffffff16148015610ae55750825b9050600060018367ffffffffffffffff16148015610b1a575060003073ffffffffffffffffffffffffffffffffffffffff163b145b905081158015610b28575080155b15610b5f576040517ff92ee8a900000000000000000000000000000000000000000000000000000000815260040160405180910390fd5b60018560000160006101000a81548167ffffffffffffffff021916908367ffffffffffffffff1602179055508315610baf5760018560000160086101000a81548160ff0219169083151502179055505b610bb833611746565b610bc061175a565b856000806101000a81548173ffffffffffffffffffffffffffffffffffffffff021916908373ffffffffffffffffffffffffffffffffffffffff1602179055508315610c5c5760008560000160086101000a81548160ff0219169083151502179055507fc7f505b2f371ae2175ee4913f4499e1f2633a7b5936321eed1cdaeb6115181d26001604051610c539190612258565b60405180910390a15b505050505050565b60008054906101000a900473ffffffffffffffffffffffffffffffffffffffff1681565b610c906115ac565b610c9861153c565b610ca06109ca565b73ffffffffffffffffffffffffffffffffffffffff163373ffffffffffffffffffffffffffffffffffffffff1614610d0d576040517f08c379a0000000000000000000000000000000000000000000000000000000008152600401610d04906122bf565b60405180910390fd5b3373ffffffffffffffffffffffffffffffffffffffff166108fc829081150290604051600060405180830381858888f19350505050158015610d53573d6000803e3d6000fd5b508060026000828254610d669190612149565b925050819055503373ffffffffffffffffffffffffffffffffffffffff167fd116803f8b8538a601b6096e8d1196e3ce3ef43dec6dbbe4cd4e5c69dd171d8b82604051610db39190611a29565b60405180910390a2610dc3611593565b50565b6000600354905090565b60066020528060005260406000206000915090508060000160009054906101000a900473ffffffffffffffffffffffffffffffffffffffff16908060010160009054906101000a900473ffffffffffffffffffffffffffffffffffffffff16908060010160149054906101000a90046bffffffffffffffffffffffff16908060020160009054906101000a90046bffffffffffffffffffffffff169080600201600c9054906101000a90046bffffffffffffffffffffffff16908060020160189054906101000a900467ffffffffffffffff16908060030160009054906101000a900463ffffffff16905087565b610ec66115ac565b600073ffffffffffffffffffffffffffffffffffffffff168173ffffffffffffffffffffffffffffffffffffffff1603610f385760006040517f1e4fbdf7000000000000000000000000000000000000000000000000000000008152600401610f2f9190611bcd565b60405180910390fd5b610f4181611633565b50565b60003411610f87576040517f08c379a0000000000000000000000000000000000000000000000000000000008152600401610f7e9061232b565b60405180910390fd5b60008054906101000a900473ffffffffffffffffffffffffffffffffffffffff1673ffffffffffffffffffffffffffffffffffffffff1663b60edbbe826040518263ffffffff1660e01b8152600401610fe09190611bcd565b602060405180830381865afa158015610ffd573d6000803e3d6000fd5b505050506040513d601f19601f82011682018060405250810190611021919061234b565b611060576040517f08c379a0000000000000000000000000000000000000000000000000000000008152600401611057906123c4565b60405180910390fd5b60008060009054906101000a900473ffffffffffffffffffffffffffffffffffffffff1673ffffffffffffffffffffffffffffffffffffffff166362bc56e6836040518263ffffffff1660e01b81526004016110bc9190611bcd565b600060405180830381865afa1580156110d9573d6000803e3d6000fd5b505050506040513d6000823e3d601f19601f820116820180604052508101906111029190611edc565b505050509050600073ffffffffffffffffffffffffffffffffffffffff168173ffffffffffffffffffffffffffffffffffffffff1603611177576040517f08c379a000000000000000000000000000000000000000000000000000000000815260040161116e90612430565b60405180910390fd5b60006103e86001543461118a91906120a7565b6111949190612118565b9050600081346111a49190612149565b90506040518060e001604052808473ffffffffffffffffffffffffffffffffffffffff1681526020013373ffffffffffffffffffffffffffffffffffffffff168152602001346bffffffffffffffffffffffff168152602001836bffffffffffffffffffffffff168152602001826bffffffffffffffffffffffff1681526020014267ffffffffffffffff1681526020016007600081819054906101000a900463ffffffff168092919061125790612450565b91906101000a81548163ffffffff021916908363ffffffff16021790555063ffffffff16815250600660003373ffffffffffffffffffffffffffffffffffffffff1673ffffffffffffffffffffffffffffffffffffffff16815260200190815260200160002060008201518160000160006101000a81548173ffffffffffffffffffffffffffffffffffffffff021916908373ffffffffffffffffffffffffffffffffffffffff16021790555060208201518160010160006101000a81548173ffffffffffffffffffffffffffffffffffffffff021916908373ffffffffffffffffffffffffffffffffffffffff16021790555060408201518160010160146101000a8154816bffffffffffffffffffffffff02191690836bffffffffffffffffffffffff16021790555060608201518160020160006101000a8154816bffffffffffffffffffffffff02191690836bffffffffffffffffffffffff160217905550608082015181600201600c6101000a8154816bffffffffffffffffffffffff02191690836bffffffffffffffffffffffff16021790555060a08201518160020160186101000a81548167ffffffffffffffff021916908367ffffffffffffffff16021790555060c08201518160030160006101000a81548163ffffffff021916908363ffffffff160217905550905050816002600082825461145b919061217d565b925050819055503460036000828254611474919061217d565b9250508190555080600460008573ffffffffffffffffffffffffffffffffffffffff1673ffffffffffffffffffffffffffffffffffffffff16815260200190815260200160002060008282546114ca919061217d565b925050819055508273ffffffffffffffffffffffffffffffffffffffff163373ffffffffffffffffffffffffffffffffffffffff167f75104157b9f31839796f032ad698701badf2fdb84bc160387e540e16faa22fe63460405161152e9190611a29565b60405180910390a350505050565b600061154661176c565b90506002816000015403611586576040517f3ee5aeb500000000000000000000000000000000000000000000000000000000815260040160405180910390fd5b6002816000018190555050565b600061159d61176c565b90506001816000018190555050565b6115b4611794565b73ffffffffffffffffffffffffffffffffffffffff166115d26109ca565b73ffffffffffffffffffffffffffffffffffffffff1614611631576115f5611794565b6040517f118cdaa70000000000000000000000000000000000000000000000000000000081526004016116289190611bcd565b60405180910390fd5b565b600061163d61170a565b905060008160000160009054906101000a900473ffffffffffffffffffffffffffffffffffffffff169050828260000160006101000a81548173ffffffffffffffffffffffffffffffffffffffff021916908373ffffffffffffffffffffffffffffffffffffffff1602179055508273ffffffffffffffffffffffffffffffffffffffff168173ffffffffffffffffffffffffffffffffffffffff167f8be0079c531659141344cd1fd0a4f28419497f9722a3daafe3b4186f6b6457e060405160405180910390a3505050565b60007f9016d09d72d40fdae2fd8ceac6b6234c7706214fd39c1cd1e609a0528c199300905090565b60008061173d61179c565b90508091505090565b61174e6117c7565b61175781611807565b50565b6117626117c7565b61176a61188d565b565b60007f9b779b17422d0df92223018b32b4d1fa46e071723d6817e2486d003becc55f00905090565b600033905090565b60007ff0c57e16840df040f15088dc2f81fe391c3923bec73e23a9662efc9c229c6a0060001b905090565b6117cf6118ae565b611805576040517fd7e6bcf800000000000000000000000000000000000000000000000000000000815260040160405180910390fd5b565b61180f6117c7565b600073ffffffffffffffffffffffffffffffffffffffff168173ffffffffffffffffffffffffffffffffffffffff16036118815760006040517f1e4fbdf70000000000000000000000000000000000000000000000000000000081526004016118789190611bcd565b60405180910390fd5b61188a81611633565b50565b6118956117c7565b600061189f61176c565b90506001816000018190555050565b60006118b8611732565b60000160089054906101000a900460ff16905090565b6040518060e00160405280600073ffffffffffffffffffffffffffffffffffffffff168152602001600073ffffffffffffffffffffffffffffffffffffffff16815260200160006bffffffffffffffffffffffff16815260200160006bffffffffffffffffffffffff16815260200160006bffffffffffffffffffffffff168152602001600067ffffffffffffffff168152602001600063ffffffff1681525090565b6000604051905090565b600080fd5b600080fd5b600073ffffffffffffffffffffffffffffffffffffffff82169050919050565b60006119b082611985565b9050919050565b6119c0816119a5565b81146119cb57600080fd5b50565b6000813590506119dd816119b7565b92915050565b6000602082840312156119f9576119f861197b565b5b6000611a07848285016119ce565b91505092915050565b6000819050919050565b611a2381611a10565b82525050565b6000602082019050611a3e6000830184611a1a565b92915050565b611a4d816119a5565b82525050565b60006bffffffffffffffffffffffff82169050919050565b611a7481611a53565b82525050565b600067ffffffffffffffff82169050919050565b611a9781611a7a565b82525050565b600063ffffffff82169050919050565b611ab681611a9d565b82525050565b60e082016000820151611ad26000850182611a44565b506020820151611ae56020850182611a44565b506040820151611af86040850182611a6b565b506060820151611b0b6060850182611a6b565b506080820151611b1e6080850182611a6b565b5060a0820151611b3160a0850182611a8e565b5060c0820151611b4460c0850182611aad565b50505050565b600060e082019050611b5f6000830184611abc565b92915050565b611b6e81611a10565b8114611b7957600080fd5b50565b600081359050611b8b81611b65565b92915050565b600060208284031215611ba757611ba661197b565b5b6000611bb584828501611b7c565b91505092915050565b611bc7816119a5565b82525050565b6000602082019050611be26000830184611bbe565b92915050565b611bf181611a9d565b82525050565b6000602082019050611c0c6000830184611be8565b92915050565b6000819050919050565b6000611c37611c32611c2d84611985565b611c12565b611985565b9050919050565b6000611c4982611c1c565b9050919050565b6000611c5b82611c3e565b9050919050565b611c6b81611c50565b82525050565b6000602082019050611c866000830184611c62565b92915050565b611c9581611a53565b82525050565b611ca481611a7a565b82525050565b600060e082019050611cbf600083018a611bbe565b611ccc6020830189611bbe565b611cd96040830188611c8c565b611ce66060830187611c8c565b611cf36080830186611c8c565b611d0060a0830185611c9b565b611d0d60c0830184611be8565b98975050505050505050565b600081519050611d28816119b7565b92915050565b600081519050611d3d81611b65565b92915050565b60008115159050919050565b611d5881611d43565b8114611d6357600080fd5b50565b600081519050611d7581611d4f565b92915050565b600080fd5b600080fd5b6000601f19601f8301169050919050565b7f4e487b7100000000000000000000000000000000000000000000000000000000600052604160045260246000fd5b611dce82611d85565b810181811067ffffffffffffffff82111715611ded57611dec611d96565b5b80604052505050565b6000611e00611971565b9050611e0c8282611dc5565b919050565b600067ffffffffffffffff821115611e2c57611e2b611d96565b5b611e3582611d85565b9050602081019050919050565b60005b83811015611e60578082015181840152602081019050611e45565b60008484015250505050565b6000611e7f611e7a84611e11565b611df6565b905082815260208101848484011115611e9b57611e9a611d80565b5b611ea6848285611e42565b509392505050565b600082601f830112611ec357611ec2611d7b565b5b8151611ed3848260208601611e6c565b91505092915050565b600080600080600060a08688031215611ef857611ef761197b565b5b6000611f0688828901611d19565b9550506020611f1788828901611d2e565b9450506040611f2888828901611d66565b935050606086015167ffffffffffffffff811115611f4957611f48611980565b5b611f5588828901611eae565b925050608086015167ffffffffffffffff811115611f7657611f75611980565b5b611f8288828901611eae565b9150509295509295909350565b600082825260208201905092915050565b7f4e6f74207265636f676e69736564000000000000000000000000000000000000600082015250565b6000611fd6600e83611f8f565b9150611fe182611fa0565b602082019050919050565b6000602082019050818103600083015261200581611fc9565b9050919050565b7f4e6f7420656e6f7567682062616c616e63650000000000000000000000000000600082015250565b6000612042601283611f8f565b915061204d8261200c565b602082019050919050565b6000602082019050818103600083015261207181612035565b9050919050565b7f4e487b7100000000000000000000000000000000000000000000000000000000600052601160045260246000fd5b60006120b282611a10565b91506120bd83611a10565b92508282026120cb81611a10565b915082820484148315176120e2576120e1612078565b5b5092915050565b7f4e487b7100000000000000000000000000000000000000000000000000000000600052601260045260246000fd5b600061212382611a10565b915061212e83611a10565b92508261213e5761213d6120e9565b5b828204905092915050565b600061215482611a10565b915061215f83611a10565b925082820390508181111561217757612176612078565b5b92915050565b600061218882611a10565b915061219383611a10565b92508282019050808211156121ab576121aa612078565b5b92915050565b7f4869676820666565000000000000000000000000000000000000000000000000600082015250565b60006121e7600883611f8f565b91506121f2826121b1565b602082019050919050565b60006020820190508181036000830152612216816121da565b9050919050565b6000819050919050565b600061224261223d6122388461221d565b611c12565b611a7a565b9050919050565b61225281612227565b82525050565b600060208201905061226d6000830184612249565b92915050565b7f4e6f74204f776e65720000000000000000000000000000000000000000000000600082015250565b60006122a9600983611f8f565b91506122b482612273565b602082019050919050565b600060208201905081810360008301526122d88161229c565b9050919050565b7f496e76616c696420416d6f756e74000000000000000000000000000000000000600082015250565b6000612315600e83611f8f565b9150612320826122df565b602082019050919050565b6000602082019050818103600083015261234481612308565b9050919050565b6000602082840312156123615761236061197b565b5b600061236f84828501611d66565b91505092915050565b7f436f6d70616e79204e6f7420466f756e64000000000000000000000000000000600082015250565b60006123ae601183611f8f565b91506123b982612378565b602082019050919050565b600060208201905081810360008301526123dd816123a1565b9050919050565b7f41646472657373204e6f7420466f756e64000000000000000000000000000000600082015250565b600061241a601183611f8f565b9150612425826123e4565b602082019050919050565b600060208201905081810360008301526124498161240d565b9050919050565b600061245b82611a9d565b915063ffffffff820361247157612470612078565b5b60018201905091905056fea264697066735822122073c0655bd51375235f182a755853ab2693cb8467c72101d9354076cc3693ad0864736f6c634300081c0033",
  "linkReferences": {},
  "deployedLinkReferences": {}
}