{
  "_format": "hh-sol-artifact-1",
  "contractName": "LogicUtilityUpgradable",
  "sourceName": "contracts/LogicUtilityUpgradable.sol",
  "abi": [
    {
      "inputs": [],
      "name": "InvalidInitialization",
      "type": "error"
    },
    {
      "inputs": [],
      "name": "NotInitializing",
      "type": "error"
    },
    {
      "inputs": [
        {
          "internalType": "address",
          "name": "owner",
          "type": "address"
        }
      ],
      "name": "OwnableInvalidOwner",
      "type": "error"
    },
    {
      "inputs": [
        {
          "internalType": "address",
          "name": "account",
          "type": "address"
        }
      ],
      "name": "OwnableUnauthorizedAccount",
      "type": "error"
    },
    {
      "inputs": [],
      "name": "ReentrancyGuardReentrantCall",
      "type": "error"
    },
    {
      "anonymous": false,
      "inputs": [
        {
          "indexed": true,
          "internalType": "address",
          "name": "company",
          "type": "address"
        },
        {
          "indexed": false,
          "internalType": "uint256",
          "name": "amount",
          "type": "uint256"
        }
      ],
      "name": "CompanyWithdrawn",
      "type": "event"
    },
    {
      "anonymous": false,
      "inputs": [
        {
          "indexed": false,
          "internalType": "uint64",
          "name": "version",
          "type": "uint64"
        }
      ],
      "name": "Initialized",
      "type": "event"
    },
    {
      "anonymous": false,
      "inputs": [
        {
          "indexed": true,
          "internalType": "address",
          "name": "previousOwner",
          "type": "address"
        },
        {
          "indexed": true,
          "internalType": "address",
          "name": "newOwner",
          "type": "address"
        }
      ],
      "name": "OwnershipTransferred",
      "type": "event"
    },
    {
      "anonymous": false,
      "inputs": [
        {
          "indexed": true,
          "internalType": "address",
          "name": "payer",
          "type": "address"
        },
        {
          "indexed": true,
          "internalType": "address",
          "name": "company",
          "type": "address"
        },
        {
          "indexed": false,
          "internalType": "uint256",
          "name": "amount",
          "type": "uint256"
        }
      ],
      "name": "PaymentMode",
      "type": "event"
    },
    {
      "anonymous": false,
      "inputs": [
        {
          "indexed": true,
          "internalType": "address",
          "name": "to",
          "type": "address"
        },
        {
          "indexed": false,
          "internalType": "uint256",
          "name": "amount",
          "type": "uint256"
        }
      ],
      "name": "PlatformFeeWithdrawn",
      "type": "event"
    },
    {
      "inputs": [
        {
          "internalType": "address",
          "name": "",
          "type": "address"
        }
      ],
      "name": "companyBalances",
      "outputs": [
        {
          "internalType": "uint256",
          "name": "",
          "type": "uint256"
        }
      ],
      "stateMutability": "view",
      "type": "function"
    },
    {
      "inputs": [],
      "name": "companyManager",
      "outputs": [
        {
          "internalType": "contract ICompanyManager",
          "name": "",
          "type": "address"
        }
      ],
      "stateMutability": "view",
      "type": "function"
    },
    {
      "inputs": [],
      "name": "feeCollector",
      "outputs": [
        {
          "internalType": "address",
          "name": "",
          "type": "address"
        }
      ],
      "stateMutability": "view",
      "type": "function"
    },
    {
      "inputs": [],
      "name": "feePercentage",
      "outputs": [
        {
          "internalType": "uint256",
          "name": "",
          "type": "uint256"
        }
      ],
      "stateMutability": "view",
      "type": "function"
    },
    {
      "inputs": [
        {
          "internalType": "address",
          "name": "_company",
          "type": "address"
        }
      ],
      "name": "getCompanyBalance",
      "outputs": [
        {
          "internalType": "uint256",
          "name": "",
          "type": "uint256"
        }
      ],
      "stateMutability": "view",
      "type": "function"
    },
    {
      "inputs": [
        {
          "internalType": "address",
          "name": "user",
          "type": "address"
        }
      ],
      "name": "getReceipt",
      "outputs": [
        {
          "components": [
            {
              "internalType": "address",
              "name": "company",
              "type": "address"
            },
            {
              "internalType": "address",
              "name": "payer",
              "type": "address"
            },
            {
              "internalType": "uint96",
              "name": "amount",
              "type": "uint96"
            },
            {
              "internalType": "uint96",
              "name": "platformFee",
              "type": "uint96"
            },
            {
              "internalType": "uint96",
              "name": "netPaid",
              "type": "uint96"
            },
            {
              "internalType": "uint64",
              "name": "timestamp",
              "type": "uint64"
            },
            {
              "internalType": "uint32",
              "name": "id",
              "type": "uint32"
            }
          ],
          "internalType": "struct LogicUtilityUpgradable.Receipt",
          "name": "",
          "type": "tuple"
        }
      ],
      "stateMutability": "view",
      "type": "function"
    },
    {
      "inputs": [
        {
          "internalType": "address",
          "name": "_baseUtility",
          "type": "address"
        }
      ],
      "name": "initialize",
      "outputs": [],
      "stateMutability": "nonpayable",
      "type": "function"
    },
    {
      "inputs": [],
      "name": "owner",
      "outputs": [
        {
          "internalType": "address",
          "name": "",
          "type": "address"
        }
      ],
      "stateMutability": "view",
      "type": "function"
    },
    {
      "inputs": [
        {
          "internalType": "address",
          "name": "_company",
          "type": "address"
        }
      ],
      "name": "payUtility",
      "outputs": [],
      "stateMutability": "payable",
      "type": "function"
    },
    {
      "inputs": [
        {
          "internalType": "address",
          "name": "",
          "type": "address"
        }
      ],
      "name": "receipt",
      "outputs": [
        {
          "internalType": "address",
          "name": "company",
          "type": "address"
        },
        {
          "internalType": "address",
          "name": "payer",
          "type": "address"
        },
        {
          "internalType": "uint96",
          "name": "amount",
          "type": "uint96"
        },
        {
          "internalType": "uint96",
          "name": "platformFee",
          "type": "uint96"
        },
        {
          "internalType": "uint96",
          "name": "netPaid",
          "type": "uint96"
        },
        {
          "internalType": "uint64",
          "name": "timestamp",
          "type": "uint64"
        },
        {
          "internalType": "uint32",
          "name": "id",
          "type": "uint32"
        }
      ],
      "stateMutability": "view",
      "type": "function"
    },
    {
      "inputs": [],
      "name": "receiptCounter",
      "outputs": [
        {
          "internalType": "uint32",
          "name": "",
          "type": "uint32"
        }
      ],
      "stateMutability": "view",
      "type": "function"
    },
    {
      "inputs": [],
      "name": "renounceOwnership",
      "outputs": [],
      "stateMutability": "nonpayable",
      "type": "function"
    },
    {
      "inputs": [],
      "name": "totalFeesCollected",
      "outputs": [
        {
          "internalType": "uint256",
          "name": "",
          "type": "uint256"
        }
      ],
      "stateMutability": "view",
      "type": "function"
    },
    {
      "inputs": [],
      "name": "totalPlatformTransactions",
      "outputs": [
        {
          "internalType": "uint256",
          "name": "",
          "type": "uint256"
        }
      ],
      "stateMutability": "view",
      "type": "function"
    },
    {
      "inputs": [],
      "name": "totalTransactedAmount",
      "outputs": [
        {
          "internalType": "uint256",
          "name": "",
          "type": "uint256"
        }
      ],
      "stateMutability": "view",
      "type": "function"
    },
    {
      "inputs": [
        {
          "internalType": "address",
          "name": "newOwner",
          "type": "address"
        }
      ],
      "name": "transferOwnership",
      "outputs": [],
      "stateMutability": "nonpayable",
      "type": "function"
    },
    {
      "inputs": [
        {
          "internalType": "uint256",
          "name": "_fee",
          "type": "uint256"
        }
      ],
      "name": "updateFees",
      "outputs": [],
      "stateMutability": "nonpayable",
      "type": "function"
    },
    {
      "inputs": [
        {
          "internalType": "address",
          "name": "_compAddr",
          "type": "address"
        }
      ],
      "name": "viewImportedCompany",
      "outputs": [
        {
          "internalType": "address",
          "name": "",
          "type": "address"
        },
        {
          "internalType": "bool",
          "name": "",
          "type": "bool"
        },
        {
          "internalType": "string",
          "name": "",
          "type": "string"
        }
      ],
      "stateMutability": "view",
      "type": "function"
    },
    {
      "inputs": [],
      "name": "withdraw",
      "outputs": [],
      "stateMutability": "nonpayable",
      "type": "function"
    },
    {
      "inputs": [
        {
          "internalType": "uint256",
          "name": "_amount",
          "type": "uint256"
        }
      ],
      "name": "withdrawPlatformFee",
      "outputs": [],
      "stateMutability": "nonpayable",
      "type": "function"
    },
    {
      "stateMutability": "payable",
      "type": "receive"
    }
  ],
  "bytecode": "0x6080604052348015600f57600080fd5b5061280e8061001f6000396000f3fe6080604052600436106101235760003560e01c8063a001ecdd116100a0578063dde7c19011610064578063dde7c190146103d2578063e1e86fd7146103fb578063e35e566314610426578063f2fde38b14610469578063ffcc0b04146104925761012a565b8063a001ecdd146102fd578063a15b60ad14610328578063c415b95c14610353578063c4d66de81461037e578063cc4320b4146103a75761012a565b8063715018a6116100e7578063715018a61461021657806378dacee11461022d5780638523e313146102565780638da5cb5b146102955780639ec74878146102c05761012a565b806304562d951461012f578063074b6c141461016c578063123c3d11146101a95780633ccfd60b146101d457806360c6d8ae146101eb5761012a565b3661012a57005b600080fd5b34801561013b57600080fd5b5061015660048036038101906101519190611c03565b6104ae565b6040516101639190611d36565b60405180910390f35b34801561017857600080fd5b50610193600480360381019061018e9190611c03565b61082d565b6040516101a09190611d6a565b60405180910390f35b3480156101b557600080fd5b506101be610845565b6040516101cb9190611d6a565b60405180910390f35b3480156101e057600080fd5b506101e961084b565b005b3480156101f757600080fd5b50610200610b20565b60405161020d9190611d6a565b60405180910390f35b34801561022257600080fd5b5061022b610b26565b005b34801561023957600080fd5b50610254600480360381019061024f9190611db1565b610b3a565b005b34801561026257600080fd5b5061027d60048036038101906102789190611c03565b610b90565b60405161028c93929190611e98565b60405180910390f35b3480156102a157600080fd5b506102aa610c81565b6040516102b79190611ed6565b60405180910390f35b3480156102cc57600080fd5b506102e760048036038101906102e29190611c03565b610cb9565b6040516102f49190611d6a565b60405180910390f35b34801561030957600080fd5b50610312610d02565b60405161031f9190611d6a565b60405180910390f35b34801561033457600080fd5b5061033d610d08565b60405161034a9190611f00565b60405180910390f35b34801561035f57600080fd5b50610368610d1e565b6040516103759190611ed6565b60405180910390f35b34801561038a57600080fd5b506103a560048036038101906103a09190611c03565b610d44565b005b3480156103b357600080fd5b506103bc610f1b565b6040516103c99190611f7a565b60405180910390f35b3480156103de57600080fd5b506103f960048036038101906103f49190611db1565b610f3f565b005b34801561040757600080fd5b5061041061107d565b60405161041d9190611d6a565b60405180910390f35b34801561043257600080fd5b5061044d60048036038101906104489190611c03565b611087565b6040516104609796959493929190611fb3565b60405180910390f35b34801561047557600080fd5b50610490600480360381019061048b9190611c03565b611175565b005b6104ac60048036038101906104a79190611c03565b6111fb565b005b6104b6611aee565b600660003373ffffffffffffffffffffffffffffffffffffffff1673ffffffffffffffffffffffffffffffffffffffff16815260200190815260200160002060000160009054906101000a900473ffffffffffffffffffffffffffffffffffffffff1673ffffffffffffffffffffffffffffffffffffffff163373ffffffffffffffffffffffffffffffffffffffff1614806105df5750600660003373ffffffffffffffffffffffffffffffffffffffff1673ffffffffffffffffffffffffffffffffffffffff16815260200190815260200160002060010160009054906101000a900473ffffffffffffffffffffffffffffffffffffffff1673ffffffffffffffffffffffffffffffffffffffff163373ffffffffffffffffffffffffffffffffffffffff16145b61061e576040517f08c379a00000000000000000000000000000000000000000000000000000000081526004016106159061206e565b60405180910390fd5b600660008373ffffffffffffffffffffffffffffffffffffffff1673ffffffffffffffffffffffffffffffffffffffff1681526020019081526020016000206040518060e00160405290816000820160009054906101000a900473ffffffffffffffffffffffffffffffffffffffff1673ffffffffffffffffffffffffffffffffffffffff1673ffffffffffffffffffffffffffffffffffffffff1681526020016001820160009054906101000a900473ffffffffffffffffffffffffffffffffffffffff1673ffffffffffffffffffffffffffffffffffffffff1673ffffffffffffffffffffffffffffffffffffffff1681526020016001820160149054906101000a90046bffffffffffffffffffffffff166bffffffffffffffffffffffff166bffffffffffffffffffffffff1681526020016002820160009054906101000a90046bffffffffffffffffffffffff166bffffffffffffffffffffffff166bffffffffffffffffffffffff16815260200160028201600c9054906101000a90046bffffffffffffffffffffffff166bffffffffffffffffffffffff166bffffffffffffffffffffffff1681526020016002820160189054906101000a900467ffffffffffffffff1667ffffffffffffffff1667ffffffffffffffff1681526020016003820160009054906101000a900463ffffffff1663ffffffff1663ffffffff16815250509050919050565b60046020528060005260406000206000915090505481565b60035481565b61085361175c565b60008060009054906101000a900473ffffffffffffffffffffffffffffffffffffffff1673ffffffffffffffffffffffffffffffffffffffff166362bc56e6336040518263ffffffff1660e01b81526004016108af9190611ed6565b600060405180830381865afa1580156108cc573d6000803e3d6000fd5b505050506040513d6000823e3d601f19601f820116820180604052508101906108f5919061220a565b5050505090508073ffffffffffffffffffffffffffffffffffffffff163373ffffffffffffffffffffffffffffffffffffffff1614610969576040517f08c379a000000000000000000000000000000000000000000000000000000000815260040161096090612309565b60405180910390fd5b6000600460003373ffffffffffffffffffffffffffffffffffffffff1673ffffffffffffffffffffffffffffffffffffffff168152602001908152602001600020549050600081116109f0576040517f08c379a00000000000000000000000000000000000000000000000000000000081526004016109e790612375565b60405180910390fd5b60006103e860015483610a0391906123c4565b610a0d9190612435565b905060008183610a1d9190612466565b90503373ffffffffffffffffffffffffffffffffffffffff166108fc829081150290604051600060405180830381858888f19350505050158015610a65573d6000803e3d6000fd5b506000600460003373ffffffffffffffffffffffffffffffffffffffff1673ffffffffffffffffffffffffffffffffffffffff168152602001908152602001600020819055508160026000828254610abd919061249a565b925050819055503373ffffffffffffffffffffffffffffffffffffffff167f65305606dea28fc8c58524b3e3c1735f8065e6dc05580d0f73dc2d9e9a8d0e6784604051610b0a9190611d6a565b60405180910390a250505050610b1e6117b3565b565b60025481565b610b2e6117cc565b610b386000611853565b565b610b426117cc565b6103e88110610b86576040517f08c379a0000000000000000000000000000000000000000000000000000000008152600401610b7d9061251a565b60405180910390fd5b8060018190555050565b600080606060008054906101000a900473ffffffffffffffffffffffffffffffffffffffff1673ffffffffffffffffffffffffffffffffffffffff166362bc56e6856040518263ffffffff1660e01b8152600401610bee9190611ed6565b600060405180830381865afa925050508015610c2d57506040513d6000823e3d601f19601f82011682018060405250810190610c2a919061220a565b60015b610c6c576040517f08c379a0000000000000000000000000000000000000000000000000000000008152600401610c6390612586565b60405180910390fd5b84838397509750975050505050509193909250565b600080610c8c61192a565b90508060000160009054906101000a900473ffffffffffffffffffffffffffffffffffffffff1691505090565b6000600460008373ffffffffffffffffffffffffffffffffffffffff1673ffffffffffffffffffffffffffffffffffffffff168152602001908152602001600020549050919050565b60015481565b600760009054906101000a900463ffffffff1681565b600560009054906101000a900473ffffffffffffffffffffffffffffffffffffffff1681565b6000610d4e611952565b905060008160000160089054906101000a900460ff1615905060008260000160009054906101000a900467ffffffffffffffff1690506000808267ffffffffffffffff16148015610d9c5750825b9050600060018367ffffffffffffffff16148015610dd1575060003073ffffffffffffffffffffffffffffffffffffffff163b145b905081158015610ddf575080155b15610e16576040517ff92ee8a900000000000000000000000000000000000000000000000000000000815260040160405180910390fd5b60018560000160006101000a81548167ffffffffffffffff021916908367ffffffffffffffff1602179055508315610e665760018560000160086101000a81548160ff0219169083151502179055505b610e6f33611966565b610e7761197a565b856000806101000a81548173ffffffffffffffffffffffffffffffffffffffff021916908373ffffffffffffffffffffffffffffffffffffffff1602179055508315610f135760008560000160086101000a81548160ff0219169083151502179055507fc7f505b2f371ae2175ee4913f4499e1f2633a7b5936321eed1cdaeb6115181d26001604051610f0a91906125e1565b60405180910390a15b505050505050565b60008054906101000a900473ffffffffffffffffffffffffffffffffffffffff1681565b610f476117cc565b610f4f61175c565b610f57610c81565b73ffffffffffffffffffffffffffffffffffffffff163373ffffffffffffffffffffffffffffffffffffffff1614610fc4576040517f08c379a0000000000000000000000000000000000000000000000000000000008152600401610fbb90612648565b60405180910390fd5b3373ffffffffffffffffffffffffffffffffffffffff166108fc829081150290604051600060405180830381858888f1935050505015801561100a573d6000803e3d6000fd5b50806002600082825461101d9190612466565b925050819055503373ffffffffffffffffffffffffffffffffffffffff167fd116803f8b8538a601b6096e8d1196e3ce3ef43dec6dbbe4cd4e5c69dd171d8b8260405161106a9190611d6a565b60405180910390a261107a6117b3565b50565b6000600354905090565b60066020528060005260406000206000915090508060000160009054906101000a900473ffffffffffffffffffffffffffffffffffffffff16908060010160009054906101000a900473ffffffffffffffffffffffffffffffffffffffff16908060010160149054906101000a90046bffffffffffffffffffffffff16908060020160009054906101000a90046bffffffffffffffffffffffff169080600201600c9054906101000a90046bffffffffffffffffffffffff16908060020160189054906101000a900467ffffffffffffffff16908060030160009054906101000a900463ffffffff16905087565b61117d6117cc565b600073ffffffffffffffffffffffffffffffffffffffff168173ffffffffffffffffffffffffffffffffffffffff16036111ef5760006040517f1e4fbdf70000000000000000000000000000000000000000000000000000000081526004016111e69190611ed6565b60405180910390fd5b6111f881611853565b50565b6000341161123e576040517f08c379a0000000000000000000000000000000000000000000000000000000008152600401611235906126b4565b60405180910390fd5b60008060008054906101000a900473ffffffffffffffffffffffffffffffffffffffff1673ffffffffffffffffffffffffffffffffffffffff166362bc56e6846040518263ffffffff1660e01b815260040161129a9190611ed6565b600060405180830381865afa1580156112b7573d6000803e3d6000fd5b505050506040513d6000823e3d601f19601f820116820180604052508101906112e0919061220a565b50509250509150600073ffffffffffffffffffffffffffffffffffffffff168273ffffffffffffffffffffffffffffffffffffffff1603611356576040517f08c379a000000000000000000000000000000000000000000000000000000000815260040161134d90612720565b60405180910390fd5b80611396576040517f08c379a000000000000000000000000000000000000000000000000000000000815260040161138d9061278c565b60405180910390fd5b60006103e8600154346113a991906123c4565b6113b39190612435565b9050600081346113c39190612466565b90506040518060e001604052808573ffffffffffffffffffffffffffffffffffffffff1681526020013373ffffffffffffffffffffffffffffffffffffffff168152602001346bffffffffffffffffffffffff168152602001836bffffffffffffffffffffffff168152602001826bffffffffffffffffffffffff1681526020014267ffffffffffffffff1681526020016007600081819054906101000a900463ffffffff1680929190611476906127ac565b91906101000a81548163ffffffff021916908363ffffffff16021790555063ffffffff16815250600660003373ffffffffffffffffffffffffffffffffffffffff1673ffffffffffffffffffffffffffffffffffffffff16815260200190815260200160002060008201518160000160006101000a81548173ffffffffffffffffffffffffffffffffffffffff021916908373ffffffffffffffffffffffffffffffffffffffff16021790555060208201518160010160006101000a81548173ffffffffffffffffffffffffffffffffffffffff021916908373ffffffffffffffffffffffffffffffffffffffff16021790555060408201518160010160146101000a8154816bffffffffffffffffffffffff02191690836bffffffffffffffffffffffff16021790555060608201518160020160006101000a8154816bffffffffffffffffffffffff02191690836bffffffffffffffffffffffff160217905550608082015181600201600c6101000a8154816bffffffffffffffffffffffff02191690836bffffffffffffffffffffffff16021790555060a08201518160020160186101000a81548167ffffffffffffffff021916908367ffffffffffffffff16021790555060c08201518160030160006101000a81548163ffffffff021916908363ffffffff160217905550905050816002600082825461167a919061249a565b925050819055503460036000828254611693919061249a565b9250508190555080600460008673ffffffffffffffffffffffffffffffffffffffff1673ffffffffffffffffffffffffffffffffffffffff16815260200190815260200160002060008282546116e9919061249a565b925050819055508373ffffffffffffffffffffffffffffffffffffffff163373ffffffffffffffffffffffffffffffffffffffff167f75104157b9f31839796f032ad698701badf2fdb84bc160387e540e16faa22fe63460405161174d9190611d6a565b60405180910390a35050505050565b600061176661198c565b905060028160000154036117a6576040517f3ee5aeb500000000000000000000000000000000000000000000000000000000815260040160405180910390fd5b6002816000018190555050565b60006117bd61198c565b90506001816000018190555050565b6117d46119b4565b73ffffffffffffffffffffffffffffffffffffffff166117f2610c81565b73ffffffffffffffffffffffffffffffffffffffff1614611851576118156119b4565b6040517f118cdaa70000000000000000000000000000000000000000000000000000000081526004016118489190611ed6565b60405180910390fd5b565b600061185d61192a565b905060008160000160009054906101000a900473ffffffffffffffffffffffffffffffffffffffff169050828260000160006101000a81548173ffffffffffffffffffffffffffffffffffffffff021916908373ffffffffffffffffffffffffffffffffffffffff1602179055508273ffffffffffffffffffffffffffffffffffffffff168173ffffffffffffffffffffffffffffffffffffffff167f8be0079c531659141344cd1fd0a4f28419497f9722a3daafe3b4186f6b6457e060405160405180910390a3505050565b60007f9016d09d72d40fdae2fd8ceac6b6234c7706214fd39c1cd1e609a0528c199300905090565b60008061195d6119bc565b90508091505090565b61196e6119e7565b61197781611a27565b50565b6119826119e7565b61198a611aad565b565b60007f9b779b17422d0df92223018b32b4d1fa46e071723d6817e2486d003becc55f00905090565b600033905090565b60007ff0c57e16840df040f15088dc2f81fe391c3923bec73e23a9662efc9c229c6a0060001b905090565b6119ef611ace565b611a25576040517fd7e6bcf800000000000000000000000000000000000000000000000000000000815260040160405180910390fd5b565b611a2f6119e7565b600073ffffffffffffffffffffffffffffffffffffffff168173ffffffffffffffffffffffffffffffffffffffff1603611aa15760006040517f1e4fbdf7000000000000000000000000000000000000000000000000000000008152600401611a989190611ed6565b60405180910390fd5b611aaa81611853565b50565b611ab56119e7565b6000611abf61198c565b90506001816000018190555050565b6000611ad8611952565b60000160089054906101000a900460ff16905090565b6040518060e00160405280600073ffffffffffffffffffffffffffffffffffffffff168152602001600073ffffffffffffffffffffffffffffffffffffffff16815260200160006bffffffffffffffffffffffff16815260200160006bffffffffffffffffffffffff16815260200160006bffffffffffffffffffffffff168152602001600067ffffffffffffffff168152602001600063ffffffff1681525090565b6000604051905090565b600080fd5b600080fd5b600073ffffffffffffffffffffffffffffffffffffffff82169050919050565b6000611bd082611ba5565b9050919050565b611be081611bc5565b8114611beb57600080fd5b50565b600081359050611bfd81611bd7565b92915050565b600060208284031215611c1957611c18611b9b565b5b6000611c2784828501611bee565b91505092915050565b611c3981611bc5565b82525050565b60006bffffffffffffffffffffffff82169050919050565b611c6081611c3f565b82525050565b600067ffffffffffffffff82169050919050565b611c8381611c66565b82525050565b600063ffffffff82169050919050565b611ca281611c89565b82525050565b60e082016000820151611cbe6000850182611c30565b506020820151611cd16020850182611c30565b506040820151611ce46040850182611c57565b506060820151611cf76060850182611c57565b506080820151611d0a6080850182611c57565b5060a0820151611d1d60a0850182611c7a565b5060c0820151611d3060c0850182611c99565b50505050565b600060e082019050611d4b6000830184611ca8565b92915050565b6000819050919050565b611d6481611d51565b82525050565b6000602082019050611d7f6000830184611d5b565b92915050565b611d8e81611d51565b8114611d9957600080fd5b50565b600081359050611dab81611d85565b92915050565b600060208284031215611dc757611dc6611b9b565b5b6000611dd584828501611d9c565b91505092915050565b611de781611bc5565b82525050565b60008115159050919050565b611e0281611ded565b82525050565b600081519050919050565b600082825260208201905092915050565b60005b83811015611e42578082015181840152602081019050611e27565b60008484015250505050565b6000601f19601f8301169050919050565b6000611e6a82611e08565b611e748185611e13565b9350611e84818560208601611e24565b611e8d81611e4e565b840191505092915050565b6000606082019050611ead6000830186611dde565b611eba6020830185611df9565b8181036040830152611ecc8184611e5f565b9050949350505050565b6000602082019050611eeb6000830184611dde565b92915050565b611efa81611c89565b82525050565b6000602082019050611f156000830184611ef1565b92915050565b6000819050919050565b6000611f40611f3b611f3684611ba5565b611f1b565b611ba5565b9050919050565b6000611f5282611f25565b9050919050565b6000611f6482611f47565b9050919050565b611f7481611f59565b82525050565b6000602082019050611f8f6000830184611f6b565b92915050565b611f9e81611c3f565b82525050565b611fad81611c66565b82525050565b600060e082019050611fc8600083018a611dde565b611fd56020830189611dde565b611fe26040830188611f95565b611fef6060830187611f95565b611ffc6080830186611f95565b61200960a0830185611fa4565b61201660c0830184611ef1565b98975050505050505050565b7f4e6f7420617574686f7269736564210000000000000000000000000000000000600082015250565b6000612058600f83611e13565b915061206382612022565b602082019050919050565b600060208201905081810360008301526120878161204b565b9050919050565b60008151905061209d81611bd7565b92915050565b6000815190506120b281611d85565b92915050565b6120c181611ded565b81146120cc57600080fd5b50565b6000815190506120de816120b8565b92915050565b600080fd5b600080fd5b7f4e487b7100000000000000000000000000000000000000000000000000000000600052604160045260246000fd5b61212682611e4e565b810181811067ffffffffffffffff82111715612145576121446120ee565b5b80604052505050565b6000612158611b91565b9050612164828261211d565b919050565b600067ffffffffffffffff821115612184576121836120ee565b5b61218d82611e4e565b9050602081019050919050565b60006121ad6121a884612169565b61214e565b9050828152602081018484840111156121c9576121c86120e9565b5b6121d4848285611e24565b509392505050565b600082601f8301126121f1576121f06120e4565b5b815161220184826020860161219a565b91505092915050565b600080600080600060a0868803121561222657612225611b9b565b5b60006122348882890161208e565b9550506020612245888289016120a3565b9450506040612256888289016120cf565b935050606086015167ffffffffffffffff81111561227757612276611ba0565b5b612283888289016121dc565b925050608086015167ffffffffffffffff8111156122a4576122a3611ba0565b5b6122b0888289016121dc565b9150509295509295909350565b7f4e6f74207265636f676e69736564000000000000000000000000000000000000600082015250565b60006122f3600e83611e13565b91506122fe826122bd565b602082019050919050565b60006020820190508181036000830152612322816122e6565b9050919050565b7f4e6f7420656e6f7567682062616c616e63650000000000000000000000000000600082015250565b600061235f601283611e13565b915061236a82612329565b602082019050919050565b6000602082019050818103600083015261238e81612352565b9050919050565b7f4e487b7100000000000000000000000000000000000000000000000000000000600052601160045260246000fd5b60006123cf82611d51565b91506123da83611d51565b92508282026123e881611d51565b915082820484148315176123ff576123fe612395565b5b5092915050565b7f4e487b7100000000000000000000000000000000000000000000000000000000600052601260045260246000fd5b600061244082611d51565b915061244b83611d51565b92508261245b5761245a612406565b5b828204905092915050565b600061247182611d51565b915061247c83611d51565b925082820390508181111561249457612493612395565b5b92915050565b60006124a582611d51565b91506124b083611d51565b92508282019050808211156124c8576124c7612395565b5b92915050565b7f4869676820666565000000000000000000000000000000000000000000000000600082015250565b6000612504600883611e13565b915061250f826124ce565b602082019050919050565b60006020820190508181036000830152612533816124f7565b9050919050565b7f4e6f7420666f756e64206f7220496e6163746976650000000000000000000000600082015250565b6000612570601583611e13565b915061257b8261253a565b602082019050919050565b6000602082019050818103600083015261259f81612563565b9050919050565b6000819050919050565b60006125cb6125c66125c1846125a6565b611f1b565b611c66565b9050919050565b6125db816125b0565b82525050565b60006020820190506125f660008301846125d2565b92915050565b7f4e6f74204f776e65720000000000000000000000000000000000000000000000600082015250565b6000612632600983611e13565b915061263d826125fc565b602082019050919050565b6000602082019050818103600083015261266181612625565b9050919050565b7f496e76616c696420416d6f756e74000000000000000000000000000000000000600082015250565b600061269e600e83611e13565b91506126a982612668565b602082019050919050565b600060208201905081810360008301526126cd81612691565b9050919050565b7f41646472657373204e6f7420466f756e64000000000000000000000000000000600082015250565b600061270a601183611e13565b9150612715826126d4565b602082019050919050565b60006020820190508181036000830152612739816126fd565b9050919050565b7f496e61637469766520436f6d70616e7900000000000000000000000000000000600082015250565b6000612776601083611e13565b915061278182612740565b602082019050919050565b600060208201905081810360008301526127a581612769565b9050919050565b60006127b782611c89565b915063ffffffff82036127cd576127cc612395565b5b60018201905091905056fea26469706673582212203dafb05178e1304d06a41ab2bf346863c76917b328f2d50e45b03b0a54e66b1364736f6c634300081c0033",
  "linkReferences": {},
  "deployedLinkReferences": {}
}