{
  "_format": "hh-sol-artifact-1",
  "contractName": "LogicUtilityUpgradable",
  "sourceName": "contracts/LogicUtilityUpgradable.sol",
  "abi": [
    {
      "inputs": [],
      "name": "InvalidInitialization",
      "type": "error"
    },
    {
      "inputs": [],
      "name": "NotInitializing",
      "type": "error"
    },
    {
      "inputs": [
        {
          "internalType": "address",
          "name": "owner",
          "type": "address"
        }
      ],
      "name": "OwnableInvalidOwner",
      "type": "error"
    },
    {
      "inputs": [
        {
          "internalType": "address",
          "name": "account",
          "type": "address"
        }
      ],
      "name": "OwnableUnauthorizedAccount",
      "type": "error"
    },
    {
      "inputs": [],
      "name": "ReentrancyGuardReentrantCall",
      "type": "error"
    },
    {
      "anonymous": false,
      "inputs": [
        {
          "indexed": true,
          "internalType": "address",
          "name": "company",
          "type": "address"
        },
        {
          "indexed": false,
          "internalType": "uint256",
          "name": "amount",
          "type": "uint256"
        }
      ],
      "name": "CompanyWithdrawn",
      "type": "event"
    },
    {
      "anonymous": false,
      "inputs": [
        {
          "indexed": false,
          "internalType": "uint64",
          "name": "version",
          "type": "uint64"
        }
      ],
      "name": "Initialized",
      "type": "event"
    },
    {
      "anonymous": false,
      "inputs": [
        {
          "indexed": true,
          "internalType": "address",
          "name": "previousOwner",
          "type": "address"
        },
        {
          "indexed": true,
          "internalType": "address",
          "name": "newOwner",
          "type": "address"
        }
      ],
      "name": "OwnershipTransferred",
      "type": "event"
    },
    {
      "anonymous": false,
      "inputs": [
        {
          "indexed": true,
          "internalType": "address",
          "name": "payer",
          "type": "address"
        },
        {
          "indexed": true,
          "internalType": "address",
          "name": "company",
          "type": "address"
        },
        {
          "indexed": false,
          "internalType": "uint256",
          "name": "amount",
          "type": "uint256"
        }
      ],
      "name": "PaymentMode",
      "type": "event"
    },
    {
      "anonymous": false,
      "inputs": [
        {
          "indexed": true,
          "internalType": "address",
          "name": "to",
          "type": "address"
        },
        {
          "indexed": false,
          "internalType": "uint256",
          "name": "amount",
          "type": "uint256"
        }
      ],
      "name": "PlatformFeeWithdrawn",
      "type": "event"
    },
    {
      "inputs": [
        {
          "internalType": "address",
          "name": "",
          "type": "address"
        }
      ],
      "name": "companyBalances",
      "outputs": [
        {
          "internalType": "uint256",
          "name": "",
          "type": "uint256"
        }
      ],
      "stateMutability": "view",
      "type": "function"
    },
    {
      "inputs": [],
      "name": "companyManager",
      "outputs": [
        {
          "internalType": "contract ICompanyManager",
          "name": "",
          "type": "address"
        }
      ],
      "stateMutability": "view",
      "type": "function"
    },
    {
      "inputs": [],
      "name": "feeCollector",
      "outputs": [
        {
          "internalType": "address",
          "name": "",
          "type": "address"
        }
      ],
      "stateMutability": "view",
      "type": "function"
    },
    {
      "inputs": [],
      "name": "feePercentage",
      "outputs": [
        {
          "internalType": "uint256",
          "name": "",
          "type": "uint256"
        }
      ],
      "stateMutability": "view",
      "type": "function"
    },
    {
      "inputs": [
        {
          "internalType": "address",
          "name": "_company",
          "type": "address"
        }
      ],
      "name": "getCompanyBalance",
      "outputs": [
        {
          "internalType": "uint256",
          "name": "",
          "type": "uint256"
        }
      ],
      "stateMutability": "view",
      "type": "function"
    },
    {
      "inputs": [],
      "name": "getReceipt",
      "outputs": [
        {
          "components": [
            {
              "internalType": "address",
              "name": "company",
              "type": "address"
            },
            {
              "internalType": "address",
              "name": "payer",
              "type": "address"
            },
            {
              "internalType": "uint96",
              "name": "amount",
              "type": "uint96"
            },
            {
              "internalType": "uint96",
              "name": "platformFee",
              "type": "uint96"
            },
            {
              "internalType": "uint96",
              "name": "netPaid",
              "type": "uint96"
            },
            {
              "internalType": "uint64",
              "name": "timestamp",
              "type": "uint64"
            },
            {
              "internalType": "uint32",
              "name": "id",
              "type": "uint32"
            }
          ],
          "internalType": "struct LogicUtilityUpgradable.Receipt",
          "name": "",
          "type": "tuple"
        }
      ],
      "stateMutability": "view",
      "type": "function"
    },
    {
      "inputs": [
        {
          "internalType": "address",
          "name": "_baseUtility",
          "type": "address"
        }
      ],
      "name": "initialize",
      "outputs": [],
      "stateMutability": "nonpayable",
      "type": "function"
    },
    {
      "inputs": [],
      "name": "owner",
      "outputs": [
        {
          "internalType": "address",
          "name": "",
          "type": "address"
        }
      ],
      "stateMutability": "view",
      "type": "function"
    },
    {
      "inputs": [
        {
          "internalType": "address",
          "name": "_company",
          "type": "address"
        }
      ],
      "name": "payUtility",
      "outputs": [],
      "stateMutability": "payable",
      "type": "function"
    },
    {
      "inputs": [
        {
          "internalType": "address",
          "name": "",
          "type": "address"
        }
      ],
      "name": "receipt",
      "outputs": [
        {
          "internalType": "address",
          "name": "company",
          "type": "address"
        },
        {
          "internalType": "address",
          "name": "payer",
          "type": "address"
        },
        {
          "internalType": "uint96",
          "name": "amount",
          "type": "uint96"
        },
        {
          "internalType": "uint96",
          "name": "platformFee",
          "type": "uint96"
        },
        {
          "internalType": "uint96",
          "name": "netPaid",
          "type": "uint96"
        },
        {
          "internalType": "uint64",
          "name": "timestamp",
          "type": "uint64"
        },
        {
          "internalType": "uint32",
          "name": "id",
          "type": "uint32"
        }
      ],
      "stateMutability": "view",
      "type": "function"
    },
    {
      "inputs": [],
      "name": "receiptCounter",
      "outputs": [
        {
          "internalType": "uint32",
          "name": "",
          "type": "uint32"
        }
      ],
      "stateMutability": "view",
      "type": "function"
    },
    {
      "inputs": [],
      "name": "renounceOwnership",
      "outputs": [],
      "stateMutability": "nonpayable",
      "type": "function"
    },
    {
      "inputs": [],
      "name": "totalFeesCollected",
      "outputs": [
        {
          "internalType": "uint256",
          "name": "",
          "type": "uint256"
        }
      ],
      "stateMutability": "view",
      "type": "function"
    },
    {
      "inputs": [],
      "name": "totalPlatformTransactions",
      "outputs": [
        {
          "internalType": "uint256",
          "name": "",
          "type": "uint256"
        }
      ],
      "stateMutability": "view",
      "type": "function"
    },
    {
      "inputs": [],
      "name": "totalTransactedAmount",
      "outputs": [
        {
          "internalType": "uint256",
          "name": "",
          "type": "uint256"
        }
      ],
      "stateMutability": "view",
      "type": "function"
    },
    {
      "inputs": [
        {
          "internalType": "address",
          "name": "newOwner",
          "type": "address"
        }
      ],
      "name": "transferOwnership",
      "outputs": [],
      "stateMutability": "nonpayable",
      "type": "function"
    },
    {
      "inputs": [
        {
          "internalType": "uint256",
          "name": "_fee",
          "type": "uint256"
        }
      ],
      "name": "updateFees",
      "outputs": [],
      "stateMutability": "nonpayable",
      "type": "function"
    },
    {
      "inputs": [],
      "name": "withdraw",
      "outputs": [],
      "stateMutability": "nonpayable",
      "type": "function"
    },
    {
      "inputs": [
        {
          "internalType": "uint256",
          "name": "_amount",
          "type": "uint256"
        }
      ],
      "name": "withdrawPlatformFee",
      "outputs": [],
      "stateMutability": "nonpayable",
      "type": "function"
    },
    {
      "stateMutability": "payable",
      "type": "receive"
    }
  ],
  "bytecode": "0x6080604052348015600f57600080fd5b506001600081905550612436806100276000396000f3fe6080604052600436106101185760003560e01c8063a001ecdd116100a0578063dde7c19011610064578063dde7c19014610376578063e1e86fd71461039f578063e35e5663146103ca578063f2fde38b1461040d578063ffcc0b04146104365761011f565b8063a001ecdd146102a1578063a15b60ad146102cc578063c415b95c146102f7578063c4d66de814610322578063cc4320b41461034b5761011f565b806360c6d8ae116100e757806360c6d8ae146101ce578063715018a6146101f957806378dacee1146102105780638da5cb5b146102395780639ec74878146102645761011f565b8063074b6c1414610124578063123c3d11146101615780633ccfd60b1461018c57806357d945c9146101a35761011f565b3661011f57005b600080fd5b34801561013057600080fd5b5061014b60048036038101906101469190611967565b610452565b60405161015891906119ad565b60405180910390f35b34801561016d57600080fd5b5061017661046a565b60405161018391906119ad565b60405180910390f35b34801561019857600080fd5b506101a1610470565b005b3480156101af57600080fd5b506101b8610746565b6040516101c59190611ace565b60405180910390f35b3480156101da57600080fd5b506101e361095b565b6040516101f091906119ad565b60405180910390f35b34801561020557600080fd5b5061020e610961565b005b34801561021c57600080fd5b5061023760048036038101906102329190611b15565b610975565b005b34801561024557600080fd5b5061024e6109cb565b60405161025b9190611b51565b60405180910390f35b34801561027057600080fd5b5061028b60048036038101906102869190611967565b610a03565b60405161029891906119ad565b60405180910390f35b3480156102ad57600080fd5b506102b6610a4c565b6040516102c391906119ad565b60405180910390f35b3480156102d857600080fd5b506102e1610a52565b6040516102ee9190611b7b565b60405180910390f35b34801561030357600080fd5b5061030c610a68565b6040516103199190611b51565b60405180910390f35b34801561032e57600080fd5b5061034960048036038101906103449190611967565b610a8e565b005b34801561035757600080fd5b50610360610c5e565b60405161036d9190611bf5565b60405180910390f35b34801561038257600080fd5b5061039d60048036038101906103989190611b15565b610c84565b005b3480156103ab57600080fd5b506103b4610dc2565b6040516103c191906119ad565b60405180910390f35b3480156103d657600080fd5b506103f160048036038101906103ec9190611967565b610dcc565b6040516104049796959493929190611c2e565b60405180910390f35b34801561041957600080fd5b50610434600480360381019061042f9190611967565b610eba565b005b610450600480360381019061044b9190611967565b610f40565b005b60056020528060005260406000206000915090505481565b60045481565b61047861153b565b6000600160009054906101000a900473ffffffffffffffffffffffffffffffffffffffff1673ffffffffffffffffffffffffffffffffffffffff166362bc56e6336040518263ffffffff1660e01b81526004016104d59190611b51565b600060405180830381865afa1580156104f2573d6000803e3d6000fd5b505050506040513d6000823e3d601f19601f8201168201806040525081019061051b9190611e60565b5050505090508073ffffffffffffffffffffffffffffffffffffffff163373ffffffffffffffffffffffffffffffffffffffff161461058f576040517f08c379a000000000000000000000000000000000000000000000000000000000815260040161058690611f70565b60405180910390fd5b6000600560003373ffffffffffffffffffffffffffffffffffffffff1673ffffffffffffffffffffffffffffffffffffffff16815260200190815260200160002054905060008111610616576040517f08c379a000000000000000000000000000000000000000000000000000000000815260040161060d90611fdc565b60405180910390fd5b60006103e860025483610629919061202b565b610633919061209c565b90506000818361064391906120cd565b90503373ffffffffffffffffffffffffffffffffffffffff166108fc829081150290604051600060405180830381858888f1935050505015801561068b573d6000803e3d6000fd5b506000600560003373ffffffffffffffffffffffffffffffffffffffff1673ffffffffffffffffffffffffffffffffffffffff1681526020019081526020016000208190555081600360008282546106e39190612101565b925050819055503373ffffffffffffffffffffffffffffffffffffffff167f65305606dea28fc8c58524b3e3c1735f8065e6dc05580d0f73dc2d9e9a8d0e678460405161073091906119ad565b60405180910390a250505050610744611581565b565b61074e611852565b600760003373ffffffffffffffffffffffffffffffffffffffff1673ffffffffffffffffffffffffffffffffffffffff1681526020019081526020016000206040518060e00160405290816000820160009054906101000a900473ffffffffffffffffffffffffffffffffffffffff1673ffffffffffffffffffffffffffffffffffffffff1673ffffffffffffffffffffffffffffffffffffffff1681526020016001820160009054906101000a900473ffffffffffffffffffffffffffffffffffffffff1673ffffffffffffffffffffffffffffffffffffffff1673ffffffffffffffffffffffffffffffffffffffff1681526020016001820160149054906101000a90046bffffffffffffffffffffffff166bffffffffffffffffffffffff166bffffffffffffffffffffffff1681526020016002820160009054906101000a90046bffffffffffffffffffffffff166bffffffffffffffffffffffff166bffffffffffffffffffffffff16815260200160028201600c9054906101000a90046bffffffffffffffffffffffff166bffffffffffffffffffffffff166bffffffffffffffffffffffff1681526020016002820160189054906101000a900467ffffffffffffffff1667ffffffffffffffff1667ffffffffffffffff1681526020016003820160009054906101000a900463ffffffff1663ffffffff1663ffffffff1681525050905090565b60035481565b61096961158b565b6109736000611612565b565b61097d61158b565b6103e881106109c1576040517f08c379a00000000000000000000000000000000000000000000000000000000081526004016109b890612181565b60405180910390fd5b8060028190555050565b6000806109d66116e9565b90508060000160009054906101000a900473ffffffffffffffffffffffffffffffffffffffff1691505090565b6000600560008373ffffffffffffffffffffffffffffffffffffffff1673ffffffffffffffffffffffffffffffffffffffff168152602001908152602001600020549050919050565b60025481565b600860009054906101000a900463ffffffff1681565b600660009054906101000a900473ffffffffffffffffffffffffffffffffffffffff1681565b6000610a98611711565b905060008160000160089054906101000a900460ff1615905060008260000160009054906101000a900467ffffffffffffffff1690506000808267ffffffffffffffff16148015610ae65750825b9050600060018367ffffffffffffffff16148015610b1b575060003073ffffffffffffffffffffffffffffffffffffffff163b145b905081158015610b29575080155b15610b60576040517ff92ee8a900000000000000000000000000000000000000000000000000000000815260040160405180910390fd5b60018560000160006101000a81548167ffffffffffffffff021916908367ffffffffffffffff1602179055508315610bb05760018560000160086101000a81548160ff0219169083151502179055505b610bb933611725565b85600160006101000a81548173ffffffffffffffffffffffffffffffffffffffff021916908373ffffffffffffffffffffffffffffffffffffffff1602179055508315610c565760008560000160086101000a81548160ff0219169083151502179055507fc7f505b2f371ae2175ee4913f4499e1f2633a7b5936321eed1cdaeb6115181d26001604051610c4d91906121dc565b60405180910390a15b505050505050565b600160009054906101000a900473ffffffffffffffffffffffffffffffffffffffff1681565b610c8c61158b565b610c9461153b565b610c9c6109cb565b73ffffffffffffffffffffffffffffffffffffffff163373ffffffffffffffffffffffffffffffffffffffff1614610d09576040517f08c379a0000000000000000000000000000000000000000000000000000000008152600401610d0090612243565b60405180910390fd5b3373ffffffffffffffffffffffffffffffffffffffff166108fc829081150290604051600060405180830381858888f19350505050158015610d4f573d6000803e3d6000fd5b508060036000828254610d6291906120cd565b925050819055503373ffffffffffffffffffffffffffffffffffffffff167fd116803f8b8538a601b6096e8d1196e3ce3ef43dec6dbbe4cd4e5c69dd171d8b82604051610daf91906119ad565b60405180910390a2610dbf611581565b50565b6000600454905090565b60076020528060005260406000206000915090508060000160009054906101000a900473ffffffffffffffffffffffffffffffffffffffff16908060010160009054906101000a900473ffffffffffffffffffffffffffffffffffffffff16908060010160149054906101000a90046bffffffffffffffffffffffff16908060020160009054906101000a90046bffffffffffffffffffffffff169080600201600c9054906101000a90046bffffffffffffffffffffffff16908060020160189054906101000a900467ffffffffffffffff16908060030160009054906101000a900463ffffffff16905087565b610ec261158b565b600073ffffffffffffffffffffffffffffffffffffffff168173ffffffffffffffffffffffffffffffffffffffff1603610f345760006040517f1e4fbdf7000000000000000000000000000000000000000000000000000000008152600401610f2b9190611b51565b60405180910390fd5b610f3d81611612565b50565b60003411610f83576040517f08c379a0000000000000000000000000000000000000000000000000000000008152600401610f7a906122af565b60405180910390fd5b600160009054906101000a900473ffffffffffffffffffffffffffffffffffffffff1673ffffffffffffffffffffffffffffffffffffffff1663b60edbbe826040518263ffffffff1660e01b8152600401610fde9190611b51565b602060405180830381865afa158015610ffb573d6000803e3d6000fd5b505050506040513d601f19601f8201168201806040525081019061101f91906122cf565b61105e576040517f08c379a000000000000000000000000000000000000000000000000000000000815260040161105590612348565b60405180910390fd5b6000600160009054906101000a900473ffffffffffffffffffffffffffffffffffffffff1673ffffffffffffffffffffffffffffffffffffffff166362bc56e6836040518263ffffffff1660e01b81526004016110bb9190611b51565b600060405180830381865afa1580156110d8573d6000803e3d6000fd5b505050506040513d6000823e3d601f19601f820116820180604052508101906111019190611e60565b505050509050600073ffffffffffffffffffffffffffffffffffffffff168173ffffffffffffffffffffffffffffffffffffffff1603611176576040517f08c379a000000000000000000000000000000000000000000000000000000000815260040161116d906123b4565b60405180910390fd5b60006103e860025434611189919061202b565b611193919061209c565b9050600081346111a391906120cd565b90506040518060e001604052808473ffffffffffffffffffffffffffffffffffffffff1681526020013373ffffffffffffffffffffffffffffffffffffffff168152602001346bffffffffffffffffffffffff168152602001836bffffffffffffffffffffffff168152602001826bffffffffffffffffffffffff1681526020014267ffffffffffffffff1681526020016008600081819054906101000a900463ffffffff1680929190611256906123d4565b91906101000a81548163ffffffff021916908363ffffffff16021790555063ffffffff16815250600760003373ffffffffffffffffffffffffffffffffffffffff1673ffffffffffffffffffffffffffffffffffffffff16815260200190815260200160002060008201518160000160006101000a81548173ffffffffffffffffffffffffffffffffffffffff021916908373ffffffffffffffffffffffffffffffffffffffff16021790555060208201518160010160006101000a81548173ffffffffffffffffffffffffffffffffffffffff021916908373ffffffffffffffffffffffffffffffffffffffff16021790555060408201518160010160146101000a8154816bffffffffffffffffffffffff02191690836bffffffffffffffffffffffff16021790555060608201518160020160006101000a8154816bffffffffffffffffffffffff02191690836bffffffffffffffffffffffff160217905550608082015181600201600c6101000a8154816bffffffffffffffffffffffff02191690836bffffffffffffffffffffffff16021790555060a08201518160020160186101000a81548167ffffffffffffffff021916908367ffffffffffffffff16021790555060c08201518160030160006101000a81548163ffffffff021916908363ffffffff160217905550905050816003600082825461145a9190612101565b9250508190555034600460008282546114739190612101565b9250508190555080600560008573ffffffffffffffffffffffffffffffffffffffff1673ffffffffffffffffffffffffffffffffffffffff16815260200190815260200160002060008282546114c99190612101565b925050819055508273ffffffffffffffffffffffffffffffffffffffff163373ffffffffffffffffffffffffffffffffffffffff167f75104157b9f31839796f032ad698701badf2fdb84bc160387e540e16faa22fe63460405161152d91906119ad565b60405180910390a350505050565b600260005403611577576040517f3ee5aeb500000000000000000000000000000000000000000000000000000000815260040160405180910390fd5b6002600081905550565b6001600081905550565b611593611739565b73ffffffffffffffffffffffffffffffffffffffff166115b16109cb565b73ffffffffffffffffffffffffffffffffffffffff1614611610576115d4611739565b6040517f118cdaa70000000000000000000000000000000000000000000000000000000081526004016116079190611b51565b60405180910390fd5b565b600061161c6116e9565b905060008160000160009054906101000a900473ffffffffffffffffffffffffffffffffffffffff169050828260000160006101000a81548173ffffffffffffffffffffffffffffffffffffffff021916908373ffffffffffffffffffffffffffffffffffffffff1602179055508273ffffffffffffffffffffffffffffffffffffffff168173ffffffffffffffffffffffffffffffffffffffff167f8be0079c531659141344cd1fd0a4f28419497f9722a3daafe3b4186f6b6457e060405160405180910390a3505050565b60007f9016d09d72d40fdae2fd8ceac6b6234c7706214fd39c1cd1e609a0528c199300905090565b60008061171c611741565b90508091505090565b61172d61176c565b611736816117ac565b50565b600033905090565b60007ff0c57e16840df040f15088dc2f81fe391c3923bec73e23a9662efc9c229c6a0060001b905090565b611774611832565b6117aa576040517fd7e6bcf800000000000000000000000000000000000000000000000000000000815260040160405180910390fd5b565b6117b461176c565b600073ffffffffffffffffffffffffffffffffffffffff168173ffffffffffffffffffffffffffffffffffffffff16036118265760006040517f1e4fbdf700000000000000000000000000000000000000000000000000000000815260040161181d9190611b51565b60405180910390fd5b61182f81611612565b50565b600061183c611711565b60000160089054906101000a900460ff16905090565b6040518060e00160405280600073ffffffffffffffffffffffffffffffffffffffff168152602001600073ffffffffffffffffffffffffffffffffffffffff16815260200160006bffffffffffffffffffffffff16815260200160006bffffffffffffffffffffffff16815260200160006bffffffffffffffffffffffff168152602001600067ffffffffffffffff168152602001600063ffffffff1681525090565b6000604051905090565b600080fd5b600080fd5b600073ffffffffffffffffffffffffffffffffffffffff82169050919050565b600061193482611909565b9050919050565b61194481611929565b811461194f57600080fd5b50565b6000813590506119618161193b565b92915050565b60006020828403121561197d5761197c6118ff565b5b600061198b84828501611952565b91505092915050565b6000819050919050565b6119a781611994565b82525050565b60006020820190506119c2600083018461199e565b92915050565b6119d181611929565b82525050565b60006bffffffffffffffffffffffff82169050919050565b6119f8816119d7565b82525050565b600067ffffffffffffffff82169050919050565b611a1b816119fe565b82525050565b600063ffffffff82169050919050565b611a3a81611a21565b82525050565b60e082016000820151611a5660008501826119c8565b506020820151611a6960208501826119c8565b506040820151611a7c60408501826119ef565b506060820151611a8f60608501826119ef565b506080820151611aa260808501826119ef565b5060a0820151611ab560a0850182611a12565b5060c0820151611ac860c0850182611a31565b50505050565b600060e082019050611ae36000830184611a40565b92915050565b611af281611994565b8114611afd57600080fd5b50565b600081359050611b0f81611ae9565b92915050565b600060208284031215611b2b57611b2a6118ff565b5b6000611b3984828501611b00565b91505092915050565b611b4b81611929565b82525050565b6000602082019050611b666000830184611b42565b92915050565b611b7581611a21565b82525050565b6000602082019050611b906000830184611b6c565b92915050565b6000819050919050565b6000611bbb611bb6611bb184611909565b611b96565b611909565b9050919050565b6000611bcd82611ba0565b9050919050565b6000611bdf82611bc2565b9050919050565b611bef81611bd4565b82525050565b6000602082019050611c0a6000830184611be6565b92915050565b611c19816119d7565b82525050565b611c28816119fe565b82525050565b600060e082019050611c43600083018a611b42565b611c506020830189611b42565b611c5d6040830188611c10565b611c6a6060830187611c10565b611c776080830186611c10565b611c8460a0830185611c1f565b611c9160c0830184611b6c565b98975050505050505050565b600081519050611cac8161193b565b92915050565b600081519050611cc181611ae9565b92915050565b60008115159050919050565b611cdc81611cc7565b8114611ce757600080fd5b50565b600081519050611cf981611cd3565b92915050565b600080fd5b600080fd5b6000601f19601f8301169050919050565b7f4e487b7100000000000000000000000000000000000000000000000000000000600052604160045260246000fd5b611d5282611d09565b810181811067ffffffffffffffff82111715611d7157611d70611d1a565b5b80604052505050565b6000611d846118f5565b9050611d908282611d49565b919050565b600067ffffffffffffffff821115611db057611daf611d1a565b5b611db982611d09565b9050602081019050919050565b60005b83811015611de4578082015181840152602081019050611dc9565b60008484015250505050565b6000611e03611dfe84611d95565b611d7a565b905082815260208101848484011115611e1f57611e1e611d04565b5b611e2a848285611dc6565b509392505050565b600082601f830112611e4757611e46611cff565b5b8151611e57848260208601611df0565b91505092915050565b600080600080600060a08688031215611e7c57611e7b6118ff565b5b6000611e8a88828901611c9d565b9550506020611e9b88828901611cb2565b9450506040611eac88828901611cea565b935050606086015167ffffffffffffffff811115611ecd57611ecc611904565b5b611ed988828901611e32565b925050608086015167ffffffffffffffff811115611efa57611ef9611904565b5b611f0688828901611e32565b9150509295509295909350565b600082825260208201905092915050565b7f4e6f74207265636f676e69736564000000000000000000000000000000000000600082015250565b6000611f5a600e83611f13565b9150611f6582611f24565b602082019050919050565b60006020820190508181036000830152611f8981611f4d565b9050919050565b7f4e6f7420656e6f7567682062616c616e63650000000000000000000000000000600082015250565b6000611fc6601283611f13565b9150611fd182611f90565b602082019050919050565b60006020820190508181036000830152611ff581611fb9565b9050919050565b7f4e487b7100000000000000000000000000000000000000000000000000000000600052601160045260246000fd5b600061203682611994565b915061204183611994565b925082820261204f81611994565b9150828204841483151761206657612065611ffc565b5b5092915050565b7f4e487b7100000000000000000000000000000000000000000000000000000000600052601260045260246000fd5b60006120a782611994565b91506120b283611994565b9250826120c2576120c161206d565b5b828204905092915050565b60006120d882611994565b91506120e383611994565b92508282039050818111156120fb576120fa611ffc565b5b92915050565b600061210c82611994565b915061211783611994565b925082820190508082111561212f5761212e611ffc565b5b92915050565b7f4869676820666565000000000000000000000000000000000000000000000000600082015250565b600061216b600883611f13565b915061217682612135565b602082019050919050565b6000602082019050818103600083015261219a8161215e565b9050919050565b6000819050919050565b60006121c66121c16121bc846121a1565b611b96565b6119fe565b9050919050565b6121d6816121ab565b82525050565b60006020820190506121f160008301846121cd565b92915050565b7f4e6f74204f776e65720000000000000000000000000000000000000000000000600082015250565b600061222d600983611f13565b9150612238826121f7565b602082019050919050565b6000602082019050818103600083015261225c81612220565b9050919050565b7f496e76616c696420416d6f756e74000000000000000000000000000000000000600082015250565b6000612299600e83611f13565b91506122a482612263565b602082019050919050565b600060208201905081810360008301526122c88161228c565b9050919050565b6000602082840312156122e5576122e46118ff565b5b60006122f384828501611cea565b91505092915050565b7f436f6d70616e79204e6f7420466f756e64000000000000000000000000000000600082015250565b6000612332601183611f13565b915061233d826122fc565b602082019050919050565b6000602082019050818103600083015261236181612325565b9050919050565b7f41646472657373204e6f7420466f756e64000000000000000000000000000000600082015250565b600061239e601183611f13565b91506123a982612368565b602082019050919050565b600060208201905081810360008301526123cd81612391565b9050919050565b60006123df82611a21565b915063ffffffff82036123f5576123f4611ffc565b5b60018201905091905056fea26469706673582212202b5feb141dc27afb277c8fad66fbd45484b49eaef1689aeaa75708a5bf059ceb64736f6c634300081c0033",
  "linkReferences": {},
  "deployedLinkReferences": {}
}